:020000040800F2
:100000005807002089010008211200081912000871
:100010001D120008D102000835120008000000007F
:10002000000000000000000000000000291200088D
:10003000D502000800000000251200082D1200085B
:10004000A3010008A3010008A3010008A301000800
:10005000A3010008A3010008A3010008A3010008F0
:10006000A3010008A3010008A3010008A3010008E0
:10007000A3010008A3010008A3010008A3010008D0
:10008000A3010008A3010008A3010008A3010008C0
:10009000A3010008A3010008A3010008A3010008B0
:1000A000A3010008A3010008A3010008A3010008A0
:1000B000A3010008A301000800000000A30100083C
:1000C000A30100080000000000000000A3010008D8
:1000D00000000000A3010008A301000800000000C8
:1000E000A3010008A3010008A301000800F002F822
:1000F00000F03AF80AA090E8000C82448344AAF188
:100100000107DA4501D100F02FF8AFF2090EBAE885
:100110000F0013F0010F18BFFB1A43F0010318473B
:10012000DC1B0000FC1B0000103A24BF78C878C11B
:10013000FAD8520724BF30C830C144BF04680C60ED
:10014000704700000023002400250026103A28BF35
:1001500078C1FBD8520728BF30C148BF0B60704739
:100160001FB51FBD10B510BD00F077F81146FFF7A1
:10017000F7FF01F061F800F095F803B4FFF7F2FF24
:1001800003BC00F09DF8000009488047094800477B
:10019000FEE7FEE7FEE7FEE7FEE7FEE7FEE7FEE737
:1001A000FEE7FEE704480549054A064B7047000094
:1001B00031120008ED000008580100205807002007
:1001C000580300205803002010B5431C02E010F82B
:1001D000011B71B18107FAD14FF0013202C88C1AAC
:1001E0008C4314EAC211F9D0C01A0A0603D0C01E0B
:1001F00010BDC01A10BD0A0401D0801E10BD090236
:10020000FCD0401E10BD4FF0000200B513469446CE
:100210009646203922BFA0E80C50A0E80C50B1F15E
:100220002001BFF4F7AF090728BFA0E80C5048BF72
:100230000CC05DF804EB890028BF40F8042B08BF10
:10024000704748BF20F8022B11F0804F18BF00F80C
:10025000012B7047704770477047754600F02CF8C7
:10026000AE4605006946534620F00700854618B0A3
:1002700020B5FFF797FFBDE820404FF000064FF094
:1002800000074FF000084FF0000BAC46ACE8C00987
:10029000ACE8C009ACE8C009ACE8C00921F007012E
:1002A0008D46704710B50446AFF300802046BDE888
:1002B0001040FFF762BF0000004870474000002078
:1002C00001491820ABBEFEE726000200704700007F
:1002D000FEE7000070470000B0B5044600F020F9CA
:1002E000054640F23000C2F200000078611C18BFE1
:1002F000044400BF00F014F9401BA042FAD3B0BD83
:100300002DE9F04F82B00E68002E00F0F98041F226
:100310000002C4F20102032340F2004E904208BFE3
:1003200002234FF6FF7CC4F2010E00930024012348
:10033000C1F2100C4FF0000B4FF0000950E000BF6D
:1003400040F60042C4F20102009F904208BF01271C
:1003500004F00C030F229A402AEA020207FA03F380
:100360004FEA9B051A4346F82520D1F804A040F235
:100370000C455FEACA22DEF8082054BF22EA0802D0
:1003800042EA0802C4F20105CEF808202A685FEAB2
:100390008A2354BF22EA080242EA08022A605FEA7E
:1003A0008A33DEF8042054BF22EA080242EA080237
:1003B0005FEACA33CEF80420DEF800204FF00103D4
:1003C00054BF22EA080242EA0802CEF800200E6872
:1003D0000BF1010B36FA0BF204F1040400F09080EB
:1003E00003FA0BF816EA080FF1D04E68664511DCE7
:1003F000122E55D8DFE806F0340A444854545454B9
:100400005454545454545454544C5000D1F80C90F7
:1004100046E000BF4FF6FF72C1F2210296420FDCA8
:100420000022C1F2110296421AD00022C1F2120239
:10043000964215D00022C1F22102964210D02FE040
:100440000022C1F2220296420AD00022C1F23102F9
:10045000964205D00022C1F23202964220D100BF5E
:100460008A684AB1012A14BFC0F81480C0F810800D
:100470004FF0080914E000BF4FF0040910E000BF7E
:10048000CA6802F108090BE04FF0000908E000BF5C
:10049000CA6802F1040903E0CA6802F10C0900BF4E
:1004A00022460646BBF1080F24BF203A04363768BF
:1004B0000F25954027EA050509FA02F22A43326022
:1004C000CA79D2067FF583AF41F21803C4F2020362
:1004D0001A68AEF57E7642F001021A601A6802F0E0
:1004E00001020192019A2BF0030256F802A040F695
:1004F0000002C4F2010290427FF422AF002727E7F6
:1005000002B0BDE8F08F00008068084018BF0120ED
:1005100070470000002A08BF09040161704700000D
:1005200040F25010C2F200000068704770B5B8B3D6
:10053000044690F83D0028B9002084F83C0020468D
:1005400000F0B0F8242084F83D002068016821F014
:1005500001010160016841F400410160016821F47A
:100560000041016000F054FA48F28041C0F21E01DF
:1005700040F60013D4F804E088424FF00001C0F2C6
:100580003D0348F2A16C4FF0000238BF01219842B0
:10059000C0F2010C38BF0122E64538BF0A460AB155
:1005A000012070BD4DF68361C4F21B31A0FB011226
:1005B0002168950C4B684FF4967623F03F0343EA8D
:1005C0009243754344F6D3564B60C1F262060B6A00
:1005D000A5FB0656B50923F03F03E64538BF950C49
:1005E0006A1C1A430A62CA6948F2A0664CF6FF7395
:1005F000C0F20106B64522EA03020BD801384FEAE1
:100600004E03B0FBF3F001306FF31F30042898BFA6
:1006100004201EE0A368013863B119230EFB03F325
:10062000B0FBF3F001306FF31F3078B100F580407C
:1006300008E000BF0EEB4E03B0FBF3F001306FF3A8
:100640001F3028B100F5004003E000BF012000E0AA
:1006500001201043C8610868D4E9072320F0C000D6
:10066000104318430860886848F2FF3204F10C0612
:1006700090434CCE18431043A5698860C86820F0A9
:10068000FF0030432843C860086840F0010008605C
:1006900000202021206484F83D10206384F83E006F
:1006A00070BD000010B586B0016845F20040C4F28C
:1006B0000000814202D006B010BD00BF41F2180414
:1006C000C4F20204216800F5384041F008012160BD
:1006D000216801F0080102910299C02102911221C2
:1006E0000391002104910321059102A9FFF708FE5F
:1006F000606840F400106060606800F400100190D1
:10070000019806B010BD000040F2300040F25011D8
:10071000C2F20000C2F2000100780A6810440860CA
:100720007047000080B542F20000C4F20200016888
:1007300041F010010160032000F07AF80F2000F072
:1007400005F800F027F8002080BD000070B540F2E9
:100750003006C2F2000640F238013278C2F20001DF
:100760004FF47A730968B3FBF2F20446B1FBF2F17D
:10077000084600F04FFB0F2C4FF0010508D838B9A0
:100780004FF0FF3021460022002500F025F874606C
:10079000284670BD82B041F21800C4F20200016820
:1007A000022241F001010160016801F001010191A3
:1007B0000199416841F080514160406800F08050EB
:1007C000009000980420C4F20100016862F31A61ED
:1007D000016002B07047000010B54EF60C5CCEF21E
:1007E000000CDCF80030C3F3022E8EF00704042C5A
:1007F00028BF0424BEF103034FF0FF3E0EFA04F4B9
:1008000038BF0023A14399400EFA03F39A431143E2
:1008100000F00F0200F160430901043A03F564435C
:100820006244002848BF02F10C03197010BD00009B
:100830004EF60C51CEF200010A684FF6FF031A4043
:1008400060F30A2242F0806040F0FD70086070475B
:100850002DE9F04381B0002800F0858042F20008C5
:10086000C4F202080446D8F800000D4600F0070064
:1008700088420CD2D8F8000020F007002843C8F8BE
:100880000000D8F8000000F00700A8426BD12068F3
:1008900041F204098107C4F2020917D5410705D5C1
:1008A000D9F8001041F4E061C9F80010010705D53E
:1008B000D9F8001041F46051C9F80010D9F80010BF
:1008C000A26821F0F0011143C9F80010C00741D11E
:1008D000D8F8000000F00700A8420CD9D8F80000B2
:1008E00020F007002843C8F80000D8F8000000F006
:1008F0000700A84237D12068410707D5D9F8001072
:10090000E26821F4E0611143C9F80010000708D53E
:10091000D9F80000216920F4605040EAC100C9F80C
:100920000000D9F8002002F00C00082841F2002055
:10093000C0F27A0050D141F6B243C2F38341C0F60F
:100940000003595CD2033BD440F60010C0F23D00D6
:10095000484341E0606802280AD001282AD159F8AA
:10096000041C890308D4012001B0BDE8F08300BF56
:1009700059F8041C8901F6D5D9F8001021F00301BB
:100980000843C9F80000FFF7CBFD064641F288375F
:10099000D9F80000616800F00C00B0EB810F97D02F
:1009A000FFF7BEFD801BB842F2D9032001B0BDE8BD
:1009B000F08300BF59F8041C8907D4D5DCE700BFD9
:1009C000D9F8002041F6B043C2F34042C0F600031C
:1009D0009A5C4843B0FBF2F0D9F8001041F6984217
:1009E000C1F30311C0F60002515C40F2380220FA54
:1009F00001F140F23400C2F200000068C2F20002CD
:100A00001160FFF7A3FE002001B0BDE8F0830000F5
:100A100040F2380041F20401C2F20000C4F20201C7
:100A20000068096841F6A842C1F30221C0F600023D
:100A3000515CC8407047000040F2380041F20401A8
:100A4000C2F20000C4F202010068096841F6A8423F
:100A5000C1F3C221C0F60002515CC84070470000DB
:100A60002DE9F04182B0002868D00446007841F2B8
:100A70000006C007C4F2020625D0706800F00C0022
:100A800004281BD0706800F00C00082802D17068A0
:100A9000C00313D46068002800F06881B0F5A02F6F
:100AA00000F07C81B0F5803F00F07C81306820F45C
:100AB00080303060306820F4802076E13068800338
:100AC00001D56068D0B32078800718D5706810F021
:100AD0000C0F07D0706800F00C0008286ED1706809
:100AE000C0036BD43068800702D52069012825D166
:100AF0003068616920F0F80040EAC1003060207879
:100B000000071FD42078400732D4E56995B170689A
:100B100000F00C00082840F08F80012D0ED0706886
:100B2000216A00F480328A4208D1616A00F47010B0
:100B3000884203D1002002B0BDE8F081012002B05C
:100B4000BDE8F081A069002862D00020C4F24220F4
:100B50000121C0F88014FFF7E3FC0546706A8007A6
:100B600000F18C80FFF7DCFC401B0228F6D92AE15B
:100B7000F06910F0805808D1F06940F08050F061C1
:100B8000F06900F080500090009847F20007C4F22E
:100B900000073868C00529D4386840F48070386090
:100BA000FFF7BEFC054600BF3868C0051ED4FFF73E
:100BB000B7FC401B6428F7D905E100BF2069002875
:100BC00040F20000C4F2422000F082800121016066
:100BD000FFF7A6FC054600BF306880073FF588AFE9
:100BE000FFF79EFC401B0228F6D9ECE0E0680028E5
:100BF00000F08080052800F09780012800F09880A0
:100C0000306A20F001003062306A20F0040092E087
:100C10000020C4F242200021C0F88014FFF780FCBD
:100C2000054600BF706A80077FF56CAFFFF778FC60
:100C3000401B0228F6D9C6E00027C4F24227002054
:100C40003866FFF76DFC022D05460BD13068800138
:100C500040F1BE80FFF764FC401B02284FF0030008
:100C6000F4D968E7306880017FF564AFFFF758FC7E
:100C7000401B02284FF00300F4D95CE740F2380033
:100C8000C2F20000006844F6D351C1F26201A0FB39
:100C90000101480A019000BF00BF0198411E0028D1
:100CA00001913FF42FAF00BF0198411E0028019130
:100CB0003FF428AF00BF0198411E002801913FF486
:100CC00021AF00BF0198411E00280191E4D119E72E
:100CD00000210160FFF724FC054600BF3068800753
:100CE0007FF50DAFFFF71CFC401B02284FF00300FF
:100CF000F4D920E7306A20F001003062306A20F039
:100D000004003062FFF70CFC054641F2883700BF53
:100D1000306A800720D5FFF703FC401BB8424FF034
:100D20000300F5D907E700BF306A40F004003062E5
:100D3000306A40F001003062FFF7F2FB054641F2F5
:100D4000883700BF306A800706D4FFF7E9FB401BF5
:100D5000B842F7D937E000BFB8F1000F7FF4D5AE45
:100D6000F06920F08050F061CFE600BF306820F4D9
:100D700080303060306820F480203060FFF7D0FB96
:100D8000054600BF306880037FF59DAEFFF7C8FBC6
:100D9000401B64284FF00300F4D9CCE6306840F4DF
:100DA00080203060306840F480303060FFF7B8FB5E
:100DB000054600BF306880033FF585AEFFF7B0FB06
:100DC000401B6428F6D9032002B0BDE8F08100BFC3
:100DD000206AB0F5803F05D17168A26821F4003126
:100DE000114371607168626A21F474111143084300
:100DF000706001203866FFF793FB0446306880017D
:100E00003FF598AEFFF78CFB001B02284FF0030064
:100E1000F4D990E6411E0020B0EB116F1CBF0120F9
:100E200070474EF21002CEF2000251604EF623518E
:100E3000CEF20001F0230B70072190601160704723
:100E4000002804BF0120704710B5044690F8410007
:100E500028B9002084F84000204600F063F82420E0
:100E600084F841002068D4E90212C36823F40053D7
:100E7000C360036923F440531A430261D4E9042395
:100E80001143C268194341F20C639A431143C16094
:100E90004169A26921F44071114343F60002C4F292
:100EA00001029042416103D0FFF7B2FD02E000BFB2
:100EB000FFF7C2FD6268192148439100B0FBF1F0D1
:100EC00048F21F51C5F2EB11A0FB01235A094FF65E
:100ED0009C73C0F6FF7302FB0300322303EB001088
:100EE000A0FB0101F02303EA5113206803EB021277
:100EF000C1F3431111448160016921F49041016102
:100F0000416921F02A014161C16841F40051C16089
:100F100000202021606484F8411084F8421060634E
:100F200010BD000070B586B040F60004C4F20104A4
:100F3000006804F5405100268842049602D006B0AD
:100F400070BD00BF41F21800C4F20200016802AD9A
:100F500041F480410160016801F4804101910199EF
:100F6000016841F0040101600068294600F00400B6
:100F7000019001984FF4007002900220039003202A
:100F800005902046FFF7BCF94FF48060CDE90206DA
:100F9000204629460496FFF7B3F906B070BD00005D
:100FA0002DE9F04381B0044690F84100202840F03C
:100FB000B180884600294FF0010000F0D680164627
:100FC000002A00F0D2800020606421201D4684F8B1
:100FD0004100FFF7A5FAA684E684A1680646B1F5AC
:100FE000805F03D12069002800F0988047464FF0C9
:100FF0000008E18C2068002900F0968005F10109C5
:101000000BE000BF47B317F8011B4160E18C0139C9
:10101000E184E18C002900F0878001680906F1D4A1
:10102000B9F1000F0AD0EDB1FFF77AFA801BA842A0
:1010300018D8206801680906F6D5E3E701680906B3
:10104000E0D4016809065CBF01685FEA0161D9D498
:1010500001680906F2D5D5E738F8021B00276FF3BF
:101060005F21D2E7206850E8030F216820F4D07098
:1010700041E80302BAB3206850E8030F216820F466
:10108000D07041E8030272B3206850E8030F216872
:1010900020F4D07041E803022AB3206850E8030F1F
:1010A000216820F4D07041E80302002ADAD11AE066
:1010B000206850E8050F216820F0010041E8050292
:1010C000DAB1206850E8050F216820F0010041E8FE
:1010D000050292B1206850E8050F216820F0010058
:1010E00041E805024AB1206850E8050F216820F068
:1010F000010041E80502002ADAD1202084F84100ED
:1011000084F84200002084F84000032001B0BDE8CC
:10111000F08300BF022001B0BDE8F0830027E18C1E
:10112000206800297FF46AAF0168490619D4FDB12F
:10113000691C0DD10168490613D4016849065CBFDA
:1011400001685FEA41610CD401684906F2D508E004
:10115000FFF7E6F9801BA8420AD82068006840061D
:10116000F6D5202084F84100002001B0BDE8F083CE
:10117000206850E8030F216820F4D07041E8030292
:10118000002A3ED0206850E8030F216820F4D07078
:1011900041E80302AAB3206850E8030F216820F455
:1011A000D07041E8030262B3206850E8030F216861
:1011B00020F4D07041E80302002AD9D121E000BF19
:1011C000206850E8050F216820F0010041E8050281
:1011D000002A3FF492AF206850E8050F216820F004
:1011E000010041E80502002A3FF487AF206850E87B
:1011F000050F216820F0010041E80502002A3FF4B4
:101200007CAF206850E8050F216820F0010041E81C
:101210000502002AD4D170E7FEE70000FEE70000D7
:10122000FEE700007047000070470000FFF76CBA4F
:1012300070470000FEE70000A2B0FFF773FA18AC99
:10124000201D2421FEF7DFFF0220189001201C90B2
:1012500010201D90002520461F95FFF701FC28B1A6
:10126000EFF3108072B600BFFEE700BF4FF00F092A
:1012700013A80021CDE91395CDE915551795FFF772
:10128000E7FA28B1EFF3108072B600BFFEE700BFA7
:1012900041F21800C4F20200016840F6000841F073
:1012A000100101600168C4F2010801F010011891F9
:1012B0001899016808F5006541F0040101600168B2
:1012C000002201F004011891189901684FF40056AA
:1012D00041F00801016000684FF4005100F008007F
:1012E0001890189828460027FFF714F940460F2158
:1012F0000022FFF70FF9189618AE01244FF0020AEA
:1013000028463146CDE91947CDF86CA0FEF7F8FF25
:1013100040463146CDE91894CDE91A7AFEF7F0FF40
:10132000F020CDE91807404631461A94FEF7E8FF51
:1013300040F2FC00A8F53441C2F2000048F2A0627D
:101340004FF48043C0F2010280E88600C0E90373D5
:10135000C0E90577C0E90777FFF7E8F820B1EFF3B8
:10136000108072B6FEE700BF40F2A005C2F2000591
:1013700008F54051284640F8141F4FF4E1310C2283
:10138000C0E90117C0E90377C0E90527C761FFF786
:1013900057FD28B1EFF3108072B600BFFEE700BF23
:1013A00040F20004C2F2000404F109084046FEF7CE
:1013B0000BFF05F1140682B2304641466423FFF765
:1013C000EFFD41F68040C0F60000D0E90071D0F892
:1013D00014A0129181680DF160091191C1684FF05C
:1013E000000B1091016941F6C440C0F600000F9156
:1013F000016808970E9141680D9181680C91C16850
:101400000B91016940690A91099041F6DC40C0F6F0
:101410000000016807914168069181680591C168E3
:10142000049101690391416902918169C069019147
:1014300000901BE00420089F2871A4F803B00E98C8
:1014400018900D9819900C981A900B981B900A9868
:101450001C9009981D904846FEF7B6FE82B23046B1
:1014600049466423FFF79CFD0320A07000F0AAF911
:10147000FF2803D0E8706420FEF72EFFE978A078FB
:10148000412908BF00282FD023295FD02A2915D150
:10149000287840B1411E284600F8141B611C012227
:1014A0006423FFF77DFD687838B101386870611CEE
:1014B000304601226423FFF773FDA07803285FD034
:1014C00001282ED00028D1D1E878303809283FD81B
:1014D0002878002800F0C280032840F2C980C0B2FA
:1014E000042835D1DCE000BF3046214601226423C8
:1014F000FFF756FD12981897199011981A901098A6
:101500001B900F98CDE91C0A4846FEF75DFE82B29B
:10151000304649466423FFF743FD0120A5F800B09B
:10152000A070E8783038092807D82878002857D0E4
:1015300003285ED9C0B2042872D020790128E07057
:1015400000F0FD8000283FF47AAF8FE784F802B006
:1015500020790128E07017D000287FF487AF40463B
:10156000FEF732FE82B2304641466423FFF718FD93
:10157000022085F802B084F802B0207176E700BF3F
:1015800000F084FA72E700BFA878022101302171CF
:10159000C1B20329A8707FF469AF30462146012209
:1015A000642385F802B0FFF7FBFC079818900698B3
:1015B000199005981A9004981B9003981C90029813
:1015C0001D9001981E9000981F904846FEF7FCFD64
:1015D00082B2304649466423FFF7E2FC46E700BF8B
:1015E0003046214601226423FFF7DAFC28780328DD
:1015F000A0D8E978284441712A20ADF86000484617
:10160000FEF7E2FD82B2304649466423FFF7C8FC8C
:10161000287885F803B001302870C0B204288CD136
:10162000002730462146012264232F70FFF7B8FCC3
:1016300060796979884256D1A079A97988420BD11D
:10164000E079E97988424DD1207A297A88423FF4BD
:10165000F1AE032747E000BF012744E030462146B2
:1016600001226423FFF79CFC287803283FF637AF5C
:10167000E978284441712A20ADF860004846FEF719
:10168000A3FD82B2304649466423FFF789FC2878DF
:1016900085F803B001302870C0B204287FF458AF39
:1016A00047464FF00008304621460122642385F862
:1016B0000080FFF775FC60796979884258D1A0797C
:1016C000A97988424AD1E079E97988424AD1207AD9
:1016D000297A88424AD10420B846089F2871A4F884
:1016E00003B03CE702270120207130462146012249
:1016F00064232F71FFF754FC46F27240C0F22100C0
:101700001B9047F27330C6F677701A9042F267006A
:10171000C6F25010199047F25720C6F66F60189025
:101720004846FEF751FD82B2304649466423FFF732
:1017300037FC089F20790128E0707FF403AF4FF455
:10174000FA70FEF7C9FD3046214601226423FFF7F7
:1017500027FC4FF40070608088E600BF4FF001085E
:1017600006E000BF4FF0020802E000BF4FF00308A0
:1017700001202071304621460122642385F804802F
:10178000FFF70EFC46F27240C0F221001B9047F2B8
:101790007330C6F677701A9042F26700C6F25010A6
:1017A000199047F25720C6F66F6018904846FEF72A
:1017B0000BFD82B2304649466423FFF7F1FBB84681
:1017C000089FC5E610B540F60004C4F201042046A7
:1017D00001210022FEF79EFE204602210122FEF793
:1017E00099FE204604210122FEF794FE204608219E
:1017F0000122FEF78FFE20461021FEF785FE00280D
:1018000000F0AE8020462021FEF77EFE002800F08A
:10181000B18020464021FEF777FE002800F0B4801A
:1018200020468021FEF770FE002800F0B780204699
:1018300001210122FEF76EFE204602210022FEF762
:1018400069FE204604210122FEF764FE204608219D
:101850000122FEF75FFE20461021FEF755FE00280C
:1018600000F0A68020462021FEF74EFE002800F062
:10187000A98020464021FEF747FE002800F0AC80FA
:1018800020468021FEF740FE002800F0AF80204671
:1018900001210122FEF73EFE204602210122FEF731
:1018A00039FE204604210022FEF734FE204608219E
:1018B0000122FEF72FFE20461021FEF725FE00280C
:1018C00000F09E8020462021FEF71EFE002800F03A
:1018D000A18020464021FEF717FE002800F0A480DA
:1018E00020468021FEF710FE002800F0A780204649
:1018F00001210122FEF70EFE204602210122FEF701
:1019000009FE204604210122FEF704FE204608219C
:101910000022FEF7FFFD20461021FEF7F5FD00280E
:1019200000F0968020462021FEF7EEFD002800F012
:10193000998020464021FEF7E7FD002800F09C80BA
:1019400020468021FEF7E0FD002840F09D802046E3
:101950008021FEF7D9FD00284FF04400F7D093E036
:1019600020461021FEF7D0FD0028F9D03120C0B26A
:1019700010BD00BF20462021FEF7C6FD0028F9D08B
:101980003420C0B210BD00BF20464021FEF7BCFD90
:101990000028F9D03720C0B210BD00BF20468021FA
:1019A000FEF7B2FD0028F9D02A20C0B210BD00BF5A
:1019B00020461021FEF7A8FD0028F9D03220C0B241
:1019C00010BD00BF20462021FEF79EFD0028F9D063
:1019D0003520C0B210BD00BF20464021FEF794FD67
:1019E00000284FF03800F7D04EE000BF204680219D
:1019F000FEF78AFD00284FF03000F7D044E000BF2A
:101A000020461021FEF780FD00284FF03300F7D06C
:101A10003AE000BF20462021FEF776FD00284FF077
:101A20003600F7D030E000BF20464021FEF76CFDC5
:101A300000284FF03900F7D026E000BF2046802173
:101A4000FEF762FD00284FF02300F7D01CE000BF36
:101A500020461021FEF758FD00284FF04100F7D036
:101A600012E000BF20462021FEF74EFD00284FF077
:101A70004200F7D008E000BF20464021FEF744FDB9
:101A800000284FF04300F7D0C0B210BD2DE9F0415F
:101A90008AB040F2A006C2F20006F078A0F1300150
:101AA000092900F2C1807178032933D87218907225
:101AB000481C70702A200DF12605ADF82600284636
:101AC000FEF782FB06F1140482B220462946642305
:101AD000FFF766FA707804282FD140F20001C2F2B5
:101AE0000001204601226423FFF75AFA50480DF105
:101AF000080C01904EA0051D2ECD40698CE82E00EB
:101B000001AD06902846FEF75FFB82B220462946CB
:101B100010E000BF8A19D072481C70702A2001ACF6
:101B2000ADF804002046FEF74FFB06F1140182B227
:101B3000084621466423FFF733FA0020F0707078DE
:101B4000082871D140F2000806F11405C2F200081D
:101B50002846414601226423FFF722FAB07AF27B3D
:101B60000021904271702ED1F17A327C914225D1C0
:101B7000327B737C9A4223D196F80DC0B37C9C458E
:101B800020D10423337188F8050088F8061088F8FE
:101B90000720284641460122642388F808C0FFF741
:101BA000FFF931480DF1080C01902FA0061D4ECE13
:101BB00040698CE84E0006901EE000BF012102E063
:101BC000022100E00321317140F20001C2F2000164
:101BD000284601226423FFF7E3F91B480DF1080CA6
:101BE000019019A0061D4ECED0E90547C0698CE8CA
:101BF0004E00CDE90647089001AE3046FEF7E4FA04
:101C000082B2284631466423FFF7CAF94FF4FA60DE
:101C1000FEF762FB2846414601226423FFF7C0F924
:101C20004FF40070A8F802000AB0BDE8F08100BFD0
:101C30004E686170206E65772070617373776F7284
:101C40006420323A200D0A00446F69206D617420CF
:101C50006B686175206B686F6E67207468616E6871
:101C600020636F6E67000000446F69206D6174200F
:101C70006B686175207468616E6820636F6E6700C1
:101C80004E686170206D6174206B686175206375AA
:101C90003A200D0A000000000000000000000000D3
:101CA0000102030406070809000000000102030402
:101CB000010202030405060708090A0B0C0D0E0FAA
:101CC000101000004E686170206E6577207061739F
:101CD00073776F726420313A200D0A0042616E20E2
:101CE0006E68617020736169206D6174206B68613A
:101CF00075207175612033206C616E00201D000815
:101D0000000000204000000028010008601D0008BD
:101D100040000020180700004401000800000000F7
:101D20000C08020202303030304E484F4D2038202F
:101D30002D204B484F41204449454E205455200DFD
:101D40000A090957656C636F6D6521090900000078
:101D500001000000100000000024F400000000005A
:04000005080000ED02
:00000001FF
