:020000040800F2
:100000003007002089010008F9170008BD13000817
:10001000F5170008910200080D1800080000000004
:1000200000000000000000000000000001180008AF
:100030009502000800000000FD17000805180008E0
:10004000A3010008A3010008A3010008A301000800
:10005000A3010008A3010008A3010008A3010008F0
:10006000A3010008A3010008A3010008A3010008E0
:10007000A3010008A3010008A3010008A3010008D0
:10008000A3010008A3010008A3010008A3010008C0
:10009000A3010008A3010008A3010008A3010008B0
:1000A000A3010008A3010008A3010008A3010008A0
:1000B000A3010008A301000800000000A30100083C
:1000C000A30100080000000000000000A3010008D8
:1000D00000000000A3010008A301000800000000C8
:1000E000A3010008A3010008A301000800F002F822
:1000F00000F03AF80AA090E8000C82448344AAF188
:100100000107DA4501D100F02FF8AFF2090EBAE885
:100110000F0013F0010F18BFFB1A43F0010318473B
:1001200084220000A4220000103A24BF78C878C1BD
:10013000FAD8520724BF30C830C144BF04680C60ED
:10014000704700000023002400250026103A28BF35
:1001500078C1FBD8520728BF30C148BF0B60704739
:100160001FB51FBD10B510BD00F058F81146FFF7C0
:10017000F7FF01F07FFC00F076F803B4FFF7F2FF21
:1001800003BC00F07DF8000009488047094800479B
:10019000FEE7FEE7FEE7FEE7FEE7FEE7FEE7FEE737
:1001A000FEE7FEE704480549054A064B7047000094
:1001B00009180008ED000008300100203007002079
:1001C00030030020300300204FF0000200B513463A
:1001D00094469646203922BFA0E80C50A0E80C5067
:1001E000B1F12001BFF4F7AF090728BFA0E80C5018
:1001F00048BF0CC05DF804EB890028BF40F8042B11
:1002000008BF704748BF20F8022B11F0804F18BF7D
:1002100000F8012B7047704770477047754600F033
:100220002BF8AE4605006946534620F00700854688
:1002300018B020B5FFF7B6FFBDE820404FF000062C
:100240004FF000074FF000084FF0000BAC46ACE851
:10025000C009ACE8C009ACE8C009ACE8C00921F0AD
:1002600007018D46704710B50446AFF30080204665
:10027000BDE81040FFF781BF00487047180000201C
:1002800001491820ABBEFEE72600020070470000BF
:10029000FEE7000070470000B0B5044600F028F902
:1002A000054640F20800C2F200000078611C18BF49
:1002B000044400BF00F01CF9401BA042FAD3B0BDBB
:1002C0002DE9F04F82B00E68002E00F0F98041F267
:1002D0000002C4F20102032340F2004E904208BF24
:1002E00002234FF6FF7CC4F2010E00930024012389
:1002F000C1F2100C4FF0000B4FF0000950E000BFAE
:1003000040F60042C4F20102009F904208BF01275C
:1003100004F00C030F229A402AEA020207FA03F3C0
:100320004FEA9B051A4346F82520D1F804A040F275
:100330000C455FEACA22DEF8082054BF22EA080210
:1003400042EA0802C4F20105CEF808202A685FEAF2
:100350008A2354BF22EA080242EA08022A605FEABE
:100360008A33DEF8042054BF22EA080242EA080277
:100370005FEACA33CEF80420DEF800204FF0010314
:1003800054BF22EA080242EA0802CEF800200E68B2
:100390000BF1010B36FA0BF204F1040400F090802B
:1003A00003FA0BF816EA080FF1D04E68664511DC27
:1003B000122E55D8DFE806F0340A444854545454F9
:1003C0005454545454545454544C5000D1F80C9038
:1003D00046E000BF4FF6FF72C1F2210296420FDCE9
:1003E0000022C1F2110296421AD00022C1F212027A
:1003F000964215D00022C1F22102964210D02FE081
:100400000022C1F2220296420AD00022C1F2310239
:10041000964205D00022C1F23202964220D100BF9E
:100420008A684AB1012A14BFC0F81480C0F810804D
:100430004FF0080914E000BF4FF0040910E000BFBE
:10044000CA6802F108090BE04FF0000908E000BF9C
:10045000CA6802F1040903E0CA6802F10C0900BF8E
:1004600022460646BBF1080F24BF203A04363768FF
:100470000F25954027EA050509FA02F22A43326062
:10048000CA79D2067FF583AF41F21803C4F20203A2
:100490001A68AEF57E7642F001021A601A6802F020
:1004A00001020192019A2BF0030256F802A040F6D5
:1004B0000002C4F2010290427FF422AF002727E736
:1004C00002B0BDE8F08F00008068084018BF01202E
:1004D00070470000C26802EA0103914341EA034108
:1004E00001617047002A08BF0904016170470000DC
:1004F00040F22C10C2F200000068704770B5B8B32B
:10050000044690F83D0028B9002084F83C002046BD
:1005100000F09AF9242084F83D002068016821F059
:1005200001010160016841F400410160016821F4AA
:100530000041016000F03EFB48F28041C0F21E0124
:1005400040F60013D4F804E088424FF00001C0F2F6
:100550003D0348F2A16C4FF0000238BF01219842E0
:10056000C0F2010C38BF0122E64538BF0A460AB185
:10057000012070BD4DF68361C4F21B31A0FB011256
:100580002168950C4B684FF4967623F03F0343EABD
:100590009243754344F6D3564B60C1F262060B6A30
:1005A000A5FB0656B50923F03F03E64538BF950C79
:1005B0006A1C1A430A62CA6948F2A0664CF6FF73C5
:1005C000C0F20106B64522EA03020BD801384FEA11
:1005D0004E03B0FBF3F001306FF31F30042898BFD7
:1005E00004201EE0A368013863B119230EFB03F356
:1005F000B0FBF3F001306FF31F3078B100F58040AD
:1006000008E000BF0EEB4E03B0FBF3F001306FF3D8
:100610001F3028B100F5004003E000BF012000E0DA
:1006200001201043C8610868D4E9072320F0C00006
:10063000104318430860886848F2FF3204F10C0642
:1006400090434CCE18431043A5698860C86820F0D9
:10065000FF0030432843C860086840F0010008608C
:1006600000202021206484F83D10206384F83E009F
:1006700070BD00002DE9F04383B01E461746894641
:100680000446FFF735FF94F83D10202920D1054698
:10069000206800BF8169890716D5FFF729FF411B34
:1006A00020681A29F6D381698907F3D50020202113
:1006B000206384F83D1084F83E00216C41F0200155
:1006C000216484F83C0003E094F83C10012903D134
:1006D000022003B0BDE8F083012184F83C100168DA
:1006E000C90703D1016841F001010160016840F2CE
:1006F000020821F400610160212184F83D101021DD
:1007000084F83E100021216467626685618DC0F225
:1007100001082185A8F10211E162E16A0A9E11F542
:10072000803F18BF01291DD1016841F4807101602B
:1007300020464FF0011100223346009500F0A0FE44
:1007400050B120680068C00544BF4FF400702064B9
:10075000012003B0BDE8F0832069B0F5804F07D1D8
:10076000FE2015E00829DFD0216B1229DCD0DFE75D
:10077000062000EAD9102168F030086108F106016E
:10078000204632462B4600F065FF0028E0D1FF20CE
:10079000216800EA090008612046414632462B469E
:1007A00000F058FF0028D3D1002002902068416952
:1007B000029180690290029806E000BF204631460F
:1007C0002A4600F0FDFD18BB208D68B32046314657
:1007D0002A4600F0AFFFD8B9606A2168024612F8D5
:1007E000013B0B616262628D013A6285228D531E6C
:1007F00023854F697F07E1D51B04DFD043780230A2
:100800000B616062608D01386085901E2085D5E7A0
:10081000206C04289CD12068016841F400710160BB
:10082000012003B0BDE8F0832068016841F4007145
:100830000160202084F83D00002084F83E0084F808
:100840003C0003B0BDE8F08310B586B0016845F206
:100850000040C4F20000814202D006B010BD00BFCB
:1008600041F21804C4F20204216800F5384041F056
:1008700008012160216801F0080102910299C0215C
:10088000029112210391002104910321059102A9F3
:10089000FFF716FD606840F400106060606800F4C7
:1008A00000100190019806B010BD000040F2080051
:1008B00040F22C11C2F20000C2F2000100780A6876
:1008C000104408607047000080B542F20000C4F296
:1008D0000200016841F010010160032000F07AF885
:1008E0000F2000F005F800F027F8002080BD000080
:1008F00070B540F20806C2F2000640F210013278EC
:10090000C2F200014FF47A730968B3FBF2F20446B5
:10091000B1FBF2F1084600F04FFB0F2C4FF0010540
:1009200008D838B94FF0FF3021460022002500F0EA
:1009300025F87460284670BD82B041F21800C4F2F8
:1009400002000168022241F001010160016801F02A
:10095000010101910199416841F080514160406875
:1009600000F08050009000980420C4F2010001685B
:1009700062F31A61016002B07047000010B54EF6D4
:100980000C5CCEF2000CDCF80030C3F3022E8EF0CB
:100990000704042C28BF0424BEF103034FF0FF3EDC
:1009A0000EFA04F438BF0023A14399400EFA03F372
:1009B0009A43114300F00F0200F160430901043A29
:1009C00003F564436244002848BF02F10C03197028
:1009D00010BD00004EF60C51CEF200010A684FF631
:1009E000FF031A4060F30A2242F0806040F0FD707D
:1009F000086070472DE9F04381B0002800F0858041
:100A000042F20008C4F202080446D8F800000D467D
:100A100000F0070088420CD2D8F8000020F0070050
:100A20002843C8F80000D8F8000000F00700A842EA
:100A30006BD1206841F204098107C4F2020917D57D
:100A4000410705D5D9F8001041F4E061C9F800105C
:100A5000010705D5D9F8001041F46051C9F800101C
:100A6000D9F80010A26821F0F0011143C9F8001074
:100A7000C00741D1D8F8000000F00700A8420CD907
:100A8000D8F8000020F007002843C8F80000D8F884
:100A9000000000F00700A84237D12068410707D5C1
:100AA000D9F80010E26821F4E0611143C9F80010A0
:100AB000000708D5D9F80000216920F4605040EA09
:100AC000C100C9F80000D9F8002002F00C00082885
:100AD00041F20020C0F27A0050D142F24E33C2F30C
:100AE0008341C0F60003595CD2033BD440F60010AA
:100AF000C0F23D00484341E0606802280AD0012866
:100B00002AD159F8041C890308D4012001B0BDE89A
:100B1000F08300BF59F8041C8901F6D5D9F80010FC
:100B200021F003010843C9F80000FFF7E1FC064685
:100B300041F28837D9F80000616800F00C00B0EB92
:100B4000810F97D0FFF7D4FC801BB842F2D9032065
:100B500001B0BDE8F08300BF59F8041C8907D4D563
:100B6000DCE700BFD9F8002042F24C33C2F3404228
:100B7000C0F600039A5C4843B0FBF2F0D9F80010CD
:100B800042F23432C1F30311C0F60002515C40F26C
:100B9000100220FA01F140F20C00C2F200000068DD
:100BA000C2F200021160FFF7A3FE002001B0BDE811
:100BB000F083000040F2100041F20401C2F2000094
:100BC000C4F202010068096842F24432C1F3022112
:100BD000C0F60002515CC8407047000040F21000AF
:100BE00041F20401C2F20000C4F202010068096887
:100BF00042F24432C1F3C221C0F60002515CC84047
:100C0000704700002DE9F04182B0002868D004460A
:100C1000007841F20006C007C4F2020625D07068D1
:100C200000F00C0004281BD0706800F00C000828AD
:100C300002D17068C00313D46068002800F0688196
:100C4000B0F5A02F00F07C81B0F5803F00F07C81F2
:100C5000306820F480303060306820F4802076E105
:100C60003068800301D56068D0B32078800718D53C
:100C7000706810F00C0F07D0706800F00C000828A6
:100C80006ED17068C0036BD43068800702D52069CC
:100C9000012825D13068616920F0F80040EAC100E0
:100CA0003060207800071FD42078400732D4E569EF
:100CB00095B1706800F00C00082840F08F80012D7D
:100CC0000ED07068216A00F480328A4208D1616ACD
:100CD00000F47010884203D1002002B0BDE8F0811A
:100CE000012002B0BDE8F081A069002862D0002098
:100CF000C4F242200121C0F88014FFF7F9FB054639
:100D0000706A800700F18C80FFF7F2FB401B02281D
:100D1000F6D92AE1F06910F0805808D1F06940F066
:100D20008050F061F06900F080500090009847F228
:100D30000007C4F200073868C00529D4386840F4B9
:100D400080703860FFF7D4FB054600BF3868C005E7
:100D50001ED4FFF7CDFB401B6428F7D905E100BF87
:100D60002069002840F20000C4F2422000F0828096
:100D700001210160FFF7BCFB054600BF306880071A
:100D80003FF588AFFFF7B4FB401B0228F6D9ECE033
:100D9000E068002800F08080052800F09780012896
:100DA00000F09880306A20F001003062306A20F054
:100DB000040092E00020C4F242200021C0F8801418
:100DC000FFF796FB054600BF706A80077FF56CAFA2
:100DD000FFF78EFB401B0228F6D9C6E00027C4F2BD
:100DE000422700203866FFF783FB022D05460BD112
:100DF0003068800140F1BE80FFF77AFB401B02287B
:100E00004FF00300F4D968E7306880017FF564AFE4
:100E1000FFF76EFB401B02284FF00300F4D95CE79C
:100E200040F21000C2F20000006844F6D351C1F253
:100E30006201A0FB0101480A019000BF00BF0198B8
:100E4000411E002801913FF42FAF00BF0198411EC1
:100E5000002801913FF428AF00BF0198411E0028EF
:100E600001913FF421AF00BF0198411E002801917C
:100E7000E4D119E700210160FFF73AFB054600BF06
:100E8000306880077FF50DAFFFF732FB401B02286B
:100E90004FF00300F4D920E7306A20F001003062FF
:100EA000306A20F004003062FFF722FB054641F271
:100EB000883700BF306A800720D5FFF719FB401B39
:100EC000B8424FF00300F5D907E700BF306A40F0A1
:100ED00004003062306A40F001003062FFF708FB26
:100EE000054641F2883700BF306A800706D4FFF715
:100EF000FFFA401BB842F7D937E000BFB8F1000F46
:100F00007FF4D5AEF06920F08050F061CFE600BFED
:100F1000306820F480303060306820F48020306009
:100F2000FFF7E6FA054600BF306880037FF59DAE07
:100F3000FFF7DEFA401B64284FF00300F4D9CCE63B
:100F4000306840F480203060306840F48030306099
:100F5000FFF7CEFA054600BF306880033FF585AE47
:100F6000FFF7C6FA401B6428F6D9032002B0BDE89B
:100F7000F08100BF206AB0F5803F05D17168A2689A
:100F800021F40031114371607168626A21F47411B7
:100F900011430843706001203866FFF7A9FA044640
:100FA000306880013FF598AEFFF7A2FA001B0228D7
:100FB0004FF00300F4D990E6411E0020B0EB116F12
:100FC0001CBF012070474EF21002CEF200025160A9
:100FD0004EF62351CEF20001F0230B7007219060F2
:100FE00011607047002804BF0120704710B5044607
:100FF00090F8410028B9002084F84000204600F015
:1010000063F8242084F841002068D4E90212C36800
:1010100023F40053C360036923F440531A4302616D
:10102000D4E904231143C268194341F20C639A4383
:101030001143C1604169A26921F44071114343F633
:101040000002C4F201029042416103D0FFF7B2FDF9
:1010500002E000BFFFF7C2FD62681921484391001A
:10106000B0FBF1F048F21F51C5F2EB11A0FB0123D8
:101070005A094FF69C73C0F6FF7302FB030032233C
:1010800003EB0010A0FB0101F02303EA51132068D9
:1010900003EB0212C1F3431111448160016921F491
:1010A00090410161416921F02A014161C16841F427
:1010B0000051C16000202021606484F8411084F850
:1010C0004210606310BD000070B586B040F60004A9
:1010D000C4F20104006804F54051002688420496D9
:1010E00002D006B070BD00BF41F21800C4F2020089
:1010F000016802AD41F480410160016801F4804162
:1011000001910199016841F00401016000682946DC
:1011100000F00400019001984FF40070029002204A
:101120000390032005902046FFF7CAF84FF4806033
:10113000CDE90206204629460496FFF7C1F806B01D
:1011400070BD00002DE9F04381B0044690F84100E5
:10115000202840F0B180884600294FF0010000F0BF
:10116000D6801646002A00F0D2800020606421203C
:101170001D4684F84100FFF7BBF9A684E684A16808
:101180000646B1F5805F03D12069002800F0988001
:1011900047464FF00008E18C2068002900F0968057
:1011A00005F101090BE000BF47B317F8011B4160CF
:1011B000E18C0139E184E18C002900F0878001682D
:1011C0000906F1D4B9F1000F0AD0EDB1FFF790F99B
:1011D000801BA84218D8206801680906F6D5E3E705
:1011E00001680906E0D4016809065CBF01685FEA8E
:1011F0000161D9D401680906F2D5D5E738F8021B98
:1012000000276FF35F21D2E7206850E8030F2168C1
:1012100020F4D07041E80302BAB3206850E8030F0D
:10122000216820F4D07041E8030272B3206850E8CE
:10123000030F216820F4D07041E803022AB320682C
:1012400050E8030F216820F4D07041E80302002A1F
:10125000DAD11AE0206850E8050F216820F001007B
:1012600041E80502DAB1206850E8050F216820F056
:10127000010041E8050292B1206850E8050F21689D
:1012800020F0010041E805024AB1206850E8050F4E
:10129000216820F0010041E80502002ADAD120206F
:1012A00084F8410084F84200002084F840000320C4
:1012B00001B0BDE8F08300BF022001B0BDE8F083BB
:1012C0000027E18C206800297FF46AAF0168490695
:1012D00019D4FDB1691C0DD10168490613D4016808
:1012E00049065CBF01685FEA41610CD401684906A8
:1012F000F2D508E0FFF7FCF8801BA8420AD8206866
:1013000000684006F6D5202084F84100002001B096
:10131000BDE8F083206850E8030F216820F4D07006
:1013200041E80302002A3ED0206850E8030F2168FC
:1013300020F4D07041E80302AAB3206850E8030FFC
:10134000216820F4D07041E8030262B3206850E8BD
:10135000030F216820F4D07041E80302002AD9D19C
:1013600021E000BF206850E8050F216820F001004F
:1013700041E80502002A3FF492AF206850E8050FCB
:10138000216820F0010041E80502002A3FF487AF00
:10139000206850E8050F216820F0010041E80502AF
:1013A000002A3FF47CAF206850E8050F216820F048
:1013B000010041E80502002AD4D170E7FEE70000F1
:1013C00070B50368044653F8140F400711D40E4655
:1013D000481C29D086BB00BF1868400527D4FFF7FA
:1013E00087F8236853F8140F400739D51868400769
:1013F000F2D5002070BD00BF18684007F9D4186806
:10140000400514D418684007F3D4186840050ED47A
:1014100018684007EDD41868400508D418684007DC
:101420004FF0000048BF70BD18684005E4D56FF468
:1014300080601860042014E0154603E053F8140F90
:101440004007D6D418684005F1D4FFF751F8401B87
:101450002368B042F2D958694007EFD4202000E059
:10146000202000212022216384F83D2084F83E10B2
:10147000226C10432064012084F83C1070BD0000F1
:101480002DE9F041054600681E46144601F47F022E
:1014900001338FB242D0DDF81880B2F5803F40F0C2
:1014A000878040693840C01BB0FA80F04009A042F4
:1014B00040F0C8804EB924E040693840C01BB0FA03
:1014C00080F04009A04240F0BD80FFF711F8A0EB8A
:1014D00008012868B142EFD941693940C91BB1FA06
:1014E00081F14909A142E7D19BE000BF4069384042
:1014F000C01BB0FA80F04009A0424FF0000040F05D
:10150000A680FEF7F5FF286841693940C91BB1FA8A
:1015100081F14909A142E9D183E000BFB2F5803FE2
:1015200024D100BF41693940C91BB1FA81F1490991
:10153000A14240F0878041693940C91BB1FA81F16D
:101540004909A14240F07E8041693940C91BB1FA86
:1015500081F14909A14275D141693940C91BB1FAEC
:1015600081F14909A142DDD06CE000BF81693940B9
:10157000C91BB1FA81F14909A14263D1816939409E
:10158000C91BB1FA81F14909A1425BD18169394096
:10159000C91BB1FA81F14909A14253D1816939408E
:1015A000C91BB1FA81F14909A142DFD04AE000BF6D
:1015B00080693840C01BB0FA80F04009A04241D198
:1015C00046B923E080693840C01BB0FA80F040097A
:1015D000A0423BD1FEF78CFFA0EB08012868B14286
:1015E000F0D981693940C91BB1FA81F14909A14299
:1015F000E8D116E080693840C01BB0FA80F040099D
:10160000A0424FF0000018BFBDE8F081FEF770FF68
:10161000286881693940C91BB1FA81F14909A142A1
:10162000E8D100202021286385F83D1085F83E0090
:10163000296C41F02001296485F83C000120BDE8B7
:10164000F08100BF0020BDE8F08100BF0020BDE8B0
:10165000F0810000F0B581B0044600681D46436982
:101660008FB203EA0701B94202D1002001B0F0BDF8
:1016700041691646013201F4806125D0002940D12C
:10168000CEB100BFFEF734FF411B2068B14203D941
:1016900041693940B9424BD141693940B942E4D03E
:1016A00041694905EED52CE041693940B942DCD0A9
:1016B0004169490525D4FEF71BFF2068416939407F
:1016C000B942F1D0202024E0D9B941693940B9426A
:1016D000CBD04169490514D441693940B942C4D0DD
:1016E000416949050DD441693940B942BDD04169CC
:1016F000490506D441693940B942B6D04169490526
:10170000E3D5016841F4007101606FF480614161CB
:10171000042000212022216384F83D2084F83E101B
:10172000226C1043206484F83C10012001B0F0BD0D
:101730002020EEE770B50368044653F8140F000646
:1017400011D40E46481C29D086BB00BF186840053E
:1017500027D4FEF7CDFE236853F8140F000639D5C1
:1017600018680006F2D5002070BD00BF186800069A
:10177000F9D41868400514D418680006F3D4186822
:1017800040050ED418680006EDD41868400508D44A
:10179000186800064FF0000048BF70BD186840058B
:1017A000E4D56FF480601860042014E0154603E06F
:1017B00053F8140F0006D6D418684005F1D4FEF78C
:1017C00097FE401B2368B042F2D958690006EFD457
:1017D000202000E0202000212022216384F83D20E9
:1017E00084F83E10226C10432064012084F83C10E1
:1017F00070BD0000FEE70000FEE70000704700003B
:1018000070470000FFF752B870470000FEE7000085
:101810002DE9F04184B048F68C0040F2D804C0F6BF
:101820000C00C2F2000402904FF0640802AA2046A5
:101830004E210423CDF80080FEF71CFF42F62D1642
:101840004627C0F60D1603AD20464E212A46042336
:101850000396CDF80080FEF70DFF013FF4D104B0F0
:10186000BDE8F08170B582B03220FEF715FD40F280
:10187000D80443F63C06C2F20004C0F60C06642508
:1018800001AA20464E21042301960095FEF7F2FEA0
:101890000520FEF701FD01AA20464E2104230196F2
:1018A0000095FEF7E7FE0120FEF7F6FC01AA2046B0
:1018B0004E21042301960095FEF7DCFE0A20FEF778
:1018C000EBFC42F62C00C0F60C00019001AA204669
:1018D0004E2104230095FEF7CDFE0A20FEF7DCFC26
:1018E00042F62C00C8F68C00019001AA20464E2139
:1018F00004230095FEF7BEFE0120FEF7CDFC40F666
:101900000C00C8F68C00019001AA20464E21042349
:101910000095FEF7AFFE0120FEF7BEFC40F60C007E
:10192000C1F61C00019001AA20464E210423009517
:10193000FEF7A0FE0120FEF7AFFC0120FEF7ACFC95
:1019400040F60C00C6F66C00019001AA20464E211C
:1019500004230095FEF78EFE0120FEF79DFC40F665
:101960000C00CCF6CC00019001AA20464E210423A5
:101970000095FEF77FFE02B070BD0000012805D083
:10198000002808BF41F0800102E000BF41F0C00123
:1019900080B582B021F00F00090100F10C0208307F
:1019A0008DF8050001F10C008DF8060001F108002A
:1019B0008DF8070040F2D8008DF804204FF0640C39
:1019C000C2F2000001AA4E210423CDF800C0FEF7A8
:1019D00051FE02B080BD000080B582B000F0F00181
:1019E000000101F10C0208318DF8051000F10C0125
:1019F00008308DF8070040F2D8008DF804208DF8EB
:101A000006104FF0640CC2F2000001AA4E2104231C
:101A1000CDF800C0FEF72EFE02B080BDF0B583B059
:101A2000017821B340F2D804461E6427C2F20004B4
:101A300002AD00BF21F00F00090100F10D020930D5
:101A40008DF8090001F10D008DF80A0001F109007F
:101A50008DF808208DF80B0020464E212A460423DD
:101A60000097FEF707FEB17801360029E2D103B0F6
:101A7000F0BD000090B0FEF727FF06AC201D24212A
:101A8000FEF7A2FB0220069001200A9010200B9086
:101A9000002520460D95FFF7B5F828B1EFF310802B
:101AA00072B600BFFEE700BF0F2401A80021CDE9F8
:101AB0000145CDE903550595FEF79CFF20B1EFF3F5
:101AC000108072B6FEE700BF41F21800C4F20200B7
:101AD000016841F2000841F0100101600168C4F2A0
:101AE000010801F01001069106990168002241F0F9
:101AF0000401016001684FF4005601F004010691F1
:101B000006990168002741F00801016000684FF460
:101B1000005100F00800069006984046FEF7E2FCEF
:101B2000A8F5006528460F210022FEF7DBFC06968B
:101B300006AE4FF001094FF0020A40463146CDE9AA
:101B40000797CDF824A0FEF7BBFB28463146CDE928
:101B50000649CDE9087AFEF7B3FB06A880E89002B3
:101B6000A8F580603146FEF7ABFB40F2D800A8F53F
:101B70003C41C2F2000048F2A0624FF48043C0F240
:101B8000010280E88600C0E90373C0E90577C0E977
:101B90000777FEF7B3FC28B1EFF3108072B600BFF1
:101BA000FEE700BF40F2780BC2F2000B08F52051AF
:101BB000584640F8181F4FF4E1310C22C0E90117D4
:101BC000C0E90377C0E90527C761FFF70BFA28B121
:101BD000EFF3108072B600BFFEE700BFFFF742FED2
:101BE000FFF716FE8020FFF7F7FEC9A0FFF716FFEC
:101BF00042F28E3640F200074FF00009C0F60006B0
:101C00004FF0010A0BF11804C2F200070BE000BF0D
:101C100000F0FAFA40464FF40051FEF75BFC4FF437
:101C20007A70FEF739FB00F079F9FF2804D08BF8C1
:101C300004006420FEF730FB9BF804109BF80300BF
:101C4000412908BF002851D02A2919D19BF800004A
:101C500040B1411E584600F8181B791C012264232C
:101C6000FFF770FA9BF8010040B101388BF80100D2
:101C7000791C204601226423FFF764FA9BF80300D5
:101C80000328C5D001283ED00028C3D19BF804000A
:101C9000303809280BD89BF80010002900F09680F6
:101CA000032940F29E80C8B2042800F0B380F8787F
:101CB0000128B87000F015810028ABD1FFF7A8FD0E
:101CC00000200021FFF75AFE42F26E30C0F60000FD
:101CD000FFF7A4FE40F6B830FEF7DEFAFFF798FDF6
:101CE0000220ABF80290F87094E700BFFFF790FD78
:101CF00000200021FFF742FE3046FFF78FFEABF8D1
:101D000000908BF803A09BF804003038092807D80E
:101D10009BF80010B1B103291ED9C8B2042833D0F2
:101D2000F8780128B87000F0B38000287FF472AF13
:101D300042F27E30C0F60000FFF770FE03208BF801
:101D4000030067E72046394601226423FFF7FAF9CA
:101D50009BF800100329E0D89BF804000BEB01026C
:101D600090710120FFF70AFE42F27C30C0F60000BD
:101D7000FFF754FE9BF800008BF80490411C8BF891
:101D80000010C8B20428CBD100258BF80050FFF713
:101D90003FFD38799BF80610884264D178799BF82A
:101DA0000710884210D1B8799BF80810884253D1A7
:101DB000F8799BF80910884254D104208BF805006B
:101DC000A7F80290B4E700BF01254CE02046394651
:101DD00001226423FFF7B6F99BF8001003293FF6B0
:101DE00062AF9BF804000BEB010290710120FFF73A
:101DF000C5FD42F27C30C0F60000FFF70FFE9BF8F5
:101E000000008BF80490411C8BF80010C8B2042825
:101E10007FF44DAF4FF0000A8BF800A0FFF7F8FCFD
:101E200038799BF80610884244D178799BF80710DE
:101E3000884213D1B8799BF80810884234D1F879D8
:101E40009BF80910884233D104208BF80500A7F8CD
:101E500002904FF0010A31E7022504E04FF0010A39
:101E600028E000BF03258BF8055087F803A0FFF793
:101E7000CFFC00200021FFF781FD42F25E30C0F66A
:101E80000000FFF7CBFDF8780128B8707FF44DAF64
:101E90004FF4FA70FEF700FAFFF7BAFC0220B870B0
:101EA00000208BF80300B5E64FF0020A02E000BF05
:101EB0004FF0030A8BF805A04FF0010A87F803A042
:101EC000FFF7A6FC00200021FFF758FD42F25E302C
:101ED000C0F60000FFF7A2FDF8780128B8707FF483
:101EE000EBAE9BF8020002210130F970C1B2032968
:101EF0008BF8020009D18BF80290FFF789FC42F2BF
:101F00009C30C0F60000FFF789FD8BF8039081E656
:101F100057454C434F4D452100000000B0B540F6F9
:101F20000044C4F20104A4F5806528464FF48051B2
:101F30000022FEF7D7FA28464FF400610122FEF78F
:101F4000D1FA28464FF480610122FEF7CBFA2846E9
:101F50004FF400710122FEF7C5FA20468021FEF7FA
:101F6000B3FA002800F0BA8020464021FEF7ACFA10
:101F7000002800F0BD8020462021FEF7A5FA0028A9
:101F800000F0C08020461021FEF79EFA002800F0E5
:101F9000C38028464FF480510122FEF7A3FA284659
:101FA0004FF400610022FEF79DFA28464FF480614D
:101FB0000122FEF797FA28464FF400710122FEF73E
:101FC00091FA20468021FEF77FFA002800F0AE80CB
:101FD00020464021FEF778FA002800F0B180204624
:101FE0002021FEF771FA002800F0B480204610216D
:101FF000FEF76AFA002800F0B78028464FF48051B7
:102000000122FEF76FFA28464FF400610122FEF725
:1020100069FA28464FF480610022FEF763FA2846E9
:102020004FF400710122FEF75DFA20468021FEF791
:102030004BFA002800F0A28020464021FEF744FA27
:10204000002800F0A58020462021FEF73DFA002858
:1020500000F0A88020461021FEF736FA002800F094
:10206000AB8028464FF480510122FEF73BFA284608
:102070004FF400610122FEF735FA28464FF48061E3
:102080000122FEF72FFA28464FF400710022FEF7D6
:1020900029FA20468021FEF717FA002800F09680E2
:1020A00020464021FEF710FA002800F099802046D3
:1020B0002021FEF709FA002800F09C80204610211C
:1020C000FEF702FA002840F09D8020461021FEF71E
:1020D000FBF900284FF04400F7D093E02046802120
:1020E000FEF7F2F90028F9D03120C0B2B0BD00BF30
:1020F00020464021FEF7E8F90028F9D03420C0B28C
:10210000B0BD00BF20462021FEF7DEF90028F9D03F
:102110003720C0B2B0BD00BF20461021FEF7D4F971
:102120000028F9D02A20C0B2B0BD00BF20468021CF
:10213000FEF7CAF90028F9D03220C0B2B0BD00BF06
:1021400020464021FEF7C0F90028F9D03520C0B262
:10215000B0BD00BF20462021FEF7B6F900284FF0A1
:102160003800F7D04EE000BF20461021FEF7ACF952
:1021700000284FF03000F7D044E000BF2046802117
:10218000FEF7A2F900284FF03300F7D03AE000BF85
:1021900020464021FEF798F900284FF03600F7D08E
:1021A00030E000BF20462021FEF78EF900284FF0D6
:1021B0003900F7D026E000BF20461021FEF784F951
:1021C00000284FF02300F7D01CE000BF20468021FC
:1021D000FEF77AF900284FF04100F7D012E000BF77
:1021E00020464021FEF770F900284FF04200F7D05A
:1021F00008E000BF20462021FEF766F900284FF0D6
:102200004300F7D0C0B2B0BDF0B581B040F278065F
:10221000C2F200063079A0F1300109296AD871783C
:10222000032915D87218D072481C7070C1B20120F1
:10223000FFF7A4FB42F27C30C0F60000FFF7EEFB94
:102240007078042814D1FFF7E3FA2BA4002108E0EA
:102250008A191073481C42F27C34C1B2C0F60004E3
:1022600070700120FFF78AFB2046FFF7D7FB7078DC
:102270000025082835713DD140F20004C2F2000467
:1022800006F11800214601226423FEF75BFFF07A75
:10229000317C7570884218D1317B727C91420FD1AC
:1022A000727BB37C9A420DD1B37BF57CAB420BD1F0
:1022B0000425757120716171A271E37118A506E0A2
:1022C000012502E0022500E0032575710EA5FFF748
:1022D0009FFA002000210027FFF750FB2846FFF758
:1022E0009DFB4FF4FA60FDF7D7FFFFF791FA02204C
:1022F000A070F77001B0F0BD4E45572050415353C8
:10230000574F524420323A004348414E47452055EA
:102310004E5355434345535346554C4C59000000CA
:102320004348414E47452053554343455353465533
:102330004C4C5900000000000000000001020304A2
:10234000060708090000000001020304010202035D
:102350000405060708090A0B0C0D0E0F1010577222
:102360006F6E672070617373776F72642100446FC2
:102370006F72206973206F70656E21002A004E45D0
:10238000572050415353574F524420313A004F4C3D
:10239000442050415353574F52443A0058585858CC
:1023A00058000000C82300080000002018000000AA
:1023B00028010008E023000818000020180700008A
:1023C00044010008000000000C08020231313131E4
:1023D00001000000100000000024F40000000000D4
:04000005080000ED02
:00000001FF
