:020000040800F2
:100000006807002091010008E12300088D16000810
:10001000DD23000841050008D92400080000000085
:10002000000000000000000000000000CD240008D7
:100030004505000800000000E5230008D124000861
:10004000AB010008AB010008AB010008AB010008E0
:10005000AB010008AB010008AB010008AB010008D0
:10006000AB010008AB010008AB010008AB010008C0
:10007000AB010008AB010008AB010008AB010008B0
:10008000AB010008AB010008AB010008AB010008A0
:10009000AB010008AB010008AB010008AB01000890
:1000A000AB010008AB010008AB010008AB01000880
:1000B000AB010008AB010008AB010008AB01000870
:1000C000AB010008AB010008AB010008AB01000860
:1000D000AB010008AB010008AB010008AB01000850
:1000E000AB010008AB010008AB01000800F002F80A
:1000F00000F03FF80AA090E8000C82448344AAF183
:100100000107DA4501D100F034F8AFF2090EBAE880
:100110000F0013F0010F18BFFB1A43F0010318473B
:100120001433000034330000103A24BF78C878C17B
:10013000FAD8520724BF30C830C144BF04680C60ED
:10014000704700000023002400250026103A28BF35
:1001500078C1FBD8520728BF30C148BF0B60704739
:10016000782900F07180002070471FB51FBD10B5C1
:1001700010BD00F0AAF91146FFF7F7FF02F0BCFC32
:1001800000F0C8F903B4FFF7F2FF03BC00F0D0F9A8
:100190000948804709480047FEE7FEE7FEE7FEE71B
:1001A000FEE7FEE7FEE7FEE7FEE7FEE70448054957
:1001B000054A064B70470000D5240008ED000008F2
:1001C0006801002068070020680300206803002001
:1001D0000FB41CB5074B06AA7B44694600900598EE
:1001E00000F05BF90020694600F06AF91CBC5DF87C
:1001F00014FB0000E502000070B504468569006844
:10020000C10601D5302600E02026C00707D070BD0A
:10021000D4E9012130469047206A401C20626D1EBF
:10022000F6D570BD70B5044685690078C00707D162
:1002300070BDD4E9012120209047206A401C206233
:100240006D1EF6D570BD000070B504460D46214602
:100250001068AFF300802188090502D50F4A7A445F
:1002600002E00E4A7A440E32002104F1240305E034
:1002700000F00F060009965D5E54491C0028F7D176
:1002800020780023000704D5702D02D009B1022385
:1002900011322046BDE8704000F0A1B810310000D6
:1002A0002DE9F05F894604464FF0000ADFF824B1DB
:1002B000FB44C0F820A02046E168884700287DD094
:1002C000252806D0D4E901219047206A401C2062ED
:1002D000F1E700255F462046E1688847202806466A
:1002E00007DB312E05D2B81910F8200C08B10543F0
:1002F000F1E7A80701D525F00405C4F81CA00027E4
:10030000C4F818A02A2E09D0304603F02BF838B3D1
:1003100004EB8708303EC8F8186019E059F8041B50
:10032000204604EB87029161E1688847012F064669
:1003300018D1E069002820DA25F020051DE0D8F862
:10034000180000EB800006EB40003038C8F81800B9
:100350002046E1688847064603F004F80028EED1FD
:10036000012F0AD02E2E08D12046E16888477F1C35
:100370000646022F45F02005C4DBA069002803DAF9
:10038000404245F00105A061E80701D025F01005C5
:10039000A6B1A6F14100192802D8203645F400651F
:1003A0004A463146204625604D46FFF7D9FE60B1EA
:1003B000012807D0ED1D25F0070000E007E000F15F
:1003C000080978E705F1040975E730467AE7206AFD
:1003D000BDE8F09FE63000007047704770472DE998
:1003E000F0470D4699469246044600F124080168FC
:1003F000880604D5E06921F01001216000E00120A9
:10040000A84201DD471B00E00027A1697A1902EB31
:100410000900081AA0612078C00602D42046FFF720
:10042000EBFE002608E0D4E901211AF80600904707
:10043000206A401C761C20624E45F4DB2078C00602
:100440000AD52046FFF7D8FE06E0D4E90121302086
:100450009047206A401C2062381EA7F10107F4DC97
:1004600007E0D4E9012118F805009047206A401CF4
:100470002062281EA5F10105F3DC2046FFF7D2FE1D
:100480002078000602D50220BDE8F0870120FBE7B6
:1004900001694A1C02610878704700B58FB0CDE948
:1004A00001310021059105497944CDE90310114638
:1004B0006846FFF7F5FE0FB000BD0000E5FFFFFF47
:1004C0000A6802F8010B0A607047754600F02CF8C4
:1004D000AE4605006946534620F00700854618B031
:1004E00020B5FFF763FEBDE820404FF000064FF057
:1004F00000074FF000084FF0000BAC46ACE8C00915
:10050000ACE8C009ACE8C009ACE8C00921F00701BB
:100510008D46704710B50446AFF300802046BDE815
:100520001040FFF72FBE0000004870472800002051
:1005300001491820ABBEFEE726000200704700000C
:10054000FEE7000070470000B0B5044600F032F945
:10055000054640F21C00C2F200000078611C18BF82
:10056000044400BF00F026F9401BA042FAD3B0BDFE
:100570002DE9F04F82B00E68002E00F0038141F2A9
:100580000042C4F20102042340F2004E904208BF30
:1005900003234FF6FF7CC4F2010E009300240123D5
:1005A000C1F2100C4FF0000A4FF0000949E000BF03
:1005B000012704F00C030F229A402BEA020207FAEB
:1005C00003F34FEA9A051A4346F82520D1F804B000
:1005D00040F20C455FEACB22DEF8082054BF22EA45
:1005E000080242EA0802C4F20105CEF808202A688F
:1005F0005FEA8B2354BF22EA080242EA08022A601B
:100600005FEA8B33DEF8042054BF22EA080242EA94
:1006100008025FEACB33CEF80420DEF800204FF06A
:10062000010354BF22EA080242EA0802CEF8002081
:100630000E680AF1010A36FA0AF204F1040400F025
:10064000A18003FA0AF816EA080FF1D04E68664551
:1006500012DC122E56D8DFE806F0350B4549555509
:1006600055555555555555555555554D510000BF86
:10067000D1F80C9046E000BF4FF6FF72C1F22102A4
:1006800096420FDC0022C1F2110296421AD00022DB
:10069000C1F21202964215D00022C1F22102964206
:1006A00010D02FE00022C1F2220296420AD000228E
:1006B000C1F23102964205D00022C1F232029642C6
:1006C00020D100BF8A684AB1012A14BFC0F8148043
:1006D000C0F810804FF0080914E000BF4FF0040983
:1006E00010E000BFCA6802F108090BE04FF00009F2
:1006F00008E000BFCA6802F1040903E0CA6802F119
:100700000C0900BF22460646BAF1080F24BF203A62
:10071000043637680F25954027EA050509FA02F2E5
:100720002A433260CA79D2067FF582AF41F21803BC
:10073000C4F202031A68AEF57E7642F001021A6036
:100740001A6802F001020192019A2AF0030256F897
:1007500002B040F60002C4F20102904210D040F60E
:100760000042C4F2010290423FF422AF41F2000283
:10077000C4F20102009F904208BF022719E700BFA0
:10078000002716E702B0BDE8F08F0000806808403F
:1007900018BF012070470000C26802EA01039143BC
:1007A00041EA034101617047002A08BF0904016161
:1007B0007047000040F26410C2F200000068704709
:1007C00070B5B8B3044690F83D0028B9002084F80D
:1007D0003C00204600F09AF9242084F83D0020686F
:1007E000016821F001010160016841F400410160EC
:1007F000016821F40041016000F04AFB48F28041A9
:10080000C0F21E0140F60013D4F804E088424FF015
:100810000001C0F23D0348F2A16C4FF0000238BF66
:1008200001219842C0F2010C38BF0122E64538BFD1
:100830000A460AB1012070BD4DF68361C4F21B3136
:10084000A0FB01122168950C4B684FF4967623F0BB
:100850003F0343EA9243754344F6D3564B60C1F2DB
:1008600062060B6AA5FB0656B50923F03F03E64571
:1008700038BF950C6A1C1A430A62CA6948F2A0661E
:100880004CF6FF73C0F20106B64522EA03020BD80C
:1008900001384FEA4E03B0FBF3F001306FF31F3025
:1008A000042898BF04201EE0A368013863B119230F
:1008B0000EFB03F3B0FBF3F001306FF31F3078B1A0
:1008C00000F5804008E000BF0EEB4E03B0FBF3F0F4
:1008D00001306FF31F3028B100F5004003E000BF86
:1008E000012000E001201043C8610868D4E9072313
:1008F00020F0C000104318430860886848F2FF32B7
:1009000004F10C0690434CCE18431043A56988604F
:10091000C86820F0FF0030432843C860086840F0F2
:100920000100086000202021206484F83D1020632D
:1009300084F83E0070BD00002DE9F04383B01E46F0
:10094000174689460446FFF735FF94F83D102029E5
:1009500020D10546206800BF8169890716D5FFF7B9
:1009600029FF411B20681A29F6D381698907F3D52D
:1009700000202021206384F83D1084F83E00216C83
:1009800041F02001216484F83C0003E094F83C101D
:10099000012903D1022003B0BDE8F083012184F8CE
:1009A0003C100168C90703D1016841F001010160F1
:1009B000016840F2020821F400610160212184F8FD
:1009C0003D10102184F83E10002121646762668585
:1009D000618DC0F201082185A8F10211E162E16A8E
:1009E0000A9E11F5803F18BF01291DD1016841F40D
:1009F0008071016020464FF00111002233460095BE
:100A000000F0A6FE50B120680068C00544BF4FF456
:100A100000702064012003B0BDE8F0832069B0F5C8
:100A2000804F07D1FE2015E00829DFD0216B122965
:100A3000DCD0DFE7062000EAD9102168F030086139
:100A400008F10601204632462B4600F06BFF0028D5
:100A5000E0D1FF20216800EA0900086120464146F4
:100A600032462B4600F05EFF0028D3D100200290D2
:100A700020684169029180690290029806E000BFF7
:100A8000204631462A4600F003FE18BB208D68B38D
:100A9000204631462A4600F0B5FFD8B9606A216881
:100AA000024612F8013B0B616262628D013A628577
:100AB000228D531E23854F697F07E1D51B04DFD0AC
:100AC000437802300B616062608D01386085901E52
:100AD0002085D5E7206C04289CD12068016841F46A
:100AE00000710160012003B0BDE8F0832068016857
:100AF00041F400710160202084F83D00002084F85A
:100B00003E0084F83C0003B0BDE8F08310B586B029
:100B1000006845F20042C4F20002002190420491B4
:100B200002D006B010BD00BF41F21804C4F20204A6
:100B3000206802A940F008002060206800F008004A
:100B4000019001984FF4407002901220039003200E
:100B5000059040F60040C4F20100FFF709FD0420B3
:100B6000C4F20100016841F0E06141F0020101605E
:100B7000606840F400106060606800F4001001904C
:100B8000019806B010BD000040F21C0040F2641154
:100B9000C2F20000C2F2000100780A681044086046
:100BA0007047000080B542F20000C4F20200016804
:100BB00041F010010160032000F07AF80F2000F0EE
:100BC00005F800F027F8002080BD000070B540F265
:100BD0001C06C2F2000640F224013278C2F2000183
:100BE0004FF47A730968B3FBF2F20446B1FBF2F1F9
:100BF000084600F035FD0F2C4FF0010508D838B934
:100C00004FF0FF3021460022002500F025F87460E7
:100C1000284670BD82B041F21800C4F2020001689B
:100C2000022241F001010160016801F0010101911E
:100C30000199416841F080514160406800F0805066
:100C4000009000980420C4F20100016862F31A6168
:100C5000016002B07047000010B54EF60C5CCEF299
:100C6000000CDCF80030C3F3022E8EF00704042CD5
:100C700028BF0424BEF103034FF0FF3E0EFA04F434
:100C800038BF0023A14399400EFA03F39A4311435E
:100C900000F00F0200F160430901043A03F56443D8
:100CA0006244002848BF02F10C03197010BD000017
:100CB0004EF60C51CEF200010A684FF6FF031A40BF
:100CC00060F30A2242F0806040F0FD7008607047D7
:100CD0002DE9F04381B0002800F0858042F2000841
:100CE000C4F202080446D8F800000D4600F00700E0
:100CF00088420CD2D8F8000020F007002843C8F83A
:100D00000000D8F8000000F00700A8426BD120686E
:100D100041F204098107C4F2020917D5410705D53C
:100D2000D9F8001041F4E061C9F80010010705D5B9
:100D3000D9F8001041F46051C9F80010D9F800103A
:100D4000A26821F0F0011143C9F80010C00741D199
:100D5000D8F8000000F00700A8420CD9D8F800002D
:100D600020F007002843C8F80000D8F8000000F081
:100D70000700A84237D12068410707D5D9F80010ED
:100D8000E26821F4E0611143C9F80010000708D5BA
:100D9000D9F80000216920F4605040EAC100C9F888
:100DA0000000D9F8002002F00C00082841F20020D1
:100DB000C0F27A0050D143F2C533C2F38341C0F68A
:100DC0000003595CD2033BD440F60010C0F23D0052
:100DD000484341E0606802280AD001282AD159F826
:100DE000041C890308D4012001B0BDE8F08300BFD2
:100DF00059F8041C8901F6D5D9F8001021F0030137
:100E00000843C9F80000FFF7D5FC064641F28837D1
:100E1000D9F80000616800F00C00B0EB810F97D0AA
:100E2000FFF7C8FC801BB842F2D9032001B0BDE82F
:100E3000F08300BF59F8041C8907D4D5DCE700BF54
:100E4000D9F8002043F2C333C2F34042C0F6000396
:100E50009A5C4843B0FBF2F0D9F8001043F2AB3291
:100E6000C1F30311C0F60002515C40F2240220FAE3
:100E700001F140F22000C2F200000068C2F200025C
:100E80001160FFF7A3FE002001B0BDE8F083000071
:100E900040F2240041F20401C2F20000C4F2020157
:100EA0000068096843F2BB32C1F30221C0F60002B8
:100EB000515CC840704700002DE9F04182B0002825
:100EC00068D00446007841F20006C007C4F202066A
:100ED00025D0706800F00C0004281BD0706800F06A
:100EE0000C00082802D17068C00313D46068002881
:100EF00000F06881B0F5A02F00F07C81B0F5803F54
:100F000000F07C81306820F480303060306820F45C
:100F1000802076E13068800301D56068D0B3207806
:100F2000800718D5706810F00C0F07D0706800F0BB
:100F30000C0008286ED17068C0036BD4306880073D
:100F400002D52069012825D13068616920F0F800B8
:100F500040EAC1003060207800071FD420784007A5
:100F600032D4E56995B1706800F00C00082840F0B3
:100F70008F80012D0ED07068216A00F480328A4281
:100F800008D1616A00F47010884203D1002002B0D9
:100F9000BDE8F081012002B0BDE8F081A069002821
:100FA00062D00020C4F242200121C0F88014FFF773
:100FB00001FC0546706A800700F18C80FFF7FAFBA0
:100FC000401B0228F6D92AE1F06910F0805808D1B8
:100FD000F06940F08050F061F06900F080500090BE
:100FE000009847F20007C4F200073868C00529D40A
:100FF000386840F480703860FFF7DCFB054600BFBE
:101000003868C0051ED4FFF7D5FB401B6428F7D90C
:1010100005E100BF2069002840F20000C4F2422030
:1010200000F0828001210160FFF7C4FB054600BF8C
:10103000306880073FF588AFFFF7BCFB401B0228F4
:10104000F6D9ECE0E068002800F08080052800F088
:101050009780012800F09880306A20F0010030620B
:10106000306A20F0040092E00020C4F24220002107
:10107000C0F88014FFF79EFB054600BF706A80072A
:101080007FF56CAFFFF796FB401B0228F6D9C6E050
:101090000027C4F2422700203866FFF78BFB022DA1
:1010A00005460BD13068800140F1BE80FFF782FB1E
:1010B000401B02284FF00300F4D968E73068800134
:1010C0007FF564AFFFF776FB401B02284FF003006B
:1010D000F4D95CE740F22400C2F20000006844F654
:1010E000D351C1F26201A0FB0101480A019000BF87
:1010F00000BF0198411E002801913FF42FAF00BFAF
:101100000198411E002801913FF428AF00BF0198CB
:10111000411E002801913FF421AF00BF0198411EFC
:1011200000280191E4D119E700210160FFF742FB9B
:10113000054600BF306880077FF50DAFFFF73AFB2B
:10114000401B02284FF00300F4D920E7306A20F05A
:1011500001003062306A20F004003062FFF72AFBA1
:10116000054641F2883700BF306A800720D5FFF777
:1011700021FB401BB8424FF00300F5D907E700BF41
:10118000306A40F004003062306A40F001003062A2
:10119000FFF710FB054641F2883700BF306A800731
:1011A00006D4FFF707FB401BB842F7D937E000BF72
:1011B000B8F1000F7FF4D5AEF06920F08050F061F7
:1011C000CFE600BF306820F480303060306820F413
:1011D00080203060FFF7EEFA054600BF30688003DC
:1011E0007FF59DAEFFF7E6FA401B64284FF0030041
:1011F000F4D9CCE6306840F480203060306840F4A8
:1012000080303060FFF7D6FA054600BF30688003B3
:101210003FF585AEFFF7CEFA401B6428F6D90320D0
:1012200002B0BDE8F08100BF206AB0F5803F05D173
:101230007168A26821F40031114371607168626ABB
:1012400021F4741111430843706001203866FFF7E0
:10125000B1FA0446306880013FF598AEFFF7AAFA6C
:10126000001B02284FF00300F4D990E670B538B1A6
:101270000446406A30B10020206104F1140007E008
:10128000012070BD6068B0F5827F03D004F11C00BE
:10129000002101600026A66294F8510020B9204682
:1012A00084F8506000F038F8022084F8510094E887
:1012B000071001F48271036802F4044223F0400332
:1012C0000360236911440CF40062114403F002022C
:1012D0006369114403F00102A369E569114403F451
:1012E0000072114405F03802256A114405F08002AD
:1012F000A56A114305F4005211430160042101EA7B
:1013000013414160C16921F40061C161012066653A
:1013100084F85100304670BD70B586B040F60004C8
:10132000C4F20104006804F52051002688420496A6
:1013300002D006B070BD00BF41F21800C4F2020036
:10134000016802AD41F480510160016801F48051EF
:1013500001910199016841F004010160006829468A
:1013600000F0040001900198A02002900220039058
:10137000032005902046FFF7FBF84020CDE9020648
:10138000204629460496FFF7F3F806B070BD00002A
:101390002DE9F04381B0044690F85000012803D1B4
:1013A000022001B0BDE8F08301201E4615460F461D
:1013B00084F85000FFF7FEF994F851108146012996
:1013C00012D06068B0F5827F40F0A480A068002849
:1013D0004FF0020008BF042906D0002184F8501005
:1013E00001B0BDE8F08300BF002F4FF0010018BF2F
:1013F000002DF2D0002EF0D094F8510000210428E6
:101400001CBF052084F851006165A563E687A687A7
:101410002763E6862068A686216461640168490620
:1014200003D4016841F0400101606168731EE26805
:10143000B1FA81F1B3FA83F3DDF8208049095B0941
:10144000B2F5006F41EA03016CD131B137F8021BEC
:10145000C1602763E08E0138E086012518F10100A4
:1014600031D101E0FFF7A6F9E08E18B9E08F00282E
:1014700000F0C0802068816889070CD5E18E51B1E9
:10148000012D08D1216B002531F8022BC2602163A8
:10149000E18E0139E1868168C907E3D0E18F002937
:1014A000E0D0C068A16B012521F8020BA163E08F99
:1014B0000138E087D6E700BFFFF77CF9A0EB090011
:1014C000404580F0AB80E08E18B9E08F002800F036
:1014D00091802068816889070CD5E18E51B1012D7A
:1014E00008D1216B002531F8022BC2602163E18E07
:1014F0000139E1868168C907DED0E18F0029DBD0A0
:10150000C068A16B012521F8020BA163E08F0138AF
:10151000E087D1E70220002184F8501001B0BDE837
:10152000F08300BF39B139780173206B013020633B
:10153000E08E0138E086012518F1010032D101E08A
:10154000FFF738F9E08E10B9E08F002852D02068FC
:10155000816889070ED5E18E61B1012D0AD1216B19
:10156000002509780173216B206801312163E18E28
:101570000139E1868168C907E2D0E18F0029DFD017
:10158000C068A16B01250870A06B0130A063E08FDB
:101590000138E087D4E700BFFFF70CF9A0EB0900A2
:1015A00040453BD2E08E08B9E08F18B320688168CF
:1015B00089070ED5E18E61B1012D0AD1216B00257D
:1015C00009780173216B206801312163E18E0139B3
:1015D000E1868168C907DFD0E18F0029DCD0C068CF
:1015E000A16B01250870A06B0130A063E08F01386A
:1015F000E087D1E72046802142464B4600F0F4FECA
:10160000B0B1606D40F02000606520206065012071
:10161000002184F8501001B0BDE8F083012084F867
:1016200051000320002184F8501001B0BDE8F08380
:10163000A06838B9002000902068C16800918068D7
:1016400000900098606D00284FF0010004BF84F8FE
:1016500051000020002184F8501001B0BDE8F08353
:10166000411E0020B0EB116F1CBF012070474EF2ED
:101670001002CEF2000251604EF62351CEF200016C
:10168000F0230B700721906011607047FEE70000A7
:1016900070B50368044653F8140F400711D40E4682
:1016A000481C29D086BB00BF1868400527D4FFF727
:1016B00081F8236853F8140F400739D5186840079C
:1016C000F2D5002070BD00BF18684007F9D4186833
:1016D000400514D418684007F3D4186840050ED4A8
:1016E00018684007EDD41868400508D4186840070A
:1016F0004FF0000048BF70BD18684005E4D56FF496
:1017000080601860042014E0154603E053F8140FBD
:101710004007D6D418684005F1D4FFF74BF8401BBA
:101720002368B042F2D958694007EFD4202000E086
:10173000202000212022216384F83D2084F83E10DF
:10174000226C10432064012084F83C1070BD00001E
:101750002DE9F041054600681E46144601F47F025B
:1017600001338FB242D0DDF81880B2F5803F40F0EF
:10177000878040693840C01BB0FA80F04009A04221
:1017800040F0C8804EB924E040693840C01BB0FA30
:1017900080F04009A04240F0BD80FFF70BF8A0EBBD
:1017A00008012868B142EFD941693940C91BB1FA33
:1017B00081F14909A142E7D19BE000BF406938406F
:1017C000C01BB0FA80F04009A0424FF0000040F08A
:1017D000A680FEF7EFFF286841693940C91BB1FABE
:1017E00081F14909A142E9D183E000BFB2F5803F10
:1017F00024D100BF41693940C91BB1FA81F14909BF
:10180000A14240F0878041693940C91BB1FA81F19A
:101810004909A14240F07E8041693940C91BB1FAB3
:1018200081F14909A14275D141693940C91BB1FA19
:1018300081F14909A142DDD06CE000BF81693940E6
:10184000C91BB1FA81F14909A14263D181693940CB
:10185000C91BB1FA81F14909A1425BD181693940C3
:10186000C91BB1FA81F14909A14253D181693940BB
:10187000C91BB1FA81F14909A142DFD04AE000BF9A
:1018800080693840C01BB0FA80F04009A04241D1C5
:1018900046B923E080693840C01BB0FA80F04009A7
:1018A000A0423BD1FEF786FFA0EB08012868B142B9
:1018B000F0D981693940C91BB1FA81F14909A142C6
:1018C000E8D116E080693840C01BB0FA80F04009CA
:1018D000A0424FF0000018BFBDE8F081FEF76AFF9C
:1018E000286881693940C91BB1FA81F14909A142CF
:1018F000E8D100202021286385F83D1085F83E00BE
:10190000296C41F02001296485F83C000120BDE8E4
:10191000F08100BF0020BDE8F08100BF0020BDE8DD
:10192000F0810000F0B581B0044600681D464369AF
:101930008FB203EA0701B94202D1002001B0F0BD25
:1019400041691646013201F4806125D0002940D159
:10195000CEB100BFFEF72EFF411B2068B14203D974
:1019600041693940B9424BD141693940B942E4D06B
:1019700041694905EED52CE041693940B942DCD0D6
:101980004169490525D4FEF715FF206841693940B2
:10199000B942F1D0202024E0D9B941693940B94297
:1019A000CBD04169490514D441693940B942C4D00A
:1019B000416949050DD441693940B942BDD04169F9
:1019C000490506D441693940B942B6D04169490553
:1019D000E3D5016841F4007101606FF480614161F9
:1019E000042000212022216384F83D2084F83E1049
:1019F000226C1043206484F83C10012001B0F0BD3B
:101A00002020EEE770B50368044653F8140F000673
:101A100011D40E46481C29D086BB00BF186840056B
:101A200027D4FEF7C7FE236853F8140F000639D5F4
:101A300018680006F2D5002070BD00BF18680006C7
:101A4000F9D41868400514D418680006F3D418684F
:101A500040050ED418680006EDD41868400508D477
:101A6000186800064FF0000048BF70BD18684005B8
:101A7000E4D56FF480601860042014E0154603E09C
:101A800053F8140F0006D6D418684005F1D4FEF7B9
:101A900091FE401B2368B042F2D958690006EFD48A
:101AA000202000E0202000212022216384F83D2016
:101AB00084F83E10226C10432064012084F83C100E
:101AC00070BD0000F0B583B040F60004C4F201041C
:101AD0002046102100220026FEF766FE40F20C157B
:101AE000A820C2F200058DF809000A270DF10901AE
:101AF00002AA284601230097FFF74AFC0DF10B01CB
:101B00000DF10A02284601238DF80B600097FFF7BC
:101B10003FFC9DF80A50204610210122FEF744FEAA
:101B2000A80701D003B0F0BD1420032100F014FA7F
:101B300003B0F0BD2DE9F04184B040F60005C4F2D9
:101B4000010504462846102100224FF00008FEF748
:101B50002BFE40F20C161A20C2F200068DF80D0082
:101B60000A270DF10D0103AA304601230097FFF764
:101B70000FFC0DF10F010DF10E02304601238DF81F
:101B80000F800097FFF704FC284610210122FEF782
:101B90000BFE42F2930020800DF10A070C20214633
:101BA00002222346009700F033FA18B104B0BDE8D2
:101BB000F08100BF20786178A278E37848405040F7
:101BC00021795840401A18BF0120400004B0BDE8F8
:101BD000F08100002DE9F04784B040F60008064689
:101BE0008020C4F201088A4640EA4604404610219B
:101BF00000224FF00009FEF7D7FD40F20C15C2F2AB
:101C000000058DF809400A240DF1090102AA2846B1
:101C100001230094FFF7BCFB0DF10B010DF10A024B
:101C2000284601238DF80B900094FFF7B1FB9DF837
:101C30000A70404610210122FEF7B6FD7E2000EA20
:101C4000460640461021002227EA0A07FEF7ACFDAF
:101C50000DF10D0103AA284601238DF80D600094B3
:101C6000FFF796FB0DF10F010DF10E02284601233F
:101C70008DF80F700094FFF78BFB40461021012276
:101C8000FEF792FD04B0BDE8F0870000F0B583B028
:101C900040F60004C4F2010420461021002200276F
:101CA000FEF782FD40F20C150220C2F200058DF80D
:101CB0000B000A260DF10B010DF10A022846012343
:101CC0000096FFF765FB0F208DF80B000DF10B015F
:101CD0000DF10A02284601230096FFF759FB204622
:101CE00010210122FEF760FD204610210022FEF7A0
:101CF0005BFD54208DF80B000DF10B010DF10A0274
:101D0000284601230096FFF743FB8D208DF80B003A
:101D10000DF10B010DF10A02284601230096FFF791
:101D200037FB204610210122FEF73EFD2046102100
:101D30000022FEF739FD56208DF80B000DF10B0146
:101D40000DF10A02284601230096FFF721FB3E20F1
:101D50008DF80B000DF10B010DF10A02284601234D
:101D60000096FFF715FB204610210122FEF71CFD0F
:101D7000204610210022FEF717FD5A208DF80B0097
:101D80000DF10B010DF10A02284601230096FFF721
:101D9000FFFA1E208DF80B000DF10B010DF10A0268
:101DA000284601230096FFF7F3FA2046102101226E
:101DB000FEF7FAFC204610210022FEF7F5FC582021
:101DC0008DF80B000DF10B010DF10A0228460123DD
:101DD0000096FFF7DDFA0DF10B010DF10A0228461E
:101DE00001238DF80B700096FFF7D2FA20461021E0
:101DF0000122FEF7D9FC204610210022FEF7D4FC78
:101E00004C208DF80B000DF10B010DF10A02284654
:101E100001230096FFF7BCFA70208DF80B000DF13E
:101E20000B010DF10A02284601230096FFF7B0FAD4
:101E3000204610210122FEF7B7FC20461021002287
:101E4000FEF7B2FC2A208DF80B000DF10B010DF10D
:101E50000A02284601230096FFF79AFA40208DF8DF
:101E60000B000DF10B010DF10A022846012300962B
:101E7000FFF78EFA204610210122FEF795FC20463E
:101E800010210022FEF790FC22208DF80B000DF1AE
:101E90000B010DF10A02284601230096FFF778FA9C
:101EA0003D208DF80B000DF10B010DF10A022846C3
:101EB00001230096FFF76CFA204610210122FEF75D
:101EC00073FCFFF7FFFD03B0F0BD00002DE9F0410A
:101ED00084B040F60008C4F201080C4605464046AE
:101EE00010210022FEF760FC40F20C171A20C2F20B
:101EF00000078DF80D000A260DF10D0103AA3846E2
:101F000001230096FFF744FA07208DF80F000DF12A
:101F10000F010DF10E02384601230096FFF738FA43
:101F2000404610210122FEF73FFC0DF10A070C206C
:101F30002146012223462570009700F069F8BDF87C
:101F40000A101029014618BF0221002818BF0221DB
:101F5000084604B0BDE8F0812DE9F04784B040F6B2
:101F6000000806468020C4F201088A4640EA46047A
:101F70004046102100224FF00009FEF715FC40F208
:101F80000C15C2F200058DF809400A240DF1090173
:101F900002AA284601230094FFF7FAF90DF10B017C
:101FA0000DF10A02284601238DF80B900094FFF7EB
:101FB000EFF99DF80A70404610210122FEF7F4FB6C
:101FC0007E2000EA460640461021002247EA0A0722
:101FD000FEF7EAFB0DF10D0103AA284601238DF857
:101FE0000D600094FFF7D4F90DF10F010DF10E0211
:101FF000284601238DF80F700094FFF7C9F9404679
:1020000010210122FEF7D0FB04B0BDE8F0870000EC
:102010002DE9F04F87B017460C28884602930490AC
:1020200006D00E2808D111200590122007E000BF2D
:1020300031200590772002E001200590002040F635
:102040000006C4F20106039000F18005304610211D
:1020500000224FF00009FEF7A7FB40F20C1A042003
:10206000C2F2000A8DF81B000A240DF11B010DF1CC
:102070001A02504601230094FFF78AF90DF11B0163
:102080000DF11A02504601238DF81B500094FFF702
:102090007FF9304610210122FEF786FB04208021C3
:1020A000FFF798FD0A208021FFF756FF30461021E8
:1020B0000022FEF779FB02208DF81B000DF11B01B9
:1020C0000DF11A02504601230094FFF761F90DF15A
:1020D0001B010DF11A02504601238DF81B9000944C
:1020E000FFF756F9304610210122FEF75DFB67B37A
:1020F00040F20C1AA8F10105C2F2000A0DF11B0909
:102100000DF11A0815F801BF3046102100220A24EB
:10211000FEF74AFB12208DF81B0050464946424606
:1021200001230094FFF734F90A24504649464246F9
:1021300001238DF81BB00094FFF72AF930461021D7
:102140000122FEF731FB013FDCD130461021002295
:10215000FEF72AFB40F20C170220C2F200078DF8AE
:102160001B000DF11B010DF11A02384601230094EA
:10217000FFF70EF9049D0DF11B010DF11A0238460F
:1021800001238DF81B500094FFF702F9304610210F
:102190000122FEF709FB0C2D03D10D208021FFF752
:1021A000DBFE40F20C194FF4FA654FF088084FF04F
:1021B0000A0AC2F200090DF11B0B0DF11A0700BF4C
:1021C000304610210022FEF7EFFA484659463A46BB
:1021D00001238DF81B80CDF800A0FFF7D9F800206F
:1021E0008DF81B00484659463A460123CDF800A019
:1021F000FFF7CEF89DF81A40304610210122FEF775
:10220000D3FA013D280439D005982042D8D00D20BA
:102210008021FFF7DFFC3046102100224FF000083C
:10222000FEF7C2FA40F20C158C20C2F200058DF8C0
:102230001B000A270DF11B010DF11A02284601238C
:102240000097FFF7A5F80DF11B010DF11A022846C2
:1022500001238DF81B800097FFF79AF89DF81A501C
:10226000304610210122FEF79FFA15F01B0F0FD008
:102270000225284607B0BDE8F08F00BF0D20802161
:10228000FFF7A8FC0225284607B0BDE8F08F00BF85
:102290000398049920400C2900F00105E9D130464B
:1022A0001021002210244FF00009FEF77DFA40F2C1
:1022B0000C189420C2F200088DF81B004FF00A0A97
:1022C0000DF11B010DF11A0240460123CDF800A0CB
:1022D000FFF75EF80DF11B010DF11A0240460123D4
:1022E0008DF81B90CDF800A0FFF752F89DF81A70FA
:1022F000304610210122FEF757FA30461021002205
:10230000FEF752FA98208DF81B000DF11B010DF11C
:102310001A0240460123CDF800A0FFF739F80DF16D
:102320001B010DF11A02404601238DF81B90CDF8D8
:1023300000A0FFF72DF89DF81A80304610210122E9
:10234000FEF732FA18F0070040EAC700A0F10800D3
:1023500008BFF800102F38BF3C46002F109908BF67
:102360000124002C088084D0029840F20C1BA0F1BC
:102370000108C2F2000B0DF11B074FF00A0A0DF124
:102380001A090595304610210022FEF70DFA922019
:102390008DF81B00584639464A460123CDF800A067
:1023A000FEF7F6FF00208DF81B00584639464A46D6
:1023B0000123CDF800A0FEF7EBFF9DF81A50304640
:1023C00010210122FEF7F0F9013C08F8015FD9D194
:1023D000059D284607B0BDE8F08F0000FEE700002D
:1023E000FEE70000704700002DE9F04182B01E4674
:1023F00090460D460446FEF7DDF9301A00EB08075B
:10240000FEF7D8F940F22401C2F200010968C1F3D5
:10241000CB317943019121688A682A40AA4227D1A9
:10242000064618F101001FD0FEF7C4F9801BB84220
:1024300022D2019801990028A1F10101019121689E
:10244000896808BF074601EA0500A842ECD00FE002
:1024500088682840A8420BD188682840A84207D144
:1024600088682840A84203D188682840A842EFD055
:10247000002002B0BDE8F081D4E900014268B1F566
:10248000827F22F0E00242600AD1A168B1F5004FDC
:1024900002D0B1F5806F03D1016821F040010160E5
:1024A000A16AB1F5005F07D1016821F40051016014
:1024B000016841F400510160012084F851000020BE
:1024C00084F85000032002B0BDE8F081704700009E
:1024D000FEF75ABB70470000FEE70000B0B586B0BB
:1024E00040F28805C2F2000505F1200426202146AD
:1024F000FFF7ECFC68712046FFF71CFB296A687146
:10250000A96108B106B0B0BDA86940F20001C2F2ED
:102510000001C8600420287100F0BCF900200121EE
:10252000002400F06DFA43F21140C0F6000000F004
:10253000B7FAA87EADF8144004942A7E6B7EED7E37
:10254000039443F2204103AC0090C0F60001204602
:102550000195FDF73DFE0120002100F051FA2046D3
:1025600000F09EFA40F6B830FDF7EEFF00F092F969
:1025700006B0B0BD2DE9F04385B040F28806C2F246
:10258000000606F1200426202146FFF79FFC70710B
:102590002046FFF7CFFA316A7071B16110B105B012
:1025A000BDE8F08341F20004C4F2010400F072F9C6
:1025B000002001214FF0000800F022FA43F2114000
:1025C000C0F6000000F06CFAB07E327E737EF77EBB
:1025D00043F2204102AD0090C0F600012846ADF85C
:1025E0001080CDF80C80CDF808800197FDF7F0FD44
:1025F0000120002100F004FA284600F051FA4FF4BF
:10260000FA60FDF7A1FF40F20009C2F2000999F853
:102610001B7096F82B501420307100F03BF900200D
:10262000002100F0EDF9AF421CD143F2D530C0F6E5
:10263000000000F035FA86F8048000BF20464FF411
:102640000051FEF7A9F84FF4FA70FDF77DFF3079DD
:102650000130C1B203293071F0D3022089F80000A3
:1026600015E000BF0EA000F01BFA86F8048000BF42
:1026700020464FF40051FEF78FF84FF4FA70FDF743
:1026800063FF30790130C1B205293071F0D340F6D3
:10269000B830FDF759FF00F0FDF805B0BDE8F08354
:1026A00057726F6E67206361726400002DE9F0411C
:1026B00086B000F0EFF8002001214FF0000800F094
:1026C0009FF939A000F0ECF940F28805C2F200054C
:1026D000E878322832D0312862D1002001214FF031
:1026E000000800F08DF943F20340C0F6000000F04E
:1026F000D7F940F20007C2F20007B87A3A7A7B7A3B
:10270000FE7A43F220410DF10E040090C0F6000164
:1027100020460196FDF75CFD0120002100F070F9D4
:10272000204600F0BDF94FF47A70FDF70DFFF86810
:10273000C7F80C80B86004202BE000BF0020012106
:1027400000F05EF943F20340C0F6000000F0A8F983
:1027500040F20007C2F20007B87B3A7B7B7BFE7B2E
:1027600043F220410DF10E040090C0F60001204616
:102770000196FDF72DFD0120002100F041F92046D2
:1027800000F08EF94FF47A70FDF7DEFE0820C7F8EE
:102790000C8028714FF4FA60FDF7D6FE00F07AF84D
:1027A00006B0BDE8F08100BF43686F6F73652043DA
:1027B0006172643A00000000B0B500F0C3FA40F264
:1027C0008804FF28C2F2000403D0E0706420FDF703
:1027D000BBFE40F20005E178C2F2000528784129ED
:1027E00008BF00281AD02339202900F25180DFE8E1
:1027F00001F0114F4F4F4F4F4F1D4F4F4F4F4F4F06
:102800004F4F4F4F4F4F4F4F4F4F4F4F4F4F4F4FD8
:102810004F3D410000202870B0BD00BF00F03AF8E5
:102820000020208001202870B0BD00BF217859B160
:10283000EA784AB9481E2070C1B2012000F0E0F8E1
:10284000202000F00BF92878617809B3032818BF1D
:10285000B0BD032912D80139012000F0D1F82020A1
:1028600000F0FCF8607801386070B0BDBDE8B040A1
:10287000FFF734BEBDE8B040FFF718BF05390120AF
:1028800000F0BEF8202000F0E9F8607801386070B0
:10289000B0BD00002DE9F04184B048F68C0040F254
:1028A000B804C0F60C00C2F2000402904FF06408B5
:1028B00002AA20464E210423CDF80080FEF73CF802
:1028C00042F62D164627C0F60D1603AD20464E21C2
:1028D0002A4604230396CDF80080FEF72DF8013F29
:1028E000F4D104B0BDE8F08170B582B03220FDF7BC
:1028F0002BFE40F2B80443F63C06C2F20004C0F6D8
:102900000C06642501AA20464E2104230196009559
:10291000FEF712F80520FDF717FE01AA20464E210A
:10292000042301960095FEF707F80120FDF70CFE41
:1029300001AA20464E21042301960095FDF7FCFFD5
:102940000A20FDF701FE42F62C00C0F60C000190B3
:1029500001AA20464E2104230095FDF7EDFF0A2031
:10296000FDF7F2FD42F62C00C8F68C00019001AA9A
:1029700020464E2104230095FDF7DEFF0120FDF7E0
:10298000E3FD40F60C00C8F68C00019001AA204639
:102990004E2104230095FDF7CFFF0120FDF7D4FD64
:1029A00040F60C00C1F61C00019001AA20464E2101
:1029B00004230095FDF7C0FF0120FDF7C5FD0120B0
:1029C000FDF7C2FD40F60C00C6F66C00019001AAAE
:1029D00020464E2104230095FDF7AEFF0120FDF7B0
:1029E000B3FD40F60C00CCF6CC00019001AA2046C5
:1029F0004E2104230095FDF79FFF02B070BD00003B
:102A0000012805D0002808BF41F0800102E000BF86
:102A100041F0C00180B582B021F00F00090100F142
:102A20000C0208308DF8050001F10C008DF806004D
:102A300001F108008DF8070040F2B8008DF804207D
:102A40004FF0640CC2F2000001AA4E210423CDF81D
:102A500000C0FDF771FF02B080BD000080B582B0FC
:102A600000F0F001000101F10D0209318DF80510AF
:102A700000F10D0109308DF8070040F2B8008DF823
:102A800004208DF806104FF0640CC2F2000001AA79
:102A90004E210423CDF800C0FDF74EFF02B080BDEB
:102AA000F0B583B0017821B340F2B804461E642724
:102AB000C2F2000402AD00BF21F00F00090100F1D5
:102AC0000D0209308DF8090001F10D008DF80A00A2
:102AD00001F109008DF808208DF80B0020464E21E9
:102AE0002A4604230097FDF727FFB1780136002915
:102AF000E2D103B0F0BD000090B0FEF753F800241F
:102B00000120CDE90B44CDE9094406900A904FF429
:102B1000E0104FF4803102250F9006A8CDE907148C
:102B2000CDE90D51FEF7C8F920B1EFF3108072B670
:102B3000FEE700BF0F20CDE901054FF48060CDE92D
:102B4000040401A802210394FEF7C2F820B1EFF3B8
:102B5000108072B6FEE700BF41F21800C4F2020016
:102B6000016840F6000941F0100101600168C4F2FB
:102B7000010901F0100106910699016809F5006547
:102B800041F0200101600168002201F0200106915E
:102B9000069901684FF4005641F004010160016894
:102BA000002701F0040106910699016841F008012F
:102BB000016000684FF4005100F00800069006988C
:102BC0002846FDF7F1FD484641F61061002241F626
:102BD0001068FDF7E9FD069606AE01244FF0020AE3
:102BE00028463146CDE90747CDF824A0FDF7C0FCC3
:102BF00048463146CDE90684CDE9087AFDF7B8FCB0
:102C0000F020CDE9060709F5806031460894FDF70C
:102C1000AFFC40F2B800A9F53441C2F2000048F21E
:102C2000A0624FF48043C0F2010280E88600C0E950
:102C30000373C0E90577C0E90777FDF7C1FD28B147
:102C4000EFF3108072B600BFFEE700BF40F20C1039
:102C500009F52051C2F200004FF482724FF4007364
:102C6000182680E886000A21C0E90377C0E90573C9
:102C7000C661C0E90877C0E90A71FEF7F7FA28B122
:102C8000EFF3108072B600BFFEE700BFFEF7FEFF55
:102C9000FFF72AFE00200121FFF7B2FE25A0FFF773
:102CA000FFFE4FF47A70FDF74FFCFFF7F3FD40F2A3
:102CB000000643F2F53443F2E535C2F20006C0F6F1
:102CC00000040227C0F6000502E000BFFFF752FC37
:102CD000FFF772FD3078032808D001280AD00028B9
:102CE000F4D100F0B7FAFFF745FCF1E700F01AFA6B
:102CF000ECE700BF00200121FFF782FE2046FFF72E
:102D0000CFFE00F08BF9012870700BD00028DDD1C8
:102D100000200121FFF774FE2846FFF7C1FE0320C3
:102D200004E000BFFFF7B6FD002077703070FFF7BA
:102D300021FCCDE757454C4C434F4D45204841556C
:102D400049000000B0B540F60044C4F20104A4F507
:102D5000806528464FF480510022FDF725FD284666
:102D60004FF400610122FDF71FFD28464FF48061FA
:102D70000122FDF719FD28464FF400710122FDF7ED
:102D800013FD20468021FDF701FD002800F0BC80E6
:102D900020464021FDF7FAFC002800F0BD802046C7
:102DA0002021FDF7F3FC002800F0BE802046102112
:102DB000FDF7ECFC002800F0BF8028464FF480515E
:102DC0000122FDF7F1FC28464FF400610022FDF7D7
:102DD000EBFC28464FF480610122FDF7E5FC284614
:102DE0004FF400710122FDF7DFFC20468021FDF742
:102DF000CDFC002800F0A88020464021FDF7C6FC4D
:102E0000002800F0A98020462021FDF7BFFC002803
:102E100000F0AA8020461021FDF7B8FC002800F041
:102E2000AD8028464FF480510122FDF7BDFC2846B5
:102E30004FF400610122FDF7B7FC28464FF4806192
:102E40000022FDF7B1FC28464FF400710122FDF786
:102E5000ABFC20468021FDF799FC002800F098800B
:102E600020464021FDF792FC002800F09B80204680
:102E70002021FDF78BFC002800F09E8020461021C9
:102E8000FDF784FC002800F0A18028464FF4805113
:102E90000122FDF789FC28464FF400610122FDF76D
:102EA00083FC28464FF480610122FDF77DFC284613
:102EB0004FF400710022FDF777FC20468021FDF7DA
:102EC00065FC002800F08C8020464021FDF75EFC68
:102ED000002800F08F8020462021FDF757FC0028B5
:102EE00000F0928020461021FDF750FC00281CBF06
:102EF0000020B0BD20461021FDF748FC00284FF00F
:102F00004400F7D088E000BF20468021FDF73EFC5A
:102F10000028F9D03120B0BD20464021FDF736FC15
:102F20000028F9D03420B0BD20462021FDF72EFC2A
:102F30000028F9D03720B0BD20461021FDF726FC2F
:102F40000028F9D02A20B0BD20468021FDF71EFCC4
:102F50000028F9D03220B0BD20464021FDF716FCF4
:102F60000028F9D03520B0BD20462021FDF70EFC09
:102F700000284FF03800F7D04EE000BF2046102167
:102F8000FDF704FC00284FF03000F7D044E000BF0C
:102F900020468021FDF7FAFB00284FF03300F7D0E0
:102FA0003AE000BF20464021FDF7F0FB00284FF03B
:102FB0003600F7D030E000BF20462021FDF7E6FBC9
:102FC00000284FF03900F7D026E000BF204610213E
:102FD000FDF7DCFB00284FF02300F7D01CE000BF1A
:102FE00020468021FDF7D2FB00284FF04100F7D0AA
:102FF00012E000BF20464021FDF7C8FB00284FF03B
:103000004200F7D008E000BF20462021FDF7BEFBBC
:1030100000284FF04300F7D0B0BD000070B540F27B
:103020008806C2F20006F07840F200053038C2F29D
:10303000000500210928E97006D8317831B103294B
:1030400009D9C8B204281AD0A87870BDFFF722FCAD
:1030500031780329F5D8F078721890710120FFF7C4
:10306000CFFC43F2E330C0F60000FFF719FD3078E3
:10307000411C00203170F070C8B20428E4D1002453
:103080003470FFF707FC2879B17988424FF00000CF
:1030900017D16879F17988420ED1A879317A8842BE
:1030A0000CD1E879717A88420AD10420307100206D
:1030B000A870A87870BD00BF012002E0022000E0E7
:1030C000032030710120A870FFF7E4FB00200021ED
:1030D000FFF796FC0FA0FFF7E3FC347141F2000408
:1030E000C4F2010420464FF40051FDF755FB4FF4A4
:1030F000FA70FDF729FA30790130C1B20529307133
:10310000F0D340F6B830FDF71FFAFFF7C3FBA878FD
:1031100070BD00BF57726F6E672070617373776FF9
:103120007264210070B540F28804C2F20004E078B5
:10313000A0F1300109296ED8617803291CD86218E2
:10314000D0720120FFF75CFC43F2E330C0F60000D0
:10315000FFF7A6FC60780130C1B2042960701AD173
:10316000FFF798FB00200121FFF74AFC2AA0FFF798
:1031700097FC60780FE000BF0439621810740120DA
:10318000FFF73EFC43F2E330C0F60000FFF788FC97
:10319000607801306070C0B200260828E67018BF61
:1031A00070BDFFF777FBE07A217C40F20005884292
:1031B000C2F20005667018D1217B627C91420FD16A
:1031C000627BA37C9A420DD1A37BE67CB3420BD1F8
:1031D0000426267128716971AA71EB7118A406E0A2
:1031E000012602E0022600E0032626710EA4FFF766
:1031F00051FB00200021FFF703FC2046FFF750FCA5
:103200000220A8704FF4FA60FDF79EF9FFF742FB29
:103210004FF40070288070BD4E45572050415353E5
:10322000574F524420323A004348414E47452055BB
:103230004E5355434345535346554C4C590000009B
:103240004348414E47452053554343455353465504
:103250004C4C5900F0B581B000200121FFF7D0FBA4
:1032600038A0FFF71DFCFFF7D9FE40F20005C2F2BF
:1032700000050128687033D0002860D141F20004B5
:10328000C4F20104FFF706FB002000210027FFF72E
:10329000B7FB43F2D530C0F60000FFF701FC40F267
:1032A0008806C2F20006377120464FF40051FDF740
:1032B00073FA4FF4FA70FDF747F930790130C1B273
:1032C00003293071F0D340F6B830FDF73DF9FFF730
:1032D000E1FA0020B07002202870A87001B0F0BDA3
:1032E00040F28806C2F20006B1780220A870481C9D
:1032F000C1B20329B07020D141F200040027C4F20A
:103300000104B770FFF7C6FA00200021FFF778FB31
:1033100010A0FFF7C5FB377120464FF40051FDF7B1
:103320003BFA4FF4FA70FDF70FF930790130C1B272
:103330000B293071F0D3FFF7ADFA0020287001B0EF
:10334000F0BD00BF454E5445522050415353574F96
:1033500052443A005858585858585858585858587D
:103360005858580030380A2801D2012070470020F0
:10337000704730313233343536373839414243447F
:1033800045464030580030313233343536373839DD
:1033900061626364656640307800040000080000E4
:1033A000000000000002000100001000000000000A
:1033B00000000001020304060708090000000001E4
:1033C000020304010202030405060708090A0B0CA4
:1033D0000D0E0F1010446F6F72206973206F7065AF
:1033E0006E21002A004E45572050415353574F52EB
:1033F0004420313A004F4C442050415353574F52D0
:10340000443A0044656C6574656420436172643AB3
:1034100000436172642773206E756D6265723A00B5
:10342000253032582D253032582D253032582D2553
:1034300030325800583400080000002028000000F6
:103440002801000880340008280000204007000000
:103450004401000800000000020202013131313154
:1034600013C8C80D000000000000000000000000AC
:103470000000000001000000100000000024F40023
:04000005080000ED02
:00000001FF
