:020000040800F2
:10000000A007002089010008712400081D170008BE
:100010006D24000845020008692500080000000062
:100020000000000000000000000000005D25000846
:10003000490200080000000075240008612500083E
:10004000A3010008A3010008A3010008A301000800
:10005000A3010008A3010008A3010008A3010008F0
:10006000A3010008A3010008A3010008A3010008E0
:10007000A3010008A3010008A3010008A3010008D0
:10008000A3010008A3010008A3010008A3010008C0
:10009000A3010008A3010008A3010008A3010008B0
:1000A000A3010008A3010008A3010008A3010008A0
:1000B000A3010008A3010008A3010008A301000890
:1000C000A3010008A3010008A3010008A301000880
:1000D000A3010008A3010008A3010008A301000870
:1000E000A3010008A3010008A301000800F002F822
:1000F00000F03AF80AA090E8000C82448344AAF188
:100100000107DA4501D100F02FF8AFF2090EBAE885
:100110000F0013F0010F18BFFB1A43F0010318473B
:10012000203E0000403E0000103A24BF78C878C14D
:10013000FAD8520724BF30C830C144BF04680C60ED
:10014000704700000023002400250026103A28BF35
:1001500078C1FBD8520728BF30C148BF0B60704739
:100160001FB51FBD10B510BD00F031F81146FFF7E7
:10017000F7FF03F0F1F800F04FF803B4FFF7F2FFD8
:1001800003BC00F057F800000948804709480047C1
:10019000FEE7FEE7FEE7FEE7FEE7FEE7FEE7FEE737
:1001A000FEE7FEE704480549054A064B7047000094
:1001B00065250008ED000008A0010020A007002030
:1001C000A0030020A00300207047704770477546C9
:1001D00000F02CF8AE4605006946534620F00700B3
:1001E000854618B020B5FFF7DDFFBDE820404FF091
:1001F00000064FF000074FF000084FF0000BAC4630
:10020000ACE8C009ACE8C009ACE8C009ACE8C0097A
:1002100021F007018D46704710B50446AFF300800A
:100220002046BDE81040FFF7A8BF00000048704717
:100230001800002001491820ABBEFEE7260002008E
:1002400070470000FEE700007047000070B542F202
:100250000C060446C4F2020600F0F4FA3168C9073D
:1002600018D13068800644BF202030603068C00656
:1002700007D43069C00704D1306840075CBF002054
:1002800070BD3068C00623D40020316849072BD4E4
:1002900034E000BF002C47D00546601C0ED130680A
:1002A000C007DED03068C0071CBF30685FEAC0708E
:1002B000D7D03068C007F2D1D3E700BF00F0C2FA50
:1002C000401BA04230D83068C007F7D1C9E700BF53
:1002D00040F27810C2F20000C16941F00201C16130
:1002E00010203168490709D540F27811C2F20001A7
:1002F000CA6940F0040042F00102CA613169C907CD
:1003000002D13060012070BD40F27811C2F20001CC
:10031000CA6942F00402CA61316921F00101316108
:100320003060012070BD00BF032070BD10B586B0E5
:10033000044600F04DF901200590CDE903040020AA
:10034000029002A801A900F06BF800F0E1F806B0F5
:1003500010BD000070B5A2B301324FF0FF3303EBC4
:100360005203032BC2F3410C02D2002316E000BF5C
:10037000520822F0030E0022002300BF845A851881
:100380008C526C888E187480AC880433B480EC88EE
:100390009E4502F10802F480F0D11144BCF1000F37
:1003A00008BF70BD30F81320BCF1010F0A8008D0DF
:1003B00000EB43004288BCF1020F4A801CBF8088DA
:1003C000888070BD70B516460D46044600F000F9F1
:1003D0006EB1701C4608023D35F8022F01202146FF
:1003E000002300F09FF8013E04F10204F4D1BDE8BF
:1003F000704000F08DB80000B0B5044600F022FA5D
:10040000054640F20C00C2F200000078611C18BFE3
:10041000044400BF00F016FA401BA042FAD3B0BD5E
:100420002DE9F04381B040F27816C2F20006327E28
:10043000012A03D1022001B0BDE8F0830546012066
:100440002C6830764CF250308846FFF7FFFE022CC5
:100450001CD100284ED1002042F21004F061C4F2F9
:100460000204206840F004002060206840F0400052
:1004700020604CF25030FFF7E9FE216821F00401C2
:1004800021600021317601B0BDE8F08390BB4FF0D0
:10049000FF30C8F80000D5E9027007EB80208742E2
:1004A00028D242F21004C4F202044FF0000900BF47
:1004B000C6F81C90206840F0020020606760206849
:1004C00040F0400020604CF25030FFF7BFFE216842
:1004D00021F00201216098B9D5E9020107F5806792
:1004E00000EB81208742E3D300200021317601B068
:1004F000BDE8F08301200021317601B0BDE8F08332
:10050000C8F800700021317601B0BDE8F08300002A
:1005100042F21001C4F20201086840F0800200209B
:100520000A6070472DE9F04F81B040F27819C2F2AD
:100530000009924699F81820012A03D1022001B03F
:10054000BDE8F08F8046012089F818004CF2503049
:100550009B460E46FFF77AFEA0BB404642F21007CC
:10056000B8F1020F18BF0420C4F20207B8F1010F5E
:1005700008BF404645424FF000080024C4F1200166
:10058000C9F81C802AFA04F00BFA01F13A68084312
:10059000B4F1200158BF2BFA01F042F0010139609B
:1005A00026F8020B4CF25030FFF750FE3968013547
:1005B00021F0010248F100013A6018B9002904F164
:1005C0001004DBD0002189F8181001B0BDE8F08FCD
:1005D00042F20400C4F20200C16809065CBF0020B8
:1005E000704740F22311C4F26751016048F6AB1125
:1005F000CCF6EF510160C068C0B2C009704700007E
:100600002DE9F04F82B00E68002E00F0038141F218
:100610000042C4F20102042340F2004E904208BF9F
:1006200003234FF6FF7CC4F2010E00930024012344
:10063000C1F2100C4FF0000A4FF0000949E000BF72
:10064000012704F00C030F229A402BEA020207FA5A
:1006500003F34FEA9A051A4346F82520D1F804B06F
:1006600040F20C455FEACB22DEF8082054BF22EAB4
:10067000080242EA0802C4F20105CEF808202A68FE
:100680005FEA8B2354BF22EA080242EA08022A608A
:100690005FEA8B33DEF8042054BF22EA080242EA04
:1006A00008025FEACB33CEF80420DEF800204FF0DA
:1006B000010354BF22EA080242EA0802CEF80020F1
:1006C0000E680AF1010A36FA0AF204F1040400F095
:1006D000A18003FA0AF816EA080FF1D04E686645C1
:1006E00012DC122E56D8DFE806F0350B4549555579
:1006F00055555555555555555555554D510000BFF6
:10070000D1F80C9046E000BF4FF6FF72C1F2210213
:1007100096420FDC0022C1F2110296421AD000224A
:10072000C1F21202964215D00022C1F22102964275
:1007300010D02FE00022C1F2220296420AD00022FD
:10074000C1F23102964205D00022C1F23202964235
:1007500020D100BF8A684AB1012A14BFC0F81480B2
:10076000C0F810804FF0080914E000BF4FF00409F2
:1007700010E000BFCA6802F108090BE04FF0000961
:1007800008E000BFCA6802F1040903E0CA6802F188
:100790000C0900BF22460646BAF1080F24BF203AD2
:1007A000043637680F25954027EA050509FA02F255
:1007B0002A433260CA79D2067FF582AF41F218032C
:1007C000C4F202031A68AEF57E7642F001021A60A6
:1007D0001A6802F001020192019A2AF0030256F807
:1007E00002B040F60002C4F20102904210D040F67E
:1007F0000042C4F2010290423FF422AF41F20002F3
:10080000C4F20102009F904208BF022719E700BF0F
:10081000002716E702B0BDE8F08F000080680840AE
:1008200018BF012070470000C26802EA010391432B
:1008300041EA034101617047002A08BF09040161D0
:100840007047000040F29810C2F200000068704744
:1008500070B5B8B3044690F83D0028B9002084F87C
:100860003C00204600F09AF9242084F83D002068DE
:10087000016821F001010160016841F4004101605B
:10088000016821F40041016000F04AFB48F2804118
:10089000C0F21E0140F60013D4F804E088424FF085
:1008A0000001C0F23D0348F2A16C4FF0000238BFD6
:1008B00001219842C0F2010C38BF0122E64538BF41
:1008C0000A460AB1012070BD4DF68361C4F21B31A6
:1008D000A0FB01122168950C4B684FF4967623F02B
:1008E0003F0343EA9243754344F6D3564B60C1F24B
:1008F00062060B6AA5FB0656B50923F03F03E645E1
:1009000038BF950C6A1C1A430A62CA6948F2A0668D
:100910004CF6FF73C0F20106B64522EA03020BD87B
:1009200001384FEA4E03B0FBF3F001306FF31F3094
:10093000042898BF04201EE0A368013863B119237E
:100940000EFB03F3B0FBF3F001306FF31F3078B10F
:1009500000F5804008E000BF0EEB4E03B0FBF3F063
:1009600001306FF31F3028B100F5004003E000BFF5
:10097000012000E001201043C8610868D4E9072382
:1009800020F0C000104318430860886848F2FF3226
:1009900004F10C0690434CCE18431043A5698860BF
:1009A000C86820F0FF0030432843C860086840F062
:1009B0000100086000202021206484F83D1020639D
:1009C00084F83E0070BD00002DE9F04383B01E4660
:1009D000174689460446FFF735FF94F83D10202955
:1009E00020D10546206800BF8169890716D5FFF729
:1009F00029FF411B20681A29F6D381698907F3D59D
:100A000000202021206384F83D1084F83E00216CF2
:100A100041F02001216484F83C0003E094F83C108C
:100A2000012903D1022003B0BDE8F083012184F83D
:100A30003C100168C90703D1016841F00101016060
:100A4000016840F2020821F400610160212184F86C
:100A50003D10102184F83E100021216467626685F4
:100A6000618DC0F201082185A8F10211E162E16AFD
:100A70000A9E11F5803F18BF01291DD1016841F47C
:100A80008071016020464FF001110022334600952D
:100A900000F0A6FE50B120680068C00544BF4FF4C6
:100AA00000702064012003B0BDE8F0832069B0F538
:100AB000804F07D1FE2015E00829DFD0216B1229D5
:100AC000DCD0DFE7062000EAD9102168F0300861A9
:100AD00008F10601204632462B4600F06BFF002845
:100AE000E0D1FF20216800EA090008612046414664
:100AF00032462B4600F05EFF0028D3D10020029042
:100B000020684169029180690290029806E000BF66
:100B1000204631462A4600F003FE18BB208D68B3FC
:100B2000204631462A4600F0B5FFD8B9606A2168F0
:100B3000024612F8013B0B616262628D013A6285E6
:100B4000228D531E23854F697F07E1D51B04DFD01B
:100B5000437802300B616062608D01386085901EC1
:100B60002085D5E7206C04289CD12068016841F4D9
:100B700000710160012003B0BDE8F08320680168C6
:100B800041F400710160202084F83D00002084F8C9
:100B90003E0084F83C0003B0BDE8F08310B586B099
:100BA000006845F20042C4F2000200219042049124
:100BB00002D006B010BD00BF41F21804C4F2020416
:100BC000206802A940F008002060206800F00800BA
:100BD000019001984FF4407002901220039003207E
:100BE000059040F60040C4F20100FFF709FD042023
:100BF000C4F20100016841F0E06141F002010160CE
:100C0000606840F400106060606800F400100190BB
:100C1000019806B010BD000040F20C0040F298119F
:100C2000C2F20000C2F2000100780A6810440860B5
:100C30007047000080B542F20000C4F20200016873
:100C400041F010010160032000F07AF80F2000F05D
:100C500005F800F027F8002080BD000070B540F2D4
:100C60000C06C2F2000640F214013278C2F2000112
:100C70004FF47A730968B3FBF2F20446B1FBF2F168
:100C8000084600F035FD0F2C4FF0010508D838B9A3
:100C90004FF0FF3021460022002500F025F8746057
:100CA000284670BD82B041F21800C4F2020001680B
:100CB000022241F001010160016801F0010101918E
:100CC0000199416841F080514160406800F08050D6
:100CD000009000980420C4F20100016862F31A61D8
:100CE000016002B07047000010B54EF60C5CCEF209
:100CF000000CDCF80030C3F3022E8EF00704042C45
:100D000028BF0424BEF103034FF0FF3E0EFA04F4A3
:100D100038BF0023A14399400EFA03F39A431143CD
:100D200000F00F0200F160430901043A03F5644347
:100D30006244002848BF02F10C03197010BD000086
:100D40004EF60C51CEF200010A684FF6FF031A402E
:100D500060F30A2242F0806040F0FD700860704746
:100D60002DE9F04381B0002800F0858042F20008B0
:100D7000C4F202080446D8F800000D4600F007004F
:100D800088420CD2D8F8000020F007002843C8F8A9
:100D90000000D8F8000000F00700A8426BD12068DE
:100DA00041F204098107C4F2020917D5410705D5AC
:100DB000D9F8001041F4E061C9F80010010705D529
:100DC000D9F8001041F46051C9F80010D9F80010AA
:100DD000A26821F0F0011143C9F80010C00741D109
:100DE000D8F8000000F00700A8420CD9D8F800009D
:100DF00020F007002843C8F80000D8F8000000F0F1
:100E00000700A84237D12068410707D5D9F800105C
:100E1000E26821F4E0611143C9F80010000708D529
:100E2000D9F80000216920F4605040EAC100C9F8F7
:100E30000000D9F8002002F00C00082841F2002040
:100E4000C0F27A0050D143F6AE63C2F38341C0F6DC
:100E50000003595CD2033BD440F60010C0F23D00C1
:100E6000484341E0606802280AD001282AD159F895
:100E7000041C890308D4012001B0BDE8F08300BF41
:100E800059F8041C8901F6D5D9F8001021F00301A6
:100E90000843C9F80000FFF7D5FC064641F2883741
:100EA000D9F80000616800F00C00B0EB810F97D01A
:100EB000FFF7C8FC801BB842F2D9032001B0BDE89F
:100EC000F08300BF59F8041C8907D4D5DCE700BFC4
:100ED000D9F8002043F6AC63C2F34042C0F60003E9
:100EE0009A5C4843B0FBF2F0D9F8001043F69462E4
:100EF000C1F30311C0F60002515C40F2140220FA63
:100F000001F140F21000C2F200000068C2F20002DB
:100F10001160FFF7A3FE002001B0BDE8F0830000E0
:100F200040F2140041F20401C2F20000C4F20201D6
:100F30000068096843F6A462C1F30221C0F600020A
:100F4000515CC840704700002DE9F04182B0002894
:100F500068D00446007841F20006C007C4F20206D9
:100F600025D0706800F00C0004281BD0706800F0D9
:100F70000C00082802D17068C00313D460680028F0
:100F800000F06881B0F5A02F00F07C81B0F5803FC3
:100F900000F07C81306820F480303060306820F4CC
:100FA000802076E13068800301D56068D0B3207876
:100FB000800718D5706810F00C0F07D0706800F02B
:100FC0000C0008286ED17068C0036BD430688007AD
:100FD00002D52069012825D13068616920F0F80028
:100FE00040EAC1003060207800071FD42078400715
:100FF00032D4E56995B1706800F00C00082840F023
:101000008F80012D0ED07068216A00F480328A42F0
:1010100008D1616A00F47010884203D1002002B048
:10102000BDE8F081012002B0BDE8F081A069002890
:1010300062D00020C4F242200121C0F88014FFF7E2
:1010400001FC0546706A800700F18C80FFF7FAFB0F
:10105000401B0228F6D92AE1F06910F0805808D127
:10106000F06940F08050F061F06900F0805000902D
:10107000009847F20007C4F200073868C00529D479
:10108000386840F480703860FFF7DCFB054600BF2D
:101090003868C0051ED4FFF7D5FB401B6428F7D97C
:1010A00005E100BF2069002840F20000C4F24220A0
:1010B00000F0828001210160FFF7C4FB054600BFFC
:1010C000306880073FF588AFFFF7BCFB401B022864
:1010D000F6D9ECE0E068002800F08080052800F0F8
:1010E0009780012800F09880306A20F0010030627B
:1010F000306A20F0040092E00020C4F24220002177
:10110000C0F88014FFF79EFB054600BF706A800799
:101110007FF56CAFFFF796FB401B0228F6D9C6E0BF
:101120000027C4F2422700203866FFF78BFB022D10
:1011300005460BD13068800140F1BE80FFF782FB8D
:10114000401B02284FF00300F4D968E730688001A3
:101150007FF564AFFFF776FB401B02284FF00300DA
:10116000F4D95CE740F21400C2F20000006844F6D3
:10117000D351C1F26201A0FB0101480A019000BFF6
:1011800000BF0198411E002801913FF42FAF00BF1E
:101190000198411E002801913FF428AF00BF01983B
:1011A000411E002801913FF421AF00BF0198411E6C
:1011B00000280191E4D119E700210160FFF742FB0B
:1011C000054600BF306880077FF50DAFFFF73AFB9B
:1011D000401B02284FF00300F4D920E7306A20F0CA
:1011E00001003062306A20F004003062FFF72AFB11
:1011F000054641F2883700BF306A800720D5FFF7E7
:1012000021FB401BB8424FF00300F5D907E700BFB0
:10121000306A40F004003062306A40F00100306211
:10122000FFF710FB054641F2883700BF306A8007A0
:1012300006D4FFF707FB401BB842F7D937E000BFE1
:10124000B8F1000F7FF4D5AEF06920F08050F06166
:10125000CFE600BF306820F480303060306820F482
:1012600080203060FFF7EEFA054600BF306880034B
:101270007FF59DAEFFF7E6FA401B64284FF00300B0
:10128000F4D9CCE6306840F480203060306840F417
:1012900080303060FFF7D6FA054600BF3068800323
:1012A0003FF585AEFFF7CEFA401B6428F6D9032040
:1012B00002B0BDE8F08100BF206AB0F5803F05D1E3
:1012C0007168A26821F40031114371607168626A2B
:1012D00021F4741111430843706001203866FFF750
:1012E000B1FA0446306880013FF598AEFFF7AAFADC
:1012F000001B02284FF00300F4D990E670B538B116
:101300000446406A30B10020206104F1140007E077
:10131000012070BD6068B0F5827F03D004F11C002D
:10132000002101600026A66294F8510020B92046F1
:1013300084F8506000F038F8022084F8510094E8F6
:10134000071001F48271036802F4044223F04003A1
:101350000360236911440CF40062114403F002029B
:101360006369114403F00102A369E569114403F4C0
:101370000072114405F03802256A114405F080021C
:10138000A56A114305F4005211430160042101EAEA
:1013900013414160C16921F40061C16101206665AA
:1013A00084F85100304670BD70B586B040F6000438
:1013B000C4F20104006804F5205100268842049616
:1013C00002D006B070BD00BF41F21800C4F20200A6
:1013D000016802AD41F480510160016801F480515F
:1013E00001910199016841F00401016000682946FA
:1013F00000F0040001900198A020029002200390C8
:10140000032005902046FFF7FBF84020CDE90206B7
:10141000204629460496FFF7F3F806B070BD000099
:101420002DE9F04381B0044690F85000012803D123
:10143000022001B0BDE8F08301201E4615460F468C
:1014400084F85000FFF7FEF994F851108146012905
:1014500012D06068B0F5827F40F0A480A0680028B8
:101460004FF0020008BF042906D0002184F8501074
:1014700001B0BDE8F08300BF002F4FF0010018BF9E
:10148000002DF2D0002EF0D094F851000021042855
:101490001CBF052084F851006165A563E687A68717
:1014A0002763E6862068A686216461640168490690
:1014B00003D4016841F0400101606168731EE26875
:1014C000B1FA81F1B3FA83F3DDF8208049095B09B1
:1014D000B2F5006F41EA03016CD131B137F8021B5C
:1014E000C1602763E08E0138E086012518F1010014
:1014F00031D101E0FFF7A6F9E08E18B9E08F00289E
:1015000000F0C0802068816889070CD5E18E51B158
:10151000012D08D1216B002531F8022BC260216317
:10152000E18E0139E1868168C907E3D0E18F0029A6
:10153000E0D0C068A16B012521F8020BA163E08F08
:101540000138E087D6E700BFFFF77CF9A0EB090080
:10155000404580F0AB80E08E18B9E08F002800F0A5
:1015600091802068816889070CD5E18E51B1012DE9
:1015700008D1216B002531F8022BC2602163E18E76
:101580000139E1868168C907DED0E18F0029DBD00F
:10159000C068A16B012521F8020BA163E08F01381F
:1015A000E087D1E70220002184F8501001B0BDE8A7
:1015B000F08300BF39B139780173206B01302063AB
:1015C000E08E0138E086012518F1010032D101E0FA
:1015D000FFF738F9E08E10B9E08F002852D020686C
:1015E000816889070ED5E18E61B1012D0AD1216B89
:1015F000002509780173216B206801312163E18E98
:101600000139E1868168C907E2D0E18F0029DFD086
:10161000C068A16B01250870A06B0130A063E08F4A
:101620000138E087D4E700BFFFF70CF9A0EB090011
:1016300040453BD2E08E08B9E08F18B3206881683E
:1016400089070ED5E18E61B1012D0AD1216B0025EC
:1016500009780173216B206801312163E18E013922
:10166000E1868168C907DFD0E18F0029DCD0C0683E
:10167000A16B01250870A06B0130A063E08F0138D9
:10168000E087D1E72046802142464B4600F0F4FE39
:10169000B0B1606D40F020006065202060650120E1
:1016A000002184F8501001B0BDE8F083012084F8D7
:1016B00051000320002184F8501001B0BDE8F083F0
:1016C000A06838B9002000902068C1680091806847
:1016D00000900098606D00284FF0010004BF84F86E
:1016E00051000020002184F8501001B0BDE8F083C3
:1016F000411E0020B0EB116F1CBF012070474EF25D
:101700001002CEF2000251604EF62351CEF20001DB
:10171000F0230B700721906011607047FEE7000016
:1017200070B50368044653F8140F400711D40E46F1
:10173000481C29D086BB00BF1868400527D4FFF796
:1017400081F8236853F8140F400739D5186840070B
:10175000F2D5002070BD00BF18684007F9D41868A2
:10176000400514D418684007F3D4186840050ED417
:1017700018684007EDD41868400508D41868400779
:101780004FF0000048BF70BD18684005E4D56FF405
:1017900080601860042014E0154603E053F8140F2D
:1017A0004007D6D418684005F1D4FFF74BF8401B2A
:1017B0002368B042F2D958694007EFD4202000E0F6
:1017C000202000212022216384F83D2084F83E104F
:1017D000226C10432064012084F83C1070BD00008E
:1017E0002DE9F041054600681E46144601F47F02CB
:1017F00001338FB242D0DDF81880B2F5803F40F05F
:10180000878040693840C01BB0FA80F04009A04290
:1018100040F0C8804EB924E040693840C01BB0FA9F
:1018200080F04009A04240F0BD80FFF70BF8A0EB2C
:1018300008012868B142EFD941693940C91BB1FAA2
:1018400081F14909A142E7D19BE000BF40693840DE
:10185000C01BB0FA80F04009A0424FF0000040F0F9
:10186000A680FEF7EFFF286841693940C91BB1FA2D
:1018700081F14909A142E9D183E000BFB2F5803F7F
:1018800024D100BF41693940C91BB1FA81F149092E
:10189000A14240F0878041693940C91BB1FA81F10A
:1018A0004909A14240F07E8041693940C91BB1FA23
:1018B00081F14909A14275D141693940C91BB1FA89
:1018C00081F14909A142DDD06CE000BF8169394056
:1018D000C91BB1FA81F14909A14263D1816939403B
:1018E000C91BB1FA81F14909A1425BD18169394033
:1018F000C91BB1FA81F14909A14253D1816939402B
:10190000C91BB1FA81F14909A142DFD04AE000BF09
:1019100080693840C01BB0FA80F04009A04241D134
:1019200046B923E080693840C01BB0FA80F0400916
:10193000A0423BD1FEF786FFA0EB08012868B14228
:10194000F0D981693940C91BB1FA81F14909A14235
:10195000E8D116E080693840C01BB0FA80F0400939
:10196000A0424FF0000018BFBDE8F081FEF76AFF0B
:10197000286881693940C91BB1FA81F14909A1423E
:10198000E8D100202021286385F83D1085F83E002D
:10199000296C41F02001296485F83C000120BDE854
:1019A000F08100BF0020BDE8F08100BF0020BDE84D
:1019B000F0810000F0B581B0044600681D4643691F
:1019C0008FB203EA0701B94202D1002001B0F0BD95
:1019D00041691646013201F4806125D0002940D1C9
:1019E000CEB100BFFEF72EFF411B2068B14203D9E4
:1019F00041693940B9424BD141693940B942E4D0DB
:101A000041694905EED52CE041693940B942DCD045
:101A10004169490525D4FEF715FF20684169394021
:101A2000B942F1D0202024E0D9B941693940B94206
:101A3000CBD04169490514D441693940B942C4D079
:101A4000416949050DD441693940B942BDD0416968
:101A5000490506D441693940B942B6D041694905C2
:101A6000E3D5016841F4007101606FF48061416168
:101A7000042000212022216384F83D2084F83E10B8
:101A8000226C1043206484F83C10012001B0F0BDAA
:101A90002020EEE770B50368044653F8140F0006E3
:101AA00011D40E46481C29D086BB00BF18684005DB
:101AB00027D4FEF7C7FE236853F8140F000639D564
:101AC00018680006F2D5002070BD00BF1868000637
:101AD000F9D41868400514D418680006F3D41868BF
:101AE00040050ED418680006EDD41868400508D4E7
:101AF000186800064FF0000048BF70BD1868400528
:101B0000E4D56FF480601860042014E0154603E00B
:101B100053F8140F0006D6D418684005F1D4FEF728
:101B200091FE401B2368B042F2D958690006EFD4F9
:101B3000202000E0202000212022216384F83D2085
:101B400084F83E10226C10432064012084F83C107D
:101B500070BD0000F0B583B040F60004C4F201048B
:101B60002046102100220026FEF766FE40F21C15DA
:101B7000A820C2F200058DF809000A270DF109011D
:101B800002AA284601230097FFF74AFC0DF10B013A
:101B90000DF10A02284601238DF80B600097FFF72C
:101BA0003FFC9DF80A50204610210122FEF744FE1A
:101BB000A80701D003B0F0BD1420032100F014FAEF
:101BC00003B0F0BD2DE9F04184B040F60005C4F249
:101BD000010504462846102100224FF00008FEF7B8
:101BE0002BFE40F21C161A20C2F200068DF80D00E2
:101BF0000A270DF10D0103AA304601230097FFF7D4
:101C00000FFC0DF10F010DF10E02304601238DF88E
:101C10000F800097FFF704FC284610210122FEF7F1
:101C20000BFE42F2930020800DF10A070C202146A2
:101C300002222346009700F033FA18B104B0BDE841
:101C4000F08100BF20786178A278E3784840504066
:101C500021795840401A18BF0120400004B0BDE867
:101C6000F08100002DE9F04784B040F600080646F8
:101C70008020C4F201088A4640EA4604404610210A
:101C800000224FF00009FEF7D7FD40F21C15C2F20A
:101C900000058DF809400A240DF1090102AA284621
:101CA00001230094FFF7BCFB0DF10B010DF10A02BB
:101CB000284601238DF80B900094FFF7B1FB9DF8A7
:101CC0000A70404610210122FEF7B6FD7E2000EA90
:101CD000460640461021002227EA0A07FEF7ACFD1F
:101CE0000DF10D0103AA284601238DF80D60009423
:101CF000FFF796FB0DF10F010DF10E0228460123AF
:101D00008DF80F700094FFF78BFB404610210122E5
:101D1000FEF792FD04B0BDE8F0870000F0B583B097
:101D200040F60004C4F201042046102100220027DE
:101D3000FEF782FD40F21C150220C2F200058DF86C
:101D40000B000A260DF10B010DF10A0228460123B2
:101D50000096FFF765FB0F208DF80B000DF10B01CE
:101D60000DF10A02284601230096FFF759FB204691
:101D700010210122FEF760FD204610210022FEF70F
:101D80005BFD54208DF80B000DF10B010DF10A02E3
:101D9000284601230096FFF743FB8D208DF80B00AA
:101DA0000DF10B010DF10A02284601230096FFF701
:101DB00037FB204610210122FEF73EFD2046102170
:101DC0000022FEF739FD56208DF80B000DF10B01B6
:101DD0000DF10A02284601230096FFF721FB3E2061
:101DE0008DF80B000DF10B010DF10A0228460123BD
:101DF0000096FFF715FB204610210122FEF71CFD7F
:101E0000204610210022FEF717FD5A208DF80B0006
:101E10000DF10B010DF10A02284601230096FFF790
:101E2000FFFA1E208DF80B000DF10B010DF10A02D7
:101E3000284601230096FFF7F3FA204610210122DD
:101E4000FEF7FAFC204610210022FEF7F5FC582090
:101E50008DF80B000DF10B010DF10A02284601234C
:101E60000096FFF7DDFA0DF10B010DF10A0228468D
:101E700001238DF80B700096FFF7D2FA204610214F
:101E80000122FEF7D9FC204610210022FEF7D4FCE7
:101E90004C208DF80B000DF10B010DF10A022846C4
:101EA00001230096FFF7BCFA70208DF80B000DF1AE
:101EB0000B010DF10A02284601230096FFF7B0FA44
:101EC000204610210122FEF7B7FC204610210022F7
:101ED000FEF7B2FC2A208DF80B000DF10B010DF17D
:101EE0000A02284601230096FFF79AFA40208DF84F
:101EF0000B000DF10B010DF10A022846012300969B
:101F0000FFF78EFA204610210122FEF795FC2046AD
:101F100010210022FEF790FC22208DF80B000DF11D
:101F20000B010DF10A02284601230096FFF778FA0B
:101F30003D208DF80B000DF10B010DF10A02284632
:101F400001230096FFF76CFA204610210122FEF7CC
:101F500073FCFFF7FFFD03B0F0BD00002DE9F04179
:101F600084B040F60008C4F201080C46054640461D
:101F700010210022FEF760FC40F21C171A20C2F26A
:101F800000078DF80D000A260DF10D0103AA384651
:101F900001230096FFF744FA07208DF80F000DF19A
:101FA0000F010DF10E02384601230096FFF738FAB3
:101FB000404610210122FEF73FFC0DF10A070C20DC
:101FC0002146012223462570009700F069F8BDF8EC
:101FD0000A101029014618BF0221002818BF02214B
:101FE000084604B0BDE8F0812DE9F04784B040F622
:101FF000000806468020C4F201088A4640EA4604EA
:102000004046102100224FF00009FEF715FC40F277
:102010001C15C2F200058DF809400A240DF10901D2
:1020200002AA284601230094FFF7FAF90DF10B01EB
:102030000DF10A02284601238DF80B900094FFF75A
:10204000EFF99DF80A70404610210122FEF7F4FBDB
:102050007E2000EA460640461021002247EA0A0791
:10206000FEF7EAFB0DF10D0103AA284601238DF8C6
:102070000D600094FFF7D4F90DF10F010DF10E0280
:10208000284601238DF80F700094FFF7C9F94046E8
:1020900010210122FEF7D0FB04B0BDE8F08700005C
:1020A0002DE9F04F87B017460C288846029304901C
:1020B00006D00E2808D111200590122007E000BF9D
:1020C00031200590772002E001200590002040F6A5
:1020D0000006C4F20106039000F18005304610218D
:1020E00000224FF00009FEF7A7FB40F21C1A042063
:1020F000C2F2000A8DF81B000A240DF11B010DF13C
:102100001A02504601230094FFF78AF90DF11B01D2
:102110000DF11A02504601238DF81B500094FFF771
:102120007FF9304610210122FEF786FB0420802132
:10213000FFF798FD0A208021FFF756FF3046102157
:102140000022FEF779FB02208DF81B000DF11B0128
:102150000DF11A02504601230094FFF761F90DF1C9
:102160001B010DF11A02504601238DF81B900094BB
:10217000FFF756F9304610210122FEF75DFB67B3E9
:1021800040F21C1AA8F10105C2F2000A0DF11B0968
:102190000DF11A0815F801BF3046102100220A245B
:1021A000FEF74AFB12208DF81B0050464946424676
:1021B00001230094FFF734F90A2450464946424669
:1021C00001238DF81BB00094FFF72AF93046102147
:1021D0000122FEF731FB013FDCD130461021002205
:1021E000FEF72AFB40F21C170220C2F200078DF80E
:1021F0001B000DF11B010DF11A023846012300945A
:10220000FFF70EF9049D0DF11B010DF11A0238467E
:1022100001238DF81B500094FFF702F9304610217E
:102220000122FEF709FB0C2D03D10D208021FFF7C1
:10223000DBFE40F21C194FF4FA654FF088084FF0AE
:102240000A0AC2F200090DF11B0B0DF11A0700BFBB
:10225000304610210022FEF7EFFA484659463A462A
:1022600001238DF81B80CDF800A0FFF7D9F80020DE
:102270008DF81B00484659463A460123CDF800A088
:10228000FFF7CEF89DF81A40304610210122FEF7E4
:10229000D3FA013D280439D005982042D8D00D202A
:1022A0008021FFF7DFFC3046102100224FF00008AC
:1022B000FEF7C2FA40F21C158C20C2F200058DF820
:1022C0001B000A270DF11B010DF11A0228460123FC
:1022D0000097FFF7A5F80DF11B010DF11A02284632
:1022E00001238DF81B800097FFF79AF89DF81A508C
:1022F000304610210122FEF79FFA15F01B0F0FD078
:102300000225284607B0BDE8F08F00BF0D208021D0
:10231000FFF7A8FC0225284607B0BDE8F08F00BFF4
:102320000398049920400C2900F00105E9D13046BA
:102330001021002210244FF00009FEF77DFA40F230
:102340001C189420C2F200088DF81B004FF00A0AF6
:102350000DF11B010DF11A0240460123CDF800A03A
:10236000FFF75EF80DF11B010DF11A024046012343
:102370008DF81B90CDF800A0FFF752F89DF81A7069
:10238000304610210122FEF757FA30461021002274
:10239000FEF752FA98208DF81B000DF11B010DF18C
:1023A0001A0240460123CDF800A0FFF739F80DF1DD
:1023B0001B010DF11A02404601238DF81B90CDF848
:1023C00000A0FFF72DF89DF81A8030461021012259
:1023D000FEF732FA18F0070040EAC700A0F1080043
:1023E00008BFF800102F38BF3C46002F109908BFD7
:1023F0000124002C088084D0029840F21C1BA0F11C
:102400000108C2F2000B0DF11B074FF00A0A0DF193
:102410001A090595304610210022FEF70DFA922088
:102420008DF81B00584639464A460123CDF800A0D6
:10243000FEF7F6FF00208DF81B00584639464A4645
:102440000123CDF800A0FEF7EBFF9DF81A503046AF
:1024500010210122FEF7F0F9013C08F8015FD9D103
:10246000059D284607B0BDE8F08F0000FEE700009C
:10247000FEE70000704700002DE9F04182B01E46E3
:1024800090460D460446FEF7DDF9301A00EB0807CA
:10249000FEF7D8F940F21401C2F200010968C1F355
:1024A000CB317943019121688A682A40AA4227D119
:1024B000064618F101001FD0FEF7C4F9801BB84290
:1024C00022D2019801990028A1F10101019121680E
:1024D000896808BF074601EA0500A842ECD00FE072
:1024E00088682840A8420BD188682840A84207D1B4
:1024F00088682840A84203D188682840A842EFD0C5
:10250000002002B0BDE8F081D4E900014268B1F5D5
:10251000827F22F0E00242600AD1A168B1F5004F4B
:1025200002D0B1F5806F03D1016821F04001016054
:10253000A16AB1F5005F07D1016821F40051016083
:10254000016841F400510160012084F8510000202D
:1025500084F85000032002B0BDE8F081704700000D
:10256000FEF75ABB70470000FEE700002DE9F04F70
:1025700081B040F27806C2F20006F068142815D146
:1025800000F058FD00200221002400F009FE43F66F
:102590000C70C0F6000000F053FE0120012100F095
:1025A000FFFDABA000F04CFEF47014E00020002111
:1025B00000F0F6FD43F6D760C0F6000000F040FEE4
:1025C00006F1100001F04EF940F2000BC2F2000BD0
:1025D0008BF8010010B101B0BDE8F08F00F02AFDCA
:1025E0000020012100F0DCFD8AA000F029FE4FF45C
:1025F0007A70FDF701FF00F01DFD0020012100F0C1
:10260000CFFD88A000F01CFE0120012100F0C8FDD4
:1026100043F6FE60C0F6000000F012FE06F12C0446
:1026200026202146FFF79AFCB0712046FFF7CAFA30
:10263000F16AB071716268B19BF8040001288BF8EF
:10264000030059D0002800F093803220FDF7D4FE1B
:10265000E6E700BFF768042F44DBF81707EB90703C
:1026600096F8243096F825A096F8269096F82780BC
:102670004FEAA00C00244FF0040E00218D000EEB59
:102680008404EAB294426ED9B01890F83C009842A3
:1026900022D145F00102D0B2844263D9304490F88F
:1026A0003C00504519D145F00202D0B2844259D9BC
:1026B000304490F83C0048450FD145F00302D0B2B9
:1026C00084424FD9304490F83C00404505D1043550
:1026D000EAB29442D8D846E02A460131CCB2A445A9
:1026E000F271CBDC40F20110ABF80300391DFBB2F4
:1026F000994206DC51E000BFF768391DFBB29942F0
:102700004BDD07F00300304490F82420781CF518C6
:10271000C3B2994285F83C203EDD03F0030030440B
:1027200090F82450B81CF418C3B2994284F83C5075
:1027300032DD03F00300304490F82450F81CF41804
:10274000C3B2994284F83C5026DD03F003003044C4
:10275000043790F82400F518FBB2994285F83C0044
:10276000D4DC1AE0154600207171F571ABF8030056
:1027700000F060FC00200121002400F011FD43F670
:10278000F560C0F6000000F05BFD0120062100F0BE
:1027900007FD2CA02AE000BF074647F20004C0F660
:1027A000010420467771FDF7C1FD06F13C05204686
:1027B00029461422FDF706FE6420FDF71DFE204683
:1027C00029461422FDF7C6FD00F034FC002001214B
:1027D000002400F0E5FC17A000F032FD01200121EB
:1027E00000F0DEFC43F62070C0F6000000F028FD8B
:1027F0004FF4FA60FDF700FE00F01CFC02208BF89D
:10280000010040F20220F470ABF8030001B0BDE813
:10281000F08F00BF434F5252454354205041535311
:1028200021000000505554204E455720434152444A
:1028300000000000414444204E455720434152448B
:102840000000000048415320455849535445440076
:102850004D454D4F52592049532046554C4C000090
:102860002DE9F04F81B000F037FB40F27806C2F25C
:10287000000606F12C04F06026202146FFF76EFBCF
:10288000B0712046FFF79EF9F16A40F20008002877
:10289000C2F20008B07171623CD098F804000028C0
:1028A00088F8030000F0B880012830D1D6F80C90E9
:1028B000B9F1000F40F3868040F600440220C4F2D4
:1028C000010488F8040000F0B5FB00200121002578
:1028D00000F066FC67A000F0B3FC757120464FF471
:1028E0008061FDF7A1FF4FF4FA70FDF785FD707967
:1028F0000130C1B205297071F0D340F6B830FDF750
:102900007BFD00F097FB40F20220A8F8030001B025
:10291000BDE8F08FD6F80C90B9F1040F48DB4FEA10
:10292000E97009EB907096F8243096F8254096F8F7
:1029300026B096F827A04FEAA00C00204FF0040E16
:1029400000218D000EEB8000EFB2B8425FD9F21982
:1029500092F83C209A4223D145F00107FAB2904206
:1029600054D9324492F83C20A2421AD145F00207D1
:10297000FAB290424AD9324492F83C205A4510D1DA
:1029800045F00307FAB2904240D9324492F83C2015
:10299000524506D10435EFB2B842D8D837E000BF6F
:1029A0002F460131C8B28445F771CADC01E000BF8F
:1029B000002140F201107171A8F80300B9F1000F75
:1029C0003FF77AAF00F036FB0020022100F0E8FB71
:1029D00043F60C70C0F6000000F032FC012000212C
:1029E00000F0DEFB43F62D70C0F6000000F028FC7E
:1029F0004FF4FA60FDF700FD00F01CFB40F20220EE
:102A0000A8F8030001B0BDE8F08F00BF3D460020EC
:102A10007171F57188F8030040F600440220C4F299
:102A2000010488F8040000F005FB002001210025C6
:102A300000F0B6FB12A000F003FC757120464FF4C5
:102A40008061FDF7F1FE4FF4FA70FDF7D5FC707967
:102A50000130C1B203297071F0D3022088F8000060
:102A600040F6B830FDF7C8FC01B0BDE8F04F00F00B
:102A7000E1BA00BF57524F4E472043415244210014
:102A8000444F4F52204953204F50454E524621004B
:102A90002DE9F04F83B040F27808C2F20008D8F870
:102AA0000C0040F2000B4FF0000A4FF00209012821
:102AB000C2F2000B14DB0020002100F071FB43F692
:102AC000D760C0F6000000F0BBFB08F1100000F07A
:102AD000C9FE8BF8010078B103B0BDE8F08F00BFEC
:102AE00043F62D7443F60C75C0F60004C0F60005DD
:102AF0000227002632E100BF00F09CFA00200321EB
:102B000000F04EFBA6A000F09BFB0120062100F088
:102B100047FBA5A000F094FB4FF47A70FDF76CFC26
:102B200000F088FA0020012100F03AFBA1A000F09B
:102B300087FB0120012100F033FB43F6FE60C0F665
:102B4000000000F07DFB08F12C0400BF2620214688
:102B5000FFF704FA88F806002046FFF733F8D8F8A4
:102B60002C1088F80600C8F8241058B19BF804000F
:102B700001288BF803006AD0002873D03220FDF7BB
:102B80003BFCE3E7D8F80C00042859DBC11700EB45
:102B900091718910009198F8261098F8246002919C
:102BA00098F8271098F8255001910022042100235D
:102BB0004FEA830901EB820C5FFA89F2944563D9ED
:102BC0001146CE46414491F83C10B1422AD14EF014
:102BD00001015FFA81FAD44552D908EB0A0797F848
:102BE0003C704FF0000AAF421DD14EF00201CFB24F
:102BF000BC4543D9474497F83C70029CA74212D188
:102C00004EF00301CFB2BC4538D9474497F83C7029
:102C1000019CA74207D10EF1040E5FFA8EF18C459C
:102C2000D0D832E071460133009FDAB2974288F87B
:102C300007104FF002094FF00401B9DC01E000BFBA
:102C4000002340F2011088F80530ABF8030043F68A
:102C5000F56443F61775C0F600040626C0F60005B5
:102C600002277BE098F80510D8F80C004FEA81099C
:102C70005FFA89F2904211DC4FE000BF8E4604E01B
:102C80008E464FF0000A00E0CE46002188F805305D
:102C900088F807E0ABF8031090423EDD011F4FF0CB
:102CA000FF3300BF08EB0206914249F0010296F89B
:102CB0004050D7B2D8BF1D46B84286F83C502BDDF5
:102CC00008EB070649F0020296F84050B942D7B225
:102CD000D8BF1D46B84286F83C501DDD08EB0706FC
:102CE00049F0030296F84050B942D7B2D8BF1D460A
:102CF000B84286F83C500FDD08EB070609F10409DD
:102D000096F84050B9425FFA89F2D8BF1D4690420A
:102D100086F83C50C6DC00E0914647F20004C0F65D
:102D20000104204688F80890FDF700FB08F13C05F7
:102D3000204629461422FDF745FB6420FDF75CFB85
:102D4000204629461422FDF705FB43F62074C0F601
:102D500000041CA5012701264FF0020900F06AF9C2
:102D60000020394600F01CFA284600F069FA0120DC
:102D7000314600F015FA204600F062FA4FF4FA608E
:102D8000FDF73AFB00F056F940F2022088F803A064
:102D90008BF80190ABF8030003B0BDE8F08F00BFE3
:102DA000434F52524543540050415353574F52449E
:102DB0002100000050555420594F55522043415294
:102DC0004400000044454C2054484953204341529C
:102DD00044000000B0B500F0D9FB40F27804FF28B1
:102DE000C2F2000403D020716420FDF705FB2079B6
:102DF000233821281AD8DFE800F0111919191919F8
:102E0000191B191919191919191919191919191930
:102E100019191919191919194159654F40F200006A
:102E2000C2F200000221817000210170B0BD00BF1C
:102E3000207840F20005C2F2000550B1697941B92D
:102E400001382070C1B2012000F0AAF9202000F062
:102E5000D5F96078002808BFB0BD29780229E5D1EE
:102E6000032894BF411E411F012000F099F9202042
:102E700000F0C4F9607801386070B0BD00F0DAF895
:102E80000020208040F20000C2F200000121017009
:102E90000320E070B0BD00BF40F20000C2F20000AD
:102EA00003210170E17002218170B0BD0120E0704A
:102EB00040F20000C2F20000042101700221817082
:102EC000B0BD00BF40F200010220C2F200010422A6
:102ED000E0700A708870B0BD10B540F27804C2F29C
:102EE000000447F2000004F13C01C0F60100142286
:102EF000FDF730FA94F83C00FF284FD094F83D00DD
:102F0000FF284FD094F83E00FF284FD094F83F00A0
:102F1000FF284FD094F84000FF284FD094F841008C
:102F2000FF284FD094F84200FF284FD094F8430078
:102F3000FF284FD094F84400FF284FD094F8450064
:102F4000FF284FD094F84600FF284FD094F8470050
:102F5000FF284FD094F84800FF284FD094F849003C
:102F6000FF284FD094F84A00FF284FD094F84B0028
:102F7000FF284FD094F84C00FF284FD094F84D0014
:102F8000FF284FD094F84E00FF284FD094F84F10F0
:102F90001420FF2908BF1320607110BD002060714C
:102FA00010BD00BF0120607110BD00BF0220607124
:102FB00010BD00BF0320607110BD00BF0420607110
:102FC00010BD00BF0520607110BD00BF06206071FC
:102FD00010BD00BF0720607110BD00BF08206071E8
:102FE00010BD00BF0920607110BD00BF0A206071D4
:102FF00010BD00BF0B20607110BD00BF0C206071C0
:1030000010BD00BF0D20607110BD00BF0E206071AB
:1030100010BD00BF0F20607110BD00BF1020607197
:1030200010BD00BF1120607110BD00BF1220607183
:1030300010BD00002DE9F04184B048F68C0040F24C
:10304000C804C0F60C00C2F2000402904FF06408FD
:1030500002AA20464E210423CDF80080FDF7B4FCDF
:1030600042F62D164627C0F60D1603AD20464E211A
:103070002A4604230396CDF80080FDF7A5FC013F06
:10308000F4D104B0BDE8F08170B582B03220FDF714
:10309000B3F940F2C80443F63C06C2F20004C0F69D
:1030A0000C06642501AA20464E21042301960095B2
:1030B000FDF78AFC0520FDF79FF901AA20464E2165
:1030C000042301960095FDF77FFC0120FDF794F99C
:1030D00001AA20464E21042301960095FDF774FCB9
:1030E0000A20FDF789F942F62C00C0F60C00019089
:1030F00001AA20464E2104230095FDF765FC0A2015
:10310000FDF77AF942F62C00C8F68C00019001AA6E
:1031100020464E2104230095FDF756FC0120FDF7C3
:103120006BF940F60C00C8F68C00019001AA20460D
:103130004E2104230095FDF747FC0120FDF75CF9C3
:1031400040F60C00C1F61C00019001AA20464E2159
:1031500004230095FDF738FC0120FDF74DF901200F
:10316000FDF74AF940F60C00C6F66C00019001AA82
:1031700020464E2104230095FDF726FC0120FDF793
:103180003BF940F60C00CCF6CC00019001AA204699
:103190004E2104230095FDF717FC02B070BD00001E
:1031A000012805D0002808BF41F0800102E000BFDF
:1031B00041F0C00180B582B021F00F00090100F19B
:1031C0000C0208308DF8050001F10C008DF80600A6
:1031D00001F108008DF8070040F2C8008DF80420C6
:1031E0004FF0640CC2F2000001AA4E210423CDF876
:1031F00000C0FDF7E9FB02B080BD000080B582B0E1
:1032000000F0F001000101F10D0209318DF8051007
:1032100000F10D0109308DF8070040F2C8008DF86B
:1032200004208DF806104FF0640CC2F2000001AAD1
:103230004E210423CDF800C0FDF7C6FB02B080BDCF
:10324000F0B583B0017821B340F2C804461E64276C
:10325000C2F2000402AD00BF21F00F00090100F12D
:103260000D0209308DF8090001F10D008DF80A00FA
:1032700001F109008DF808208DF80B0020464E2141
:103280002A4604230097FDF79FFBB17801360029F9
:10329000E2D103B0F0BD0000B0B540F27805C2F253
:1032A000000505F1100446F60040C0F60100214675
:1032B0000422FDF74FF8FFF78DFDE878022805D0CE
:1032C000012807D040B9FFF7CBFA05E0FFF7E0FB94
:1032D00002E000BFFFF74AF940F20005C2F2000524
:1032E0002878032836D8DFE800F0030B072B00BF4F
:1032F000BDE8B04000F0F0BBBDE8B04000F03ABB24
:1033000000200121FFF74CFF43F6C960C0F6000022
:10331000FFF796FF204600F0A5FA0128687013D049
:10332000002818BFB0BD00200121FFF739FF43F688
:10333000E760C0F60000FFF783FF022009E000BF4E
:10334000BDE8B04000F050BCFFF774FE022068708A
:1033500004202870B0BD000090B0FDF76BFC002485
:103360000120CDE90B44CDE9094406900A904FF4C1
:10337000E0104FF4803102250F9006A8CDE9071424
:10338000CDE90D51FDF7E0FD20B1EFF3108072B6ED
:10339000FEE700BF0F20CDE901054FF48060CDE9C5
:1033A000040401A802210394FDF7DAFC20B1EFF335
:1033B000108072B6FEE700BF41F21800C4F20200AE
:1033C000016840F6004841F0100101600168C4F254
:1033D000010801F0100106910699016808F5806561
:1033E00041F0200101600168002201F020010691F6
:1033F000069901684FF4005741F00401016001682B
:10340000002401F0040106910699016841F00801C9
:10341000016000684FF4005100F008000690069823
:103420002846FDF709FAA8F58066304641F6106196
:10343000002241F6106AFDF7FFF940464FF4406163
:103440000022FDF7F9F9069706AF4FF001094FF09A
:10345000020B28463946CDE90794CDF824B0FDF794
:10346000CFF830463946CDE906A9CDE9084BFDF73E
:10347000C7F84FF44060CDE9060940463946CDE92A
:10348000084BFDF7BDF8F02006A981E8110240467F
:103490003946FDF7B5F840F2C800A8F53841C2F248
:1034A000000048F2A0624FF48043C0F2010280E8BD
:1034B0001600C0E90343C0E90544C0E90744FDF72D
:1034C000C7F928B1EFF3108072B600BFFEE700BF66
:1034D00040F21C1008F51051C2F200004FF4827245
:1034E0004FF40073182780E816000A21C0E903444E
:1034F000C0E90543C761C0E90844C0E90A41FDF7D6
:10350000FDFE28B1EFF3108072B600BFFEE700BFEA
:1035100046F60004C0F601042046FCF707FF40F21F
:103520000000C2F20000811D20460422FCF74AFF81
:103530006420FCF761FFFEF7F1FBFFF7A5FD00201B
:103540000321FFF72DFE0AA0FFF77AFE01200121DB
:10355000FFF726FE09A0FFF773FE4FF4FA60FCF7B1
:103560004BFFFFF767FD00BFFFF796FEFCE700BFCC
:1035700057454C4C434F4D45000000004E484F4DC1
:103580002039202D204441434E000000B0B540F6C4
:103590000044C4F20104A4F5806528464FF480512C
:1035A0000022FDF749F928464FF400610122FDF79A
:1035B00043F928464FF480610122FDF73DF9284682
:1035C0004FF400710122FDF737F920468021FDF705
:1035D00025F9002800F0BC8020464021FDF71EF9A7
:1035E000002800F0BD8020462021FDF717F90028B3
:1035F00000F0BE8020461021FDF710F9002800F0F1
:10360000BF8028464FF480510122FDF715F9284666
:103610004FF400610022FDF70FF928464FF4806156
:103620000122FDF709F928464FF400710122FDF748
:1036300003F920468021FDF7F1F8002800F0A8806A
:1036400020464021FDF7EAF8002800F0A980204636
:103650002021FDF7E3F8002800F0AA802046102181
:10366000FDF7DCF8002800F0AD8028464FF48051CB
:103670000122FDF7E1F828464FF400610122FDF731
:10368000DBF828464FF480610022FDF7D5F8284684
:103690004FF400710122FDF7CFF820468021FDF79D
:1036A000BDF8002800F0988020464021FDF7B6F8CC
:1036B000002800F09B8020462021FDF7AFF800286D
:1036C00000F09E8020461021FDF7A8F8002800F0A9
:1036D000A18028464FF480510122FDF7ADF828461D
:1036E0004FF400610122FDF7A7F828464FF48061EE
:1036F0000122FDF7A1F828464FF400710022FDF7E2
:103700009BF820468021FDF789F8002800F08C8086
:1037100020464021FDF782F8002800F08F802046E7
:103720002021FDF77BF8002800F092802046102130
:10373000FDF774F800281CBF0020B0BD2046102102
:10374000FDF76CF800284FF04400F7D088E000BF88
:1037500020468021FDF762F80028F9D03120B0BD65
:1037600020464021FDF75AF80028F9D03420B0BD9A
:1037700020462021FDF752F80028F9D03720B0BDAF
:1037800020461021FDF74AF80028F9D02A20B0BDC4
:1037900020468021FDF742F80028F9D03220B0BD44
:1037A00020464021FDF73AF80028F9D03520B0BD79
:1037B00020462021FDF732F800284FF03800F7D0DE
:1037C0004EE000BF20461021FDF728F800284FF0FA
:1037D0003000F7D044E000BF20468021FDF71EF8FE
:1037E00000284FF03300F7D03AE000BF20464021D8
:1037F000FDF714F800284FF03600F7D030E000BF96
:1038000020462021FDF70AF800284FF03900F7D0B4
:1038100026E000BF20461021FDF700F800284FF0F9
:103820002300F7D01CE000BF20468021FCF7F6FF04
:1038300000284FF04100F7D012E000BF20464021A1
:10384000FCF7ECFF00284FF04200F7D008E000BF83
:1038500020462021FCF7E2FF00284FF04300F7D07C
:10386000B0BD0000F0B581B040F27806C2F20006AB
:103870000446307940F200053038C2F200050928CC
:103880004FF00000687106D8317839B103290AD9A0
:10389000C8B204281BD0A87801B0F0BDFFF7CAFB5E
:1038A00031780329F4D83079721810750120FFF7A8
:1038B00077FC43F6BE60C0F60000FFF7C1FC30782D
:1038C000411C002031703071C8B20428E3D10027B8
:1038D0003770FFF7AFFB77712078317D884219D1BF
:1038E000012070716078717D884213D1022070715F
:1038F000A078B17D88420DD103207071E078F17D10
:10390000884207D1042070710020A870A87801B007
:10391000F0BD00BF0120A870FFF78CFB0020002144
:10392000FFF73EFC0FA0FFF78BFC40F60044C4F20B
:103930000104777120464FF48061FCF775FF4FF466
:10394000FA70FCF759FD70790130C1B20529707128
:10395000F0D340F6B830FCF74FFDFFF76BFBA878CB
:1039600001B0F0BD57524F4E472050415353574F6F
:1039700052442100B0B540F27804C2F2000420792C
:10398000A0F13001092900F29280617803291BD847
:10399000621850760120FFF703FC43F6BE60C0F6C4
:1039A0000000FFF74DFC60780130C1B2042960705F
:1039B00019D1FFF73FFB00200121FFF7F1FB3CA0ED
:1039C000FFF73EFC60780EE0043962189077012022
:1039D000FFF7E6FB43F6BE60C0F60000FFF730FCE1
:1039E000607801306070C0B200250828257118BFCA
:1039F000B0BDFFF71FFB607EA17F6570884234D1A8
:103A0000A17EE27F91422BD1E27E94F820309A424F
:103A100028D1237F94F82150AB4225D146F60045AA
:103A200004F8100F0420C0F6010504F80B0C28461A
:103A30006170A270E370FCF779FC284621460422ED
:103A4000FCF7C0FC6420FCF7D7FC28462146042282
:103A5000FCF780FC43F62074C0F60004022507E062
:103A6000012502E0022500E00325657114A400256C
:103A7000FFF7E0FA00200421FFF792FB14A0FFF704
:103A8000DFFB01202946FFF78BFB2046FFF7D8FB21
:103A900040F20004C2F200040220A0704FF4FA6069
:103AA000FCF7AAFCFFF7C6FA4FF400702080B0BD07
:103AB000434F4E4649524D20504153533A00000067
:103AC000554E5355434345535346554C4C590000AE
:103AD0004348414E47450000F0B581B00020002129
:103AE000FFF75EFB43F6D760C0F60000FFF7A8FBC8
:103AF00040F27806C2F2000606F11000FFF7B2FEAF
:103B000040F20005C2F20005012868702ED000289E
:103B100057D140F60044C4F20104FFF78BFA0020AD
:103B200001210027FFF73CFB2BA0FFF789FB7771F2
:103B300020464FF48061FCF777FE4FF4FA70FCF7F3
:103B40005BFC70790130C1B203297071F0D340F68B
:103B5000B830FCF751FCFFF76DFA0020B07004207C
:103B600028700220A87001B0F0BD00BFB17802201B
:103B7000A870481CC1B20329B07020D140F600449F
:103B80000027C4F20104B770FFF754FA00200021A7
:103B9000FFF706FB0CA0FFF753FB777120464FF4AD
:103BA0008061FCF741FE4FF4FA70FCF725FC707958
:103BB0000130C1B20B297071F0D3FFF73BFA00203E
:103BC000287001B0F0BD00BF585858585858585880
:103BD0005858585858585800444F4F52204953206D
:103BE0004F50454E4B5021002DE9F0470020002159
:103BF000FFF7D6FA7FA0FFF723FB40F20009C2F2DD
:103C0000000909F1060A5046FFF72CFE012889F841
:103C1000010000F08580002818BFBDE8F08740F65D
:103C2000004400200021C4F201040026FFF7B8FA86
:103C30007DA0FFF705FB01200321FFF7B1FA7EA06D
:103C4000FFF7FEFA40F27805C2F200056E7100BF80
:103C500020464FF48061FCF7E7FD4FF4FA70FCF763
:103C6000CBFB68790130C1B203296871F0D346F605
:103C700000484FF47A70C0F60108FCF7BDFB71A74D
:103C800075A600BFFFF7A6F800200021FFF788FA0D
:103C90003846FFF7D5FA01200021FFF781FA3046B8
:103CA000FFF7CEFA287930380928EBD8FFF7C2F9A8
:103CB0002879322862D03128E4D100200021002662
:103CC000FFF76EFA43F6C060C0F60000FFF7B8FADF
:103CD00001200021FFF764FA6AA0FFF7B1FA40F66D
:103CE000B830FCF789FB4046FCF720FB40465146C4
:103CF0000422FCF767FB6420FCF77EFB6E7100BFBB
:103D000020464FF48061FCF78FFD4FF4FA70FCF70A
:103D100073FB68790130C1B203296871F0D35CE0AC
:103D200040F27804C2F20004A178022089F802006F
:103D3000481CC1B20329A0701AD10025A570FFF755
:103D400079F900200021FFF72BFA2FA0FFF778FA6E
:103D500001200021FFF724FA2FA0FFF771FA4DF29E
:103D6000C040C0F20100FCF747FBA570FFF762F905
:103D7000032089F80000BDE8F08700BF0020002183
:103D80000026FFF70DFA38A0FFF75AFA01200021AC
:103D9000FFF706FA37A0FFF753FA4046FCF7C6FADA
:103DA000404651460422FCF70DFB08F58060FCF705
:103DB000BDFA40F6B830FCF71FFB6E7120464FF499
:103DC0008061FCF731FD4FF4FA70FCF715FB687960
:103DD0000130C1B203296871F0D3FFF72BF900203D
:103DE00068804FF40170A9F80000022089F80200F1
:103DF000BDE8F08750415353574F5244204D415333
:103E00005445523A0000000057524F4E472033208D
:103E100054494D4553000000574149542032204D2C
:103E2000494E55544553000050415353574F524447
:103E3000204D415354455200495320434F5252455F
:103E400043540000313A5245534554205041535396
:103E5000574F524400000000323A52455345542017
:103E600053595354454D000043484F305345203279
:103E70000000000052455345542053595354454DBA
:103E80000000000052455345542050415353574FB2
:103E90005244000000000000000000000102030482
:103EA00006070809000000000102030401020203E2
:103EB0000405060708090A0B0C0D0E0F10102A0046
:103EC00043484F3053452031004F4C44205041531C
:103ED00053574F52443A00454E5445522050415397
:103EE00053574F52443A004E455720504153535771
:103EF0004F52443A005448452043415244004F4EEB
:103F0000204E4643205245414445520054484520E6
:103F1000434152442753004E4F20455849535400C3
:103F20005355434345535346554C4C59004D454D0D
:103F30004F525920495320454D505459000000001C
:103F4000603F000800000020180000002801000861
:103F5000783F00081800002088070000440100088E
:103F6000040202020201313131310000010000007F
:083F7000100000000024F40021
:04000005080000ED02
:00000001FF
