:020000040800F2
:10000000900B002091010008812600082D1900089E
:100010007D26000841040008792700080000000040
:100020000000000000000000000000006D27000834
:10003000450400080000000085260008712700081C
:10004000AB010008AB010008AB010008AB010008E0
:10005000AB010008AB010008AB010008AB010008D0
:10006000AB010008AB010008AB010008AB010008C0
:10007000AB010008AB010008AB010008AB010008B0
:10008000AB010008AB010008AB010008AB010008A0
:10009000AB010008AB010008AB010008AB01000890
:1000A000AB010008AB010008AB010008AB01000880
:1000B000AB010008AB010008AB010008AB01000870
:1000C000AB010008AB010008AB010008AB01000860
:1000D000AB010008AB010008AB010008AB01000850
:1000E000AB010008AB010008AB01000800F002F80A
:1000F00000F03FF80AA090E8000C82448344AAF183
:100100000107DA4501D100F034F8AFF2090EBAE880
:100110000F0013F0010F18BFFB1A43F0010318473B
:10012000644C0000844C0000103A24BF78C878C1A9
:10013000FAD8520724BF30C830C144BF04680C60ED
:10014000704700000023002400250026103A28BF35
:1001500078C1FBD8520728BF30C148BF0B60704739
:10016000642900F07D80002070471FB51FBD10B5C9
:1001700010BD00F02AF91146FFF7F7FF03F090FADF
:1001800000F048F903B4FFF7F2FF03BC00F050F9A8
:100190000948804709480047FEE7FEE7FEE7FEE71B
:1001A000FEE7FEE7FEE7FEE7FEE7FEE70448054957
:1001B000054A064B7047000075270008ED0000084F
:1001C00090050020900B0020900700209007002051
:1001D0000FB41CB5074B06AA7B44694600900598EE
:1001E00000F0DBF80020694600F0EAF81CBC5DF87E
:1001F00014FB0000E50100002DE9F0410E46044625
:10020000002020622046E168884730B3252805D0C9
:10021000D4E901219047206A401CF2E7E1682046BA
:1002200000278847050018D0A5F14100192802D8F9
:1002300020354FF400673246294620462760FFF7F5
:100240008FFF40B1012804D0F61D26F007060836BE
:10025000D8E7361DD6E72846DAE7206ABDE8F08100
:100260002DE9F0410646002410687529314616A58F
:1002700010D0AFF30080002802DA404213A507E057
:1002800031688A0701D512A502E0490704D511A5F6
:10029000012401E0AFF3008000210A2206F12407C7
:1002A00009E0B0FBF2FCB0FBF2F302FB1C003030C3
:1002B00078541846491C0028F3D123462A46304674
:1002C000BDE8F04100F00BB8000000002D00000078
:1002D0002B000000200000007047704770472DE998
:1002E000F0470D4699469246044600F124080168FD
:1002F000880604D5E06921F01001216000E00120AA
:10030000A84201DD471B00E00027A1697A1902EB32
:100310000900081AA0612078C00602D42046AFF375
:100320000080002608E0D4E901211AF80600904771
:10033000206A401C761C20624E45F4DB2078C00603
:100340000AD52046AFF3008006E0D4E90121302031
:100350009047206A401C2062381EA7F10107F4DC98
:1003600007E0D4E9012118F805009047206A401CF5
:100370002062281EA5F10105F3DC2046AFF30080C2
:100380002078000602D50220BDE8F0870120FBE7B7
:1003900001694A1C02610878704700B58FB0CDE949
:1003A00001310021059105497944CDE90310114639
:1003B0006846FFF721FF0FB000BD0000E5FFFFFF1B
:1003C0000A6802F8010B0A607047754600F02CF8C5
:1003D000AE4605006946534620F00700854618B032
:1003E00020B5FFF7E3FEBDE820404FF000064FF0D8
:1003F00000074FF000084FF0000BAC46ACE8C00916
:10040000ACE8C009ACE8C009ACE8C00921F00701BC
:100410008D46704710B50446AFF300802046BDE816
:100420001040FFF7AFBE00000048704718000020E2
:1004300001491820ABBEFEE726000200704700000D
:10044000FEE700007047000070B542F20C0604465B
:10045000C4F2020600F0FEFA3168C90718D130680C
:10046000800644BF202030603068C00607D4306961
:10047000C00704D1306840075CBF002070BD306801
:10048000C00623D40020316849072BD434E000BFD4
:10049000002C47D00546601C0ED13068C007DED066
:1004A0003068C0071CBF30685FEAC070D7D03068C2
:1004B000C007F2D1D3E700BF00F0CCFA401BA04246
:1004C00030D83068C007F7D1C9E700BF40F26850A4
:1004D000C2F20000C16941F00201C161102031681F
:1004E000490709D540F26851C2F20001CA6940F0DB
:1004F000040042F00102CA613169C90702D13060CB
:10050000012070BD40F26851C2F20001CA6942F098
:100510000402CA61316921F00101316130600120BA
:1005200070BD00BF032070BD10B586B0044600F05A
:100530005FF901200590CDE903040020029002A894
:1005400001A900F07DF800F0F3F806B010BD00003E
:1005500070B5A2B301324FF0FF3303EB5203032B0C
:10056000C2F3410C02D2002316E000BF520822F071
:10057000030E0022002300BF845A85188C526C8819
:100580008E187480AC880433B480EC889E4502F1E8
:100590000802F480F0D11144BCF1000F08BF70BD17
:1005A00030F81320BCF1010F0A8008D000EB4300A3
:1005B0004288BCF1020F4A801CBF8088888070BDD1
:1005C0000088704770B516460D46044600F010F9D5
:1005D0006EB1701C4608023D35F8022F01202146FD
:1005E000002300F0AFF8013E04F10204F4D1BDE8AD
:1005F000704000F09DB80000B0B50C46054600F014
:10060000F7F8E31701202946224600F09BF8BDE8E1
:10061000B04000F08DB80000B0B5044600F01AFA02
:10062000054640F20C00C2F200000078611C18BFC1
:10063000044400BF00F00EFA401BA042FAD3B0BD44
:100640002DE9F04381B040F26856C2F20006327ED6
:10065000012A03D1022001B0BDE8F0830546012044
:100660002C6830764CF250308846FFF7EDFE022CB5
:100670001CD100284ED1002042F21004F061C4F2D7
:100680000204206840F004002060206840F0400030
:1006900020604CF25030FFF7D7FE216821F00401B2
:1006A00021600021317601B0BDE8F08390BB4FF0AE
:1006B000FF30C8F80000D5E9027007EB80208742C0
:1006C00028D242F21004C4F202044FF0000900BF25
:1006D000C6F81C90206840F0020020606760206827
:1006E00040F0400020604CF25030FFF7ADFE216832
:1006F00021F00201216098B9D5E9020107F5806770
:1007000000EB81208742E3D300200021317601B045
:10071000BDE8F08301200021317601B0BDE8F0830F
:10072000C8F800700021317601B0BDE8F083000008
:1007300042F21001C4F20201086840F08002002079
:100740000A6070472DE9F04F81B040F26859C2F25B
:100750000009924699F81820012A03D1022001B01D
:10076000BDE8F08F8046012089F818004CF2503027
:100770009B460E46FFF768FEA0BB404642F21007BC
:10078000B8F1020F18BF0420C4F20207B8F1010F3C
:1007900008BF404645424FF000080024C4F1200144
:1007A000C9F81C802AFA04F00BFA01F13A680843F0
:1007B000B4F1200158BF2BFA01F042F00101396079
:1007C00026F8020B4CF25030FFF73EFE3968013537
:1007D00021F0010248F100013A6018B9002904F142
:1007E0001004DBD0002189F8181001B0BDE8F08FAB
:1007F00042F20400C4F20200C16809065CBF002096
:10080000704740F22311C4F26751016048F6AB1102
:10081000CCF6EF510160C068C0B2C009704700005B
:100820002DE9F04F82B00E68002E00F0038141F2F6
:100830000042C4F20102042340F2004E904208BF7D
:1008400003234FF6FF7CC4F2010E00930024012322
:10085000C1F2100C4FF0000A4FF0000949E000BF50
:10086000012704F00C030F229A402BEA020207FA38
:1008700003F34FEA9A051A4346F82520D1F804B04D
:1008800040F20C455FEACB22DEF8082054BF22EA92
:10089000080242EA0802C4F20105CEF808202A68DC
:1008A0005FEA8B2354BF22EA080242EA08022A6068
:1008B0005FEA8B33DEF8042054BF22EA080242EAE2
:1008C00008025FEACB33CEF80420DEF800204FF0B8
:1008D000010354BF22EA080242EA0802CEF80020CF
:1008E0000E680AF1010A36FA0AF204F1040400F073
:1008F000A18003FA0AF816EA080FF1D04E6866459F
:1009000012DC122E56D8DFE806F0350B4549555556
:1009100055555555555555555555554D510000BFD3
:10092000D1F80C9046E000BF4FF6FF72C1F22102F1
:1009300096420FDC0022C1F2110296421AD0002228
:10094000C1F21202964215D00022C1F22102964253
:1009500010D02FE00022C1F2220296420AD00022DB
:10096000C1F23102964205D00022C1F23202964213
:1009700020D100BF8A684AB1012A14BFC0F8148090
:10098000C0F810804FF0080914E000BF4FF00409D0
:1009900010E000BFCA6802F108090BE04FF000093F
:1009A00008E000BFCA6802F1040903E0CA6802F166
:1009B0000C0900BF22460646BAF1080F24BF203AB0
:1009C000043637680F25954027EA050509FA02F233
:1009D0002A433260CA79D2067FF582AF41F218030A
:1009E000C4F202031A68AEF57E7642F001021A6084
:1009F0001A6802F001020192019A2AF0030256F8E5
:100A000002B040F60002C4F20102904210D040F65B
:100A10000042C4F2010290423FF422AF41F20002D0
:100A2000C4F20102009F904208BF022719E700BFED
:100A3000002716E702B0BDE8F08F0000806808408C
:100A400018BF012070470000002A08BF0904016197
:100A50007047000040F28850C2F200000068704702
:100A600070B5B8B3044690F83D0028B9002084F86A
:100A70003C00204600F09AF9242084F83D002068CC
:100A8000016821F001010160016841F40041016049
:100A9000016821F40041016000F04AFB48F2804106
:100AA000C0F21E0140F60013D4F804E088424FF073
:100AB0000001C0F23D0348F2A16C4FF0000238BFC4
:100AC00001219842C0F2010C38BF0122E64538BF2F
:100AD0000A460AB1012070BD4DF68361C4F21B3194
:100AE000A0FB01122168950C4B684FF4967623F019
:100AF0003F0343EA9243754344F6D3564B60C1F239
:100B000062060B6AA5FB0656B50923F03F03E645CE
:100B100038BF950C6A1C1A430A62CA6948F2A0667B
:100B20004CF6FF73C0F20106B64522EA03020BD869
:100B300001384FEA4E03B0FBF3F001306FF31F3082
:100B4000042898BF04201EE0A368013863B119236C
:100B50000EFB03F3B0FBF3F001306FF31F3078B1FD
:100B600000F5804008E000BF0EEB4E03B0FBF3F051
:100B700001306FF31F3028B100F5004003E000BFE3
:100B8000012000E001201043C8610868D4E9072370
:100B900020F0C000104318430860886848F2FF3214
:100BA00004F10C0690434CCE18431043A5698860AD
:100BB000C86820F0FF0030432843C860086840F050
:100BC0000100086000202021206484F83D1020638B
:100BD00084F83E0070BD00002DE9F04383B01E464E
:100BE000174689460446FFF735FF94F83D10202943
:100BF00020D10546206800BF8169890716D5FFF717
:100C000029FF411B20681A29F6D381698907F3D58A
:100C100000202021206384F83D1084F83E00216CE0
:100C200041F02001216484F83C0003E094F83C107A
:100C3000012903D1022003B0BDE8F083012184F82B
:100C40003C100168C90703D1016841F0010101604E
:100C5000016840F2020821F400610160212184F85A
:100C60003D10102184F83E100021216467626685E2
:100C7000618DC0F201082185A8F10211E162E16AEB
:100C80000A9E11F5803F18BF01291DD1016841F46A
:100C90008071016020464FF001110022334600951B
:100CA00000F0A6FE50B120680068C00544BF4FF4B4
:100CB00000702064012003B0BDE8F0832069B0F526
:100CC000804F07D1FE2015E00829DFD0216B1229C3
:100CD000DCD0DFE7062000EAD9102168F030086197
:100CE00008F10601204632462B4600F06BFF002833
:100CF000E0D1FF20216800EA090008612046414652
:100D000032462B4600F05EFF0028D3D1002002902F
:100D100020684169029180690290029806E000BF54
:100D2000204631462A4600F003FE18BB208D68B3EA
:100D3000204631462A4600F0B5FFD8B9606A2168DE
:100D4000024612F8013B0B616262628D013A6285D4
:100D5000228D531E23854F697F07E1D51B04DFD009
:100D6000437802300B616062608D01386085901EAF
:100D70002085D5E7206C04289CD12068016841F4C7
:100D800000710160012003B0BDE8F08320680168B4
:100D900041F400710160202084F83D00002084F8B7
:100DA0003E0084F83C0003B0BDE8F08310B586B087
:100DB000006845F20042C4F2000200219042049112
:100DC00002D006B010BD00BF41F21804C4F2020404
:100DD000206802A940F008002060206800F00800A8
:100DE000019001984FF4407002901220039003206C
:100DF000059040F60040C4F20100FFF711FD042009
:100E0000C4F20100016841F0E06141F002010160BB
:100E1000606840F400106060606800F400100190A9
:100E2000019806B010BD000040F20C0040F288515D
:100E3000C2F20000C2F2000100780A6810440860A3
:100E40007047000080B542F20000C4F20200016861
:100E500041F010010160032000F07AF80F2000F04B
:100E600005F800F027F8002080BD000070B540F2C2
:100E70000C06C2F2000640F214013278C2F2000100
:100E80004FF47A730968B3FBF2F20446B1FBF2F156
:100E9000084600F035FD0F2C4FF0010508D838B991
:100EA0004FF0FF3021460022002500F025F8746045
:100EB000284670BD82B041F21800C4F202000168F9
:100EC000022241F001010160016801F0010101917C
:100ED0000199416841F080514160406800F08050C4
:100EE000009000980420C4F20100016862F31A61C6
:100EF000016002B07047000010B54EF60C5CCEF2F7
:100F0000000CDCF80030C3F3022E8EF00704042C32
:100F100028BF0424BEF103034FF0FF3E0EFA04F491
:100F200038BF0023A14399400EFA03F39A431143BB
:100F300000F00F0200F160430901043A03F5644335
:100F40006244002848BF02F10C03197010BD000074
:100F50004EF60C51CEF200010A684FF6FF031A401C
:100F600060F30A2242F0806040F0FD700860704734
:100F70002DE9F04381B0002800F0858042F200089E
:100F8000C4F202080446D8F800000D4600F007003D
:100F900088420CD2D8F8000020F007002843C8F897
:100FA0000000D8F8000000F00700A8426BD12068CC
:100FB00041F204098107C4F2020917D5410705D59A
:100FC000D9F8001041F4E061C9F80010010705D517
:100FD000D9F8001041F46051C9F80010D9F8001098
:100FE000A26821F0F0011143C9F80010C00741D1F7
:100FF000D8F8000000F00700A8420CD9D8F800008B
:1010000020F007002843C8F80000D8F8000000F0DE
:101010000700A84237D12068410707D5D9F800104A
:10102000E26821F4E0611143C9F80010000708D517
:10103000D9F80000216920F4605040EAC100C9F8E5
:101040000000D9F8002002F00C00082841F200202E
:10105000C0F27A0050D144F68A43C2F38341C0F60D
:101060000003595CD2033BD440F60010C0F23D00AF
:10107000484341E0606802280AD001282AD159F883
:10108000041C890308D4012001B0BDE8F08300BF2F
:1010900059F8041C8901F6D5D9F8001021F0030194
:1010A0000843C9F80000FFF7D5FC064641F288372F
:1010B000D9F80000616800F00C00B0EB810F97D008
:1010C000FFF7C8FC801BB842F2D9032001B0BDE88D
:1010D000F08300BF59F8041C8907D4D5DCE700BFB2
:1010E000D9F8002044F68843C2F34042C0F600031A
:1010F0009A5C4843B0FBF2F0D9F8001044F6704215
:10110000C1F30311C0F60002515C40F2140220FA50
:1011100001F140F21000C2F200000068C2F20002C9
:101120001160FFF7A3FE002001B0BDE8F0830000CE
:1011300040F2140041F20401C2F20000C4F20201C4
:101140000068096844F68042C1F30221C0F600023B
:10115000515CC840704700002DE9F04182B0002882
:1011600068D00446007841F20006C007C4F20206C7
:1011700025D0706800F00C0004281BD0706800F0C7
:101180000C00082802D17068C00313D460680028DE
:1011900000F06881B0F5A02F00F07C81B0F5803FB1
:1011A00000F07C81306820F480303060306820F4BA
:1011B000802076E13068800301D56068D0B3207864
:1011C000800718D5706810F00C0F07D0706800F019
:1011D0000C0008286ED17068C0036BD4306880079B
:1011E00002D52069012825D13068616920F0F80016
:1011F00040EAC1003060207800071FD42078400703
:1012000032D4E56995B1706800F00C00082840F010
:101210008F80012D0ED07068216A00F480328A42DE
:1012200008D1616A00F47010884203D1002002B036
:10123000BDE8F081012002B0BDE8F081A06900287E
:1012400062D00020C4F242200121C0F88014FFF7D0
:1012500001FC0546706A800700F18C80FFF7FAFBFD
:10126000401B0228F6D92AE1F06910F0805808D115
:10127000F06940F08050F061F06900F0805000901B
:10128000009847F20007C4F200073868C00529D467
:10129000386840F480703860FFF7DCFB054600BF1B
:1012A0003868C0051ED4FFF7D5FB401B6428F7D96A
:1012B00005E100BF2069002840F20000C4F242208E
:1012C00000F0828001210160FFF7C4FB054600BFEA
:1012D000306880073FF588AFFFF7BCFB401B022852
:1012E000F6D9ECE0E068002800F08080052800F0E6
:1012F0009780012800F09880306A20F00100306269
:10130000306A20F0040092E00020C4F24220002164
:10131000C0F88014FFF79EFB054600BF706A800787
:101320007FF56CAFFFF796FB401B0228F6D9C6E0AD
:101330000027C4F2422700203866FFF78BFB022DFE
:1013400005460BD13068800140F1BE80FFF782FB7B
:10135000401B02284FF00300F4D968E73068800191
:101360007FF564AFFFF776FB401B02284FF00300C8
:10137000F4D95CE740F21400C2F20000006844F6C1
:10138000D351C1F26201A0FB0101480A019000BFE4
:1013900000BF0198411E002801913FF42FAF00BF0C
:1013A0000198411E002801913FF428AF00BF019829
:1013B000411E002801913FF421AF00BF0198411E5A
:1013C00000280191E4D119E700210160FFF742FBF9
:1013D000054600BF306880077FF50DAFFFF73AFB89
:1013E000401B02284FF00300F4D920E7306A20F0B8
:1013F00001003062306A20F004003062FFF72AFBFF
:10140000054641F2883700BF306A800720D5FFF7D4
:1014100021FB401BB8424FF00300F5D907E700BF9E
:10142000306A40F004003062306A40F001003062FF
:10143000FFF710FB054641F2883700BF306A80078E
:1014400006D4FFF707FB401BB842F7D937E000BFCF
:10145000B8F1000F7FF4D5AEF06920F08050F06154
:10146000CFE600BF306820F480303060306820F470
:1014700080203060FFF7EEFA054600BF3068800339
:101480007FF59DAEFFF7E6FA401B64284FF003009E
:10149000F4D9CCE6306840F480203060306840F405
:1014A00080303060FFF7D6FA054600BF3068800311
:1014B0003FF585AEFFF7CEFA401B6428F6D903202E
:1014C00002B0BDE8F08100BF206AB0F5803F05D1D1
:1014D0007168A26821F40031114371607168626A19
:1014E00021F4741111430843706001203866FFF73E
:1014F000B1FA0446306880013FF598AEFFF7AAFACA
:10150000001B02284FF00300F4D990E670B538B103
:101510000446406A30B10020206104F1140007E065
:10152000012070BD6068B0F5827F03D004F11C001B
:10153000002101600026A66294F8510020B92046DF
:1015400084F8506000F038F8022084F8510094E8E4
:10155000071001F48271036802F4044223F040038F
:101560000360236911440CF40062114403F0020289
:101570006369114403F00102A369E569114403F4AE
:101580000072114405F03802256A114405F080020A
:10159000A56A114305F4005211430160042101EAD8
:1015A00013414160C16921F40061C1610120666598
:1015B00084F85100304670BD70B586B040F6000426
:1015C000C4F20104006804F5205100268842049604
:1015D00002D006B070BD00BF41F21800C4F2020094
:1015E000016802AD41F480510160016801F480514D
:1015F00001910199016841F00401016000682946E8
:1016000000F0040001900198A020029002200390B5
:10161000032005902046FFF703F94020CDE902069C
:10162000204629460496FFF7FBF806B070BD00007F
:101630002DE9F04381B0044690F85000012803D111
:10164000022001B0BDE8F08301201E4615460F467A
:1016500084F85000FFF7FEF994F8511081460129F3
:1016600012D06068B0F5827F40F0A480A0680028A6
:101670004FF0020008BF042906D0002184F8501062
:1016800001B0BDE8F08300BF002F4FF0010018BF8C
:10169000002DF2D0002EF0D094F851000021042843
:1016A0001CBF052084F851006165A563E687A68705
:1016B0002763E6862068A68621646164016849067E
:1016C00003D4016841F0400101606168731EE26863
:1016D000B1FA81F1B3FA83F3DDF8208049095B099F
:1016E000B2F5006F41EA03016CD131B137F8021B4A
:1016F000C1602763E08E0138E086012518F1010002
:1017000031D101E0FFF7A6F9E08E18B9E08F00288B
:1017100000F0C0802068816889070CD5E18E51B146
:10172000012D08D1216B002531F8022BC260216305
:10173000E18E0139E1868168C907E3D0E18F002994
:10174000E0D0C068A16B012521F8020BA163E08FF6
:101750000138E087D6E700BFFFF77CF9A0EB09006E
:10176000404580F0AB80E08E18B9E08F002800F093
:1017700091802068816889070CD5E18E51B1012DD7
:1017800008D1216B002531F8022BC2602163E18E64
:101790000139E1868168C907DED0E18F0029DBD0FD
:1017A000C068A16B012521F8020BA163E08F01380D
:1017B000E087D1E70220002184F8501001B0BDE895
:1017C000F08300BF39B139780173206B0130206399
:1017D000E08E0138E086012518F1010032D101E0E8
:1017E000FFF738F9E08E10B9E08F002852D020685A
:1017F000816889070ED5E18E61B1012D0AD1216B77
:10180000002509780173216B206801312163E18E85
:101810000139E1868168C907E2D0E18F0029DFD074
:10182000C068A16B01250870A06B0130A063E08F38
:101830000138E087D4E700BFFFF70CF9A0EB0900FF
:1018400040453BD2E08E08B9E08F18B3206881682C
:1018500089070ED5E18E61B1012D0AD1216B0025DA
:1018600009780173216B206801312163E18E013910
:10187000E1868168C907DFD0E18F0029DCD0C0682C
:10188000A16B01250870A06B0130A063E08F0138C7
:10189000E087D1E72046802142464B4600F0F4FE27
:1018A000B0B1606D40F020006065202060650120CF
:1018B000002184F8501001B0BDE8F083012084F8C5
:1018C00051000320002184F8501001B0BDE8F083DE
:1018D000A06838B9002000902068C1680091806835
:1018E00000900098606D00284FF0010004BF84F85C
:1018F00051000020002184F8501001B0BDE8F083B1
:10190000411E0020B0EB116F1CBF012070474EF24A
:101910001002CEF2000251604EF62351CEF20001C9
:10192000F0230B700721906011607047FEE7000004
:1019300070B50368044653F8140F400711D40E46DF
:10194000481C29D086BB00BF1868400527D4FFF784
:1019500081F8236853F8140F400739D518684007F9
:10196000F2D5002070BD00BF18684007F9D4186890
:10197000400514D418684007F3D4186840050ED405
:1019800018684007EDD41868400508D41868400767
:101990004FF0000048BF70BD18684005E4D56FF4F3
:1019A00080601860042014E0154603E053F8140F1B
:1019B0004007D6D418684005F1D4FFF74BF8401B18
:1019C0002368B042F2D958694007EFD4202000E0E4
:1019D000202000212022216384F83D2084F83E103D
:1019E000226C10432064012084F83C1070BD00007C
:1019F0002DE9F041054600681E46144601F47F02B9
:101A000001338FB242D0DDF81880B2F5803F40F04C
:101A1000878040693840C01BB0FA80F04009A0427E
:101A200040F0C8804EB924E040693840C01BB0FA8D
:101A300080F04009A04240F0BD80FFF70BF8A0EB1A
:101A400008012868B142EFD941693940C91BB1FA90
:101A500081F14909A142E7D19BE000BF40693840CC
:101A6000C01BB0FA80F04009A0424FF0000040F0E7
:101A7000A680FEF7EFFF286841693940C91BB1FA1B
:101A800081F14909A142E9D183E000BFB2F5803F6D
:101A900024D100BF41693940C91BB1FA81F149091C
:101AA000A14240F0878041693940C91BB1FA81F1F8
:101AB0004909A14240F07E8041693940C91BB1FA11
:101AC00081F14909A14275D141693940C91BB1FA77
:101AD00081F14909A142DDD06CE000BF8169394044
:101AE000C91BB1FA81F14909A14263D18169394029
:101AF000C91BB1FA81F14909A1425BD18169394021
:101B0000C91BB1FA81F14909A14253D18169394018
:101B1000C91BB1FA81F14909A142DFD04AE000BFF7
:101B200080693840C01BB0FA80F04009A04241D122
:101B300046B923E080693840C01BB0FA80F0400904
:101B4000A0423BD1FEF786FFA0EB08012868B14216
:101B5000F0D981693940C91BB1FA81F14909A14223
:101B6000E8D116E080693840C01BB0FA80F0400927
:101B7000A0424FF0000018BFBDE8F081FEF76AFFF9
:101B8000286881693940C91BB1FA81F14909A1422C
:101B9000E8D100202021286385F83D1085F83E001B
:101BA000296C41F02001296485F83C000120BDE842
:101BB000F08100BF0020BDE8F08100BF0020BDE83B
:101BC000F0810000F0B581B0044600681D4643690D
:101BD0008FB203EA0701B94202D1002001B0F0BD83
:101BE00041691646013201F4806125D0002940D1B7
:101BF000CEB100BFFEF72EFF411B2068B14203D9D2
:101C000041693940B9424BD141693940B942E4D0C8
:101C100041694905EED52CE041693940B942DCD033
:101C20004169490525D4FEF715FF2068416939400F
:101C3000B942F1D0202024E0D9B941693940B942F4
:101C4000CBD04169490514D441693940B942C4D067
:101C5000416949050DD441693940B942BDD0416956
:101C6000490506D441693940B942B6D041694905B0
:101C7000E3D5016841F4007101606FF48061416156
:101C8000042000212022216384F83D2084F83E10A6
:101C9000226C1043206484F83C10012001B0F0BD98
:101CA0002020EEE770B50368044653F8140F0006D1
:101CB00011D40E46481C29D086BB00BF18684005C9
:101CC00027D4FEF7C7FE236853F8140F000639D552
:101CD00018680006F2D5002070BD00BF1868000625
:101CE000F9D41868400514D418680006F3D41868AD
:101CF00040050ED418680006EDD41868400508D4D5
:101D0000186800064FF0000048BF70BD1868400515
:101D1000E4D56FF480601860042014E0154603E0F9
:101D200053F8140F0006D6D418684005F1D4FEF716
:101D300091FE401B2368B042F2D958690006EFD4E7
:101D4000202000E0202000212022216384F83D2073
:101D500084F83E10226C10432064012084F83C106B
:101D600070BD0000F0B583B040F60004C4F2010479
:101D70002046102100220026FEF766FE40F21015D4
:101D8000A820C2F200058DF809000A270DF109010B
:101D900002AA284601230097FFF74AFC0DF10B0128
:101DA0000DF10A02284601238DF80B600097FFF71A
:101DB0003FFC9DF80A50204610210122FEF744FE08
:101DC000A80701D003B0F0BD1420032100F014FADD
:101DD00003B0F0BD2DE9F04184B040F60005C4F237
:101DE000010504462846102100224FF00008FEF7A6
:101DF0002BFE40F210161A20C2F200068DF80D00DC
:101E00000A270DF10D0103AA304601230097FFF7C1
:101E10000FFC0DF10F010DF10E02304601238DF87C
:101E20000F800097FFF704FC284610210122FEF7DF
:101E30000BFE42F2930020800DF10A070C20214690
:101E400002222346009700F033FA18B104B0BDE82F
:101E5000F08100BF20786178A278E3784840504054
:101E600021795840401A18BF0120400004B0BDE855
:101E7000F08100002DE9F04784B040F600080646E6
:101E80008020C4F201088A4640EA460440461021F8
:101E900000224FF00009FEF7D7FD40F21015C2F204
:101EA00000058DF809400A240DF1090102AA28460F
:101EB00001230094FFF7BCFB0DF10B010DF10A02A9
:101EC000284601238DF80B900094FFF7B1FB9DF895
:101ED0000A70404610210122FEF7B6FD7E2000EA7E
:101EE000460640461021002227EA0A07FEF7ACFD0D
:101EF0000DF10D0103AA284601238DF80D60009411
:101F0000FFF796FB0DF10F010DF10E02284601239C
:101F10008DF80F700094FFF78BFB404610210122D3
:101F2000FEF792FD04B0BDE8F0870000F0B583B085
:101F300040F60004C4F201042046102100220027CC
:101F4000FEF782FD40F210150220C2F200058DF866
:101F50000B000A260DF10B010DF10A0228460123A0
:101F60000096FFF765FB0F208DF80B000DF10B01BC
:101F70000DF10A02284601230096FFF759FB20467F
:101F800010210122FEF760FD204610210022FEF7FD
:101F90005BFD54208DF80B000DF10B010DF10A02D1
:101FA000284601230096FFF743FB8D208DF80B0098
:101FB0000DF10B010DF10A02284601230096FFF7EF
:101FC00037FB204610210122FEF73EFD204610215E
:101FD0000022FEF739FD56208DF80B000DF10B01A4
:101FE0000DF10A02284601230096FFF721FB3E204F
:101FF0008DF80B000DF10B010DF10A0228460123AB
:102000000096FFF715FB204610210122FEF71CFD6C
:10201000204610210022FEF717FD5A208DF80B00F4
:102020000DF10B010DF10A02284601230096FFF77E
:10203000FFFA1E208DF80B000DF10B010DF10A02C5
:10204000284601230096FFF7F3FA204610210122CB
:10205000FEF7FAFC204610210022FEF7F5FC58207E
:102060008DF80B000DF10B010DF10A02284601233A
:102070000096FFF7DDFA0DF10B010DF10A0228467B
:1020800001238DF80B700096FFF7D2FA204610213D
:102090000122FEF7D9FC204610210022FEF7D4FCD5
:1020A0004C208DF80B000DF10B010DF10A022846B2
:1020B00001230096FFF7BCFA70208DF80B000DF19C
:1020C0000B010DF10A02284601230096FFF7B0FA32
:1020D000204610210122FEF7B7FC204610210022E5
:1020E000FEF7B2FC2A208DF80B000DF10B010DF16B
:1020F0000A02284601230096FFF79AFA40208DF83D
:102100000B000DF10B010DF10A0228460123009688
:10211000FFF78EFA204610210122FEF795FC20469B
:1021200010210022FEF790FC22208DF80B000DF10B
:102130000B010DF10A02284601230096FFF778FAF9
:102140003D208DF80B000DF10B010DF10A02284620
:1021500001230096FFF76CFA204610210122FEF7BA
:1021600073FCFFF7FFFD03B0F0BD00002DE9F04167
:1021700084B040F60008C4F201080C46054640460B
:1021800010210022FEF760FC40F210171A20C2F264
:1021900000078DF80D000A260DF10D0103AA38463F
:1021A00001230096FFF744FA07208DF80F000DF188
:1021B0000F010DF10E02384601230096FFF738FAA1
:1021C000404610210122FEF73FFC0DF10A070C20CA
:1021D0002146012223462570009700F069F8BDF8DA
:1021E0000A101029014618BF0221002818BF022139
:1021F000084604B0BDE8F0812DE9F04784B040F610
:10220000000806468020C4F201088A4640EA4604D7
:102210004046102100224FF00009FEF715FC40F265
:102220001015C2F200058DF809400A240DF10901CC
:1022300002AA284601230094FFF7FAF90DF10B01D9
:102240000DF10A02284601238DF80B900094FFF748
:10225000EFF99DF80A70404610210122FEF7F4FBC9
:102260007E2000EA460640461021002247EA0A077F
:10227000FEF7EAFB0DF10D0103AA284601238DF8B4
:102280000D600094FFF7D4F90DF10F010DF10E026E
:10229000284601238DF80F700094FFF7C9F94046D6
:1022A00010210122FEF7D0FB04B0BDE8F08700004A
:1022B0002DE9F04F87B017460C288846029304900A
:1022C00006D00E2808D111200590122007E000BF8B
:1022D00031200590772002E001200590002040F693
:1022E0000006C4F20106039000F18005304610217B
:1022F00000224FF00009FEF7A7FB40F2101A04205D
:10230000C2F2000A8DF81B000A240DF11B010DF129
:102310001A02504601230094FFF78AF90DF11B01C0
:102320000DF11A02504601238DF81B500094FFF75F
:102330007FF9304610210122FEF786FB0420802120
:10234000FFF798FD0A208021FFF756FF3046102145
:102350000022FEF779FB02208DF81B000DF11B0116
:102360000DF11A02504601230094FFF761F90DF1B7
:102370001B010DF11A02504601238DF81B900094A9
:10238000FFF756F9304610210122FEF75DFB67B3D7
:1023900040F2101AA8F10105C2F2000A0DF11B0962
:1023A0000DF11A0815F801BF3046102100220A2449
:1023B000FEF74AFB12208DF81B0050464946424664
:1023C00001230094FFF734F90A2450464946424657
:1023D00001238DF81BB00094FFF72AF93046102135
:1023E0000122FEF731FB013FDCD1304610210022F3
:1023F000FEF72AFB40F210170220C2F200078DF808
:102400001B000DF11B010DF11A0238460123009447
:10241000FFF70EF9049D0DF11B010DF11A0238466C
:1024200001238DF81B500094FFF702F9304610216C
:102430000122FEF709FB0C2D03D10D208021FFF7AF
:10244000DBFE40F210194FF4FA654FF088084FF0A8
:102450000A0AC2F200090DF11B0B0DF11A0700BFA9
:10246000304610210022FEF7EFFA484659463A4618
:1024700001238DF81B80CDF800A0FFF7D9F80020CC
:102480008DF81B00484659463A460123CDF800A076
:10249000FFF7CEF89DF81A40304610210122FEF7D2
:1024A000D3FA013D280439D005982042D8D00D2018
:1024B0008021FFF7DFFC3046102100224FF000089A
:1024C000FEF7C2FA40F210158C20C2F200058DF81A
:1024D0001B000A270DF11B010DF11A0228460123EA
:1024E0000097FFF7A5F80DF11B010DF11A02284620
:1024F00001238DF81B800097FFF79AF89DF81A507A
:10250000304610210122FEF79FFA15F01B0F0FD065
:102510000225284607B0BDE8F08F00BF0D208021BE
:10252000FFF7A8FC0225284607B0BDE8F08F00BFE2
:102530000398049920400C2900F00105E9D13046A8
:102540001021002210244FF00009FEF77DFA40F21E
:1025500010189420C2F200088DF81B004FF00A0AF0
:102560000DF11B010DF11A0240460123CDF800A028
:10257000FFF75EF80DF11B010DF11A024046012331
:102580008DF81B90CDF800A0FFF752F89DF81A7057
:10259000304610210122FEF757FA30461021002262
:1025A000FEF752FA98208DF81B000DF11B010DF17A
:1025B0001A0240460123CDF800A0FFF739F80DF1CB
:1025C0001B010DF11A02404601238DF81B90CDF836
:1025D00000A0FFF72DF89DF81A8030461021012247
:1025E000FEF732FA18F0070040EAC700A0F1080031
:1025F00008BFF800102F38BF3C46002F109908BFC5
:102600000124002C088084D0029840F2101BA0F115
:102610000108C2F2000B0DF11B074FF00A0A0DF181
:102620001A090595304610210022FEF70DFA922076
:102630008DF81B00584639464A460123CDF800A0C4
:10264000FEF7F6FF00208DF81B00584639464A4633
:102650000123CDF800A0FEF7EBFF9DF81A5030469D
:1026600010210122FEF7F0F9013C08F8015FD9D1F1
:10267000059D284607B0BDE8F08F0000FEE700008A
:10268000FEE70000704700002DE9F04182B01E46D1
:1026900090460D460446FEF7DDF9301A00EB0807B8
:1026A000FEF7D8F940F21401C2F200010968C1F343
:1026B000CB317943019121688A682A40AA4227D107
:1026C000064618F101001FD0FEF7C4F9801BB8427E
:1026D00022D2019801990028A1F1010101912168FC
:1026E000896808BF074601EA0500A842ECD00FE060
:1026F00088682840A8420BD188682840A84207D1A2
:1027000088682840A84203D188682840A842EFD0B2
:10271000002002B0BDE8F081D4E900014268B1F5C3
:10272000827F22F0E00242600AD1A168B1F5004F39
:1027300002D0B1F5806F03D1016821F04001016042
:10274000A16AB1F5005F07D1016821F40051016071
:10275000016841F400510160012084F8510000201B
:1027600084F85000032002B0BDE8F08170470000FB
:10277000FEF75ABB70470000FEE700002DE9F0436A
:1027800081B040F27806C2F20006F068B0F57F7FB3
:1027900018D100F053FE00200221002400F004FFB5
:1027A00044F64050C0F6000000F04EFF0120012129
:1027B00000F0FAFEBDA000F047FF347101B0BDE8A3
:1027C000F08300BF00200021002400F0EDFE44F65D
:1027D000DD40C0F6000000F037FF40F20009C2F211
:1027E000000909F1060001F0B3FA012889F8010097
:1027F0006ED0002876D140F60048C4F2010800F0FF
:102800001DFE40F20220A9F801000020012100F085
:10281000CBFE44F6B140C0F6000000F015FF404684
:102820004FF400610122FEF70FF9C820FDF7F4FE16
:1028300040464FF400610022FEF706F9C820FDF77C
:10284000EBFE40464FF400610122FEF7FDF8C82080
:10285000FDF7E2FE40464FF400610022FEF7F4F877
:10286000C820FDF7D9FE4FF4FA70FDF7D5FE4FF4FE
:102870007A70FDF7D1FE00F0E1FD0020012100F0AB
:1028800093FE7FA000F0E0FE0120012100F08CFE0D
:1028900044F62950C0F6000000F0D6FE00F08AFA97
:1028A000012889F8030021D000284FD04FF47A7016
:1028B000FDF7B2FE707A0130C1B204297072EDD119
:1028C00000F0BCFD00203071707201B0BDE8F083F3
:1028D00000F0B4FD4FF40170A9F80000022034713B
:1028E00089F8020001B0BDE8F08300BFF268111D55
:1028F000D5B2A94265DD02F00300304490F814C05F
:1029000040F26813C2F20003501CC4B2A14203F8A3
:1029100005C055DD04F003003044077D901CC5B2AE
:10292000A9421F554CDD05F003003044077DD01C43
:10293000C4B2A1425F5543DD04F0030030440432C9
:10294000007DD5B2A9421855DEDC3AE000F076FDF4
:1029500000200121002500F027FE44F6EE40C0F6DD
:10296000000000F071FE0120052100F01DFE4CA0CA
:1029700000F06AFE40464FF400610122FEF764F861
:10298000C820FDF749FE40464FF400610022FEF7E3
:102990005BF8C820FDF740FE40464FF4006101227D
:1029A000FEF752F8C820FDF737FE40464FF40061AD
:1029B0000022FEF749F8C820FDF72EFE29E000BFEF
:1029C000024647F20005C0F601052846B271FDF740
:1029D000ABFD40F26811C2F2000128464FF47F724D
:1029E000FDF7F0FD6420FDF717FE00F027FD002045
:1029F0000121002500F0D8FD25A000F025FE0120D2
:102A0000012100F0D1FD44F66550C0F6000000F051
:102A10001BFE40464FF400610122FEF715F8C82066
:102A2000FDF7FAFD40464FF400610022FEF70CF876
:102A3000C820FDF7F1FD40464FF400610122FEF78A
:102A400003F8C820FDF7E8FD40464FF4006100227E
:102A5000FDF7FAFFC820FDF7DFFD4FF4FA70FDF730
:102A6000DBFD4FF4FA60FDF7D7FD00F0E7FC40F224
:102A700002203571A9F8030001B0BDE8F08300BF62
:102A8000505554204E455720434152440000000009
:102A9000414444204E455720434152440000000029
:102AA0004841532045584953544544004D454D4FE6
:102AB00052592049532046554C4C000070B540F205
:102AC0006814C2F2000447F20000C0F6010021467B
:102AD0004FF47F724FF47F75FDF73AFD20780021A7
:102AE000B5FBF0F20020CBB2E35CFF2B24D041F029
:102AF0000103DEB2B24219D9A65DFF2E16D041F015
:102B00000203DEB2B24213D9A65DFF2E10D041F00F
:102B10000303DEB2B2420DD9A65DFF2E0AD0043106
:102B2000CBB29A4200F10400DDD805E0013002E0AA
:102B3000023000E00330194640F27804C2F200048B
:102B4000A171E06000F036F940F20005C2F2000524
:102B50000128E87052D0002818BF70BD02262E71DF
:102B600000F06CFC0020012100F01EFD44F6A340A3
:102B7000C0F6000000F068FD40F60044C4F2010415
:102B800020464FF400610122FDF75EFFC820FDF7EB
:102B900043FD20464FF400610022FDF755FFC82099
:102BA000FDF73AFD20464FF400610122FDF74CFF8E
:102BB000C820FDF731FD20464FF400610022FDF7EB
:102BC00043FFC820FDF728FD4FF4FA70FDF724FD00
:102BD00020464FF480610122FDF736FF41F2883034
:102BE000FDF71AFD20464FF480610022FDF72CFF0F
:102BF0002E70BDE8704000F021BC00BFE0680028E6
:102C00005EDD0220287100F019FC0020012100F097
:102C1000CBFC65A000F018FD40F60044C4F20104AE
:102C200020464FF400610122FDF70EFFC820FDF79A
:102C3000F3FC20464FF400610022FDF705FFC82099
:102C4000FDF7EAFC20464FF400610122FDF7FCFE8F
:102C5000C820FDF7E1FC20464FF400610022FDF79B
:102C6000F3FEC820FDF7D8FC20464FF40061012296
:102C7000FDF7EAFEC820FDF7CFFC20464FF40061C7
:102C80000022FDF7E1FEC820FDF7C6FC20464FF408
:102C900000610122FDF7D8FEC820FDF7BDFC2046EB
:102CA0004FF400610022FDF7CFFEC820FDF7B4FC11
:102CB0004FF4FA70FDF7B0FC40F6B83068E000BFA2
:102CC00000F0BCFB0020022100F06EFC44F64050F6
:102CD000C0F6000000F0B8FC0120002100F064FC08
:102CE00044F67250C0F6000000F0AEFC40F600441E
:102CF000C4F2010420464FF400610122FDF7A4FE56
:102D0000C820FDF789FC20464FF400610022FDF742
:102D10009BFEC820FDF780FC20464FF40061012295
:102D2000FDF792FEC820FDF777FC20464FF40061C6
:102D30000022FDF789FEC820FDF76EFC20464FF407
:102D400000610122FDF780FEC820FDF765FC2046EA
:102D50004FF400610022FDF777FEC820FDF75CFC10
:102D600020464FF400610122FDF76EFEC820FDF7FA
:102D700053FC20464FF400610022FDF765FEC82099
:102D8000FDF74AFC4FF4FA70FDF746FC4FF4FA6089
:102D9000FDF742FC00F052FB0420287040F20220B4
:102DA000A5F8030070BD00BF57524F4E4720434166
:102DB000524421002DE9F04F81B040F27806C2F272
:102DC000000606F1340426202146FFF7CFF9F07102
:102DD0002046FEF7FFFF716BF071716140B140F268
:102DE0000000C2F200000479204601B0BDE8F08F77
:102DF00040F60045C4F2010528464FF40061012267
:102E00000124FDF721FEC820FDF706FC28464FF4FB
:102E1000006100220025FDF717FEC820FDF7FCFB2E
:102E20004FF4FA70FDF7F8FBF068042840DBC11797
:102E300000EB917096F814B096F815A096F81690DD
:102E400096F8178040F268174FEAA00C00234FF065
:102E5000040EC2F200070025AA000EEB8303D0B2D5
:102E6000834230D9385C58451CD142F00100C1B2D0
:102E70008B4227D9795C514515D142F00200C1B28D
:102E80008B421FD9795C49450DD142F00300C1B294
:102E90008B4217D9795C414505D10432D0B28342C7
:102EA000E0D810E010460135EBB29C453072D3DC1F
:102EB00040F20000C2F20000B5710471204601B07A
:102EC000BDE8F08F024640F20000C2F2000000248C
:102ED000B57132720471204601B0BDE8F08F000078
:102EE0002DE9F04740F2780AC2F2000ADAF80C0045
:102EF000002840F38F8000200021002400F054FBC4
:102F000044F6DD40C0F6000000F09EFB40F20009F0
:102F1000C2F2000909F1060000F01AFF012889F841
:102F2000010000F0F380002818BFBDE8F08740F6EC
:102F30000048C4F2010800F081FA40F20220A9F82A
:102F400001000020012100F02FFB44F6B140C0F643
:102F5000000000F079FB40464FF400610122FDF7CC
:102F600073FDC820FDF758FB40464FF40061002276
:102F7000FDF76AFDC820FDF74FFB40464FF40061A6
:102F80000122FDF761FDC820FDF746FB40464FF4E6
:102F900000610022FDF758FDC820FDF73DFB4FF40E
:102FA000FA70FDF739FB4FF47A70FDF735FB00F04E
:102FB00045FA0020012100F0F7FAC6A000F044FB1A
:102FC0000120012100F0F0FA44F62950C0F600007B
:102FD00000F03AFBFFF7EEFE012889F8030000F04D
:102FE000A380002800F0DA804FF47A70FDF714FB1C
:102FF0009AF809000130C1B204298AF80900E9D120
:1030000000F01CFA00208AF804008AF80900BDE8E4
:10301000F08700BF00F012FA0020022100250227ED
:1030200000F0C2FA44F64050C0F6000000F00CFB7D
:103030000120002100F0B8FA44F67250C0F60000FA
:1030400000F002FB40F60044C4F2010420464FF4B5
:1030500000610122FDF7F8FCC820FDF7DDFA2046EB
:103060004FF400610022FDF7EFFCC820FDF7D4FA11
:1030700020464FF400610122FDF7E6FCC820FDF771
:10308000CBFA20464FF400610022FDF7DDFCC8209A
:10309000FDF7C2FA20464FF400610122FDF7D4FC8F
:1030A000C820FDF7B9FA20464FF400610022FDF771
:1030B000CBFCC820FDF7B0FA20464FF40061012296
:1030C000FDF7C2FCC820FDF7A7FA20464FF40061C7
:1030D0000022FDF7B9FCC820FDF79EFA4FF4FA7004
:1030E000FDF79AFA4FF4FA60FDF796FA00F0A6F9A8
:1030F00040F20000C2F2000040F202218AF80450BF
:103100004770A0F80310BDE8F08700BF00F096F903
:103110004FF40170A9F8000002208AF8044089F8F1
:103120000200BDE8F08700BF00F088F9002002210E
:10313000002500F039FA6BA000F086FA0120062184
:1031400000F032FA44F6EE40C0F6000000F07CFADF
:1031500040464FF400610122FDF776FCC820FDF7E0
:103160005BFA40464FF400610022FDF76DFCC82079
:10317000FDF752FA40464FF400610122FDF764FC6E
:10318000C820FDF749FA40464FF400610022FDF7E0
:103190005BFCC820FDF740FA66E000BF9AF8060025
:1031A000DAF80C108600F4B2A14234DD40F2681265
:1031B000C2F200020B1F4FF0FF3C00BF101905794F
:1031C00046F00100A342C7B2D8BF6546B9421555C3
:1031D00020DDD019057946F00200BB42C4B2D8BF49
:1031E0006546A142D55515DD1019057946F0030055
:1031F000A342C7B2D8BF6546B94215550ADDD019FA
:1032000004360079BB42F4B2D8BF6046A142D05523
:10321000D4DC00E0064647F20005C0F6010528466A
:103220008AF80A60FDF780F940F26811C2F20001E5
:1032300028464FF47F72FDF7C5F96420FDF7ECF9DD
:1032400000F0FCF800200121002500F0ADF928A0D5
:1032500000F0FAF90120012100F0A6F944F66550CA
:10326000C0F6000000F0F0F940464FF40061012282
:10327000FDF7EAFBC820FDF7CFF940464FF40061A7
:103280000022FDF7E1FBC820FDF7C6F940464FF4E8
:1032900000610122FDF7D8FBC820FDF7BDF94046CB
:1032A0004FF400610022FDF7CFFBC820FDF7B4F911
:1032B0004FF4FA70FDF7B0F94FF4FA60FDF7ACF98E
:1032C00000F0BCF840F202208AF80450A9F803008C
:1032D000BDE8F08750555420594F55522043415274
:1032E000440000004E4F2045584953540000000050
:1032F00044454C2054484953204341524400000067
:10330000B0B500F0B9FB40F27804FF28C2F2000427
:1033100003D060716420FDF77FF96079233821289C
:103320001ED8DFE800F0111D1D1D1D1D1D3B1D1DBC
:103330001D1D1D1D1D1D1D1D1D1D1D1D1D1D1D1DBD
:103340001D1D1D1D1F4D5D2D00F078F840F2000180
:103350000020C2F20001022220808A7020710870D1
:10336000B0BD00BF00F06AF80020208040F20000ED
:10337000C2F200000121017003202071B0BD00BF26
:1033800000F05CF80020207040F20000C2F2000063
:1033900003210170217102218170B0BD40F200054E
:1033A0002078C2F20005697940B339BB013820703A
:1033B000C1B2012000F0F8F8202000F023F927E046
:1033C00000F03CF8002020700120207140F2000045
:1033D000C2F200000421017002218170B0BD00BF63
:1033E00000F02CF8002040F2000120700220C2F210
:1033F0000001042220710A708870B0BD084307D113
:1034000000F01CF80220A870042028700020207111
:103410006078002808BFB0BD29780229A0D105280E
:1034200094BF411EC11F012000F0BEF8202000F013
:10343000E9F8607801386070B0BD00002DE9F04116
:1034400084B048F68C0040F2BC04C0F60C00C2F216
:10345000000402904FF0640802AA20464E21042383
:10346000CDF80080FDF7B8FB42F62D164627C0F6D2
:103470000D1603AD20464E212A4604230396CDF8AF
:103480000080FDF7A9FB013FF4D104B0BDE8F08155
:1034900070B582B03220FDF7BFF840F2BC0443F6AD
:1034A0003C06C2F20004C0F60C06642501AA2046C0
:1034B0004E21042301960095FDF78EFB0520FDF7B4
:1034C000ABF801AA20464E21042301960095FDF792
:1034D00083FB0120FDF7A0F801AA20464E2104231A
:1034E00001960095FDF778FB0A20FDF795F842F666
:1034F0002C00C0F60C00019001AA20464E210423A6
:103500000095FDF769FB0A20FDF786F842F62C00CE
:10351000C8F68C00019001AA20464E210423009594
:10352000FDF75AFB0120FDF777F840F60C00C8F6CE
:103530008C00019001AA20464E2104230095FDF73E
:103540004BFB0120FDF768F840F60C00C1F61C00AB
:10355000019001AA20464E2104230095FDF73CFB73
:103560000120FDF759F80120FDF756F840F60C0050
:10357000C6F66C00019001AA20464E210423009556
:10358000FDF72AFB0120FDF747F840F60C00CCF6CA
:10359000CC00019001AA20464E2104230095FDF79E
:1035A0001BFB02B070BD0000012805D0002808BF39
:1035B00041F0800102E000BF41F0C00180B582B05F
:1035C00021F00F00090100F10C0208308DF8050010
:1035D00001F10C008DF8060001F108008DF80700DC
:1035E00040F2BC008DF804204FF0640CC2F20000E1
:1035F00001AA4E210423CDF800C0FDF7EDFA02B078
:1036000080BD000080B582B000F0F001000101F142
:103610000D0209318DF8051000F10D0109308DF80A
:10362000070040F2BC008DF804208DF806104FF022
:10363000640CC2F2000001AA4E210423CDF800C0A0
:10364000FDF7CAFA02B080BDF0B583B0017821B3AE
:1036500040F2BC04461E6427C2F2000402AD00BF63
:1036600021F00F00090100F10D0209308DF8090069
:1036700001F10D008DF80A0001F109008DF8082014
:103680008DF80B0020464E212A4604230097FDF7B3
:10369000A3FAB17801360029E2D103B0F0BD0000F1
:1036A00090B0FDF7CFFB00240120CDE90B44CDE91C
:1036B000094406900A904FF4E0104FF4803102253F
:1036C0000F9006A8CDE90714CDE90D51FDF744FD93
:1036D00020B1EFF3108072B6FEE700BF0F20CDE9F6
:1036E00001054FF48060CDE9040401A80221039490
:1036F000FDF73EFC20B1EFF3108072B6FEE700BF8D
:1037000041F21800C4F20200016840F6004841F09E
:10371000100101600168C4F2010801F01001069176
:103720000699016808F5806541F020010160016893
:10373000002201F020010691069901684FF400571C
:1037400041F0040101600168002401F004010691C8
:103750000699016841F00801016000684FF40051CA
:1037600000F00800069006982846FDF76DF9A8F5C8
:103770008066304641F61061002241F6106AFDF77E
:1037800063F940464FF440610022FDF75DF906976A
:1037900006AF4FF001094FF0020B28463946CDE93C
:1037A0000794CDF824B0FDF73BF830463946CDE913
:1037B00006A9CDE9084BFDF733F84FF44060CDE999
:1037C000060940463946CDE9084BFDF729F848F28D
:1037D000F00006A981E8110240463946FDF720F8BD
:1037E00040F2BC00A8F53841C2F2000048F2A062E5
:1037F0004FF48043C0F2010280E81600C0E90343A1
:10380000C0E90544C0E90744FDF72AF920B1EFF308
:10381000108072B6FEE700BF40F2101008F510519C
:10382000C2F200004FF482724FF40073182780E850
:1038300016000A21C0E90344C0E90543C761C0E995
:103840000844C0E90A41FDF761FE28B1EFF310809A
:1038500072B600BFFEE700BF40F27807C2F2000771
:1038600046F6004507F11904C0F601052846214631
:103870000622FCF76DFE05F50060FCF7A1FEB870AE
:1038800005F54060FCF79CFEF870FEF74FFBFFF774
:10389000FFFD00200321FFF787FE38A0FFF7D4FECD
:1038A00001200121FFF780FE37A0FFF7CDFE4FF486
:1038B000FA60FCF7B1FEFFF7C1FD40F2000644F6E6
:1038C000C14544F6CF48C2F20006C0F600054FF0ED
:1038D0000209C0F6000800BF00F05EF8FFF710FD17
:1038E0003879022808D001280CD038B9FFF7E6F85B
:1038F000307803280BD9EFE7FFF7F2FA3078032886
:1039000005D9E9E7FEF73AFF30780328E4D8DFE885
:1039100000F0070B290300BF00F02AFEDCE700BF20
:1039200000F016FCD8E700BF00200121FFF73CFEA5
:103930002846FFF789FE204600F00AFA0128707039
:1039400014D00028C8D14FF49670FCF765FE002013
:103950000121FFF729FE4046FFF776FE0220307076
:10396000BAE700BF00F0C8FAB6E700BFFFF766FD90
:10397000042086F801903070AEE700BF57454C4CEC
:10398000434F4D45000000004E484F4D2039202D3B
:10399000204441434E000000B0B540F60044C4F25C
:1039A000010420464FF40041FDF748F8002818BFF5
:1039B000B0BD00BF20464FF40041FDF73FF800289E
:1039C000F8D0FFF73BFD002001210025FFF7ECFDBB
:1039D00044F6A340C0F60000FFF736FE20464FF441
:1039E00000610122FDF730F8C820FCF715FE2046E3
:1039F0004FF400610022FDF727F8C820FCF70CFE09
:103A000020464FF400610122FDF71EF8C820FCF7A4
:103A100003FE20464FF400610022FDF715F8C82090
:103A2000FCF7FAFD4FF4FA70FCF7F6FD20464FF470
:103A300080610122FDF708F841F28830FCF7ECFDC7
:103A400020464FF480610022FCF7FEFFFFF7F6FCF2
:103A500040F20000C2F200004FF401710180022127
:103A6000817040F20221A0F8031040F27800C2F207
:103A700000000571B0BD0000B0B540F60044C4F2CE
:103A80000104A4F5806528464FF480510022FCF71C
:103A9000DBFF28464FF400610122FCF7D5FF2846E2
:103AA0004FF480610122FCF7CFFF28464FF40071EC
:103AB0000122FCF7C9FF20468021FCF7BFFF002848
:103AC00000F0BC8020464021FCF7B8FF002800F041
:103AD000BD8020462021FCF7B1FF002800F0BE8009
:103AE00020461021FCF7AAFF002800F0BF802846DE
:103AF0004FF480510122FCF7A7FF28464FF40061E4
:103B00000022FCF7A1FF28464FF480610122FCF758
:103B10009BFF28464FF400710122FCF795FF2046D9
:103B20008021FCF78BFF002800F0A8802046402170
:103B3000FCF784FF002800F0A98020462021FCF734
:103B40007DFF002800F0AA8020461021FCF776FFB8
:103B5000002800F0AD8028464FF480510122FCF788
:103B600073FF28464FF400610122FCF76DFF2846E1
:103B70004FF480610022FCF767FF28464FF4007184
:103B80000122FCF761FF20468021FCF757FF002847
:103B900000F0988020464021FCF750FF002800F0FC
:103BA0009B8020462021FCF749FF002800F09E80E2
:103BB00020461021FCF742FF002800F0A180284693
:103BC0004FF480510122FCF73FFF28464FF400617B
:103BD0000122FCF739FF28464FF480610122FCF7EF
:103BE00033FF28464FF400710022FCF72DFF2046DA
:103BF0008021FCF723FF002800F08C802046402124
:103C0000FCF71CFF002800F08F8020462021FCF7E5
:103C100015FF002800F0928020461021FCF70EFFCF
:103C200000281CBF0020B0BD20461021FCF706FF75
:103C300000284FF04400F7D088E000BF20468021E4
:103C4000FCF7FCFE0028F9D03120B0BD2046402111
:103C5000FCF7F4FE0028F9D03420B0BD2046202126
:103C6000FCF7ECFE0028F9D03720B0BD204610212B
:103C7000FCF7E4FE0028F9D02A20B0BD20468021C0
:103C8000FCF7DCFE0028F9D03220B0BD20464021F0
:103C9000FCF7D4FE0028F9D03520B0BD2046202105
:103CA000FCF7CCFE00284FF03800F7D04EE000BF04
:103CB00020461021FCF7C2FE00284FF03000F7D05C
:103CC00044E000BF20468021FCF7B8FE00284FF0FA
:103CD0003300F7D03AE000BF20464021FCF7AEFEAB
:103CE00000284FF03600F7D030E000BF20462021FA
:103CF000FCF7A4FE00284FF03900F7D026E000BF03
:103D000020461021FCF79AFE00284FF02300F7D040
:103D10001CE000BF20468021FCF790FE00284FF0F9
:103D20004100F7D012E000BF20464021FCF786FE9C
:103D300000284FF04200F7D008E000BF20462021C5
:103D4000FCF77CFE00284FF04300F7D0B0BD000028
:103D5000F0B581B040F27806C2F2000604467079F0
:103D600040F200053038C2F2000509284FF000008B
:103D7000687106D8317839B105290AD9C8B2062840
:103D80001BD0A87801B0F0BDFFF758FB31780529AA
:103D9000F4D870797218D0770120FFF705FC44F64B
:103DA000BF40C0F60000FFF74FFC3078411C0020F8
:103DB00031707071C8B20628E3D100273770FFF761
:103DC0003DFBB7712078F17F884229D10120B07185
:103DD000607896F82010884222D10220B071A07835
:103DE00096F8211088421BD10320B071E07896F834
:103DF0002210884214D10420B071207996F8231043
:103E000088420DD10520B071607996F8241088425F
:103E100006D10620B0710020A870A87801B0F0BDCE
:103E20000120A870FFF70AFB00200021FFF7BCFB70
:103E30002DA0FFF709FC40F60044C4F2010420461F
:103E40004FF400610122FCF7FFFDC820FCF7E4FB02
:103E500020464FF400610022FCF7F6FDC820FCF775
:103E6000DBFB20464FF400610122FCF7EDFDC8208A
:103E7000FCF7D2FB20464FF400610022FCF7E4FD82
:103E8000C820FCF7C9FB20464FF400610122FCF773
:103E9000DBFDC820FCF7C0FB20464FF40061002288
:103EA000FCF7D2FDC820FCF7B7FB20464FF40061B9
:103EB0000122FCF7C9FDC820FCF7AEFB20464FF4F9
:103EC00000610022FCF7C0FDC820FCF7A5FB4FF401
:103ED000FA70FCF7A1FB40F6B830FCF79DFBFFF74A
:103EE000ADFAA87801B0F0BD57524F4E472050416F
:103EF0005353574F52442100F0B581B040F2780738
:103F0000C2F200077879A0F13001092900F20D8191
:103F1000797805291CD87A1882F826000120FFF745
:103F200043FB44F6BF40C0F60000FFF78DFB7878F6
:103F30000130C1B2062978701AD1FFF77FFA00204C
:103F40000121FFF731FB7AA0FFF77EFB78780FE0C5
:103F500006397A1882F82D000120FFF725FB44F678
:103F6000BF40C0F60000FFF76FFB78780130787033
:103F7000C0B200250C287D7140F0D78040F6004487
:103F8000C4F20104FFF75AFA97F8260097F82D10AB
:103F90007D70884257D197F8270097F82E108842F5
:103FA00048D197F8280097F82F10884244D197F805
:103FB000290097F83010884240D197F82A0097F8E6
:103FC000311088423CD197F82B0097F83210884284
:103FD00038D1D7F826003D4645F8190FB5F811003D
:103FE00046F60046A8800020C0F6010605F8130C2E
:103FF0003046FCF799FA304629460622FCF7E2FAE9
:104000006420FCF709FBFFF719FA00200421FFF7F1
:10401000CBFA44F60650C0F60000FFF715FB01206E
:104020000221FFF7C1FA44F66550C0F60000FFF721
:104030000BFB40E0012506E0022504E0032502E039
:10404000042500E00525BD71FFF7F8F900200421E3
:10405000FFF7AAFA44F60650C0F60000FFF7F4FA9C
:1040600001200021FFF7A0FA35A0FFF7EDFA204666
:104070004FF400610122FCF7E7FCC820FCF7CCFA02
:1040800020464FF400610022FCF7DEFCC820FCF75C
:10409000C3FA20464FF400610122FCF7D5FCC8208A
:1040A000FCF7BAFA20464FF400610022FCF7CCFC82
:1040B000C820FCF7B1FA20464FF400610122FCF75A
:1040C000C3FCC820FCF7A8FA20464FF40061002288
:1040D0000025FCF7B9FCC820FCF79EFA20464FF4F7
:1040E00000610122FCF7B0FCC820FCF795FA2046DD
:1040F0004FF400610022FCF7A7FCC820FCF78CFA03
:104100004FF4FA70FCF788FA40F20004C2F200049F
:1041100002264FF4FA60A670FCF77EFAFFF78EF9DC
:104120004FF40170A67020803D7101B0F0BD00BF5A
:10413000434F4E4649524D20504153533A000000E0
:10414000554E5355434345535346554C4C59000027
:104150002DE9F04188B000200021FFF725FA0FF289
:104160000040FFF771FA40F27807C2F2000707F14A
:104170001900FFF7EDFD40F20006C2F2000601282B
:10418000707067D0002840F0E7814FF49670FCF71C
:1041900043FAFFF753F9002001210025FFF704FA45
:1041A00044F6A340C0F60000FFF74EFA40F6004484
:1041B000C4F2010420464FF400610122FCF744FCE4
:1041C000C820FCF729FA20464FF400610022FCF7D2
:1041D0003BFCC820FCF720FA20464FF40061012286
:1041E000FCF732FCC820FCF717FA20464FF40061B8
:1041F0000022FCF729FCC820FCF70EFA4FF4FA70F5
:10420000FCF70AFA20464FF480610122FCF71CFCFF
:1042100041F28830FCF700FA20464FF4806100221A
:10422000FCF712FCFFF70AF947F20044C0F601045C
:104230002046BD70FCF778F9B9782046FCF7DCF928
:104240006420FCF7E9F9042030700220B07008B057
:10425000BDE8F081B87847F200440130C0F60104AF
:104260004FF00208B870204686F80280FCF75CF92F
:10427000B9782046FCF7C0F96420FCF7CDF9B8788E
:104280000328C0F06281FFF7D9F8BA7844F6565196
:1042900004ACC0F600012046FBF79AFF40F600454B
:1042A000C4F2010528464FF400610122FCF7CCFB63
:1042B000C820FCF7B1F928464FF400610022FCF752
:1042C000C3FBC820FCF7A8F928464FF4006101227F
:1042D000FCF7BAFBC820FCF79FF928464FF40061B1
:1042E0000022FCF7B1FBC820FCF796F928464FF4F2
:1042F00000610122FCF7A8FBC820FCF78DF92846D5
:104300004FF400610022FCF79FFBC820FCF784F902
:1043100028464FF400610122FCF796FBC820FCF709
:104320007BF928464FF400610022FCF78DFBC82082
:10433000FCF772F928464FF400610122FCF784FB78
:10434000C820FCF769F928464FF400610022FCF709
:104350007BFBC820FCF760F928464FF4006101227E
:10436000FCF772FBC820FCF757F928464FF40061B0
:104370000022FCF769FBC820FCF74EF928464FF4F1
:1043800000610122FCF760FBC820FCF745F92846D4
:104390004FF400610022FCF757FBC820FCF73CF902
:1043A00028464FF400610122FCF74EFBC820FCF7C1
:1043B00033F928464FF400610022FCF745FBC82082
:1043C000FCF72AF928464FF400610122FCF73CFB78
:1043D000C820FCF721F928464FF400610022FCF7C1
:1043E00033FBC820FCF718F928464FF4006101227E
:1043F000FCF72AFBC820FCF70FF928464FF40061B0
:104400000022FCF721FBC820FCF706F928464FF4F0
:1044100000610122FCF718FBC820FCF7FDF82846D4
:104420004FF400610022FCF70FFBC820FCF7F4F802
:1044300028464FF400610122FCF706FBC820FCF778
:10444000EBF828464FF400610022FCF7FDFAC82083
:10445000FCF7E2F828464FF400610122FCF7F4FA79
:10446000C820FCF7D9F828464FF400610022FCF779
:10447000EBFAC820FCF7D0F828464FF4006101227F
:10448000FCF7E2FAC820FCF7C7F828464FF40061B1
:104490000022FCF7D9FAC820FCF7BEF828464FF4F2
:1044A00000610122FCF7D0FAC820FCF7B5F82846D5
:1044B0004FF400610022FCF7C7FAC820FCF7ACF803
:1044C0004FF4FA70FCF7A8F8FEF7B8FF00200321BC
:1044D000FFF76AF844F69A40C0F60000FFF7B4F818
:1044E00001200121FFF760F82046FFF7ADF8FEF745
:1044F000A5FFB878022100EB8000C00038610020E1
:10450000FFF752F844F63750C0F60000FFF79CF86A
:104510003A69012A17DB44F64B54C0F600046D4695
:1045200028462146FBF754FE01200121FFF73CF805
:104530002846FFF789F84FF47A70FCF76DF8386970
:10454000421E3A61ECDCFEF779FF4FF401703080D7
:10455000002086F80280387108B0BDE8F08100BF05
:10456000454E5445522050415353574F52443A0000
:104570002DE9F04F89B000200021FFF715F844F62F
:10458000DD40C0F60000FFF75FF840F20007C2F21E
:104590000007B81D0090FFF7DBFB40F2780B012805
:1045A000C2F2000B787000F0B181002840F03C832B
:1045B00040F2022040F6004546F60046A7F801000A
:1045C00000200021C4F20105C0F601064FF00008EA
:1045D000FEF7EAFF0FF25860FFF736F801200321DB
:1045E000FEF7E2FF0FF25860FFF72EF828464FF46F
:1045F00000610122FCF728FAC820FCF70DF82846D4
:104600004FF400610022FCF71FFAC820FCF704F801
:1046100028464FF400610122FCF716FAC820FBF788
:10462000FBFF28464FF400610022FCF70DFAC8207A
:10463000FBF7F2FF4FF4FA70FBF7EEFF06F5406967
:104640004846FBF771FF484600218BF80380FBF7D3
:10465000D3FF6420FBF7E0FF4FF47A70FBF7DCFF39
:104660000FF2E8540FF2F85706F5006A08E000BFB1
:10467000FEF7E4FE9BF805003138012840F23E8148
:10468000FEF73EFE00200021FEF78EFF2046FEF7DB
:10469000DBFF01200021FEF787FF3846FEF7D4FF3D
:1046A0009BF8050030380928EAD8FEF7C7FE9BF8CA
:1046B000050031287AD03228E2D128464FF4006133
:1046C0000122FCF7C1F9C820FBF7A6FF28464FF4EA
:1046D00000610022FCF7B8F9C820FBF79DFF4FF4FA
:1046E000FA70FBF799FF00200021FEF75DFF44F60A
:1046F0000D50C0F60000FEF7A7FF01200121FEF7D4
:1047000053FF44F61A50C0F60000FEF79DFF8BF8E9
:10471000058000BFFEF7F4FD9BF80500A0F1300115
:104720000929F7D83228A3D03128F3D1FEF786FE25
:104730003046FBF7F9FE009930460622FBF742FFB0
:104740006420FBF769FF5046FBF7EEFE5046002160
:104750008BF80280FBF750FF6420FBF75DFF4846B3
:10476000FBF7E2FE484600218BF80380FBF744FF8D
:104770006420FBF751FF06F58060FBF7D5FE0BF1D7
:10478000190130460622FBF7E3FE4FF4FA60FBF70F
:1047900043FF00200021FEF707FF44F60D50C0F64E
:1047A0000000FEF751FF0120022167E028464FF488
:1047B00000610122FCF748F9C820FBF72DFF2846CD
:1047C0004FF400610022FCF73FF9C820FBF724FFFB
:1047D0004FF4FA70FBF720FF00200021FEF7E4FE03
:1047E00044F6F740C0F60000FEF72EFF012001213D
:1047F000FEF7DAFE44F61A50C0F60000FEF724FF7A
:104800008BF80580FEF77CFD9BF80500A0F13001D8
:104810000929F7D832283FF42BAF3128F2D1FEF71F
:104820000DFE3046FBF780FE009930460622FBF76E
:10483000C9FE6420FBF7F0FE5046FBF775FE5046BC
:1048400000218BF80280FBF7D7FE6420FBF7E4FE23
:104850000BF1190130460622FBF77AFE4FF4FA609D
:10486000FBF7DAFE00200021FEF79EFE44F6F7403B
:10487000C0F60000FEF7E8FE01200021FEF794FEDE
:1048800044F66550C0F60000FEF7DEFE28464FF401
:1048900000610122FCF7D8F8C820FBF7BDFE2846CE
:1048A0004FF400610022FCF7CFF8C820FBF7B4FEFC
:1048B00028464FF400610122FCF7C6F8C820FBF738
:1048C000ABFE28464FF400610022FCF7BDF8C8207B
:1048D000FBF7A2FE4FF4FA70FBF79EFEFEF7AEFD6B
:1048E00040F20000C2F20000042101708BF8048045
:1048F0009BF80500313801283FF6C2AE002040F297
:1049000000078BF80500C2F2000788E19BF803104E
:104910000220B870481C8BF8030046F60040C0F631
:10492000010000F540642046FBF7FEFD9BF80310F4
:104930002046FBF761FE6420FBF76EFE9BF8030048
:104940000328C0F06881FEF779FD9BF8032044F648
:10495000565105ACC0F600012046FBF739FC40F685
:104960000045C4F2010528464FF400610122FCF71E
:104970006BF8C820FBF750FE28464FF40061002278
:10498000FCF762F8C820FBF747FE28464FF40061A9
:104990000122FCF759F8C820FBF73EFE28464FF4E9
:1049A00000610022FCF750F8C820FBF735FE2846CE
:1049B0004FF400610122FCF747F8C820FBF72CFEFA
:1049C00028464FF400610022FCF73EF8C820FBF7B0
:1049D00023FE28464FF400610122FCF735F8C82079
:1049E000FBF71AFE28464FF400610022FCF72CF872
:1049F000C820FBF711FE28464FF400610122FCF7A6
:104A000023F8C820FBF708FE28464FF40061002277
:104A1000FCF71AF8C820FBF7FFFD28464FF40061A9
:104A20000122FCF711F8C820FBF7F6FD28464FF4E9
:104A300000610022FCF708F8C820FBF7EDFD2846CE
:104A40004FF400610122FBF7FFFFC820FBF7E4FDF4
:104A500028464FF400610022FBF7F6FFC820FBF761
:104A6000DBFD28464FF400610122FBF7EDFFC82073
:104A7000FBF7D2FD28464FF400610022FBF7E4FF6C
:104A8000C820FBF7C9FD28464FF400610122FBF75F
:104A9000DBFFC820FBF7C0FD28464FF40061002271
:104AA000FBF7D2FFC820FBF7B7FD28464FF40061A3
:104AB0000122FBF7C9FFC820FBF7AEFD28464FF4E3
:104AC00000610022FBF7C0FFC820FBF7A5FD2846C8
:104AD0004FF400610122FBF7B7FFC820FBF79CFDF4
:104AE00028464FF400610022FBF7AEFFC820FBF719
:104AF00093FD28464FF400610122FBF7A5FFC82073
:104B0000FBF78AFD28464FF400610022FBF79CFF6B
:104B1000C820FBF781FD28464FF400610122FBF716
:104B200093FFC820FBF778FD28464FF40061002270
:104B3000FBF78AFFC820FBF76FFD28464FF40061A2
:104B40000122FBF781FFC820FBF766FD28464FF4E2
:104B500000610022FBF778FFC820FBF75DFD2846C7
:104B60004FF400610122FBF76FFFC820FBF754FDF3
:104B700028464FF400610022FBF766FFC820FBF7D0
:104B80004BFD4FF4FA70FBF747FDFEF757FC002092
:104B90000321FEF709FD44F69A40C0F60000FEF737
:104BA00053FD01200121FEF7FFFC2046FEF74CFDDE
:104BB000FEF744FC9BF80300022100EB8000C000DC
:104BC000CBF810000020FEF7EFFC44F63750C0F69B
:104BD0000000FEF739FDDBF81020012A19DB44F64E
:104BE0004B54C0F6000401AD28462146FBF7F0FA0D
:104BF00001200121FEF7D8FC2846FEF725FD4FF4E1
:104C00007A70FBF709FDDBF81000421ECBF810208C
:104C1000EADCFEF713FC40F20220A7F801000420B2
:104C2000387000208BF8040009B0BDE8F08F00BF99
:104C300050415353574F5244204D41535445520015
:104C4000495320434F52524543540000313A524594
:104C50005345542050415353574F524400000000D5
:104C6000323A52455345542053595354454D000050
:104C7000000000000000000001020304060708090C
:104C800000000000010203040102020304050607FC
:104C900008090A0B0C0D0E0F10105741524E494EC9
:104CA000472100444F4F52204953204F50454E2139
:104CB00000434F5252454354205041535321002A40
:104CC000004F4C442050415353574F52443A004EEA
:104CD00045572050415353574F52443A0050415387
:104CE00053574F5244204D41535445523A00544873
:104CF00045204341524400524553455420504153AE
:104D000053574F5244004348414E47450052455384
:104D100045542053595354454D00313A5945532079
:104D200020202020323A4E4F004F4E204E46432046
:104D3000524541444552005741495420464F520084
:104D4000544845204341524427530025642053458D
:104D5000434F4E44530057524F4E47202564205432
:104D6000494D4553005355434345535346554C4CC9
:104D700059004D454D4F525920495320454D5054EF
:104D800059000000A84D0008000000201800000095
:104D900028010008C04D000818000020780B000012
:104DA0004401000800000000040202020201313147
:104DB0003131313101000000100000000024F40006
:04000005080000ED02
:00000001FF
