:020000040800F2
:1000000090070020910100086D270008191A0008C8
:100010006927000841050008652800080000000065
:100020000000000000000000000000005928000847
:100030004505000800000000712700085D28000841
:10004000AB010008AB010008AB010008AB010008E0
:10005000AB010008AB010008AB010008AB010008D0
:10006000AB010008AB010008AB010008AB010008C0
:10007000AB010008AB010008AB010008AB010008B0
:10008000AB010008AB010008AB010008AB010008A0
:10009000AB010008AB010008AB010008AB01000890
:1000A000AB010008AB010008AB010008AB01000880
:1000B000AB010008AB010008AB010008AB01000870
:1000C000AB010008AB010008AB010008AB01000860
:1000D000AB010008AB010008AB010008AB01000850
:1000E000AB010008AB010008AB01000800F002F80A
:1000F00000F03FF80AA090E8000C82448344AAF183
:100100000107DA4501D100F034F8AFF2090EBAE880
:100110000F0013F0010F18BFFB1A43F0010318473B
:10012000E834000008350000103A24BF78C878C1D0
:10013000FAD8520724BF30C830C144BF04680C60ED
:10014000704700000023002400250026103A28BF35
:1001500078C1FBD8520728BF30C148BF0B60704739
:10016000782900F07180002070471FB51FBD10B5C1
:1001700010BD00F0AAF91146FFF7F7FF02F04AFDA3
:1001800000F0C8F903B4FFF7F2FF03BC00F0D0F9A8
:100190000948804709480047FEE7FEE7FEE7FEE71B
:1001A000FEE7FEE7FEE7FEE7FEE7FEE70448054957
:1001B000054A064B7047000061280008ED00000862
:1001C0009001002090070020900300209003002061
:1001D0000FB41CB5074B06AA7B44694600900598EE
:1001E00000F05BF90020694600F06AF91CBC5DF87C
:1001F00014FB0000E502000070B504468569006844
:10020000C10601D5302600E02026C00707D070BD0A
:10021000D4E9012130469047206A401C20626D1EBF
:10022000F6D570BD70B5044685690078C00707D162
:1002300070BDD4E9012120209047206A401C206233
:100240006D1EF6D570BD000070B504460D46214602
:100250001068AFF300802188090502D50F4A7A445F
:1002600002E00E4A7A440E32002104F1240305E034
:1002700000F00F060009965D5E54491C0028F7D176
:1002800020780023000704D5702D02D009B1022385
:1002900011322046BDE8704000F0A1B814330000D0
:1002A0002DE9F05F894604464FF0000ADFF824B1DB
:1002B000FB44C0F820A02046E168884700287DD094
:1002C000252806D0D4E901219047206A401C2062ED
:1002D000F1E700255F462046E1688847202806466A
:1002E00007DB312E05D2B81910F8200C08B10543F0
:1002F000F1E7A80701D525F00405C4F81CA00027E4
:10030000C4F818A02A2E09D0304603F02DF938B3CE
:1003100004EB8708303EC8F8186019E059F8041B50
:10032000204604EB87029161E1688847012F064669
:1003300018D1E069002820DA25F020051DE0D8F862
:10034000180000EB800006EB40003038C8F81800B9
:100350002046E1688847064603F006F90028EED1FA
:10036000012F0AD02E2E08D12046E16888477F1C35
:100370000646022F45F02005C4DBA069002803DAF9
:10038000404245F00105A061E80701D025F01005C5
:10039000A6B1A6F14100192802D8203645F400651F
:1003A0004A463146204625604D46FFF7D9FE60B1EA
:1003B000012807D0ED1D25F0070000E007E000F15F
:1003C000080978E705F1040975E730467AE7206AFD
:1003D000BDE8F09FEA3200007047704770472DE992
:1003E000F0470D4699469246044600F124080168FC
:1003F000880604D5E06921F01001216000E00120A9
:10040000A84201DD471B00E00027A1697A1902EB31
:100410000900081AA0612078C00602D42046FFF720
:10042000EBFE002608E0D4E901211AF80600904707
:10043000206A401C761C20624E45F4DB2078C00602
:100440000AD52046FFF7D8FE06E0D4E90121302086
:100450009047206A401C2062381EA7F10107F4DC97
:1004600007E0D4E9012118F805009047206A401CF4
:100470002062281EA5F10105F3DC2046FFF7D2FE1D
:100480002078000602D50220BDE8F0870120FBE7B6
:1004900001694A1C02610878704700B58FB0CDE948
:1004A00001310021059105497944CDE90310114638
:1004B0006846FFF7F5FE0FB000BD0000E5FFFFFF47
:1004C0000A6802F8010B0A607047754600F02CF8C4
:1004D000AE4605006946534620F00700854618B031
:1004E00020B5FFF763FEBDE820404FF000064FF057
:1004F00000074FF000084FF0000BAC46ACE8C00915
:10050000ACE8C009ACE8C009ACE8C00921F00701BB
:100510008D46704710B50446AFF300802046BDE815
:100520001040FFF72FBE0000004870471800002061
:1005300001491820ABBEFEE726000200704700000C
:10054000FEE700007047000070B542F20C0604465A
:10055000C4F2020600F0F4FA3168C90718D1306815
:10056000800644BF202030603068C00607D4306960
:10057000C00704D1306840075CBF002070BD306800
:10058000C00623D40020316849072BD434E000BFD3
:10059000002C47D00546601C0ED13068C007DED065
:1005A0003068C0071CBF30685FEAC070D7D03068C1
:1005B000C007F2D1D3E700BF00F0C2FA401BA0424F
:1005C00030D83068C007F7D1C9E700BF40F26810E3
:1005D000C2F20000C16941F00201C161102031681E
:1005E000490709D540F26811C2F20001CA6940F01A
:1005F000040042F00102CA613169C90702D13060CA
:10060000012070BD40F26811C2F20001CA6942F0D7
:100610000402CA61316921F00101316130600120B9
:1006200070BD00BF032070BD10B586B0044600F059
:100630004DF901200590CDE903040020029002A8A5
:1006400001A900F06BF800F0E1F806B010BD000061
:1006500070B5A2B301324FF0FF3303EB5203032B0B
:10066000C2F3410C02D2002316E000BF520822F070
:10067000030E0022002300BF845A85188C526C8818
:100680008E187480AC880433B480EC889E4502F1E7
:100690000802F480F0D11144BCF1000F08BF70BD16
:1006A00030F81320BCF1010F0A8008D000EB4300A2
:1006B0004288BCF1020F4A801CBF8088888070BDD0
:1006C00070B516460D46044600F000F96EB1701C78
:1006D0004608023D35F8022F01202146002300F094
:1006E0009FF8013E04F10204F4D1BDE8704000F02F
:1006F0008DB80000B0B5044600F022FA054640F27D
:100700000800C2F200000078611C18BF044400BF5A
:1007100000F016FA401BA042FAD3B0BD2DE9F04319
:1007200081B040F26816C2F20006327E012A03D17F
:10073000022001B0BDE8F083054601202C68307628
:100740004CF250308846FFF7FFFE022C1CD10028E7
:100750004ED1002042F21004F061C4F2020420687D
:1007600040F004002060206840F0400020604CF21F
:100770005030FFF7E9FE216821F0040121600021DB
:10078000317601B0BDE8F08390BB4FF0FF30C8F880
:100790000000D5E9027007EB8020874228D242F2A0
:1007A0001004C4F202044FF0000900BFC6F81C9008
:1007B000206840F0020020606760206840F0400040
:1007C00020604CF25030FFF7BFFE216821F002019B
:1007D000216098B9D5E9020107F5806700EB812017
:1007E0008742E3D300200021317601B0BDE8F083D9
:1007F00001200021317601B0BDE8F083C8F8007017
:100800000021317601B0BDE8F083000042F2100112
:10081000C4F20201086840F0800200200A607047BC
:100820002DE9F04F81B040F26819C2F200099246FA
:1008300099F81820012A03D1022001B0BDE8F08FF9
:100840008046012089F818004CF250309B460E4635
:10085000FFF77AFEA0BB404642F21007B8F1020F44
:1008600018BF0420C4F20207B8F1010F08BF4046C8
:1008700045424FF000080024C4F12001C9F81C8053
:100880002AFA04F00BFA01F13A680843B4F12001A6
:1008900058BF2BFA01F042F00101396026F8020B33
:1008A0004CF25030FFF750FE3968013521F001025B
:1008B00048F100013A6018B9002904F11004DBD0B6
:1008C000002189F8181001B0BDE8F08F42F2040051
:1008D000C4F20200C16809065CBF0020704740F204
:1008E0002311C4F26751016048F6AB11CCF6EF5109
:1008F0000160C068C0B2C009704700002DE9F04F28
:1009000082B00E68002E00F0038141F20042C4F272
:100910000102042340F2004E904208BF03234FF629
:10092000FF7CC4F2010E009300240123C1F2100CDD
:100930004FF0000A4FF0000949E000BF012704F022
:100940000C030F229A402BEA020207FA03F34FEA44
:100950009A051A4346F82520D1F804B040F20C4518
:100960005FEACB22DEF8082054BF22EA080242EAFE
:100970000802C4F20105CEF808202A685FEA8B233A
:1009800054BF22EA080242EA08022A605FEA8B3377
:10099000DEF8042054BF22EA080242EA08025FEAB5
:1009A000CB33CEF80420DEF800204FF0010354BF13
:1009B00022EA080242EA0802CEF800200E680AF194
:1009C000010A36FA0AF204F1040400F0A18003FAE5
:1009D0000AF816EA080FF1D04E68664512DC122EAE
:1009E00056D8DFE806F0350B454955555555555550
:1009F000555555555555554D510000BFD1F80C90E2
:100A000046E000BF4FF6FF72C1F2210296420FDCB2
:100A10000022C1F2110296421AD00022C1F2120243
:100A2000964215D00022C1F22102964210D02FE04A
:100A30000022C1F2220296420AD00022C1F2310203
:100A4000964205D00022C1F23202964220D100BF68
:100A50008A684AB1012A14BFC0F81480C0F8108017
:100A60004FF0080914E000BF4FF0040910E000BF88
:100A7000CA6802F108090BE04FF0000908E000BF66
:100A8000CA6802F1040903E0CA6802F10C0900BF58
:100A900022460646BAF1080F24BF203A04363768CA
:100AA0000F25954027EA050509FA02F22A4332602C
:100AB000CA79D2067FF582AF41F21803C4F202036D
:100AC0001A68AEF57E7642F001021A601A6802F0EA
:100AD00001020192019A2AF0030256F802B040F690
:100AE0000002C4F20102904210D040F60042C4F26B
:100AF000010290423FF422AF41F20002C4F201022F
:100B0000009F904208BF022719E700BF002716E7A1
:100B100002B0BDE8F08F00008068084018BF0120D7
:100B200070470000C26802EA0103914341EA0341B1
:100B300001617047002A08BF090401617047000085
:100B400040F28810C2F200000068704770B5B8B378
:100B5000044690F83D0028B9002084F83C00204667
:100B600000F09AF9242084F83D002068016821F003
:100B700001010160016841F400410160016821F454
:100B80000041016000F04AFB48F28041C0F21E01C2
:100B900040F60013D4F804E088424FF00001C0F2A0
:100BA0003D0348F2A16C4FF0000238BF012198428A
:100BB000C0F2010C38BF0122E64538BF0A460AB12F
:100BC000012070BD4DF68361C4F21B31A0FB011200
:100BD0002168950C4B684FF4967623F03F0343EA67
:100BE0009243754344F6D3564B60C1F262060B6ADA
:100BF000A5FB0656B50923F03F03E64538BF950C23
:100C00006A1C1A430A62CA6948F2A0664CF6FF736E
:100C1000C0F20106B64522EA03020BD801384FEABA
:100C20004E03B0FBF3F001306FF31F30042898BF80
:100C300004201EE0A368013863B119230EFB03F3FF
:100C4000B0FBF3F001306FF31F3078B100F5804056
:100C500008E000BF0EEB4E03B0FBF3F001306FF382
:100C60001F3028B100F5004003E000BF012000E084
:100C700001201043C8610868D4E9072320F0C000B0
:100C8000104318430860886848F2FF3204F10C06EC
:100C900090434CCE18431043A5698860C86820F083
:100CA000FF0030432843C860086840F00100086036
:100CB00000202021206484F83D10206384F83E0049
:100CC00070BD00002DE9F04383B01E4617468946EB
:100CD0000446FFF735FF94F83D10202920D1054642
:100CE000206800BF8169890716D5FFF729FF411BDE
:100CF00020681A29F6D381698907F3D500202021BD
:100D0000206384F83D1084F83E00216C41F02001FE
:100D1000216484F83C0003E094F83C10012903D1DD
:100D2000022003B0BDE8F083012184F83C10016883
:100D3000C90703D1016841F001010160016840F277
:100D4000020821F400610160212184F83D10102186
:100D500084F83E100021216467626685618DC0F2CF
:100D600001082185A8F10211E162E16A0A9E11F5EC
:100D7000803F18BF01291DD1016841F480710160D5
:100D800020464FF0011100223346009500F0A6FEE8
:100D900050B120680068C00544BF4FF40070206463
:100DA000012003B0BDE8F0832069B0F5804F07D182
:100DB000FE2015E00829DFD0216B1229DCD0DFE707
:100DC000062000EAD9102168F030086108F1060118
:100DD000204632462B4600F06BFF0028E0D1FF2072
:100DE000216800EA090008612046414632462B4648
:100DF00000F05EFF0028D3D10020029020684169F6
:100E0000029180690290029806E000BF20463146B8
:100E10002A4600F003FE18BB208D68B320463146F9
:100E20002A4600F0B5FFD8B9606A2168024612F878
:100E3000013B0B616262628D013A6285228D531E15
:100E400023854F697F07E1D51B04DFD0437802304B
:100E50000B616062608D01386085901E2085D5E74A
:100E6000206C04289CD12068016841F40071016065
:100E7000012003B0BDE8F0832068016841F40071EF
:100E80000160202084F83D00002084F83E0084F8B2
:100E90003C0003B0BDE8F08310B586B0006845F2B1
:100EA0000042C4F2000200219042049102D006B038
:100EB00010BD00BF41F21804C4F20204206802A968
:100EC00040F008002060206800F0080001900198C0
:100ED0004FF440700290122003900320059040F6DA
:100EE0000040C4F20100FFF709FD0420C4F2010034
:100EF000016841F0E06141F002010160606840F486
:100F000000106060606800F400100190019806B065
:100F100010BD000040F2080040F28811C2F200004B
:100F2000C2F2000100780A681044086070470000AF
:100F300080B542F20000C4F20200016841F01001E5
:100F40000160032000F07AF80F2000F005F800F0AF
:100F500027F8002080BD000070B540F20806C2F2FC
:100F6000000640F210013278C2F200014FF47A73A9
:100F70000968B3FBF2F20446B1FBF2F1084600F057
:100F800035FD0F2C4FF0010508D838B94FF0FF3070
:100F900021460022002500F025F87460284670BD27
:100FA00082B041F21800C4F202000168022241F04E
:100FB00001010160016801F001010191019941689D
:100FC00041F080514160406800F0805000900098EE
:100FD0000420C4F20100016862F31A61016002B0EA
:100FE0007047000010B54EF60C5CCEF2000CDCF839
:100FF0000030C3F3022E8EF00704042C28BF042413
:10100000BEF103034FF0FF3E0EFA04F438BF002395
:10101000A14399400EFA03F39A43114300F00F02E3
:1010200000F160430901043A03F564436244002877
:1010300048BF02F10C03197010BD00004EF60C51B0
:10104000CEF200010A684FF6FF031A4060F30A224D
:1010500042F0806040F0FD70086070472DE9F04379
:1010600081B0002800F0858042F20008C4F2020836
:101070000446D8F800000D4600F0070088420CD264
:10108000D8F8000020F007002843C8F80000D8F87E
:10109000000000F00700A8426BD1206841F204096B
:1010A0008107C4F2020917D5410705D5D9F8001008
:1010B00041F4E061C9F80010010705D5D9F8001026
:1010C00041F46051C9F80010D9F80010A26821F06D
:1010D000F0011143C9F80010C00741D1D8F8000051
:1010E00000F00700A8420CD9D8F8000020F0070053
:1010F0002843C8F80000D8F8000000F00700A84214
:1011000037D12068410707D5D9F80010E26821F4EB
:10111000E0611143C9F80010000708D5D9F80000B4
:10112000216920F4605040EAC100C9F80000D9F8F4
:10113000002002F00C00082841F20020C0F27A00E2
:1011400050D143F2C953C2F38341C0F60003595C46
:10115000D2033BD440F60010C0F23D00484341E0CA
:10116000606802280AD001282AD159F8041C890392
:1011700008D4012001B0BDE8F08300BF59F8041C79
:101180008901F6D5D9F8001021F003010843C9F808
:101190000000FFF7D5FC064641F28837D9F8000079
:1011A000616800F00C00B0EB810F97D0FFF7C8FC2E
:1011B000801BB842F2D9032001B0BDE8F08300BF24
:1011C00059F8041C8907D4D5DCE700BFD9F8002002
:1011D00043F2C753C2F34042C0F600039A5C48434F
:1011E000B0FBF2F0D9F8001043F2AF52C1F3031193
:1011F000C0F60002515C40F2100220FA01F140F208
:101200000C00C2F200000068C2F200021160FFF799
:10121000A3FE002001B0BDE8F083000040F2100002
:1012200041F20401C2F20000C4F202010068096840
:1012300043F2BF52C1F30221C0F60002515CC84024
:10124000704700002DE9F04182B0002868D00446C4
:10125000007841F20006C007C4F2020625D070688B
:1012600000F00C0004281BD0706800F00C00082867
:1012700002D17068C00313D46068002800F0688150
:10128000B0F5A02F00F07C81B0F5803F00F07C81AC
:10129000306820F480303060306820F4802076E1BF
:1012A0003068800301D56068D0B32078800718D5F6
:1012B000706810F00C0F07D0706800F00C00082860
:1012C0006ED17068C0036BD43068800702D5206986
:1012D000012825D13068616920F0F80040EAC1009A
:1012E0003060207800071FD42078400732D4E569A9
:1012F00095B1706800F00C00082840F08F80012D37
:101300000ED07068216A00F480328A4208D1616A86
:1013100000F47010884203D1002002B0BDE8F081D3
:10132000012002B0BDE8F081A069002862D0002051
:10133000C4F242200121C0F88014FFF701FC0546E9
:10134000706A800700F18C80FFF7FAFB401B0228CF
:10135000F6D92AE1F06910F0805808D1F06940F020
:101360008050F061F06900F080500090009847F2E2
:101370000007C4F200073868C00529D4386840F473
:1013800080703860FFF7DCFB054600BF3868C00599
:101390001ED4FFF7D5FB401B6428F7D905E100BF39
:1013A0002069002840F20000C4F2422000F0828050
:1013B00001210160FFF7C4FB054600BF30688007CC
:1013C0003FF588AFFFF7BCFB401B0228F6D9ECE0E5
:1013D000E068002800F08080052800F09780012850
:1013E00000F09880306A20F001003062306A20F00E
:1013F000040092E00020C4F242200021C0F88014D2
:10140000FFF79EFB054600BF706A80077FF56CAF53
:10141000FFF796FB401B0228F6D9C6E00027C4F26E
:10142000422700203866FFF78BFB022D05460BD1C3
:101430003068800140F1BE80FFF782FB401B02282C
:101440004FF00300F4D968E7306880017FF564AF9E
:10145000FFF776FB401B02284FF00300F4D95CE74E
:1014600040F21000C2F20000006844F6D351C1F20D
:101470006201A0FB0101480A019000BF00BF019872
:10148000411E002801913FF42FAF00BF0198411E7B
:10149000002801913FF428AF00BF0198411E0028A9
:1014A00001913FF421AF00BF0198411E0028019136
:1014B000E4D119E700210160FFF742FB054600BFB8
:1014C000306880077FF50DAFFFF73AFB401B02281D
:1014D0004FF00300F4D920E7306A20F001003062B9
:1014E000306A20F004003062FFF72AFB054641F223
:1014F000883700BF306A800720D5FFF721FB401BEB
:10150000B8424FF00300F5D907E700BF306A40F05A
:1015100004003062306A40F001003062FFF710FBD7
:10152000054641F2883700BF306A800706D4FFF7CE
:1015300007FB401BB842F7D937E000BFB8F1000FF6
:101540007FF4D5AEF06920F08050F061CFE600BFA7
:10155000306820F480303060306820F480203060C3
:10156000FFF7EEFA054600BF306880037FF59DAEB9
:10157000FFF7E6FA401B64284FF00300F4D9CCE6ED
:10158000306840F480203060306840F48030306053
:10159000FFF7D6FA054600BF306880033FF585AEF9
:1015A000FFF7CEFA401B6428F6D9032002B0BDE84D
:1015B000F08100BF206AB0F5803F05D17168A26854
:1015C00021F40031114371607168626A21F4741171
:1015D00011430843706001203866FFF7B1FA0446F2
:1015E000306880013FF598AEFFF7AAFA001B022889
:1015F0004FF00300F4D990E670B538B10446406A64
:1016000030B10020206104F1140007E0012070BD1A
:101610006068B0F5827F03D004F11C0000210160F6
:101620000026A66294F8510020B9204684F8506044
:1016300000F038F8022084F8510094E8071001F413
:101640008271036802F4044223F0400303602369BB
:1016500011440CF40062114403F002026369114466
:1016600003F00102A369E569114403F40072114417
:1016700005F03802256A114405F08002A56A11437D
:1016800005F4005211430160042101EA1341416055
:10169000C16921F40061C1610120666584F85100CF
:1016A000304670BD70B586B040F60004C4F2010447
:1016B000006804F5205100268842049602D006B046
:1016C00070BD00BF41F21800C4F20200016802AD13
:1016D00041F480510160016801F480510191019948
:1016E000016841F0040101600068294600F004002F
:1016F00001900198A0200290022003900320059001
:101700002046FFF7FBF84020CDE902062046294697
:101710000496FFF7F3F806B070BD00002DE9F04322
:1017200081B0044690F85000012803D1022001B096
:10173000BDE8F08301201E4615460F4684F8500090
:10174000FFF7FEF994F851108146012912D0606824
:10175000B0F5827F40F0A480A06800284FF002001E
:1017600008BF042906D0002184F8501001B0BDE85C
:10177000F08300BF002F4FF0010018BF002DF2D002
:10178000002EF0D094F85100002104281CBF052041
:1017900084F851006165A563E687A6872763E6861E
:1017A0002068A686216461640168490603D4016843
:1017B00041F0400101606168731EE268B1FA81F195
:1017C000B3FA83F3DDF8208049095B09B2F5006FB5
:1017D00041EA03016CD131B137F8021BC1602763C4
:1017E000E08E0138E086012518F1010031D101E0D9
:1017F000FFF7A6F9E08E18B9E08F002800F0C0804E
:101800002068816889070CD5E18E51B1012D08D17E
:10181000216B002531F8022BC2602163E18E013972
:10182000E1868168C907E3D0E18F0029E0D0C06874
:10183000A16B012521F8020BA163E08F0138E0873D
:10184000D6E700BFFFF77CF9A0EB0900404580F028
:10185000AB80E08E18B9E08F002800F091802068FE
:10186000816889070CD5E18E51B1012D08D1216B1A
:10187000002531F8022BC2602163E18E0139E18637
:101880008168C907DED0E18F0029DBD0C068A16B79
:10189000012521F8020BA163E08F0138E087D1E731
:1018A0000220002184F8501001B0BDE8F08300BF91
:1018B00039B139780173206B01302063E08E013833
:1018C000E086012518F1010032D101E0FFF738F977
:1018D000E08E10B9E08F002852D020688168890717
:1018E0000ED5E18E61B1012D0AD1216B0025097859
:1018F0000173216B206801312163E18E0139E1869A
:101900008168C907E2D0E18F0029DFD0C068A16BF0
:1019100001250870A06B0130A063E08F0138E087DB
:10192000D4E700BFFFF70CF9A0EB090040453BD21C
:10193000E08E08B9E08F18B32068816889070ED55A
:10194000E18E61B1012D0AD1216B00250978017367
:10195000216B206801312163E18E0139E1868168C4
:10196000C907DFD0E18F0029DCD0C068A16B012559
:101970000870A06B0130A063E08F0138E087D1E7E9
:101980002046802142464B4600F0F4FEB0B1606D27
:1019900040F020006065202060650120002184F86F
:1019A000501001B0BDE8F083012084F851000320FD
:1019B000002184F8501001B0BDE8F083A06838B968
:1019C000002000902068C168009180680090009815
:1019D000606D00284FF0010004BF84F85100002022
:1019E000002184F8501001B0BDE8F083411E0020B2
:1019F000B0EB116F1CBF012070474EF21002CEF207
:101A0000000251604EF62351CEF20001F0230B701C
:101A10000721906011607047FEE7000070B5036811
:101A2000044653F8140F400711D40E46481C29D021
:101A300086BB00BF1868400527D4FFF781F82368EC
:101A400053F8140F400739D518684007F2D5002025
:101A500070BD00BF18684007F9D41868400514D459
:101A600018684007F3D4186840050ED4186840077A
:101A7000EDD41868400508D4186840074FF00000FE
:101A800048BF70BD18684005E4D56FF480601860E9
:101A9000042014E0154603E053F8140F4007D6D491
:101AA00018684005F1D4FFF74BF8401B2368B0429B
:101AB000F2D958694007EFD4202000E0202000210F
:101AC0002022216384F83D2084F83E10226C1043CC
:101AD0002064012084F83C1070BD00002DE9F04125
:101AE000054600681E46144601F47F0201338FB29A
:101AF00042D0DDF81880B2F5803F40F08780406921
:101B00003840C01BB0FA80F04009A04240F0C880C5
:101B10004EB924E040693840C01BB0FA80F040095B
:101B2000A04240F0BD80FFF70BF8A0EB0801286849
:101B3000B142EFD941693940C91BB1FA81F1490974
:101B4000A142E7D19BE000BF40693840C01BB0FA1A
:101B500080F04009A0424FF0000040F0A680FEF760
:101B6000EFFF286841693940C91BB1FA81F1490981
:101B7000A142E9D183E000BFB2F5803F24D100BF8C
:101B800041693940C91BB1FA81F14909A14240F0CC
:101B9000878041693940C91BB1FA81F14909A142E5
:101BA00040F07E8041693940C91BB1FA81F1490991
:101BB000A14275D141693940C91BB1FA81F1490986
:101BC000A142DDD06CE000BF81693940C91BB1FA88
:101BD00081F14909A14263D181693940C91BB1FA38
:101BE00081F14909A1425BD181693940C91BB1FA30
:101BF00081F14909A14253D181693940C91BB1FA28
:101C000081F14909A142DFD04AE000BF8069384034
:101C1000C01BB0FA80F04009A04241D146B923E090
:101C200080693840C01BB0FA80F04009A0423BD127
:101C3000FEF786FFA0EB08012868B142F0D9816960
:101C40003940C91BB1FA81F14909A142E8D116E036
:101C500080693840C01BB0FA80F04009A0424FF0C4
:101C6000000018BFBDE8F081FEF76AFF28688169AF
:101C70003940C91BB1FA81F14909A142E8D10020DC
:101C80002021286385F83D1085F83E00296C41F03D
:101C90002001296485F83C000120BDE8F08100BFE7
:101CA0000020BDE8F08100BF0020BDE8F081000009
:101CB000F0B581B0044600681D4643698FB203EA5F
:101CC0000701B94202D1002001B0F0BD41691646BA
:101CD000013201F4806125D0002940D1CEB100BF8E
:101CE000FEF72EFF411B2068B14203D941693940FC
:101CF000B9424BD141693940B942E4D04169490503
:101D0000EED52CE041693940B942DCD04169490542
:101D100025D4FEF715FF206841693940B942F1D05A
:101D2000202024E0D9B941693940B942CBD041697A
:101D3000490514D441693940B942C4D041694905C3
:101D40000DD441693940B942BDD04169490506D435
:101D500041693940B942B6D041694905E3D50168C6
:101D600041F4007101606FF4806141610420002141
:101D70002022216384F83D2084F83E10226C104319
:101D8000206484F83C10012001B0F0BD2020EEE773
:101D900070B50368044653F8140F000611D40E46BC
:101DA000481C29D086BB00BF1868400527D4FEF721
:101DB000C7FE236853F8140F000639D518680006CB
:101DC000F2D5002070BD00BF18680006F9D418686D
:101DD000400514D418680006F3D4186840050ED4E2
:101DE00018680006EDD41868400508D41868000685
:101DF0004FF0000048BF70BD18684005E4D56FF48F
:101E000080601860042014E0154603E053F8140FB6
:101E10000006D6D418684005F1D4FEF791FE401BA9
:101E20002368B042F2D958690006EFD4202000E0C0
:101E3000202000212022216384F83D2084F83E10D8
:101E4000226C10432064012084F83C1070BD000017
:101E5000F0B583B040F60004C4F20104204610211E
:101E600000220026FEF766FE40F20C15A820C2F202
:101E700000058DF809000A270DF1090102AA28467C
:101E800001230097FFF74AFC0DF10B010DF10A0247
:101E9000284601238DF80B600097FFF73FFC9DF863
:101EA0000A50204610210122FEF744FEA80701D067
:101EB00003B0F0BD1420032100F014FA03B0F0BD0C
:101EC0002DE9F04184B040F60005C4F20105044656
:101ED0002846102100224FF00008FEF72BFE40F2AA
:101EE0000C161A20C2F200068DF80D000A270DF11B
:101EF0000D0103AA304601230097FFF70FFC0DF1F7
:101F00000F010DF10E02304601238DF80F8000976E
:101F1000FFF704FC284610210122FEF70BFE42F2D7
:101F2000930020800DF10A070C202146022223464F
:101F3000009700F033FA18B104B0BDE8F08100BF9B
:101F400020786178A278E378484050402179584061
:101F5000401A18BF0120400004B0BDE8F081000025
:101F60002DE9F04784B040F6000806468020C4F210
:101F700001088A4640EA46044046102100224FF0FC
:101F80000009FEF7D7FD40F20C15C2F200058DF8EE
:101F900009400A240DF1090102AA284601230094F0
:101FA000FFF7BCFB0DF10B010DF10A0228460123DE
:101FB0008DF80B900094FFF7B1FB9DF80A70404636
:101FC00010210122FEF7B6FD7E2000EA46064046BB
:101FD0001021002227EA0A07FEF7ACFD0DF10D01E2
:101FE00003AA284601238DF80D600094FFF796FBA5
:101FF0000DF10F010DF10E02284601238DF80F702F
:102000000094FFF78BFB404610210122FEF792FD62
:1020100004B0BDE8F0870000F0B583B040F60004DE
:10202000C4F201042046102100220027FEF782FDA1
:1020300040F20C150220C2F200058DF80B000A26B2
:102040000DF10B010DF10A02284601230096FFF75E
:1020500065FB0F208DF80B000DF10B010DF10A024D
:10206000284601230096FFF759FB20461021012244
:10207000FEF760FD204610210022FEF75BFD542094
:102080008DF80B000DF10B010DF10A02284601231A
:102090000096FFF743FB8D208DF80B000DF10B012F
:1020A0000DF10A02284601230096FFF737FB204670
:1020B00010210122FEF73EFD204610210022FEF7EE
:1020C00039FD56208DF80B000DF10B010DF10A02C0
:1020D000284601230096FFF721FB3E208DF80B00D8
:1020E0000DF10B010DF10A02284601230096FFF7BE
:1020F00015FB204610210122FEF71CFD2046102171
:102100000022FEF717FD5A208DF80B000DF10B0190
:102110000DF10A02284601230096FFF7FFFA1E2060
:102120008DF80B000DF10B010DF10A022846012379
:102130000096FFF7F3FA204610210122FEF7FAFC81
:10214000204610210022FEF7F5FC58208DF80B00E8
:102150000DF10B010DF10A02284601230096FFF74D
:10216000DDFA0DF10B010DF10A02284601238DF86D
:102170000B700096FFF7D2FA204610210122FEF7DD
:10218000D9FC204610210022FEF7D4FC4C208DF80B
:102190000B000DF10B010DF10A02284601230096F8
:1021A000FFF7BCFA70208DF80B000DF10B010DF15B
:1021B0000A02284601230096FFF7B0FA20461021B4
:1021C0000122FEF7B7FC204610210022FEF7B2FCE8
:1021D0002A208DF80B000DF10B010DF10A022846A3
:1021E00001230096FFF79AFA40208DF80B000DF1BD
:1021F0000B010DF10A02284601230096FFF78EFA23
:10220000204610210122FEF795FC204610210022D5
:10221000FEF790FC22208DF80B000DF10B010DF163
:102220000A02284601230096FFF778FA3D208DF830
:102230000B000DF10B010DF10A0228460123009657
:10224000FFF76CFA204610210122FEF773FCFFF71E
:10225000FFFD03B0F0BD00002DE9F04184B040F671
:102260000008C4F201080C46054640461021002231
:10227000FEF760FC40F20C171A20C2F200078DF83E
:102280000D000A260DF10D0103AA38460123009620
:10229000FFF744FA07208DF80F000DF10F010DF143
:1022A0000E02384601230096FFF738FA4046102107
:1022B0000122FEF73FFC0DF10A070C202146012206
:1022C00023462570009700F069F8BDF80A10102920
:1022D000014618BF0221002818BF0221084604B099
:1022E000BDE8F0812DE9F04784B040F600080646CD
:1022F0008020C4F201088A4640EA46044046102184
:1023000000224FF00009FEF715FC40F20C15C2F256
:1023100000058DF809400A240DF1090102AA28469A
:1023200001230094FFF7FAF90DF10B010DF10A02F8
:10233000284601238DF80B900094FFF7EFF99DF8E4
:102340000A70404610210122FEF7F4FB7E2000EACD
:10235000460640461021002247EA0A07FEF7EAFB3C
:102360000DF10D0103AA284601238DF80D6000949C
:10237000FFF7D4F90DF10F010DF10E0228460123EC
:102380008DF80F700094FFF7C9F940461021012223
:10239000FEF7D0FB04B0BDE8F08700002DE9F04F58
:1023A00087B017460C2888460293049006D00E2862
:1023B00008D111200590122007E000BF31200590C0
:1023C000772002E001200590002040F60006C4F2CC
:1023D0000106039000F180053046102100224FF0E5
:1023E0000009FEF7A7FB40F20C1A0420C2F2000A13
:1023F0008DF81B000A240DF11B010DF11A02504645
:1024000001230094FFF78AF90DF11B010DF11A0267
:10241000504601238DF81B500094FFF77FF930469A
:1024200010210122FEF786FB04208021FFF798FD92
:102430000A208021FFF756FF304610210022FEF7C8
:1024400079FB02208DF81B000DF11B010DF11A0222
:10245000504601230094FFF761F90DF11B010DF1C6
:102460001A02504601238DF81B900094FFF756F98D
:10247000304610210122FEF75DFB67B340F20C1AD3
:10248000A8F10105C2F2000A0DF11B090DF11A08AD
:1024900015F801BF3046102100220A24FEF74AFB3E
:1024A00012208DF81B0050464946424601230094F5
:1024B000FFF734F90A2450464946424601238DF875
:1024C0001BB00094FFF72AF9304610210122FEF7D5
:1024D00031FB013FDCD1304610210022FEF72AFB00
:1024E00040F20C170220C2F200078DF81B000DF11C
:1024F0001B010DF11A02384601230094FFF70EF973
:10250000049D0DF11B010DF11A02384601238DF8CF
:102510001B500094FFF702F9304610210122FEF70C
:1025200009FB0C2D03D10D208021FFF7DBFE40F2CB
:102530000C194FF4FA654FF088084FF00A0AC2F2FE
:1025400000090DF11B0B0DF11A0700BF30461021D9
:102550000022FEF7EFFA484659463A4601238DF825
:102560001B80CDF800A0FFF7D9F800208DF81B00E4
:10257000484659463A460123CDF800A0FFF7CEF869
:102580009DF81A40304610210122FEF7D3FA013D92
:10259000280439D005982042D8D00D208021FFF79B
:1025A000DFFC3046102100224FF00008FEF7C2FA8F
:1025B00040F20C158C20C2F200058DF81B000A2792
:1025C0000DF11B010DF11A02284601230097FFF7B8
:1025D000A5F80DF11B010DF11A02284601238DF813
:1025E0001B800097FFF79AF89DF81A50304610218B
:1025F0000122FEF79FFA15F01B0F0FD00225284687
:1026000007B0BDE8F08F00BF0D208021FFF7A8FCC8
:102610000225284607B0BDE8F08F00BF0398049953
:1026200020400C2900F00105E9D13046102100229C
:1026300010244FF00009FEF77DFA40F20C189420A8
:10264000C2F200088DF81B004FF00A0A0DF11B01C1
:102650000DF11A0240460123CDF800A0FFF75EF805
:102660000DF11B010DF11A02404601238DF81B905C
:10267000CDF800A0FFF752F89DF81A7030461021EF
:102680000122FEF757FA304610210022FEF752FAD7
:1026900098208DF81B000DF11B010DF11A02404628
:1026A0000123CDF800A0FFF739F80DF11B010DF162
:1026B0001A02404601238DF81B90CDF800A0FFF7C9
:1026C0002DF89DF81A80304610210122FEF732FACB
:1026D00018F0070040EAC700A0F1080008BFF800A2
:1026E000102F38BF3C46002F109908BF0124002C42
:1026F000088084D0029840F20C1BA0F10108C2F2BD
:10270000000B0DF11B074FF00A0A0DF11A09059590
:10271000304610210022FEF70DFA92208DF81B00A2
:10272000584639464A460123CDF800A0FEF7F6FF89
:1027300000208DF81B00584639464A460123CDF843
:1027400000A0FEF7EBFF9DF81A5030461021012241
:10275000FEF7F0F9013C08F8015FD9D1059D284644
:1027600007B0BDE8F08F0000FEE70000FEE70000C4
:10277000704700002DE9F04182B01E4690460D469C
:102780000446FEF7DDF9301A00EB0807FEF7D8F92A
:1027900040F21001C2F200010968C1F3CB31794364
:1027A000019121688A682A40AA4227D1064618F179
:1027B00001001FD0FEF7C4F9801BB84222D2019855
:1027C00001990028A1F1010101912168896808BFE0
:1027D000074601EA0500A842ECD00FE088682840CF
:1027E000A8420BD188682840A84207D188682840B1
:1027F000A84203D188682840A842EFD0002002B048
:10280000BDE8F081D4E900014268B1F5827F22F091
:10281000E00242600AD1A168B1F5004F02D0B1F5E3
:10282000806F03D1016821F040010160A16AB1F518
:10283000005F07D1016821F400510160016841F493
:1028400000510160012084F85100002084F85000FC
:10285000032002B0BDE8F08170470000FEF75ABBCC
:1028600070470000FEE700002DE9F04186B040F21D
:102870007806C2F2000606F1300426202146FFF752
:10288000EBFC70712046FFF71BFB316B7071F1613F
:1028900010B106B0BDE8F08141F20004C4F20104B9
:1028A00000F086F8002001214FF0000800F036F912
:1028B00033A000F083F9B07F327F737FF77F03ADE1
:1028C000009033A12846ADF81480CDF81080CDF8E3
:1028D0000C800197FDF77CFC0120002100F01EF91F
:1028E000284600F06BF94FF4FA60FDF703FFF57F1F
:1028F00096F824700420307100F05AF8002000216E
:1029000000F00CF9AF421DD143F2D950C0F60000DF
:1029100000F054F986F8048020464FF40051FEF789
:1029200001F94FF4FA70FDF7E5FE30790130C1B2DC
:1029300003293071F0D340F20000C2F200000221FE
:10294000017014E017A000F039F986F8048000BF88
:1029500020464FF40051FEF7E5F84FF4FA70FDF70A
:10296000C9FE30790130C1B205293071F0D340F68B
:10297000B830FDF7BFFE00F01BF806B0BDE8F081EF
:10298000436172642773206E756D6265723A000050
:10299000253032582D253032582D253032582D25EE
:1029A0003032580057726F6E672063617264210085
:1029B0002DE9F04184B048F68C0040F2B804C0F62E
:1029C0000C00C2F2000402904FF0640802AA2046F4
:1029D0004E210423CDF80080FEF774F942F62D163F
:1029E0004627C0F60D1603AD20464E212A46042385
:1029F0000396CDF80080FEF765F9013FF4D104B0ED
:102A0000BDE8F08170B582B03220FDF773FE40F270
:102A1000B80443F63C06C2F20004C0F60C06642576
:102A200001AA20464E21042301960095FEF74AF99B
:102A30000520FDF75FFE01AA20464E2104230196E2
:102A40000095FEF73FF90120FDF754FE01AA20464C
:102A50004E21042301960095FEF734F90A20FDF774
:102A600049FE42F62C00C0F60C00019001AA204657
:102A70004E2104230095FEF725F90A20FDF73AFEC2
:102A800042F62C00C8F68C00019001AA20464E2187
:102A900004230095FEF716F90120FDF72BFE40F602
:102AA0000C00C8F68C00019001AA20464E21042398
:102AB0000095FEF707F90120FDF71CFE40F60C001B
:102AC000C1F61C00019001AA20464E210423009566
:102AD000FEF7F8F80120FDF70DFE0120FDF70AFED4
:102AE00040F60C00C6F66C00019001AA20464E216B
:102AF00004230095FEF7E6F80120FDF7FBFD40F604
:102B00000C00CCF6CC00019001AA20464E210423F3
:102B10000095FEF7D7F802B070BD0000012805D07F
:102B2000002808BF41F0800102E000BF41F0C00171
:102B300080B582B021F00F00090100F10C020830CD
:102B40008DF8050001F10C008DF8060001F1080078
:102B50008DF8070040F2B8008DF804204FF0640CA7
:102B6000C2F2000001AA4E210423CDF800C0FEF7F6
:102B7000A9F802B080BD000080B582B000F0F0017D
:102B8000000101F10D0209318DF8051000F10D0170
:102B900009308DF8070040F2B8008DF804208DF858
:102BA00006104FF0640CC2F2000001AA4E2104236B
:102BB000CDF800C0FEF786F802B080BDF0B583B056
:102BC000017821B340F2B804461E6427C2F2000423
:102BD00002AD00BF21F00F00090100F10D02093024
:102BE0008DF8090001F10D008DF80A0001F10900CE
:102BF0008DF808208DF80B0020464E212A4604232C
:102C00000097FEF75FF8B17801360029E2D103B0F2
:102C1000F0BD000090B0FEF78BF900240120CDE953
:102C20000B44CDE9094406900A904FF4E0104FF4AC
:102C3000803102250F9006A8CDE90714CDE90D518A
:102C4000FEF700FB20B1EFF3108072B6FEE700BF85
:102C50000F20CDE901054FF48060CDE9040401A8FF
:102C600002210394FEF7FAF920B1EFF3108072B657
:102C7000FEE700BF41F21800C4F20200016840F60E
:102C8000000941F0100101600168C4F2010901F07E
:102C9000100106910699016809F5006541F02001CF
:102CA00001600168002201F0200106910699016887
:102CB0004FF4005641F0040101600168002701F063
:102CC000040106910699016841F00801016000685D
:102CD0004FF4005100F00800069006982846FDF7D2
:102CE00029FF484641F61061002241F61068FDF7C1
:102CF00021FF069606AE01244FF0020A284631460F
:102D0000CDE90747CDF824A0FDF7F8FD4846314648
:102D1000CDE90684CDE9087AFDF7F0FDF020CDE994
:102D2000060709F5806031460894FDF7E7FD40F29B
:102D3000B800A9F53441C2F2000048F2A0624FF495
:102D40008043C0F2010280E88600C0E90373C0E955
:102D50000577C0E90777FDF7F9FE28B1EFF310809A
:102D600072B600BFFEE700BF40F20C1009F520511B
:102D7000C2F200004FF482724FF40073182680E80C
:102D800086000A21C0E90377C0E90573C661C0E97E
:102D90000877C0E90A71FEF72FFC28B1EFF3108025
:102DA00072B600BFFEE700BF46F60004C0F601049D
:102DB0002046FDF739FC40F20007C2F20007391D3A
:102DC00020460422FDF77CFC6420FDF793FCFFF70E
:102DD00023F9FFF717FE002001214FF0000B4FF001
:102DE000010AFFF79BFE45A0FFF7E8FE4FF47A705B
:102DF000FDF780FCFFF7DCFD40F27806C2F200062A
:102E000043F2E95943F2F75804F58064B51DC0F662
:102E10000009C0F6000803E087F800B000F01CFBD2
:102E2000204629460422FDF713FCFFF71DFD00F0A4
:102E30006DF8FF2803D0F0706420FDF75BFCF1789B
:102E40003878412908BF002830D02329E4D02A2926
:102E500022D1317859B1FA784AB9481E3070C1B2DE
:102E60000120FFF75BFE2020FFF786FE387871789F
:102E700089B103280FD16FF00400042938BF4FF047
:102E8000FF3001440120FFF749FE2020FFF774FEC8
:102E9000707801387070387803282BD001280BD057
:102EA0000028BDD100F0D8FABAE700BFFFF780FDD7
:102EB000A6F800B087F800A000200121FFF72EFE41
:102EC0004846FFF77BFE00F08DF9012878700BD0A3
:102ED0000028A5D100200121FFF720FE4046FFF782
:102EE0006DFE032038709BE7FFF762FD02207870CB
:102EF000387095E700F0FAF992E700BF57454C4C5F
:102F0000434F4D452048415549000000B0B540F6BB
:102F10000044C4F20104A4F5806528464FF48051B2
:102F20000022FDF707FE28464FF400610122FDF75D
:102F300001FE28464FF480610122FDF7FBFD284683
:102F40004FF400710122FDF7F5FD20468021FDF7C9
:102F5000E3FD002800F0BC8020464021FDF7DCFDA9
:102F6000002800F0BD8020462021FDF7D5FD002877
:102F700000F0BE8020461021FDF7CEFD002800F0B5
:102F8000BF8028464FF480510122FDF7D3FD28462B
:102F90004FF400610022FDF7CDFD28464FF480611B
:102FA0000122FDF7C7FD28464FF400710122FDF70D
:102FB000C1FD20468021FDF7AFFD002800F0A8806C
:102FC00020464021FDF7A8FD002800F0A9802046FA
:102FD0002021FDF7A1FD002800F0AA802046102145
:102FE000FDF79AFD002800F0AD8028464FF480518F
:102FF0000122FDF79FFD28464FF400610122FDF7F5
:1030000099FD28464FF480610022FDF793FD284684
:103010004FF400710122FDF78DFD20468021FDF760
:103020007BFD002800F0988020464021FDF774FDCC
:10303000002800F09B8020462021FDF76DFD002830
:1030400000F09E8020461021FDF766FD002800F06C
:10305000A18028464FF480510122FDF76BFD2846E0
:103060004FF400610122FDF765FD28464FF48061B1
:103070000122FDF75FFD28464FF400710022FDF7A5
:1030800059FD20468021FDF747FD002800F08C8087
:1030900020464021FDF740FD002800F08F802046AB
:1030A0002021FDF739FD002800F0928020461021F4
:1030B000FDF732FD00281CBF0020B0BD20461021C6
:1030C000FDF72AFD00284FF04400F7D088E000BF4C
:1030D00020468021FDF720FD0028F9D03120B0BD29
:1030E00020464021FDF718FD0028F9D03420B0BD5E
:1030F00020462021FDF710FD0028F9D03720B0BD73
:1031000020461021FDF708FD0028F9D02A20B0BD87
:1031100020468021FDF700FD0028F9D03220B0BD07
:1031200020464021FDF7F8FC0028F9D03520B0BD3D
:1031300020462021FDF7F0FC00284FF03800F7D0A2
:103140004EE000BF20461021FDF7E6FC00284FF0BE
:103150003000F7D044E000BF20468021FDF7DCFCC2
:1031600000284FF03300F7D03AE000BF204640215E
:10317000FDF7D2FC00284FF03600F7D030E000BF5A
:1031800020462021FDF7C8FC00284FF03900F7D079
:1031900026E000BF20461021FDF7BEFC00284FF0BE
:1031A0002300F7D01CE000BF20468021FDF7B4FCCF
:1031B00000284FF04100F7D012E000BF2046402128
:1031C000FDF7AAFC00284FF04200F7D008E000BF4E
:1031D00020462021FDF7A0FC00284FF04300F7D047
:1031E000B0BD000070B540F27806C2F20006F0787B
:1031F00040F200053038C2F2000500210928E970CC
:1032000006D8317831B1032909D9C8B204281AD0B7
:10321000A87870BDFFF7CCFB31780329F5D8F0789A
:10322000721890720120FFF779FC43F2E750C0F664
:103230000000FFF7C3FC3078411C00203170F070B3
:10324000C8B20428E4D100243470FFF7B1FBB07990
:10325000B17A88424FF0000017D1F079F17A8842B4
:103260000ED1307A317B88420CD1707A717B8842E2
:103270000AD1042030710020A870A87870BD00BF6A
:10328000012002E0022000E0032030710120A8703C
:10329000FFF78EFB00200021FFF740FC0FA0FFF797
:1032A0008DFC347141F20004C4F2010420464FF455
:1032B0000051FDF737FC4FF4FA70FDF71BFA307937
:1032C0000130C1B205293071F0D340F6B830FDF7B6
:1032D00011FAFFF76DFBA87870BD00BF57726F6ED3
:1032E000672070617373776F72642100B0B540F22C
:1032F0007804C2F20004E078A0F13001092900F25C
:103300008E80617803291BD86218D0730120FFF7E3
:1033100005FC43F2E750C0F60000FFF74FFC607871
:103320000130C1B20429607019D1FFF741FB0020C0
:103330000121FFF7F3FB3AA0FFF740FC60780EE0B5
:103340000439621810750120FFF7E8FB43F2E750DB
:10335000C0F60000FFF732FC607801306070C0B248
:1033600000250828E57018BFB0BDFFF721FBE07B02
:10337000217D6570884230D1217C627D914227D1C8
:10338000627CA37D9A4225D1A37CE57DAB4223D10B
:1033900046F6004504F8060F0420C0F6010504F8BF
:1033A000020C28466170A270E370FDF73DF92846D3
:1033B00021460422FDF784F96420FDF79BF9284695
:1033C00021460422FDF744F91DA4012508E000BFB1
:1033D000012502E0022500E00325257114A4002543
:1033E000FFF7E6FA00200321FFF798FB18A0FFF78C
:1033F000E5FB01202946FFF791FB2046FFF7DEFBA6
:1034000040F20004C2F200040220A0704FF4FA60FF
:10341000FDF770F9FFF7CCFA4FF400702080B0BDD3
:10342000434F4D4649524D20504153533A000000FE
:10343000554E5355434345535346554C4C59000044
:103440005355434345535346554C4C5900000000D7
:103450004348414E47450000F0B581B000200121AE
:10346000FFF75CFB38A0FFF7A9FBFFF7BBFE40F2BC
:103470000005C2F200050128687033D0002860D131
:1034800041F20004C4F20104FFF792FA0020002187
:103490000027FFF743FB43F2D950C0F60000FFF7C7
:1034A0008DFB40F27806C2F20006377120464FF4D9
:1034B0000051FDF737FB4FF4FA70FDF71BF9307937
:1034C0000130C1B203293071F0D340F6B830FDF7B6
:1034D00011F9FFF76DFA0020B07002202870A87073
:1034E00001B0F0BD40F27806C2F20006B1780220C9
:1034F000A870481CC1B20329B07020D141F2000469
:103500000027C4F20104B770FFF752FA002000212F
:10351000FFF704FB10A0FFF751FB377120464FF473
:103520000051FDF7FFFA4FF4FA70FDF7E3F8307938
:103530000130C1B20B293071F0D3FFF739FA002006
:10354000287001B0F0BD00BF454E54455220504197
:103550005353574F52443A0058585858585858588F
:10356000585858585858580030380A2801D2012065
:1035700070470020704730313233343536373839B0
:1035800041424344454640305800303132333435AF
:10359000363738396162636465664030780004000C
:1035A0000008000000000000000200010000100000
:1035B00000000000000000010203040607080900E3
:1035C00000000001020304010202030405060708CB
:1035D000090A0B0C0D0E0F1010446F6F72206973E7
:1035E000206F70656E21002A004F4C4420504153DB
:1035F00053574F52443A004E45572050415353576A
:103600004F52443A00000000283600080000002015
:1036100018000000280100084036000818000020AB
:103620007807000044010008020202013131313103
:1036300001000000100000000024F4000000000061
:04000005080000ED02
:00000001FF
