:020000040800F2
:10000000600700209101000879220008E11600082D
:100010007522000841050008712300080000000057
:100020000000000000000000000000006523000840
:1000300045050008000000007D2200086923000833
:10004000AB010008AB010008AB010008AB010008E0
:10005000AB010008AB010008AB010008AB010008D0
:10006000AB010008AB010008AB010008AB010008C0
:10007000AB010008AB010008AB010008AB010008B0
:10008000AB010008AB010008AB010008AB010008A0
:10009000AB010008AB010008AB010008AB01000890
:1000A000AB010008AB010008AB010008AB01000880
:1000B000AB010008AB010008AB010008AB01000870
:1000C000AB010008AB010008AB010008AB01000860
:1000D000AB010008AB010008AB010008AB01000850
:1000E000AB010008AB010008AB01000800F002F80A
:1000F00000F03FF80AA090E8000C82448344AAF183
:100100000107DA4501D100F034F8AFF2090EBAE880
:100110000F0013F0010F18BFFB1A43F0010318473B
:100120000032000020320000103A24BF78C878C1A5
:10013000FAD8520724BF30C830C144BF04680C60ED
:10014000704700000023002400250026103A28BF35
:1001500078C1FBD8520728BF30C148BF0B60704739
:10016000782900F07180002070471FB51FBD10B5C1
:1001700010BD00F0AAF91146FFF7F7FF02F06CFC82
:1001800000F0C8F903B4FFF7F2FF03BC00F0D0F9A8
:100190000948804709480047FEE7FEE7FEE7FEE71B
:1001A000FEE7FEE7FEE7FEE7FEE7FEE70448054957
:1001B000054A064B704700006D230008ED0000085B
:1001C0006001002060070020600300206003002021
:1001D0000FB41CB5074B06AA7B44694600900598EE
:1001E00000F05BF90020694600F06AF91CBC5DF87C
:1001F00014FB0000E502000070B504468569006844
:10020000C10601D5302600E02026C00707D070BD0A
:10021000D4E9012130469047206A401C20626D1EBF
:10022000F6D570BD70B5044685690078C00707D162
:1002300070BDD4E9012120209047206A401C206233
:100240006D1EF6D570BD000070B504460D46214602
:100250001068AFF300802188090502D50F4A7A445F
:1002600002E00E4A7A440E32002104F1240305E034
:1002700000F00F060009965D5E54491C0028F7D176
:1002800020780023000704D5702D02D009B1022385
:1002900011322046BDE8704000F0A1B8E42F000004
:1002A0002DE9F05F894604464FF0000ADFF824B1DB
:1002B000FB44C0F820A02046E168884700287DD094
:1002C000252806D0D4E901219047206A401C2062ED
:1002D000F1E700255F462046E1688847202806466A
:1002E00007DB312E05D2B81910F8200C08B10543F0
:1002F000F1E7A80701D525F00405C4F81CA00027E4
:10030000C4F818A02A2E09D0304602F095FF38B361
:1003100004EB8708303EC8F8186019E059F8041B50
:10032000204604EB87029161E1688847012F064669
:1003300018D1E069002820DA25F020051DE0D8F862
:10034000180000EB800006EB40003038C8F81800B9
:100350002046E1688847064602F06EFF0028EED18D
:10036000012F0AD02E2E08D12046E16888477F1C35
:100370000646022F45F02005C4DBA069002803DAF9
:10038000404245F00105A061E80701D025F01005C5
:10039000A6B1A6F14100192802D8203645F400651F
:1003A0004A463146204625604D46FFF7D9FE60B1EA
:1003B000012807D0ED1D25F0070000E007E000F15F
:1003C000080978E705F1040975E730467AE7206AFD
:1003D000BDE8F09FBA2F00007047704770472DE9C5
:1003E000F0470D4699469246044600F124080168FC
:1003F000880604D5E06921F01001216000E00120A9
:10040000A84201DD471B00E00027A1697A1902EB31
:100410000900081AA0612078C00602D42046FFF720
:10042000EBFE002608E0D4E901211AF80600904707
:10043000206A401C761C20624E45F4DB2078C00602
:100440000AD52046FFF7D8FE06E0D4E90121302086
:100450009047206A401C2062381EA7F10107F4DC97
:1004600007E0D4E9012118F805009047206A401CF4
:100470002062281EA5F10105F3DC2046FFF7D2FE1D
:100480002078000602D50220BDE8F0870120FBE7B6
:1004900001694A1C02610878704700B58FB0CDE948
:1004A00001310021059105497944CDE90310114638
:1004B0006846FFF7F5FE0FB000BD0000E5FFFFFF47
:1004C0000A6802F8010B0A607047754600F02CF8C4
:1004D000AE4605006946534620F00700854618B031
:1004E00020B5FFF763FEBDE820404FF000064FF057
:1004F00000074FF000084FF0000BAC46ACE8C00915
:10050000ACE8C009ACE8C009ACE8C00921F00701BB
:100510008D46704710B50446AFF300802046BDE815
:100520001040FFF72FBE0000004870472000002059
:1005300001491820ABBEFEE726000200704700000C
:10054000FEE7000070470000B0B5044600F02CF94B
:10055000054640F21000C2F200000078611C18BF8E
:10056000044400BF00F020F9401BA042FAD3B0BD04
:100570002DE9F04F82B00E68002E00F0FD8040F2B1
:100580000C4C41F200424FF6FF7BC4F2010CC4F266
:100590000102042300240127C1F2100B4FF0000ACE
:1005A0004FF000094FF00F0E904208BF0323009355
:1005B0003EE00123BB402B4342F82B30D1F804B07E
:1005C00040F20047C4F201075FEACB22BA6854BF89
:1005D00022EA080242EA0802BA60DCF800205FEA78
:1005E0008B2354BF22EA080242EA0802CCF800201A
:1005F0007A685FEA8B3354BF22EA080242EA0802B3
:100600007A605FEACB333A684FF6FF7B54BF22EA49
:10061000080242EA08023A600127C1F2100B0E6894
:100620000AF1010A36FA0AF204F1040400F0A48087
:1006300007FA0AF816EA080FF1D04A685A4511DCA1
:10064000122A51D8DFE802F0340A42465050505086
:10065000505050505050505050494D00D1F80C90CF
:1006600042E000BF4FF6FF73C1F221039A420FDC54
:100670000023C1F211039A421AD00023C1F21203DF
:100680009A4215D00023C1F221039A4210D02BE0E8
:100690000023C1F222039A420AD00023C1F231039F
:1006A0009A4205D00023C1F232039A421CD100BF06
:1006B0008A6842B1012A14BFC0F81480C0F81080C3
:1006C0004FF0080910E04FF004090DE0CA6802F18C
:1006D000080909E04FF0000906E0CA6802F10409C0
:1006E00002E0CA6802F10C0922460346BAF1080F7B
:1006F00024BF203A04331D680EFA02F6B54309FA06
:1007000002F22A431A60CA79D2067FF588AF41F215
:100710001803C4F202031A684FEA9A0B42F001026E
:100720001A601A6804F00C0702F001020192019AA3
:1007300040F20042C4F20102A2F57E7252F82B3060
:1007400040F600060EFA07F5C4F20106B04223EAAD
:1007500005050FD040F60043C4F2010398423FF470
:1007600028AF41F20003C4F201039842009B08BF86
:1007700002231FE700231DE702B0BDE8F08F000051
:100780008068084018BF012070470000C26802EA74
:100790000103914341EA034101617047002A08BF08
:1007A000090401617047000040F25810C2F20000D5
:1007B0000068704710B5B8B3044690F83D0028B9FA
:1007C000002084F83C00204600F0CAF9242084F878
:1007D0003D002068016821F001010160016841F4D9
:1007E00000410160016821F40041016000F07AFBE2
:1007F00048F28041C0F21E0140F6001388424FF0DB
:100800000001C0F23D03D4F804E038BF0121984252
:1008100048F2A1634FF00002C0F2010338BF012289
:100820009E4538BF0A460AB1012010BD4DF68361CE
:10083000C4F21B31A0FB011221684FEA924C4B68B5
:1008400023F03F0343EA92424A600A6A48F2A063F7
:10085000C0F201039E4522F03F0210D80CF10103C3
:100860001A430A6201384FEA4E02B0FBF2F0CA693D
:1008700001306FF31F30042898BF04202CE04FF4A0
:1008800096730CFB03FC44F6D353C1F26203ACFB3A
:10089000033C012303EB9C131A430A62CA69A36851
:1008A00001385BB119230EFB03F3B0FBF3F0013009
:1008B0006FF31F3068B100F5804007E00EEB4E0388
:1008C000B0FBF3F001306FF31F3020B100F50040B2
:1008D00002E0012000E001204CF6FF739A43104330
:1008E000C8610868D4E9072320F0C000104318430A
:1008F0000860886848F2FF3204F10C0E90439EE8CD
:100900000C50184310438860C86820F0FF0040EA8C
:100910000C0040EA0E00C860086840F00100086062
:1009200000202021206484F83D10206384F83E00DC
:1009300010BD00002DE9F04381B01F4616468946E0
:100940000446FFF731FF94F83D10202920D10546D9
:10095000206800BF8169890716D5FFF725FF411B75
:1009600020681A29F6D381698907F3D50020202150
:10097000206384F83D1084F83E00216C41F0200192
:10098000216484F83C0003E094F83C10012903D171
:10099000022001B0BDE8F083012184F83C10016819
:1009A000C90703D1016841F001010160016840F20B
:1009B000020821F400610160212184F83D1010211A
:1009C00084F83E100021216466626785618DC0F263
:1009D00001082185A8F10211E162E16A11F5803F69
:1009E00018BF012937D1016841F480710160416964
:1009F000089FC90742D1791C36D067B9FFF7D4FEEA
:100A000020684169C9070FD04169C907F6D035E0B0
:100A10004169C90732D1FFF7C7FE411B2068B942BF
:100A2000F6D94169C907F3D100212022216384F856
:100A30003D2084F83E10226C42F02002226484F8AB
:100A40003C100068C00544BF4FF4007020640120D2
:100A500001B0BDE8F0830829C5D0216B1229C2D0AE
:100A6000C5E74169C90709D14169C90706D141698B
:100A7000C90704BF41695FEAC171F2D02169B1F5CC
:100A8000804F02D109F0FE0110E0062101EAD911E0
:100A9000F031016108F1060120463A462B4600F08C
:100AA0008DFE0028D3D120685FFA89F101612046CC
:100AB00041463A462B4600F081FE0028C7D100206F
:100AC000009020684169009180690090009805E0DD
:100AD000204639462A4600F005FE20BB208D78B31B
:100AE000204639462A4600F0DFFEE0B9606A2168F8
:100AF000024612F8013B0B616262628D013A628527
:100B0000228D561E26854B69360418BF13F0040348
:100B1000DED0437802300B616062608D0138608501
:100B2000901E2085D4E7206C04287FF490AF2068C5
:100B3000016841F400710160012001B0BDE8F0835B
:100B40002068016841F400710160202084F83D00B4
:100B5000002084F83E0084F83C0001B0BDE8F0833A
:100B600010B586B0006845F20041C4F20001884229
:100B70004FF00000CDE90400CDE9020001D006B03D
:100B800010BD41F21804C4F20204206802A940F02A
:100B900008002060206800F00800019001984FF4E0
:100BA00040700290122003900320059040F6004010
:100BB000C4F20100FFF7DCFC0420C4F2010001686C
:100BC00041F0E06141F002010160606840F4001012
:100BD0006060606800F400100190019806B010BDDC
:100BE00040F2100040F25811C2F20000C2F20001BF
:100BF00000780A68104408607047000080B542F22F
:100C00000000C4F20200016841F0100101600320FD
:100C100000F07AF80F2000F005F800F027F8002027
:100C200080BD000070B540F21006C2F2000640F22E
:100C300018013278C2F200014FF47A730968B3FBED
:100C4000F2F20446B1FBF2F1084600F033FD0F2C3E
:100C50004FF0010508D838B94FF0FF302146002287
:100C6000002500F025F87460284670BD82B041F27E
:100C70001800C4F202000168022241F00101016083
:100C8000016801F0010101910199416841F0805131
:100C90004160406800F08050009000980420C4F249
:100CA0000100016862F31A61016002B07047000040
:100CB00010B54EF60C5CCEF2000CDCF80030C3F33D
:100CC000022E8EF00704042C28BF0424BEF1030377
:100CD0004FF0FF3E0EFA04F438BF0023A1439940C1
:100CE0000EFA03F39A4300F00F03043B11436344ED
:100CF00009010C3300F16042B0F1FF3FC8BF02F5BB
:100D00006443197010BD00004EF60C51CEF2000184
:100D10000A684FF6FF031A4060F30A2242F080602F
:100D200040F0FD70086070472DE9F04381B0002865
:100D300000F0858042F20008C4F202080446D8F8A8
:100D400000000D4600F0070088420CD2D8F80000E1
:100D500020F007002843C8F80000D8F8000000F091
:100D60000700A8426BD1206841F204098107C4F250
:100D7000020917D5410705D5D9F8001041F4E06103
:100D8000C9F80010010705D5D9F8001041F46051E9
:100D9000C9F80010D9F80010A26821F0F001114341
:100DA000C9F80010C00741D1D8F8000000F00700D2
:100DB000A8420CD9D8F8000020F007002843C8F852
:100DC0000000D8F8000000F00700A84237D12068E2
:100DD000410707D5D9F80010E26821F4E06111431A
:100DE000C9F80010000708D5D9F80000216920F4DF
:100DF000605040EAC100C9F80000D9F8002002F0B4
:100E00000C00082841F20020C0F27A004ED143F2D3
:100E10009923C2F38341C0F60003595CD20339D44D
:100E200040F60010C0F23D0048433FE060680228F1
:100E300009D0012829D159F8041C890307D40120BD
:100E400001B0BDE8F08359F8041C8901F7D5D9F841
:100E5000001021F003010843C9F80000FFF7A4FCCB
:100E6000064641F2883700BFD9F80000616800F0FB
:100E70000C00B0EB810F97D0FFF796FC801BB842B7
:100E8000F2D9032001B0BDE8F08359F8041C8907AA
:100E9000D5D5DCE7D9F8002043F29723C2F34042CE
:100EA000C0F600039A5C4843B0FBF2F0D9F800109A
:100EB00043F27F22C1F30311C0F60002515C40F2FD
:100EC000180220FA01F140F21400C2F2000000689A
:100ED000C2F200021160FFF7A5FE002001B0BDE8DC
:100EE000F083000040F2180041F20401C2F2000059
:100EF000C4F202010068096843F28F22C1F30221A3
:100F0000C0F60002515CC840704700002DE9F04176
:100F100082B0002868D00446007841F20006C0077D
:100F2000C4F2020625D0706800F00C0004281BD023
:100F3000706800F00C00082802D17068C00313D458
:100F40006068002800F06281B0F5A02F00F0768183
:100F5000B0F5803F00F07681306820F4803030605A
:100F6000306820F4802070E13068800301D560682B
:100F7000D0B32078800718D5706810F00C0F07D018
:100F8000706800F00C0008286DD17068C0036AD446
:100F90003068800702D52069012825D13068616951
:100FA00020F0F80040EAC1003060207800071FD42C
:100FB0002078400732D4E56995B1706800F00C00E4
:100FC000082840F08D80012D0ED07068216A00F451
:100FD00080328A4208D1616A00F47010884203D1DD
:100FE000002002B0BDE8F081012002B0BDE8F08130
:100FF000A069002860D00020C4F242200121C0F87E
:101000008014FFF7D1FB0546706A800700F18A80E3
:10101000FFF7CAFB401B0228F6D924E1F06910F063
:10102000805808D1F06940F08050F061F06900F01C
:1010300080500090009847F20007C4F2000738681B
:10104000C00527D4386840F480703860FFF7ACFBE7
:10105000054600BF3868C0051CD4FFF7A5FB401B40
:101060006428F7D9FFE02069002840F20000C4F2AC
:10107000422000F0818001210160FFF795FB0546C9
:10108000306880073FF58AAFFFF78EFB401B0228D0
:10109000F6D9E8E0E068002800F08080052800F03C
:1010A0009680012800F09780306A20F001003062BD
:1010B000306A20F0040091E00020C4F242200021B8
:1010C000C0F88014FFF770FB054600BF706A800708
:1010D0007FF56EAFFFF768FB401B0228F6D9C2E030
:1010E0000027C4F2422700203866FFF75DFB022D7F
:1010F00005460BD13068800140F1B980FFF754FB01
:10110000401B02284FF00300F4D96AE730688001E1
:101110007FF566AFFFF748FB401B02284FF0030046
:10112000F4D95EE740F21800C2F20000006844F60D
:10113000D351C1F26201A0FB0101480A019000BF36
:1011400000BF0198411E002801913FF431AF00BF5C
:101150000198411E002801913FF42AAF00BF019879
:10116000411E002801913FF423AF00BF0198411EAA
:1011700000280191E4D11BE700210160FFF714FB77
:10118000054600BF306880077FF50FAFFFF70CFB07
:10119000401B02284FF00300F4D922E7306A20F008
:1011A00001003062306A20F004003062FFF7FCFA80
:1011B000054641F2883700BF306A80071DD5FFF72A
:1011C000F3FA401BB8424FF00300F5D909E7306A43
:1011D00040F004003062306A40F001003062FFF7F6
:1011E000E3FA054641F28837306A800705D4FFF7F5
:1011F000DBFA401BB842F7D935E0B8F1000F7FF4B5
:10120000DAAEF06920F08050F061D4E6306820F466
:1012100080303060306820F480203060FFF7C4FAFE
:10122000054600BF306880037FF5A3AEFFF7BCFA28
:10123000401B64284FF00300F4D9D2E6306840F434
:1012400080203060306840F480303060FFF7ACFAC6
:10125000054600BF306880033FF58BAEFFF7A4FA68
:10126000401B6428F6D9032002B0BDE8F081206A53
:10127000B0F5803F05D17168A26821F400311143B7
:1012800071607168626A21F47411104308437060E0
:1012900001203866FFF788FA044600BF30688001F5
:1012A0003FF59EAEFFF780FA001B02284FF00300C7
:1012B000F4D996E670B538B10446406A30B10020E2
:1012C000206104F1140007E0012070BD6068B0F5F2
:1012D000827F03D004F11C00002101600026A66279
:1012E00094F851004FF0000C38B9204684F8506053
:1012F00000F03AF8A06A00F4005C022184F8511072
:1013000094E80E00E0680D6802F4827225F0400552
:101310000D6003F404431A44236900F40060104490
:1013200003F002026369104403F00102A369E56956
:10133000104403F40072104405F03802256A10448A
:1013400005F08002104340EA0C000860042000EA27
:1013500013404860C86920F40060C86101206665D8
:1013600084F85100304670BD70B586B0002640F656
:1013700000040596CDE90366C4F20104006804F593
:1013800020518842029601D006B070BD41F218008B
:10139000C4F20200016802AD41F4805101600168AD
:1013A00001F4805101910199016841F0040101604B
:1013B0000068294600F0040001900198A0200290E6
:1013C00002200390032005902046FFF7D1F840202B
:1013D000CDE90206204629460496FFF7C9F806B073
:1013E00070BD00002DE9F04381B0044690F8500034
:1013F000012803D1022001B0BDE8F08301201E4680
:1014000015460F4684F85000FFF7CEF994F85110B6
:10141000814601290BD1002F4FF0010018BF002D8C
:1014200012D1002184F8501001B0BDE8F08360684B
:10143000B0F5827F40F0988004294FF00200F0D18F
:10144000A1680029E7D0ECE7002EEAD094F851001B
:10145000002104281CBF052084F851006165A563A4
:10146000E687A6872763E6862068A68621646164EE
:101470000168490603D4016841F0400101606168D8
:10148000731EE268B1FA81F1B3FA83F3DDF82080CC
:1014900049095B09B2F5006F41EA03016BD131B133
:1014A00037F8021BC1602763E08E0138E086012512
:1014B00018F1010031D101E0FFF776F9E08E18B99B
:1014C000E08F002800F0C0802068816889070CD573
:1014D000E18E012D09D141B1216B002531F8022B9C
:1014E000C2602163E18E0139E1868168C907E3D0DA
:1014F000E18F0029E0D0C068A16B012521F8020B23
:10150000A163E08F0138E087D6E700BFFFF74CF911
:10151000A0EB0900404580F0AB80E08E18B9E08F69
:10152000002800F091802068816889070CD5E18E41
:10153000012D09D141B1216B002531F8022BC26088
:101540002163E18E0139E1868168C907DED0E18F30
:101550000029DBD0C068A16B012521F8020BA16333
:10156000E08F0138E087D1E70220002184F8501095
:1015700001B0BDE8F08339B139780173206B0130D7
:101580002063E08E0138E086012518F1010033D197
:1015900002E000BFFFF708F9E08E10B9E08F0028E5
:1015A00052D02068816889070ED5E18E012D0BD1BC
:1015B00051B1216B002509780173216B206801313D
:1015C0002163E18E0139E1868168C907E2D0E18FAC
:1015D0000029DFD0C068A16B01250870A06B013025
:1015E000A063E08F0138E087D4E700BFFFF7DCF8A5
:1015F000A0EB090040453BD2E08E08B9E08F18B35C
:101600002068816889070ED5E18E012D0BD151B17B
:10161000216B002509780173216B2068013121635A
:10162000E18E0139E1868168C907DFD0E18F0029A9
:10163000DCD0C068A16B01250870A06B0130A063ED
:10164000E08F0138E087D1E72046802142464B46B3
:1016500000F016FEB0B1606D40F020006065202003
:1016600060650120002184F8501001B0BDE8F083CE
:10167000012084F851000320002184F8501001B0AB
:10168000BDE8F083A06838B9002000902068C168E8
:101690000091806800900098606D00284FF0010074
:1016A00004BF84F851000020002184F8501001B0DC
:1016B000BDE8F083411E0020B0EB116F1CBF01207C
:1016C00070474EF21002CEF2000251604EF62351E6
:1016D000CEF20001F0230B7007219060116070477B
:1016E000FEE7000070B50368044653F8140F400786
:1016F0002DD40E46481C24D05EBB00BF18684005A0
:1017000049D4FFF751F8236853F8140F400733D535
:1017100018684007F2D51AE0186840053BD41868ED
:10172000400714D41868400535D4186840070ED413
:10173000186840052FD4186840074FF0000048BFD4
:1017400070BD1868400526D418684007E4D500200D
:1017500070BD154604E000BF53F8140F4007F6D4DF
:101760001868400517D4FFF71FF8401B2368B042E4
:10177000F2D958694007EFD400202021206384F873
:101780003D1084F83E00216C41F02001216484F872
:101790003C00012070BD6FF48060186000202021A3
:1017A000206384F83D1084F83E00216C41F0040170
:1017B000216484F83C00012070BD0000F0B581B0C8
:1017C0001D460368044658698FB23840B84202D1BA
:1017D000002001B0F0BD1646002A48D0701C23D16D
:1017E0005869400546D458693840B842F0D0586925
:1017F00040053FD458693840B842E9D0586940059F
:1018000038D458693840B842E2D05869400531D4DC
:1018100058693840B8424FF00000E1D142E000BFC3
:1018200058693840B8423CD05869400522D4FEF788
:10183000BBFF401B2368B042F2D958693840B84218
:10184000EED000202021206384F83D1084F83E0073
:10185000216C41F020011EE0FEF7A6FF23685869C5
:101860003840B842EDD158693840B842B0D05869D4
:101870004005F1D51868202140F4007018606FF41D
:10188000806058610020206384F83D1084F83E0099
:10189000216C41F00401216484F83C00012001B076
:1018A000F0BD002001B0F0BD70B50368044653F8E8
:1018B000140F00062DD40E46481C24D05EBB00BF7A
:1018C0001868400549D4FEF76FFF236853F8140FDA
:1018D000000633D518680006F2D51AE018684005EE
:1018E0003BD41868000614D41868400535D418682D
:1018F00000060ED4186840052FD4186800064FF073
:10190000000048BF70BD1868400526D4186800065E
:10191000E4D5002070BD154604E000BF53F8140F55
:101920000006F6D41868400517D4FEF73DFF401BAB
:101930002368B042F2D958690006EFD40020202174
:10194000206384F83D1084F83E00216C41F02001B2
:10195000216484F83C00012070BD6FF48060186041
:1019600000202021206384F83D1084F83E00216C83
:1019700041F00401216484F83C00012070BD0000A6
:101980002DE9F04383B040F60009C4F2010948464E
:10199000102100224FF00008FEF700FF40F2001572
:1019A000A820C2F200050DF10B060DF10A078DF813
:1019B0000B000A24284631463A4601230094FFF7DB
:1019C00011FD284631463A4601238DF80B800094DC
:1019D000FFF708FD9DF80A40484610210122FEF756
:1019E000DDFEA00702D003B0BDE8F0831420032180
:1019F00000F006FA03B0BDE8F08300002DE9F047DF
:101A000082B040F60008C4F20108044640461021A6
:101A100000224FF00009FEF7C1FE40F200161A2026
:101A2000C2F200060DF107070DF106058DF807005B
:101A30004FF00A0A304639462A460123CDF800A065
:101A4000FFF7D0FC304639462A4601238DF807902F
:101A5000CDF800A0FFF7C6FC404610210122FEF79A
:101A60009DFE42F29300208001AF0C20214602220D
:101A70002346009700F022FA10B102B0BDE8F087CB
:101A800020786178A278E378484050402179584026
:101A9000401A18BF0120400002B0BDE8F0870000E6
:101AA0002DE9F04F83B040F6000804468020C4F2D0
:101AB0000108894640EA4405404610210022FEF70D
:101AC0006DFE40F2001BC2F2000B0DF10B060DF192
:101AD0000A074FF00A0A584631463A4601238DF864
:101AE0000B50CDF800A0FFF77DFC00208DF80B0017
:101AF000584631463A460123CDF800A0FFF772FC64
:101B00009DF80A50404610210122FEF747FE7E2034
:101B100000EA440440461021002225EA0905FEF7A8
:101B20003DFE584631463A4601238DF80B40CDF82C
:101B300000A0FFF757FC584631463A4601238DF87E
:101B40000B50CDF800A0FFF74DFC404610210122BC
:101B5000FEF724FE03B0BDE8F08F00002DE9F0434E
:101B600083B040F60008C4F201084046102100226C
:101B70004FF00009FEF712FE40F200150220C2F2FB
:101B800000050DF10B060DF10A078DF80B000A2474
:101B9000284631463A4601230094FFF723FC0F20E4
:101BA0008DF80B00284631463A4601230094FFF792
:101BB00019FC404610210122FEF7F0FD404610219D
:101BC0000022FEF7EBFD54208DF80B00284631462D
:101BD0003A4601230094FFF705FC8D208DF80B0099
:101BE000284631463A4601230094FFF7FBFB404666
:101BF00010210122FEF7D2FD404610210022FEF7FF
:101C0000CDFD56208DF80B00284631463A4601237B
:101C10000094FFF7E7FB3E208DF80B002846314685
:101C20003A4601230094FFF7DDFB404610210122D4
:101C3000FEF7B4FD404610210022FEF7AFFD5A200A
:101C40008DF80B00284631463A4601230094FFF7F1
:101C5000C9FB1E208DF80B00284631463A46012369
:101C60000094FFF7BFFB404610210122FEF796FDCE
:101C7000404610210022FEF791FD58208DF80B0000
:101C8000284631463A4601230094FFF7ABFB28462D
:101C900031463A4601238DF80B900094FFF7A2FBE2
:101CA000404610210122FEF779FD40461021002216
:101CB000FEF774FD4C208DF80B00284631463A465D
:101CC00001230094FFF78EFB70208DF80B0028464F
:101CD00031463A4601230094FFF784FB4046102129
:101CE0000122FEF75BFD404610210022FEF756FD63
:101CF0002A208DF80B00284631463A4601230094ED
:101D0000FFF770FB40208DF80B00284631463A461D
:101D100001230094FFF766FB404610210122FEF7E5
:101D20003DFD404610210022FEF738FD22208DF8AF
:101D30000B00284631463A4601230094FFF752FB38
:101D40003D208DF80B00284631463A460123009489
:101D5000FFF748FB404610210122FEF71FFDFFF769
:101D60000FFE03B0BDE8F0832DE9F04782B040F6E6
:101D70000008C4F201080C468146404610210022AA
:101D8000FEF70CFD40F200171A20C2F200070DF119
:101D900007060DF106058DF807004FF00A0A3846D0
:101DA00031462A460123CDF800A0FFF71BFB072090
:101DB0008DF80700384631462A460123CDF800A0A9
:101DC000FFF710FB404610210122FEF7E7FC01AFB0
:101DD0000C2021460122234684F80090009700F051
:101DE0006DF8BDF80410022210294FF0020108BF5F
:101DF0000146002818BF1146084602B0BDE8F0872A
:101E00002DE9F04F83B040F6000804468020C4F26C
:101E10000108894640EA4405404610210022FEF7A9
:101E2000BDFC40F2001BC2F2000B0DF10B060DF1E0
:101E30000A074FF00A0A584631463A4601238DF800
:101E40000B50CDF800A0FFF7CDFA00208DF80B0065
:101E5000584631463A460123CDF800A0FFF7C2FAB2
:101E60009DF80A50404610210122FEF797FC7E2083
:101E700000EA440440461021002245EA0905FEF725
:101E80008DFC584631463A4601238DF80B40CDF87B
:101E900000A0FFF7A7FA584631463A4601238DF8CD
:101EA0000B50CDF800A0FFF79DFA4046102101220B
:101EB000FEF774FC03B0BDE8F08F00002DE9F04F91
:101EC00087B017460C280193CDE9031005D00E28E2
:101ED00007D111200590122006E0312005907720CF
:101EE00002E001200590002040F60006C4F2010641
:101EF000029000F180043046102100224FF00009CA
:101F0000FEF74CFC40F200150420C2F200050DF172
:101F10001B080DF11A0B8DF81B004FF00A0A28461A
:101F200041465A460123CDF800A0FFF75BFA284648
:101F300041465A4601238DF81B40CDF800A0FFF71B
:101F400051FA304610210122FEF728FC042080219E
:101F5000FFF7A6FD0A208021FFF752FF304610212F
:101F60000022FEF71BFC02208DF81B00284641468C
:101F70005A460123CDF800A0FFF734FA284641461F
:101F80005A4601238DF81B90CDF800A0FFF72AFADE
:101F9000304610210122FEF701FC77B3039840F28E
:101FA000001B451EC2F2000B0DF11B0A0DF11A04B5
:101FB0004FF00A0915F8018F304610210022FEF774
:101FC000EDFB12208DF81B00584651462246012396
:101FD000CDF80090FFF706FA5846514622460123F5
:101FE0008DF81B80CDF80090FFF7FCF930461021EA
:101FF0000122FEF7D3FB013FDCD130461021002245
:10200000FEF7CCFB40F200170220C2F200070DF1F0
:102010001B090DF11A088DF81B0038464946424647
:1020200001230A250095FFF7DDF9049C384649464F
:10203000424601238DF81B400095FFF7D3F9304647
:1020400010210122FEF7AAFB0C2C03D10D208021C8
:10205000FFF7D6FE40F2001A4FF4FA654FF08809F8
:102060004FF00A0BC2F2000A0DF11B080DF11A071E
:10207000304610210022FEF791FB504641463A4679
:1020800001238DF81B90CDF800B0FFF7ABF90020CD
:102090008DF81B00504641463A460123CDF800B06A
:1020A000FFF7A0F99DF81A40304610210122FEF7F3
:1020B00075FB013D28043AD005982042D8D00D2068
:1020C0008021FFF7EDFC3046102100224FF0000880
:1020D000FEF764FB40F200178C20C2F200070DF1FE
:1020E0001B050DF11A0A8DF81B004FF00A0938463E
:1020F000294652460123CDF80090FFF773F9384680
:102100002946524601238DF81B80CDF80090FFF739
:1021100069F99DF81A50304610210122FEF73EFB66
:1021200015F01B0F0BD0022007B0BDE8F08F0D207B
:102130008021FFF7B5FC022007B0BDE8F08F0298C0
:10214000049920400C2900F00100F5D1059030469B
:10215000102100224FF0100A0024FEF71FFB40F26E
:1021600000159420B146C2F200050DF11B070DF1D8
:102170001A068DF81B004FF00A08284639463246E9
:102180000123CDF80080FFF72DF928463946324665
:1021900001238DF81B40CDF80080FFF723F99DF84F
:1021A0001AB0484610210122FEF7F8FA48461021DD
:1021B0000022FEF7F3FA98208DF81B0028463946D6
:1021C00032460123CDF80080FFF70CF92846394646
:1021D000324601238DF81B40CDF80080FFF702F94D
:1021E0009DF81A40484610210122FEF7D7FA14F054
:1021F000070040EACB001099A0F1080008BF4FEAA1
:10220000CB000880BBF1000F08BF4FF0010BBBF102
:10221000100F28BFD3460198A0F1010A48461021AB
:102220000022FEF7BBFA92208DF81B0028463946A3
:1022300032460123CDF80080FFF7D4F800208DF856
:102240001B002846394632460123CDF80080FFF7AF
:10225000C9F89DF81A40484610210122FEF79EFA5F
:10226000BBF1010B0AF8014FD8D1059807B0BDE8C2
:10227000F08F0000FEE70000FEE70000704700005E
:102280002DE9F04182B01E4690460D460446FEF709
:102290008BFA301A00EB0807FEF786FA40F21801B5
:1022A000C2F200010968C1F3CB3179430191216881
:1022B0008A682A40AA4227D1064618F101001FD099
:1022C000FEF772FA801BB84222D2019801990028C9
:1022D000A1F1010101912168896808BF074601EA5F
:1022E0000500A842ECD00FE088682840A8420BD136
:1022F00088682840A84207D188682840A84203D1AE
:1023000088682840A842EFD0002002B0BDE8F081E4
:10231000D4E900014268B1F5827F22F0E002426018
:102320000AD1A168B1F5004F02D0B1F5806F03D199
:10233000016821F040010160A16AB1F5005F07D199
:10234000016821F400510160016841F4005101600D
:10235000012084F85100002084F85000032002B0CE
:10236000BDE8F08170470000FEF73ABC70470000FE
:10237000FEE70000B0B586B040F28005C2F200056D
:1023800005F11C0426202146FFF7EEFCE8702046EC
:10239000FFF734FBE969E870A96008B106B0B0BD89
:1023A000A86840F20001C2F20001C8600420287150
:1023B00000F064F900200121002400F015FA43F236
:1023C000E520C0F6000000F05DFAA87AADF81440F0
:1023D00004942A7A6B7AED7A039443F2F42103ACE5
:1023E0000090C0F6000120460195FDF7F1FE0120A6
:1023F000002100F0F9F9204600F044FA40F6B83028
:10240000FEF7A2F800F03AF906B0B0BD2DE9F047AA
:1024100086B040F28005C2F2000505F11C042620BA
:102420002146FFF7A1FCE8702046FFF7E7FAE969CB
:10243000E870A96010B106B0BDE8F08700F01EF9A1
:1024400000200121002700F0CFF943F2E520C0F67B
:10245000000000F017FAA87A2A7A6B7AEE7A43F233
:10246000F42103AC0090C0F600012046ADF81470D2
:10247000049703970196FDF7ABFE0120002100F0C1
:10248000B3F9204600F0FEF94FF4FA60FEF75CF86D
:1024900040F20008C2F2000898F80800297A2F716B
:1024A000884211D198F809206B7A9A420CD198F899
:1024B0000A20AB7A9A4207D198F80B20EB7A9A421D
:1024C00002D10420287139E098F80D4098F80E9058
:1024D00098F80FC06F7BAE7B95F80FE04FF0090ABC
:1024E000884298F80C202B7B85F804A008BF9A42FC
:1024F0001ED041F20004C4F2010400F0BFF8002035
:102500000021002600F070F923A000F0BBF92E7125
:1025100020464FF40051FEF739F94FF4FA70FEF7F8
:1025200013F828790130C1B205292871F0D329E0C8
:10253000BC42DED1B145DCD1F445DAD141F2000430
:10254000C4F2010400F09AF800200021002600F0F7
:102550004BF943F2A920C0F6000000F093F92E7168
:1025600020464FF40051FEF711F94FF4FA70FDF7D1
:10257000EBFF28790130C1B203292871F0D3022082
:1025800088F8000040F6B830FDF7DEFF00F076F87E
:1025900006B0BDE8F08700BF57726F6E67206361B9
:1025A00072640000B0B500F041FB40F28004FF28E7
:1025B000C2F2000403D060716420FDF7C5FF40F251
:1025C00000056179C2F200052878412908BF00287A
:1025D00019D02339202900F24F80DFE801F0114D96
:1025E0004D4D4D4D4D1B4D4D4D4D4D4D4D4D4D4D4D
:1025F0004D4D4D4D4D4D4D4D4D4D4D4D4D3B3F0078
:1026000000202870B0BD00F039F8002020800120A3
:102610002870B0BD217859B1EA784AB9481E2070B7
:10262000C1B2012000F0E0F8202000F009F928787C
:10263000617809B3032818BFB0BD032912D8013946
:10264000012000F0D1F8202000F0FAF8607801387D
:102650006070B0BDBDE8B040FFF78CBEBDE8B040D3
:1026600000F03CB90539012000F0BEF8202000F050
:10267000E7F8607801386070B0BD00002DE9F041E6
:1026800082B048F68C0040F2AC04C0F60C00C2F2F6
:10269000000401AD01904FF0640820464E212A4607
:1026A0000423CDF80080FEF745F942F62D164627A3
:1026B000C0F60D1620464E212A4604230196CDF879
:1026C0000080FEF737F9013FF4D102B0BDE8F08198
:1026D000F0B583B03220FDF737FF40F2AC0443F68B
:1026E0003C07C2F2000402ADC0F60C076426204687
:1026F0004E212A46042302970096FEF71BF9052077
:10270000FDF722FF20464E212A4604230297009619
:10271000FEF710F90120FDF717FF20464E212A464B
:10272000042302970096FEF705F90A20FDF70CFF37
:1027300042F62C00C0F60C00029020464E212A469C
:1027400004230096FEF7F6F80A20FDF7FDFE42F698
:102750002C00C8F68C00029020464E212A46042305
:102760000096FEF7E7F80120FDF7EEFE40F60C00BC
:10277000C8F68C00029020464E212A46042300967B
:10278000FEF7D8F80120FDF7DFFE40F60C00C1F699
:102790001C00029020464E212A4604230096FEF794
:1027A000C9F80120FDF7D0FE0120FDF7CDFE40F66F
:1027B0000C00C6F66C00029020464E212A460423E7
:1027C0000096FEF7B7F80120FDF7BEFE40F60C00BC
:1027D000CCF6CC00029020464E212A4604230096D7
:1027E000FEF7A8F803B0F0BD012804D0002808BF08
:1027F00041F0800101E041F0C00180B582B021F0DC
:102800000F00090100F10C0208308DF8050001F1FC
:102810000C008DF8060001F108008DF8070040F269
:10282000AC008DF804204FF0640CC2F2000001AA45
:102830004E210423CDF800C0FEF77CF802B080BD25
:1028400080B582B000F0F001000101F10D02093104
:102850008DF8051000F10D0109308DF8070040F2E8
:10286000AC008DF804208DF806104FF0640CC2F215
:10287000000001AA4E210423CDF800C0FEF75AF84B
:1028800002B080BDF0B583B0017821B340F2AC0452
:10289000461E6427C2F2000402AD00BF21F00F0003
:1028A000090100F10D0209308DF8090001F10D0058
:1028B0008DF80A0001F109008DF808208DF80B0051
:1028C00020464E212A4604230097FEF733F8B178BC
:1028D00001360029E2D103B0F0BD00002DE9F0413E
:1028E00086B0FFF7CBFE002001214FF00008FFF774
:1028F0007BFF38A0FFF7C6FF40F28005C2F200055B
:102900006879322831D0312861D1002001214FF07F
:102910000008FFF769FF43F2D720C0F60000FFF779
:10292000B1FF40F20007C2F20007B87A3A7A7B7A28
:10293000FE7A43F2F4210DF10E040090C0F600017E
:1029400020460196FDF744FC01200021FFF74CFFD3
:102950002046FFF797FF4FF47A70FDF7F5FDF86812
:10296000C7F80C80B86004202AE000200121FFF79E
:102970003BFF43F2D720C0F60000FFF783FF40F291
:102980000007C2F20007B87B3A7B7B7BFE7B43F2F9
:10299000F4210DF10E040090C0F6000120460196CE
:1029A000FDF716FC01200021FFF71EFF2046FFF770
:1029B00069FF4FF47A70FDF7C7FD0820C7F80C8057
:1029C00028714FF4FA60FDF7BFFDFFF757FE06B020
:1029D000BDE8F08143686F6F736520436172643AAC
:1029E0000000000010B5FFF7DDFD40F20004C2F268
:1029F00000042078032806D0012808D058BBBDE881
:102A0000104000F091BBBDE8104000F0F7BA002084
:102A10000121FFF7E9FE43F2C920C0F60000FFF7ED
:102A200031FF00F069FA012860700FD0002818BF4C
:102A300010BD00200121FFF7D7FE43F2B920C0F6F8
:102A40000000FFF71FFF0320207010BDFFF716FEE8
:102A50004FF40070208010BD90B0FEF7CFF8002436
:102A600001204FF48031CDE90B44CDE909440690B3
:102A7000CDE907140A9002254FF4E010CDE90D517D
:102A80000F9006A80594CDE90344CDE90144FEF773
:102A90003DFA20B1EFF3108072B600BFFEE70F20C1
:102AA000CDE901054FF480600394CDE9040401A849
:102AB0000221FEF739F920B1EFF3108072B600BFA2
:102AC000FEE741F21800C4F20200016840F6000976
:102AD00041F0100101600168C4F2010901F0100128
:102AE00006910699016809F5006541F02001016031
:102AF0000168002201F020010691069901684FF457
:102B0000005641F0040101600168002701F0040152
:102B100006910699016841F00801016000684FF4D0
:102B2000005100F00800069006982846FDF736FE92
:102B3000484641F61061002241F61068FDF72EFE6E
:102B4000069606AE01244FF0020A28463146CDE92A
:102B50000747CDF824A0FDF70BFD48463146CDE9E7
:102B60000684CDE9087AFDF703FDF020CDE90607DC
:102B700009F5806031460894FDF7FAFC40F2AC009C
:102B8000A9F53441C2F2000048F2A0624FF480433C
:102B9000C0F2010280E88600C0E90373C0E905774E
:102BA000C0E90777FDF706FE18B1EFF3108072B6A3
:102BB000FEE740F2001009F52051C2F200004FF488
:102BC00082724FF40073182680E886000A21C0E95B
:102BD0000377C0E90573C661C0E90877C0E90A71E7
:102BE000FEF768FB18B1EFF3108072B6FEE7FEF750
:102BF000B5FFFFF76DFD00200121FFF7F5FD07A0F0
:102C0000FFF740FE4FF47A70FDF79EFCFFF736FDAC
:102C1000FFF7E8FEFFF7FAFBFAE700BF57454C4C19
:102C2000434F4D452048415549000000B0B540F69E
:102C30000044C4F20104A4F5806528464FF4805195
:102C40000022FDF7ABFD28464FF400610122FDF79D
:102C5000A5FD28464FF480610122FDF79FFD28461F
:102C60004FF400710122FDF799FD20468021FDF708
:102C700087FD002800F0BC8020464021FDF780FD44
:102C8000002800F0BD8020462021FDF779FD0028B6
:102C900000F0BE8020461021FDF772FD002800F0F4
:102CA000BF8028464FF480510122FDF777FD28466A
:102CB0004FF400610022FDF771FD28464FF480615A
:102CC0000122FDF76BFD28464FF400710122FDF74C
:102CD00065FD20468021FDF753FD002800F0A88007
:102CE00020464021FDF74CFD002800F0A980204639
:102CF0002021FDF745FD002800F0AA802046102184
:102D0000FDF73EFD002800F0AD8028464FF48051CD
:102D10000122FDF743FD28464FF400610122FDF733
:102D20003DFD28464FF480610022FDF737FD28461F
:102D30004FF400710122FDF731FD20468021FDF79F
:102D40001FFD002800F0988020464021FDF718FD67
:102D5000002800F09A8020462021FDF711FD002870
:102D600000F09C8020461021FDF70AFD002800F0AD
:102D70009E8028464FF480510122FDF70FFD284622
:102D80004FF400610122FDF709FD28464FF48061F0
:102D90000122FDF703FD28464FF400710022FDF7E4
:102DA000FDFC20468021FDF7EBFC002800F0888028
:102DB00020464021FDF7E4FC002800F08A802046F0
:102DC0002021FDF7DDFC002800F08C80204610213A
:102DD000FDF7D6FC00281CBF0020B0BD2046102106
:102DE000FDF7CEFC00284FF04400F7D082E000BF92
:102DF00020468021FDF7C4FC0028F9D03120B0BD69
:102E000020464021FDF7BCFC0028F9D03420B0BD9D
:102E100020462021FDF7B4FC0028F9D03720B0BDB2
:102E200020461021FDF7ACFC0028F9D02A20B0BDC7
:102E300020468021FDF7A4FC0028F9D03220B0BD47
:102E400020464021FDF79CFC0028F9D03520B0BD7C
:102E500020462021FDF794FC00284FF03800F7D0E1
:102E600048E000BF20461021FDF78AFC00284FF003
:102E70003000F7D03EE000BF20468021FDF780FC07
:102E800000284FF03300F7D034E020464021FDF712
:102E900077FC00284FF03600F7D02BE020462021A9
:102EA000FDF76EFC00284FF03900F7D022E02046F5
:102EB0001021FDF765FC00284FF02300F7D019E042
:102EC00020468021FDF75CFC00284FF04100F7D040
:102ED00010E020464021FDF753FC00284FF042004F
:102EE000F7D007E020462021FDF74AFC00284FF0EC
:102EF0004300F7D0B0BD000070B540F28006C2F2CA
:102F00000006707940F200053038C2F20005002159
:102F10000928E97006D8317831B1032909D9C8B236
:102F200004281AD0A87870BDFFF7A8FB31780329D0
:102F3000F5D87079721850730120FFF755FC43F2F1
:102F4000B720C0F60000FFF79DFC3078411C002040
:102F500031707071C8B20428E4D100243470FFF7D6
:102F60008DFB2879717B3471884217D16879B17BE8
:102F700001228842327111D1A879F17B0222884264
:102F800032710BD1E879317C03228842327105D14C
:102F9000042030710020A870A87870BD0120A870AE
:102FA000FFF76CFB00200021FFF71EFC0FA0FFF7CE
:102FB00069FC347141F20004C4F2010420464FF46C
:102FC0000051FDF7E3FB4FF4FA70FDF7BDFA3079DD
:102FD0000130C1B205293071F0D340F6B830FDF7A9
:102FE000B3FAFFF74BFBA87870BD00BF57726F6E46
:102FF000672070617373776F72642100B0B540F21F
:103000008004C2F200046079A0F13001092977D868
:10301000617803291BD8621890740120FFF7E4FB44
:1030200043F2B720C0F60000FFF72CFC60780130B7
:10303000C1B20429607019D1FFF720FB00200121E3
:10304000FFF7D2FB2FA0FFF71DFC60780EE00439DC
:103050006218D0750120FFF7C7FB43F2B720C0F616
:103060000000FFF70FFC607801306070C0B20025EF
:103070000828657118BFB0BDFFF700FBA07CE17D9B
:103080006570257140F200058842C2F200051FD12B
:10309000E17C227E01239142237119D1227D637E3E
:1030A0004FF0020C9A4284F804C011D194F815C074
:1030B000A37E4FF0030E9C4584F804E008D104235E
:1030C000237114A428716971AA7185F807C003E0FF
:1030D00043F20834C0F60004FFF7D0FA00200021C4
:1030E000FFF782FB2046FFF7CDFB0220A8704FF4CC
:1030F000FA60FDF729FAFFF7C1FA4FF40070288053
:10310000B0BD00BF4E45572050415353574F524416
:1031100020323A004348414E4745205355434345EA
:10312000535346554C4C5900F0B581B00020012155
:10313000FFF75AFB38A0FFF7A5FBFFF7DDFE40F2D3
:103140000005C2F200050128687033D0002860D164
:1031500041F20004C4F20104FFF790FA00200021BC
:103160000027FFF741FB43F2A920C0F60000FFF75C
:1031700089FB40F28006C2F20006377120464FF408
:103180000051FDF703FB4FF4FA70FDF7DDF93079DC
:103190000130C1B203293071F0D340F6B830FDF7E9
:1031A000D3F9FFF76BFA0020B07002202870A870E6
:1031B00001B0F0BD40F28006C2F20006B1780220F4
:1031C000A870481CC1B20329B07020D141F200049C
:1031D0000027C4F20104B770FFF750FA0020002165
:1031E000FFF702FB10A0FFF74DFB377120464FF4AD
:1031F0000051FDF7CBFA4FF4FA70FDF7A5F93079DD
:103200000130C1B20B293071F0D3FFF737FA00203B
:10321000287001B0F0BD00BF454E544552205041CA
:103220005353574F52443A005858585858585858C2
:10323000585858585858580030380A2801D2012098
:1032400070470020704730313233343536373839E3
:1032500041424344454640305800303132333435E2
:10326000363738396162636465664030780004003F
:103270000008000000000000000200010000100033
:103280000000000000000001020304060708090016
:1032900000000001020304010202030405060708FE
:1032A000090A0B0C0D0E0F1010446F6F722069731A
:1032B000206F70656E21002A004E45572050415303
:1032C00053574F524420313A004F4C442050415301
:1032D00053574F52443A0044656C6574656420430B
:1032E0006172643A00436172642773206E756D6287
:1032F00065723A00253032582D253032582D253050
:1033000032582D25303258004348414E474520550C
:103310004E5355434345535346554C4C59000000BA
:1033200040330008000000202000000028010008B1
:10333000603300082000002040070000440100081E
:10334000020202013131313113C8C80D0000000002
:1033500001000000100000000024F4000000000044
:04000005080000ED02
:00000001FF
