:020000040800F2
:10000000A007002089010008612400080D170008DE
:100010005D24000845020008592500080000000082
:100020000000000000000000000000004D25000856
:10003000490200080000000065240008512500085E
:10004000A3010008A3010008A3010008A301000800
:10005000A3010008A3010008A3010008A3010008F0
:10006000A3010008A3010008A3010008A3010008E0
:10007000A3010008A3010008A3010008A3010008D0
:10008000A3010008A3010008A3010008A3010008C0
:10009000A3010008A3010008A3010008A3010008B0
:1000A000A3010008A3010008A3010008A3010008A0
:1000B000A3010008A3010008A3010008A301000890
:1000C000A3010008A3010008A3010008A301000880
:1000D000A3010008A3010008A3010008A301000870
:1000E000A3010008A3010008A301000800F002F822
:1000F00000F03AF80AA090E8000C82448344AAF188
:100100000107DA4501D100F02FF8AFF2090EBAE885
:100110000F0013F0010F18BFFB1A43F0010318473B
:10012000D43F0000F43F0000103A24BF78C878C1E3
:10013000FAD8520724BF30C830C144BF04680C60ED
:10014000704700000023002400250026103A28BF35
:1001500078C1FBD8520728BF30C148BF0B60704739
:100160001FB51FBD10B510BD00F031F81146FFF7E7
:10017000F7FF03F009F900F04FF803B4FFF7F2FFBF
:1001800003BC00F057F800000948804709480047C1
:10019000FEE7FEE7FEE7FEE7FEE7FEE7FEE7FEE737
:1001A000FEE7FEE704480549054A064B7047000094
:1001B00055250008ED000008A0010020A007002040
:1001C000A0030020A00300207047704770477546C9
:1001D00000F02CF8AE4605006946534620F00700B3
:1001E000854618B020B5FFF7DDFFBDE820404FF091
:1001F00000064FF000074FF000084FF0000BAC4630
:10020000ACE8C009ACE8C009ACE8C009ACE8C0097A
:1002100021F007018D46704710B50446AFF300800A
:100220002046BDE81040FFF7A8BF00000048704717
:100230001800002001491820ABBEFEE7260002008E
:1002400070470000FEE700007047000070B542F202
:100250000C060446C4F2020600F0ECFA3168C90745
:1002600018D13068800644BF202030603068C00656
:1002700007D43069C00704D1306840075CBF002054
:1002800070BD3068C00623D40020316849072BD4E4
:1002900034E000BF002C47D00546601C0ED130680A
:1002A000C007DED03068C0071CBF30685FEAC0708E
:1002B000D7D03068C007F2D1D3E700BF00F0BAFA58
:1002C000401BA04230D83068C007F7D1C9E700BF53
:1002D00040F27810C2F20000C16941F00201C16130
:1002E00010203168490709D540F27811C2F20001A7
:1002F000CA6940F0040042F00102CA613169C907CD
:1003000002D13060012070BD40F27811C2F20001CC
:10031000CA6942F00402CA61316921F00101316108
:100320003060012070BD00BF032070BD10B586B0E5
:10033000044600F04DF901200590CDE903040020AA
:10034000029002A801A900F06BF800F0E1F806B0F5
:1003500010BD000070B5A2B301324FF0FF3303EBC4
:100360005203032BC2F3410C02D2002316E000BF5C
:10037000520822F0030E0022002300BF845A851881
:100380008C526C888E187480AC880433B480EC88EE
:100390009E4502F10802F480F0D11144BCF1000F37
:1003A00008BF70BD30F81320BCF1010F0A8008D0DF
:1003B00000EB43004288BCF1020F4A801CBF8088DA
:1003C000888070BD70B516460D46044600F000F9F1
:1003D0006EB1701C4608023D35F8022F01202146FF
:1003E000002300F09FF8013E04F10204F4D1BDE8BF
:1003F000704000F08DB80000B0B5044600F01AFA65
:10040000054640F20C00C2F200000078611C18BFE3
:10041000044400BF00F00EFA401BA042FAD3B0BD66
:100420002DE9F04381B040F27816C2F20006327E28
:10043000012A03D1022001B0BDE8F0830546012066
:100440002C6830764CF250308846FFF7FFFE022CC5
:100450001CD100284ED1002042F21004F061C4F2F9
:100460000204206840F004002060206840F0400052
:1004700020604CF25030FFF7E9FE216821F00401C2
:1004800021600021317601B0BDE8F08390BB4FF0D0
:10049000FF30C8F80000D5E9027007EB80208742E2
:1004A00028D242F21004C4F202044FF0000900BF47
:1004B000C6F81C90206840F0020020606760206849
:1004C00040F0400020604CF25030FFF7BFFE216842
:1004D00021F00201216098B9D5E9020107F5806792
:1004E00000EB81208742E3D300200021317601B068
:1004F000BDE8F08301200021317601B0BDE8F08332
:10050000C8F800700021317601B0BDE8F08300002A
:1005100042F21001C4F20201086840F0800200209B
:100520000A6070472DE9F04F81B040F27819C2F2AD
:100530000009924699F81820012A03D1022001B03F
:10054000BDE8F08F8046012089F818004CF2503049
:100550009B460E46FFF77AFEA0BB404642F21007CC
:10056000B8F1020F18BF0420C4F20207B8F1010F5E
:1005700008BF404645424FF000080024C4F1200166
:10058000C9F81C802AFA04F00BFA01F13A68084312
:10059000B4F1200158BF2BFA01F042F0010139609B
:1005A00026F8020B4CF25030FFF750FE3968013547
:1005B00021F0010248F100013A6018B9002904F164
:1005C0001004DBD0002189F8181001B0BDE8F08FCD
:1005D00042F20400C4F20200C16809065CBF0020B8
:1005E000704740F22311C4F26751016048F6AB1125
:1005F000CCF6EF510160C068C0B2C009704700007E
:100600002DE9F04F82B00E68002E00F0038141F218
:100610000042C4F20102042340F2004E904208BF9F
:1006200003234FF6FF7CC4F2010E00930024012344
:10063000C1F2100C4FF0000A4FF0000949E000BF72
:10064000012704F00C030F229A402BEA020207FA5A
:1006500003F34FEA9A051A4346F82520D1F804B06F
:1006600040F20C455FEACB22DEF8082054BF22EAB4
:10067000080242EA0802C4F20105CEF808202A68FE
:100680005FEA8B2354BF22EA080242EA08022A608A
:100690005FEA8B33DEF8042054BF22EA080242EA04
:1006A00008025FEACB33CEF80420DEF800204FF0DA
:1006B000010354BF22EA080242EA0802CEF80020F1
:1006C0000E680AF1010A36FA0AF204F1040400F095
:1006D000A18003FA0AF816EA080FF1D04E686645C1
:1006E00012DC122E56D8DFE806F0350B4549555579
:1006F00055555555555555555555554D510000BFF6
:10070000D1F80C9046E000BF4FF6FF72C1F2210213
:1007100096420FDC0022C1F2110296421AD000224A
:10072000C1F21202964215D00022C1F22102964275
:1007300010D02FE00022C1F2220296420AD00022FD
:10074000C1F23102964205D00022C1F23202964235
:1007500020D100BF8A684AB1012A14BFC0F81480B2
:10076000C0F810804FF0080914E000BF4FF00409F2
:1007700010E000BFCA6802F108090BE04FF0000961
:1007800008E000BFCA6802F1040903E0CA6802F188
:100790000C0900BF22460646BAF1080F24BF203AD2
:1007A000043637680F25954027EA050509FA02F255
:1007B0002A433260CA79D2067FF582AF41F218032C
:1007C000C4F202031A68AEF57E7642F001021A60A6
:1007D0001A6802F001020192019A2AF0030256F807
:1007E00002B040F60002C4F20102904210D040F67E
:1007F0000042C4F2010290423FF422AF41F20002F3
:10080000C4F20102009F904208BF022719E700BF0F
:10081000002716E702B0BDE8F08F000080680840AE
:1008200018BF012070470000002A08BF09040161B9
:100830007047000040F29810C2F200000068704754
:1008400070B5B8B3044690F83D0028B9002084F88C
:100850003C00204600F09AF9242084F83D002068EE
:10086000016821F001010160016841F4004101606B
:10087000016821F40041016000F04AFB48F2804128
:10088000C0F21E0140F60013D4F804E088424FF095
:100890000001C0F23D0348F2A16C4FF0000238BFE6
:1008A00001219842C0F2010C38BF0122E64538BF51
:1008B0000A460AB1012070BD4DF68361C4F21B31B6
:1008C000A0FB01122168950C4B684FF4967623F03B
:1008D0003F0343EA9243754344F6D3564B60C1F25B
:1008E00062060B6AA5FB0656B50923F03F03E645F1
:1008F00038BF950C6A1C1A430A62CA6948F2A0669E
:100900004CF6FF73C0F20106B64522EA03020BD88B
:1009100001384FEA4E03B0FBF3F001306FF31F30A4
:10092000042898BF04201EE0A368013863B119238E
:100930000EFB03F3B0FBF3F001306FF31F3078B11F
:1009400000F5804008E000BF0EEB4E03B0FBF3F073
:1009500001306FF31F3028B100F5004003E000BF05
:10096000012000E001201043C8610868D4E9072392
:1009700020F0C000104318430860886848F2FF3236
:1009800004F10C0690434CCE18431043A5698860CF
:10099000C86820F0FF0030432843C860086840F072
:1009A0000100086000202021206484F83D102063AD
:1009B00084F83E0070BD00002DE9F04383B01E4670
:1009C000174689460446FFF735FF94F83D10202965
:1009D00020D10546206800BF8169890716D5FFF739
:1009E00029FF411B20681A29F6D381698907F3D5AD
:1009F00000202021206384F83D1084F83E00216C03
:100A000041F02001216484F83C0003E094F83C109C
:100A1000012903D1022003B0BDE8F083012184F84D
:100A20003C100168C90703D1016841F00101016070
:100A3000016840F2020821F400610160212184F87C
:100A40003D10102184F83E10002121646762668504
:100A5000618DC0F201082185A8F10211E162E16A0D
:100A60000A9E11F5803F18BF01291DD1016841F48C
:100A70008071016020464FF001110022334600953D
:100A800000F0A6FE50B120680068C00544BF4FF4D6
:100A900000702064012003B0BDE8F0832069B0F548
:100AA000804F07D1FE2015E00829DFD0216B1229E5
:100AB000DCD0DFE7062000EAD9102168F0300861B9
:100AC00008F10601204632462B4600F06BFF002855
:100AD000E0D1FF20216800EA090008612046414674
:100AE00032462B4600F05EFF0028D3D10020029052
:100AF00020684169029180690290029806E000BF77
:100B0000204631462A4600F003FE18BB208D68B30C
:100B1000204631462A4600F0B5FFD8B9606A216800
:100B2000024612F8013B0B616262628D013A6285F6
:100B3000228D531E23854F697F07E1D51B04DFD02B
:100B4000437802300B616062608D01386085901ED1
:100B50002085D5E7206C04289CD12068016841F4E9
:100B600000710160012003B0BDE8F08320680168D6
:100B700041F400710160202084F83D00002084F8D9
:100B80003E0084F83C0003B0BDE8F08310B586B0A9
:100B9000006845F20042C4F2000200219042049134
:100BA00002D006B010BD00BF41F21804C4F2020426
:100BB000206802A940F008002060206800F00800CA
:100BC000019001984FF4407002901220039003208E
:100BD000059040F60040C4F20100FFF711FD04202B
:100BE000C4F20100016841F0E06141F002010160DE
:100BF000606840F400106060606800F400100190CC
:100C0000019806B010BD000040F20C0040F29811AF
:100C1000C2F20000C2F2000100780A6810440860C5
:100C20007047000080B542F20000C4F20200016883
:100C300041F010010160032000F07AF80F2000F06D
:100C400005F800F027F8002080BD000070B540F2E4
:100C50000C06C2F2000640F214013278C2F2000122
:100C60004FF47A730968B3FBF2F20446B1FBF2F178
:100C7000084600F035FD0F2C4FF0010508D838B9B3
:100C80004FF0FF3021460022002500F025F8746067
:100C9000284670BD82B041F21800C4F2020001681B
:100CA000022241F001010160016801F0010101919E
:100CB0000199416841F080514160406800F08050E6
:100CC000009000980420C4F20100016862F31A61E8
:100CD000016002B07047000010B54EF60C5CCEF219
:100CE000000CDCF80030C3F3022E8EF00704042C55
:100CF00028BF0424BEF103034FF0FF3E0EFA04F4B4
:100D000038BF0023A14399400EFA03F39A431143DD
:100D100000F00F0200F160430901043A03F5644357
:100D20006244002848BF02F10C03197010BD000096
:100D30004EF60C51CEF200010A684FF6FF031A403E
:100D400060F30A2242F0806040F0FD700860704756
:100D50002DE9F04381B0002800F0858042F20008C0
:100D6000C4F202080446D8F800000D4600F007005F
:100D700088420CD2D8F8000020F007002843C8F8B9
:100D80000000D8F8000000F00700A8426BD12068EE
:100D900041F204098107C4F2020917D5410705D5BC
:100DA000D9F8001041F4E061C9F80010010705D539
:100DB000D9F8001041F46051C9F80010D9F80010BA
:100DC000A26821F0F0011143C9F80010C00741D119
:100DD000D8F8000000F00700A8420CD9D8F80000AD
:100DE00020F007002843C8F80000D8F8000000F001
:100DF0000700A84237D12068410707D5D9F800106D
:100E0000E26821F4E0611143C9F80010000708D539
:100E1000D9F80000216920F4605040EAC100C9F807
:100E20000000D9F8002002F00C00082841F2002050
:100E3000C0F27A0050D144F25603C2F38341C0F6A7
:100E40000003595CD2033BD440F60010C0F23D00D1
:100E5000484341E0606802280AD001282AD159F8A5
:100E6000041C890308D4012001B0BDE8F08300BF51
:100E700059F8041C8901F6D5D9F8001021F00301B6
:100E80000843C9F80000FFF7D5FC064641F2883751
:100E9000D9F80000616800F00C00B0EB810F97D02A
:100EA000FFF7C8FC801BB842F2D9032001B0BDE8AF
:100EB000F08300BF59F8041C8907D4D5DCE700BFD4
:100EC000D9F8002044F25403C2F34042C0F60003B4
:100ED0009A5C4843B0FBF2F0D9F8001044F23C02AF
:100EE000C1F30311C0F60002515C40F2140220FA73
:100EF00001F140F21000C2F200000068C2F20002EC
:100F00001160FFF7A3FE002001B0BDE8F0830000F0
:100F100040F2140041F20401C2F20000C4F20201E6
:100F20000068096844F24C02C1F30221C0F60002D5
:100F3000515CC840704700002DE9F04182B00028A4
:100F400068D00446007841F20006C007C4F20206E9
:100F500025D0706800F00C0004281BD0706800F0E9
:100F60000C00082802D17068C00313D46068002800
:100F700000F06881B0F5A02F00F07C81B0F5803FD3
:100F800000F07C81306820F480303060306820F4DC
:100F9000802076E13068800301D56068D0B3207886
:100FA000800718D5706810F00C0F07D0706800F03B
:100FB0000C0008286ED17068C0036BD430688007BD
:100FC00002D52069012825D13068616920F0F80038
:100FD00040EAC1003060207800071FD42078400725
:100FE00032D4E56995B1706800F00C00082840F033
:100FF0008F80012D0ED07068216A00F480328A4201
:1010000008D1616A00F47010884203D1002002B058
:10101000BDE8F081012002B0BDE8F081A0690028A0
:1010200062D00020C4F242200121C0F88014FFF7F2
:1010300001FC0546706A800700F18C80FFF7FAFB1F
:10104000401B0228F6D92AE1F06910F0805808D137
:10105000F06940F08050F061F06900F0805000903D
:10106000009847F20007C4F200073868C00529D489
:10107000386840F480703860FFF7DCFB054600BF3D
:101080003868C0051ED4FFF7D5FB401B6428F7D98C
:1010900005E100BF2069002840F20000C4F24220B0
:1010A00000F0828001210160FFF7C4FB054600BF0C
:1010B000306880073FF588AFFFF7BCFB401B022874
:1010C000F6D9ECE0E068002800F08080052800F008
:1010D0009780012800F09880306A20F0010030628B
:1010E000306A20F0040092E00020C4F24220002187
:1010F000C0F88014FFF79EFB054600BF706A8007AA
:101100007FF56CAFFFF796FB401B0228F6D9C6E0CF
:101110000027C4F2422700203866FFF78BFB022D20
:1011200005460BD13068800140F1BE80FFF782FB9D
:10113000401B02284FF00300F4D968E730688001B3
:101140007FF564AFFFF776FB401B02284FF00300EA
:10115000F4D95CE740F21400C2F20000006844F6E3
:10116000D351C1F26201A0FB0101480A019000BF06
:1011700000BF0198411E002801913FF42FAF00BF2E
:101180000198411E002801913FF428AF00BF01984B
:10119000411E002801913FF421AF00BF0198411E7C
:1011A00000280191E4D119E700210160FFF742FB1B
:1011B000054600BF306880077FF50DAFFFF73AFBAB
:1011C000401B02284FF00300F4D920E7306A20F0DA
:1011D00001003062306A20F004003062FFF72AFB21
:1011E000054641F2883700BF306A800720D5FFF7F7
:1011F00021FB401BB8424FF00300F5D907E700BFC1
:10120000306A40F004003062306A40F00100306221
:10121000FFF710FB054641F2883700BF306A8007B0
:1012200006D4FFF707FB401BB842F7D937E000BFF1
:10123000B8F1000F7FF4D5AEF06920F08050F06176
:10124000CFE600BF306820F480303060306820F492
:1012500080203060FFF7EEFA054600BF306880035B
:101260007FF59DAEFFF7E6FA401B64284FF00300C0
:10127000F4D9CCE6306840F480203060306840F427
:1012800080303060FFF7D6FA054600BF3068800333
:101290003FF585AEFFF7CEFA401B6428F6D9032050
:1012A00002B0BDE8F08100BF206AB0F5803F05D1F3
:1012B0007168A26821F40031114371607168626A3B
:1012C00021F4741111430843706001203866FFF760
:1012D000B1FA0446306880013FF598AEFFF7AAFAEC
:1012E000001B02284FF00300F4D990E670B538B126
:1012F0000446406A30B10020206104F1140007E088
:10130000012070BD6068B0F5827F03D004F11C003D
:10131000002101600026A66294F8510020B9204601
:1013200084F8506000F038F8022084F8510094E806
:10133000071001F48271036802F4044223F04003B1
:101340000360236911440CF40062114403F00202AB
:101350006369114403F00102A369E569114403F4D0
:101360000072114405F03802256A114405F080022C
:10137000A56A114305F4005211430160042101EAFA
:1013800013414160C16921F40061C16101206665BA
:1013900084F85100304670BD70B586B040F6000448
:1013A000C4F20104006804F5205100268842049626
:1013B00002D006B070BD00BF41F21800C4F20200B6
:1013C000016802AD41F480510160016801F480516F
:1013D00001910199016841F004010160006829460A
:1013E00000F0040001900198A020029002200390D8
:1013F000032005902046FFF703F94020CDE90206BF
:10140000204629460496FFF7FBF806B070BD0000A1
:101410002DE9F04381B0044690F85000012803D133
:10142000022001B0BDE8F08301201E4615460F469C
:1014300084F85000FFF7FEF994F851108146012915
:1014400012D06068B0F5827F40F0A480A0680028C8
:101450004FF0020008BF042906D0002184F8501084
:1014600001B0BDE8F08300BF002F4FF0010018BFAE
:10147000002DF2D0002EF0D094F851000021042865
:101480001CBF052084F851006165A563E687A68727
:101490002763E6862068A6862164616401684906A0
:1014A00003D4016841F0400101606168731EE26885
:1014B000B1FA81F1B3FA83F3DDF8208049095B09C1
:1014C000B2F5006F41EA03016CD131B137F8021B6C
:1014D000C1602763E08E0138E086012518F1010024
:1014E00031D101E0FFF7A6F9E08E18B9E08F0028AE
:1014F00000F0C0802068816889070CD5E18E51B169
:10150000012D08D1216B002531F8022BC260216327
:10151000E18E0139E1868168C907E3D0E18F0029B6
:10152000E0D0C068A16B012521F8020BA163E08F18
:101530000138E087D6E700BFFFF77CF9A0EB090090
:10154000404580F0AB80E08E18B9E08F002800F0B5
:1015500091802068816889070CD5E18E51B1012DF9
:1015600008D1216B002531F8022BC2602163E18E86
:101570000139E1868168C907DED0E18F0029DBD01F
:10158000C068A16B012521F8020BA163E08F01382F
:10159000E087D1E70220002184F8501001B0BDE8B7
:1015A000F08300BF39B139780173206B01302063BB
:1015B000E08E0138E086012518F1010032D101E00A
:1015C000FFF738F9E08E10B9E08F002852D020687C
:1015D000816889070ED5E18E61B1012D0AD1216B99
:1015E000002509780173216B206801312163E18EA8
:1015F0000139E1868168C907E2D0E18F0029DFD097
:10160000C068A16B01250870A06B0130A063E08F5A
:101610000138E087D4E700BFFFF70CF9A0EB090021
:1016200040453BD2E08E08B9E08F18B3206881684E
:1016300089070ED5E18E61B1012D0AD1216B0025FC
:1016400009780173216B206801312163E18E013932
:10165000E1868168C907DFD0E18F0029DCD0C0684E
:10166000A16B01250870A06B0130A063E08F0138E9
:10167000E087D1E72046802142464B4600F0F4FE49
:10168000B0B1606D40F020006065202060650120F1
:10169000002184F8501001B0BDE8F083012084F8E7
:1016A00051000320002184F8501001B0BDE8F08300
:1016B000A06838B9002000902068C1680091806857
:1016C00000900098606D00284FF0010004BF84F87E
:1016D00051000020002184F8501001B0BDE8F083D3
:1016E000411E0020B0EB116F1CBF012070474EF26D
:1016F0001002CEF2000251604EF62351CEF20001EC
:10170000F0230B700721906011607047FEE7000026
:1017100070B50368044653F8140F400711D40E4601
:10172000481C29D086BB00BF1868400527D4FFF7A6
:1017300081F8236853F8140F400739D5186840071B
:10174000F2D5002070BD00BF18684007F9D41868B2
:10175000400514D418684007F3D4186840050ED427
:1017600018684007EDD41868400508D41868400789
:101770004FF0000048BF70BD18684005E4D56FF415
:1017800080601860042014E0154603E053F8140F3D
:101790004007D6D418684005F1D4FFF74BF8401B3A
:1017A0002368B042F2D958694007EFD4202000E006
:1017B000202000212022216384F83D2084F83E105F
:1017C000226C10432064012084F83C1070BD00009E
:1017D0002DE9F041054600681E46144601F47F02DB
:1017E00001338FB242D0DDF81880B2F5803F40F06F
:1017F000878040693840C01BB0FA80F04009A042A1
:1018000040F0C8804EB924E040693840C01BB0FAAF
:1018100080F04009A04240F0BD80FFF70BF8A0EB3C
:1018200008012868B142EFD941693940C91BB1FAB2
:1018300081F14909A142E7D19BE000BF40693840EE
:10184000C01BB0FA80F04009A0424FF0000040F009
:10185000A680FEF7EFFF286841693940C91BB1FA3D
:1018600081F14909A142E9D183E000BFB2F5803F8F
:1018700024D100BF41693940C91BB1FA81F149093E
:10188000A14240F0878041693940C91BB1FA81F11A
:101890004909A14240F07E8041693940C91BB1FA33
:1018A00081F14909A14275D141693940C91BB1FA99
:1018B00081F14909A142DDD06CE000BF8169394066
:1018C000C91BB1FA81F14909A14263D1816939404B
:1018D000C91BB1FA81F14909A1425BD18169394043
:1018E000C91BB1FA81F14909A14253D1816939403B
:1018F000C91BB1FA81F14909A142DFD04AE000BF1A
:1019000080693840C01BB0FA80F04009A04241D144
:1019100046B923E080693840C01BB0FA80F0400926
:10192000A0423BD1FEF786FFA0EB08012868B14238
:10193000F0D981693940C91BB1FA81F14909A14245
:10194000E8D116E080693840C01BB0FA80F0400949
:10195000A0424FF0000018BFBDE8F081FEF76AFF1B
:10196000286881693940C91BB1FA81F14909A1424E
:10197000E8D100202021286385F83D1085F83E003D
:10198000296C41F02001296485F83C000120BDE864
:10199000F08100BF0020BDE8F08100BF0020BDE85D
:1019A000F0810000F0B581B0044600681D4643692F
:1019B0008FB203EA0701B94202D1002001B0F0BDA5
:1019C00041691646013201F4806125D0002940D1D9
:1019D000CEB100BFFEF72EFF411B2068B14203D9F4
:1019E00041693940B9424BD141693940B942E4D0EB
:1019F00041694905EED52CE041693940B942DCD056
:101A00004169490525D4FEF715FF20684169394031
:101A1000B942F1D0202024E0D9B941693940B94216
:101A2000CBD04169490514D441693940B942C4D089
:101A3000416949050DD441693940B942BDD0416978
:101A4000490506D441693940B942B6D041694905D2
:101A5000E3D5016841F4007101606FF48061416178
:101A6000042000212022216384F83D2084F83E10C8
:101A7000226C1043206484F83C10012001B0F0BDBA
:101A80002020EEE770B50368044653F8140F0006F3
:101A900011D40E46481C29D086BB00BF18684005EB
:101AA00027D4FEF7C7FE236853F8140F000639D574
:101AB00018680006F2D5002070BD00BF1868000647
:101AC000F9D41868400514D418680006F3D41868CF
:101AD00040050ED418680006EDD41868400508D4F7
:101AE000186800064FF0000048BF70BD1868400538
:101AF000E4D56FF480601860042014E0154603E01C
:101B000053F8140F0006D6D418684005F1D4FEF738
:101B100091FE401B2368B042F2D958690006EFD409
:101B2000202000E0202000212022216384F83D2095
:101B300084F83E10226C10432064012084F83C108D
:101B400070BD0000F0B583B040F60004C4F201049B
:101B50002046102100220026FEF766FE40F22015E6
:101B6000A820C2F200058DF809000A270DF109012D
:101B700002AA284601230097FFF74AFC0DF10B014A
:101B80000DF10A02284601238DF80B600097FFF73C
:101B90003FFC9DF80A50204610210122FEF744FE2A
:101BA000A80701D003B0F0BD1420032100F014FAFF
:101BB00003B0F0BD2DE9F04184B040F60005C4F259
:101BC000010504462846102100224FF00008FEF7C8
:101BD0002BFE40F220161A20C2F200068DF80D00EE
:101BE0000A270DF10D0103AA304601230097FFF7E4
:101BF0000FFC0DF10F010DF10E02304601238DF89F
:101C00000F800097FFF704FC284610210122FEF701
:101C10000BFE42F2930020800DF10A070C202146B2
:101C200002222346009700F033FA18B104B0BDE851
:101C3000F08100BF20786178A278E3784840504076
:101C400021795840401A18BF0120400004B0BDE877
:101C5000F08100002DE9F04784B040F60008064608
:101C60008020C4F201088A4640EA4604404610211A
:101C700000224FF00009FEF7D7FD40F22015C2F216
:101C800000058DF809400A240DF1090102AA284631
:101C900001230094FFF7BCFB0DF10B010DF10A02CB
:101CA000284601238DF80B900094FFF7B1FB9DF8B7
:101CB0000A70404610210122FEF7B6FD7E2000EAA0
:101CC000460640461021002227EA0A07FEF7ACFD2F
:101CD0000DF10D0103AA284601238DF80D60009433
:101CE000FFF796FB0DF10F010DF10E0228460123BF
:101CF0008DF80F700094FFF78BFB404610210122F6
:101D0000FEF792FD04B0BDE8F0870000F0B583B0A7
:101D100040F60004C4F201042046102100220027EE
:101D2000FEF782FD40F220150220C2F200058DF878
:101D30000B000A260DF10B010DF10A0228460123C2
:101D40000096FFF765FB0F208DF80B000DF10B01DE
:101D50000DF10A02284601230096FFF759FB2046A1
:101D600010210122FEF760FD204610210022FEF71F
:101D70005BFD54208DF80B000DF10B010DF10A02F3
:101D8000284601230096FFF743FB8D208DF80B00BA
:101D90000DF10B010DF10A02284601230096FFF711
:101DA00037FB204610210122FEF73EFD2046102180
:101DB0000022FEF739FD56208DF80B000DF10B01C6
:101DC0000DF10A02284601230096FFF721FB3E2071
:101DD0008DF80B000DF10B010DF10A0228460123CD
:101DE0000096FFF715FB204610210122FEF71CFD8F
:101DF000204610210022FEF717FD5A208DF80B0017
:101E00000DF10B010DF10A02284601230096FFF7A0
:101E1000FFFA1E208DF80B000DF10B010DF10A02E7
:101E2000284601230096FFF7F3FA204610210122ED
:101E3000FEF7FAFC204610210022FEF7F5FC5820A0
:101E40008DF80B000DF10B010DF10A02284601235C
:101E50000096FFF7DDFA0DF10B010DF10A0228469D
:101E600001238DF80B700096FFF7D2FA204610215F
:101E70000122FEF7D9FC204610210022FEF7D4FCF7
:101E80004C208DF80B000DF10B010DF10A022846D4
:101E900001230096FFF7BCFA70208DF80B000DF1BE
:101EA0000B010DF10A02284601230096FFF7B0FA54
:101EB000204610210122FEF7B7FC20461021002207
:101EC000FEF7B2FC2A208DF80B000DF10B010DF18D
:101ED0000A02284601230096FFF79AFA40208DF85F
:101EE0000B000DF10B010DF10A02284601230096AB
:101EF000FFF78EFA204610210122FEF795FC2046BE
:101F000010210022FEF790FC22208DF80B000DF12D
:101F10000B010DF10A02284601230096FFF778FA1B
:101F20003D208DF80B000DF10B010DF10A02284642
:101F300001230096FFF76CFA204610210122FEF7DC
:101F400073FCFFF7FFFD03B0F0BD00002DE9F04189
:101F500084B040F60008C4F201080C46054640462D
:101F600010210022FEF760FC40F220171A20C2F276
:101F700000078DF80D000A260DF10D0103AA384661
:101F800001230096FFF744FA07208DF80F000DF1AA
:101F90000F010DF10E02384601230096FFF738FAC3
:101FA000404610210122FEF73FFC0DF10A070C20EC
:101FB0002146012223462570009700F069F8BDF8FC
:101FC0000A101029014618BF0221002818BF02215B
:101FD000084604B0BDE8F0812DE9F04784B040F632
:101FE000000806468020C4F201088A4640EA4604FA
:101FF0004046102100224FF00009FEF715FC40F288
:102000002015C2F200058DF809400A240DF10901DE
:1020100002AA284601230094FFF7FAF90DF10B01FB
:102020000DF10A02284601238DF80B900094FFF76A
:10203000EFF99DF80A70404610210122FEF7F4FBEB
:102040007E2000EA460640461021002247EA0A07A1
:10205000FEF7EAFB0DF10D0103AA284601238DF8D6
:102060000D600094FFF7D4F90DF10F010DF10E0290
:10207000284601238DF80F700094FFF7C9F94046F8
:1020800010210122FEF7D0FB04B0BDE8F08700006C
:102090002DE9F04F87B017460C288846029304902C
:1020A00006D00E2808D111200590122007E000BFAD
:1020B00031200590772002E001200590002040F6B5
:1020C0000006C4F20106039000F18005304610219D
:1020D00000224FF00009FEF7A7FB40F2201A04206F
:1020E000C2F2000A8DF81B000A240DF11B010DF14C
:1020F0001A02504601230094FFF78AF90DF11B01E3
:102100000DF11A02504601238DF81B500094FFF781
:102110007FF9304610210122FEF786FB0420802142
:10212000FFF798FD0A208021FFF756FF3046102167
:102130000022FEF779FB02208DF81B000DF11B0138
:102140000DF11A02504601230094FFF761F90DF1D9
:102150001B010DF11A02504601238DF81B900094CB
:10216000FFF756F9304610210122FEF75DFB67B3F9
:1021700040F2201AA8F10105C2F2000A0DF11B0974
:102180000DF11A0815F801BF3046102100220A246B
:10219000FEF74AFB12208DF81B0050464946424686
:1021A00001230094FFF734F90A2450464946424679
:1021B00001238DF81BB00094FFF72AF93046102157
:1021C0000122FEF731FB013FDCD130461021002215
:1021D000FEF72AFB40F220170220C2F200078DF81A
:1021E0001B000DF11B010DF11A023846012300946A
:1021F000FFF70EF9049D0DF11B010DF11A0238468F
:1022000001238DF81B500094FFF702F9304610218E
:102210000122FEF709FB0C2D03D10D208021FFF7D1
:10222000DBFE40F220194FF4FA654FF088084FF0BA
:102230000A0AC2F200090DF11B0B0DF11A0700BFCB
:10224000304610210022FEF7EFFA484659463A463A
:1022500001238DF81B80CDF800A0FFF7D9F80020EE
:102260008DF81B00484659463A460123CDF800A098
:10227000FFF7CEF89DF81A40304610210122FEF7F4
:10228000D3FA013D280439D005982042D8D00D203A
:102290008021FFF7DFFC3046102100224FF00008BC
:1022A000FEF7C2FA40F220158C20C2F200058DF82C
:1022B0001B000A270DF11B010DF11A02284601230C
:1022C0000097FFF7A5F80DF11B010DF11A02284642
:1022D00001238DF81B800097FFF79AF89DF81A509C
:1022E000304610210122FEF79FFA15F01B0F0FD088
:1022F0000225284607B0BDE8F08F00BF0D208021E1
:10230000FFF7A8FC0225284607B0BDE8F08F00BF04
:102310000398049920400C2900F00105E9D13046CA
:102320001021002210244FF00009FEF77DFA40F240
:1023300020189420C2F200088DF81B004FF00A0A02
:102340000DF11B010DF11A0240460123CDF800A04A
:10235000FFF75EF80DF11B010DF11A024046012353
:102360008DF81B90CDF800A0FFF752F89DF81A7079
:10237000304610210122FEF757FA30461021002284
:10238000FEF752FA98208DF81B000DF11B010DF19C
:102390001A0240460123CDF800A0FFF739F80DF1ED
:1023A0001B010DF11A02404601238DF81B90CDF858
:1023B00000A0FFF72DF89DF81A8030461021012269
:1023C000FEF732FA18F0070040EAC700A0F1080053
:1023D00008BFF800102F38BF3C46002F109908BFE7
:1023E0000124002C088084D0029840F2201BA0F128
:1023F0000108C2F2000B0DF11B074FF00A0A0DF1A4
:102400001A090595304610210022FEF70DFA922098
:102410008DF81B00584639464A460123CDF800A0E6
:10242000FEF7F6FF00208DF81B00584639464A4655
:102430000123CDF800A0FEF7EBFF9DF81A503046BF
:1024400010210122FEF7F0F9013C08F8015FD9D113
:10245000059D284607B0BDE8F08F0000FEE70000AC
:10246000FEE70000704700002DE9F04182B01E46F3
:1024700090460D460446FEF7DDF9301A00EB0807DA
:10248000FEF7D8F940F21401C2F200010968C1F365
:10249000CB317943019121688A682A40AA4227D129
:1024A000064618F101001FD0FEF7C4F9801BB842A0
:1024B00022D2019801990028A1F10101019121681E
:1024C000896808BF074601EA0500A842ECD00FE082
:1024D00088682840A8420BD188682840A84207D1C4
:1024E00088682840A84203D188682840A842EFD0D5
:1024F000002002B0BDE8F081D4E900014268B1F5E6
:10250000827F22F0E00242600AD1A168B1F5004F5B
:1025100002D0B1F5806F03D1016821F04001016064
:10252000A16AB1F5005F07D1016821F40051016093
:10253000016841F400510160012084F8510000203D
:1025400084F85000032002B0BDE8F081704700001D
:10255000FEF75ABB70470000FEE700002DE9F04F80
:1025600081B040F27806C2F20006F068142815D156
:1025700000F076FD00200221002400F027FE44F246
:10258000C200C0F6000000F071FE0120012100F041
:102590001DFEAAA000F06AFEF47014E000200021E5
:1025A00000F014FE44F28D00C0F6000000F05EFE64
:1025B00040F2000BC2F2000B0BF1060001F0CCF967
:1025C0008BF8010010B101B0BDE8F08F00F048FDBC
:1025D0000020012100F0FAFD89A000F047FE4FF431
:1025E0007A70FDF709FF00F03BFD0020012100F0AB
:1025F000EDFD87A000F03AFE0120012100F0E6FD8C
:1026000044F2B400C0F6000000F030FE06F13004E1
:1026100026202146FFF79AFCB0712046FFF7CAFA40
:10262000316BB071316168B19BF8040001288BF8FF
:10263000030059D0002800F091803220FDF7DCFE25
:10264000E6E700BFF768042F44DBF81707EB90704C
:10265000337C96F811A096F8129096F813804FEA02
:10266000A00C00244FF0040E00218D000EEB84041A
:10267000EAB294426DD9B01890F84000984223D144
:1026800045F00102D0B2844262D9304490F8400053
:1026900050451AD145F00202D0B2844258D9304494
:1026A00090F84000484510D145F00302D0B2844272
:1026B0004ED9304490F84000404506D10435EAB286
:1026C0009442D8D845E000BF2A460131CCB2A44597
:1026D000F271CADC40F20110ABF80300391DFBB205
:1026E000994206DC4FE000BFF768391DFBB2994202
:1026F00049DD07F003003044027C00BF781CF51868
:10270000C3B2994285F840203CDD03F00300304419
:10271000057CB81CF418C3B2994284F8405031DDEE
:1027200003F003003044057CF81CF418C3B299424E
:1027300084F8405026DD03F0030030440437007C69
:10274000F518FBB2994285F84000D7DC1BE000BFCA
:10275000154600207171F571ABF8030000F080FCA4
:1027600000200121002400F031FD44F2AB00C0F64E
:10277000000000F07BFD0120062100F027FD2CA0C9
:102780002AE000BF074647F20004C0F601042046D5
:102790007771FDF7CBFD06F140052046294614224E
:1027A000FDF710FE6420FDF727FE2046294614227F
:1027B000FDF7D0FD00F054FC00200121002400F0C2
:1027C00005FD17A000F052FD0120012100F0FEFCE4
:1027D00044F2D600C0F6000000F048FD4FF4FA6065
:1027E000FDF70AFE00F03CFC02208BF8010040F2ED
:1027F0000220F470ABF8030001B0BDE8F08F00BF19
:10280000434F52524543542050415353210000003E
:10281000505554204E45572043415244000000007B
:10282000414444204E45572043415244000000009B
:102830004841532045584953544544004D454D4F58
:1028400052592049532046554C4C00002DE9F04F79
:1028500081B000F057FB40F27806C2F2000606F1A4
:102860003004F06026202146FFF770FBB07120464F
:10287000FFF7A0F9316B40F200080028C2F200080F
:10288000B07131614AD098F80400002888F803003C
:1028900000F0C48001283DD1D6F80C90B9F1000FAA
:1028A00040F3928040F600440220C4F2010488F80C
:1028B000040000F0D5FB00200121002500F086FC7B
:1028C0007BA000F0D3FC757120464FF4806101229B
:1028D000FDF7AAFFC820FDF78FFD20464FF4806169
:1028E0000022FDF7A1FFC820FDF786FD70790130B9
:1028F000C1B203297071E7D34FF4FA70FDF77CFD84
:1029000040F6B830FDF778FD00F0AAFB40F2022057
:10291000A8F8030001B0BDE8F08F00BFD6F80C9016
:10292000B9F1040F46DB4FEAE97009EB9070337C94
:10293000747C96F812B096F813A04FEAA00C002011
:102940004FF0040E00218D000EEB8000EFB2B84274
:102950005FD9F21992F840209A4223D145F001073D
:10296000FAB2904254D9324492F84020A2421AD18D
:1029700045F00207FAB290424AD9324492F8402018
:102980005A4510D145F00307FAB2904240D932447B
:1029900092F84020524506D10435EFB2B842D8D85B
:1029A00037E000BF2F460131C8B28445F771CADC59
:1029B00001E000BF002140F201107171A8F803008E
:1029C000B9F1000F3FF76EAF00F04AFB0020022183
:1029D00000F0FCFB44F2C200C0F6000000F046FC30
:1029E0000120002100F0F2FB44F2E300C0F60000F9
:1029F00000F03CFC4FF4FA60FDF7FEFC00F030FB09
:102A000040F20220A8F8030001B0BDE8F08F00BF3B
:102A10003D4600207171F57188F8030040F60044CE
:102A20000220C4F2010488F8040000F019FB002021
:102A30000121002500F0CAFB44F26600C0F6000048
:102A400000F014FC757100BF20464FF48061012234
:102A5000FDF7EAFEC820FDF7CFFC20464FF4806169
:102A60000022FDF7E1FEC820FDF7C6FC70790130B9
:102A7000C1B202297071E7D34FF4FA70FDF7BCFCC4
:102A800020464FF400610122FDF7CEFE41F288306E
:102A9000FDF7B2FC20464FF400610022FDF7C4FEB2
:102AA000022088F8000001B0BDE8F04F00F0D8BA6D
:102AB00057524F4E47204341524421002DE9F04FD9
:102AC00083B040F27808C2F20008D8F80C0040F257
:102AD000000B4FF0000A4FF002090128C2F2000B70
:102AE00014DB0020002100F071FB44F28D00C0F6E1
:102AF000000000F0BBFB0BF1060000F02DFF8BF88F
:102B0000010078B103B0BDE8F08F00BF44F2E304E8
:102B100044F2C205C0F60004C0F6000502270026F4
:102B200032E100BF00F09CFA0020032100F04EFBD0
:102B3000A6A000F09BFB0120062100F047FBA5A00A
:102B400000F094FB4FF47A70FDF756FC00F088FA21
:102B50000020012100F03AFBA1A000F087FB01203A
:102B6000012100F033FB44F2B400C0F6000000F095
:102B70007DFB08F1300400BF26202146FFF7E6F96F
:102B800088F806002046FFF715F8D8F8301088F8C6
:102B90000600C8F8101058B19BF8040001288BF803
:102BA00003006AD0002873D03220FDF725FCE3E74C
:102BB000D8F80C00042859DBC11700EB917189107B
:102BC000009198F8121098F81060029198F813107C
:102BD00098F8115001910022042100234FEA830943
:102BE00001EB820C5FFA89F2944563D91146CE4617
:102BF000414491F84010B1422AD14EF001015FFAF0
:102C000081FAD44552D908EB0A0797F840704FF083
:102C1000000AAF421DD14EF00201CFB2BC4543D9EC
:102C2000474497F84070029CA74212D14EF003012E
:102C3000CFB2BC4538D9474497F84070019CA742B1
:102C400007D10EF1040E5FFA8EF18C45D0D832E038
:102C500071460133009FDAB2974288F807104FF0AF
:102C600002094FF00401B9DC01E000BF002340F28B
:102C7000011088F80530ABF8030044F2AB0444F2CD
:102C8000CD05C0F600040626C0F6000502277BE04D
:102C900098F80510D8F80C004FEA81095FFA89F21C
:102CA000904211DC4FE000BF8E4604E08E464FF0AC
:102CB000000A00E0CE46002188F8053088F807E0D9
:102CC000ABF8031090423EDD011F4FF0FF3300BF11
:102CD00008EB0206914249F0010296F84450D7B23F
:102CE000D8BF1D46B84286F840502BDD08EB0706DA
:102CF00049F0020296F84450B942D7B2D8BF1D46F7
:102D0000B84286F840501DDD08EB070649F0030283
:102D100096F84450B942D7B2D8BF1D46B84286F89B
:102D200040500FDD08EB070609F1040996F84450FE
:102D3000B9425FFA89F2D8BF1D46904286F84050EA
:102D4000C6DC00E0914647F20004C0F601042046CC
:102D500088F80890FDF7EAFA08F140052046294670
:102D60001422FDF72FFB6420FDF746FB2046294681
:102D70001422FDF7EFFA44F2D604C0F600041CA5B5
:102D8000012701264FF0020900F06AF900203946B8
:102D900000F01CFA284600F069FA0120314600F0E4
:102DA00015FA204600F062FA4FF4FA60FDF724FBB2
:102DB00000F056F940F2022088F803A08BF8019049
:102DC000ABF8030003B0BDE8F08F00BF434F525291
:102DD0004543540050415353574F52442100000083
:102DE00050555420594F5552204341524400000041
:102DF00044454C205448495320434152440000006C
:102E0000B0B500F03DFC40F27804FF28C2F20004A7
:102E100003D020716420FDF7EFFA207923382128B0
:102E20001AD8DFE800F0111919191919191B191905
:102E30001919191919191919191919191919191902
:102E4000191919194159654F40F20000C2F20000EA
:102E50000221817000210170B0BD00BF207840F2D6
:102E60000005C2F2000550B1697941B901382070FE
:102E7000C1B2012000F0AAF9202000F0D5F9607855
:102E8000002808BFB0BD29780229E5D1052894BFE4
:102E9000411EC11F012000F099F9202000F0C4F963
:102EA000607801386070B0BD00F0DAF80020208052
:102EB00040F20000C2F20000012101700320E07026
:102EC000B0BD00BF40F20000C2F20000032101705B
:102ED000E17002218170B0BD0120E07040F200007D
:102EE000C2F200000421017002218170B0BD00BF58
:102EF00040F200010220C2F200010422E0700A70D8
:102F00008870B0BD10B540F27804C2F2000447F2F8
:102F1000000004F14001C0F601001422FDF71AFA86
:102F200094F84000FF284FD094F84100FF284FD07C
:102F300094F84200FF284FD094F84300FF284FD068
:102F400094F84400FF284FD094F84500FF284FD054
:102F500094F84600FF284FD094F84700FF284FD040
:102F600094F84800FF284FD094F84900FF284FD02C
:102F700094F84A00FF284FD094F84B00FF284FD018
:102F800094F84C00FF284FD094F84D00FF284FD004
:102F900094F84E00FF284FD094F84F00FF284FD0F0
:102FA00094F85000FF284FD094F85100FF284FD0DC
:102FB00094F85200FF284FD094F853101420FF29A2
:102FC00008BF1320607110BD0020607110BD00BFEC
:102FD0000120607110BD00BF0220607110BD00BFF4
:102FE0000320607110BD00BF0420607110BD00BFE0
:102FF0000520607110BD00BF0620607110BD00BFCC
:103000000720607110BD00BF0820607110BD00BFB7
:103010000920607110BD00BF0A20607110BD00BFA3
:103020000B20607110BD00BF0C20607110BD00BF8F
:103030000D20607110BD00BF0E20607110BD00BF7B
:103040000F20607110BD00BF1020607110BD00BF67
:103050001120607110BD00BF1220607110BD000012
:103060002DE9F04184B048F68C0040F2CC04C0F663
:103070000C00C2F2000402904FF0640802AA20463D
:103080004E210423CDF80080FDF796FC42F62D1664
:103090004627C0F60D1603AD20464E212A460423CE
:1030A0000396CDF80080FDF787FC013FF4D104B012
:1030B000BDE8F08170B582B03220FDF79DF940F295
:1030C000CC0443F63C06C2F20004C0F60C066425AC
:1030D00001AA20464E21042301960095FDF76CFCC1
:1030E0000520FDF789F901AA20464E210423019607
:1030F0000095FDF761FC0120FDF77EF901AA20464D
:103100004E21042301960095FDF756FC0A20FDF799
:1031100073F942F62C00C0F60C00019001AA20467B
:103120004E2104230095FDF747FC0A20FDF764F9C2
:1031300042F62C00C8F68C00019001AA20464E21D0
:1031400004230095FDF738FC0120FDF755F940F602
:103150000C00C8F68C00019001AA20464E210423E1
:103160000095FDF729FC0120FDF746F940F60C001B
:10317000C1F61C00019001AA20464E2104230095AF
:10318000FDF71AFC0120FDF737F90120FDF734F9AE
:1031900040F60C00C6F66C00019001AA20464E21B4
:1031A00004230095FDF708FC0120FDF725F940F602
:1031B0000C00CCF6CC00019001AA20464E2104233D
:1031C0000095FDF7F9FB02B070BD0000012805D0A5
:1031D000002808BF41F0800102E000BF41F0C001BB
:1031E00080B582B021F00F00090100F10C02083017
:1031F0008DF8050001F10C008DF8060001F10800C2
:103200008DF8070040F2CC008DF804204FF0640CDC
:10321000C2F2000001AA4E210423CDF800C0FDF740
:10322000CBFB02B080BD000080B582B000F0F001A1
:10323000000101F10D0209318DF8051000F10D01B9
:1032400009308DF8070040F2CC008DF804208DF88D
:1032500006104FF0640CC2F2000001AA4E210423B4
:10326000CDF800C0FDF7A8FB02B080BDF0B583B07B
:10327000017821B340F2CC04461E6427C2F2000458
:1032800002AD00BF21F00F00090100F10D0209306D
:103290008DF8090001F10D008DF80A0001F1090017
:1032A0008DF808208DF80B0020464E212A46042375
:1032B0000097FDF781FBB17801360029E2D103B018
:1032C000F0BD0000B0B540F27805C2F2000505F18E
:1032D000150446F60040C0F6010021460622FDF71F
:1032E00039F800F06BF9FFF78BFDE878022805D07C
:1032F000012807D040B9FFF7A9FA05E0FFF7DEFB88
:1033000002E000BFFFF72AF940F20005C2F2000513
:103310002878032836D8DFE800F0030B072B00BF1E
:10332000BDE8B04000F088BCBDE8B04000F0B6BBDE
:1033300000200121FFF74AFF44F27F00C0F60000A1
:10334000FFF794FF204600F007FB0128687013D0B8
:10335000002818BFB0BD00200121FFF737FF44F25D
:103360009D00C0F60000FFF781FF022009E000BFCA
:10337000BDE8B04000F008BDFFF772FE02206870A3
:1033800004202870B0BD000090B0FDF74BFC002475
:103390000120CDE90B44CDE9094406900A904FF491
:1033A000E0104FF4803102250F9006A8CDE90714F4
:1033B000CDE90D51FDF7C0FD20B1EFF3108072B6DD
:1033C000FEE700BF0F20CDE901054FF48060CDE995
:1033D000040401A802210394FDF7BAFC20B1EFF325
:1033E000108072B6FEE700BF41F21800C4F202007E
:1033F000016840F6004841F0100101600168C4F224
:10340000010801F0100106910699016808F5806530
:1034100041F0200101600168002201F020010691C5
:10342000069901684FF4005741F0040101600168FA
:10343000002401F0040106910699016841F0080199
:10344000016000684FF4005100F0080006900698F3
:103450002846FDF7E9F9A8F58066304641F6106187
:10346000002241F6106AFDF7DFF940464FF4406153
:103470000022FDF7D9F9069706AF4FF001094FF08A
:10348000020B28463946CDE90794CDF824B0FDF764
:10349000B7F830463946CDE906A9CDE9084BFDF726
:1034A000AFF84FF44060CDE9060940463946CDE912
:1034B000084BFDF7A5F848F2F00006A981E81102D3
:1034C00040463946FDF79CF840F2CC00A8F538415B
:1034D000C2F2000048F2A0624FF48043C0F2010241
:1034E00080E81600C0E90343C0E90544C0E9074489
:1034F000FDF7A6F920B1EFF3108072B6FEE700BF2A
:1035000040F2201008F51051C2F200004FF4827210
:103510004FF40073182780E816000A21C0E903441D
:10352000C0E90543C761C0E90844C0E90A41FDF7A5
:10353000DDFE28B1EFF3108072B600BFFEE700BFDA
:1035400046F60004C0F601042046FCF7EFFE40F208
:103550000000C2F20000811D20460622FCF732FF67
:103560006420FCF749FFFEF7D1FBFFF7A3FD002025
:103570000321FFF72BFE0AA0FFF778FE01200121AF
:10358000FFF724FE09A0FFF771FE4FF4FA60FCF785
:1035900033FFFFF765FD00BFFFF794FEFCE700BFB8
:1035A00057454C4C434F4D45000000004E484F4D91
:1035B0002039202D204441434E00000070B540F6D4
:1035C0000044C4F2010420464FF40041FDF726F9FF
:1035D000002818BF70BD00BF20464FF40041FDF722
:1035E0001DF90028F8D0FFF73BFD0020012100263F
:1035F000FFF7ECFD44F26600C0F60000FFF736FE70
:1036000040F27805C2F200056E7100BF20464FF40B
:1036100080610122FDF708F9C820FCF7EDFE204685
:103620004FF480610022FDF7FFF8C820FCF7E4FEAC
:1036300068790130C1B202296871E7D34FF4FA709A
:10364000FCF7DAFE20464FF400610122FDF7ECF8AA
:1036500041F28830FCF7D0FE20464FF40061002292
:103660000024FDF7E1F8FFF7FBFC40F20000C2F296
:1036700000004FF40171018002218170EC7070BD77
:10368000B0B540F60044C4F20104A4F580652846B4
:103690004FF480510022FDF7C7F828464FF400612F
:1036A0000122FDF7C1F828464FF480610122FDF7A1
:1036B000BBF828464FF400710122FDF7B5F820460B
:1036C0008021FDF7ABF8002800F0BC8020464021A7
:1036D000FDF7A4F8002800F0BD8020462021FDF76A
:1036E0009DF8002800F0BE8020461021FDF796F8D6
:1036F000002800F0BF8028464FF480510122FDF7DA
:1037000093F828464FF400610022FDF78DF8284613
:103710004FF480610122FDF787F828464FF40071CD
:103720000122FDF781F820468021FDF777F8002877
:1037300000F0A88020464021FDF770F8002800F036
:10374000A98020462021FDF769F8002800F0AA8012
:1037500020461021FDF762F8002800F0AD802846D1
:103760004FF480510122FDF75FF828464FF40061C5
:103770000122FDF759F828464FF480610022FDF739
:1037800053F828464FF400710122FDF74DF820460A
:103790008021FDF743F8002800F098802046402162
:1037A000FDF73CF8002800F09B8020462021FDF723
:1037B00035F8002800F09E8020461021FDF72EF8F5
:1037C000002800F0A18028464FF480510122FDF727
:1037D0002BF828464FF400610122FDF725F8284612
:1037E0004FF480610122FDF71FF828464FF4007165
:1037F0000022FDF719F820468021FDF70FF8002878
:1038000000F08C8020464021FDF708F8002800F0E9
:103810008F8020462021FDF701F8002800F09280DB
:1038200020461021FCF7FAFF00281CBF0020B0BD85
:1038300020461021FCF7F2FF00284FF04400F7D09B
:1038400088E000BF20468021FCF7E8FF0028F9D07F
:103850003120B0BD20464021FCF7E0FF0028F9D020
:103860003420B0BD20462021FCF7D8FF0028F9D035
:103870003720B0BD20461021FCF7D0FF0028F9D03A
:103880002A20B0BD20468021FCF7C8FF0028F9D0CF
:103890003220B0BD20464021FCF7C0FF0028F9D0FF
:1038A0003520B0BD20462021FCF7B8FF00284FF09E
:1038B0003800F7D04EE000BF20461021FCF7AEFFE5
:1038C00000284FF03000F7D044E000BF20468021B0
:1038D000FCF7A4FF00284FF03300F7D03AE000BF18
:1038E00020464021FCF79AFF00284FF03600F7D021
:1038F00030E000BF20462021FCF790FF00284FF069
:103900003900F7D026E000BF20461021FCF786FFE3
:1039100000284FF02300F7D01CE000BF2046802194
:10392000FCF77CFF00284FF04100F7D012E000BF09
:1039300020464021FCF772FF00284FF04200F7D0EC
:1039400008E000BF20462021FCF768FF00284FF068
:103950004300F7D0B0BD0000F0B581B040F278066A
:10396000C2F200060446307940F200053038C2F257
:10397000000509284FF00000687106D8317839B188
:1039800005290AD9C8B206281BD0A87801B0F0BD15
:10399000FFF766FB31780529F4D830797218D076B4
:1039A0000120FFF713FC44F27400C0F60000FFF79B
:1039B0005DFC3078411C002031703071C8B206289F
:1039C000E3D100273770FFF74BFB77712078F17E4A
:1039D000884225D1012070716078317F88421FD1E3
:1039E00002207071A078717F884219D10320707114
:1039F000E078B17F884213D1042070712079F17F83
:103A000088420DD105207071607996F820108842A7
:103A100006D1062070710020A870A87801B0F0BD12
:103A200040F600440120C4F20104A870FFF718FB1F
:103A300000200021FFF7CAFB14A0FFF717FC7771E5
:103A400020464FF480610122FCF7EEFEC820FCF70F
:103A5000D3FC20464FF480610022FCF7E5FEC8202D
:103A6000FCF7CAFC70790130C1B203297071E7D349
:103A70004FF4FA70FCF7C0FC40F6B830FCF7BCFC21
:103A8000FFF7EEFAA87801B0F0BD00BF57524F4ED5
:103A9000472050415353574F52442100B0B540F294
:103AA0007804C2F200042079A0F13001092900F263
:103AB000AE80617805291DD8621882F822000120A5
:103AC000FFF784FB44F27400C0F60000FFF7CEFB62
:103AD00060780130C1B2062960701BD1FFF7C0FACF
:103AE00000200121FFF772FB49A0FFF7BFFB6078C0
:103AF00010E000BF0639621882F829000120FFF7A4
:103B000065FB44F27400C0F60000FFF7AFFB60787D
:103B100001306070C0B200250C28257118BFB0BDFF
:103B2000FFF79EFA94F8220094F8291065708842F5
:103B30004BD194F8230094F82A1088423CD194F891
:103B4000240094F82B10884238D194F8250094F87A
:103B50002C10884234D194F8260094F82D10884215
:103B600030D194F8270094F82E1088422CD1D4F844
:103B7000220046F6004544F8150FB4F81100C0F6CF
:103B80000105A080002004F8100C2846FCF7CEFBAD
:103B9000284621460622FCF715FC6420FCF72CFC85
:103BA000284621460622FCF7D5FB44F2D604C0F68F
:103BB000000402250CE000BF012506E0022504E018
:103BC000032502E0042500E00525657114A4002505
:103BD000FFF746FA00200421FFF7F8FA14A0FFF7D8
:103BE00045FB01202946FFF7F1FA2046FFF73EFB8F
:103BF00040F20004C2F200040220A0704FF4FA6008
:103C0000FCF7FAFBFFF72CFA4FF400702080B0BDF0
:103C1000434F4E4649524D20504153533A00000005
:103C2000554E5355434345535346554C4C5900004C
:103C30004348414E47450000F0B581B000200021C7
:103C4000FFF7C4FA44F28D00C0F60000FFF70EFB48
:103C500040F27806C2F2000606F11500FFF77CFE7E
:103C600040F20005C2F20005012868704AD0002821
:103C700040F0808040F60044C4F20104FFF7F0F900
:103C8000002001210027FFF7A1FA44F26600C0F6E8
:103C90000000FFF7EBFA777120464FF480610122B4
:103CA000FCF7C2FDC820FCF7A7FB20464FF480615B
:103CB0000022FCF7B9FDC820FCF79EFB70790130AB
:103CC000C1B202297071E7D34FF4FA70FCF794FB8C
:103CD00020464FF400610122FCF7A6FD41F2883036
:103CE000FCF78AFB20464FF4006100220024FCF719
:103CF0009BFDFFF7B5F9042028700220B470A8706E
:103D000001B0F0BDB1780220A870481CC1B20329EF
:103D1000B0702DD140F600440027C4F20104B77002
:103D2000FFF79EF900200021FFF750FA12A0FFF7DD
:103D30009DFA777120464FF480610122FCF774FDF3
:103D4000C820FCF759FB20464FF480610022FCF7A5
:103D50006BFDC820FCF750FB70790130C1B20B2914
:103D60007071E7D34FF4FA70FCF746FBFFF778F970
:103D70000020287001B0F0BD58585858585858586D
:103D800058585858585858002DE9F047002000213D
:103D9000FFF71CFA81A0FFF769FA40F20009C2F2AE
:103DA000000909F1060A5046FFF7D6FD012889F8F7
:103DB00001007BD0002818BFBDE8F08740F6004422
:103DC00046F6004800200021C4F20104C0F60108B4
:103DD000FFF7FCF97EA0FFF749FA01200321FFF766
:103DE000F5F97FA0FFF742FA4FF47A70FCF704FB75
:103DF00040F278057DA782A6C2F20005FFF700F821
:103E000000200021FFF7E2F93846FFF72FFA0120E2
:103E10000021FFF7DBF93046FFF728FA2879303820
:103E20000928EBD8FFF71CF9287932286CD0312803
:103E3000E4D1002000210026FFF7C8F944F2760003
:103E4000C0F60000FFF712FA01200021FFF7BEF9CB
:103E500076A0FFF70BFA40F6B830FCF7CDFA4046F3
:103E6000FCF764FA404651460622FCF7ABFA6420A0
:103E7000FCF7C2FA6E7100BF20464FF48061012248
:103E8000FCF7D2FCC820FCF7B7FA20464FF480615B
:103E90000022FCF7C9FCC820FCF7AEFA68790130B3
:103EA000C1B281426871E7D166E000BF40F2780498
:103EB000C2F20004A178022089F80200481CC1B2B5
:103EC0000329A0701AD10025A570FFF7C9F80020BA
:103ED0000021FFF77BF936A0FFF7C8F90120002188
:103EE000FFF774F936A0FFF7C1F94DF2C040C0F2F8
:103EF0000100FCF781FAA570FFF7B2F8032089F8FA
:103F00000000BDE8F08700BF002000210026FFF779
:103F10005DF93FA0FFF7AAF901200021FFF756F94C
:103F20003EA0FFF7A3F94046FCF700FA4046514691
:103F30000622FCF747FA08F58060FCF7F7F940F62F
:103F4000B830FCF759FA6E7120464FF480610122B7
:103F5000FCF76AFCC820FCF74FFA20464FF480615A
:103F60000022FCF761FCC820FCF746FA68790130B2
:103F7000C1B281426871E7D14FF4FA70FCF73CFAA4
:103F8000FFF76EF8002068804FF40170A9F8000078
:103F9000022089F80200BDE8F08700BF504153536A
:103FA000574F5244204D41535445523A00000000AF
:103FB00057524F4E4720332054494D45530000007F
:103FC000574149542032204D494E55544553000025
:103FD00050415353574F5244204D41535445520082
:103FE000495320434F52524543540000313A524501
:103FF0005345542050415353574F52440000000042
:10400000323A52455345542053595354454D0000BC
:1040100043484F305345203200000000524553457D
:10402000542053595354454D000000005245534508
:10403000542050415353574F524400000000000099
:104040000000000001020304060708090000000048
:1040500001020304010202030405060708090A0B12
:104060000C0D0E0F1010444F4F52204953204F504B
:10407000454E21002A0043484F3053452031004F20
:104080004C442050415353574F52443A00454E54EC
:1040900045522050415353574F52443A004E4557D2
:1040A0002050415353574F52443A005448452043FF
:1040B000415244004F4E204E464320524541444514
:1040C000520054484520434152442753004E4F204C
:1040D0004558495354005355434345535346554C53
:1040E0004C59004D454D4F525920495320454D5094
:1040F000545900001841000800000020180000007A
:10410000280100083041000818000020880700003E
:1041100044010008000000000402020202013131E3
:104120003131313101000000100000000024F400A2
:04000005080000ED02
:00000001FF
