:020000040800F2
:10000000900B002091010008812600082D1900089E
:100010007D26000841040008792700080000000040
:100020000000000000000000000000006D27000834
:10003000450400080000000085260008712700081C
:10004000AB010008AB010008AB010008AB010008E0
:10005000AB010008AB010008AB010008AB010008D0
:10006000AB010008AB010008AB010008AB010008C0
:10007000AB010008AB010008AB010008AB010008B0
:10008000AB010008AB010008AB010008AB010008A0
:10009000AB010008AB010008AB010008AB01000890
:1000A000AB010008AB010008AB010008AB01000880
:1000B000AB010008AB010008AB010008AB01000870
:1000C000AB010008AB010008AB010008AB01000860
:1000D000AB010008AB010008AB010008AB01000850
:1000E000AB010008AB010008AB01000800F002F80A
:1000F00000F03FF80AA090E8000C82448344AAF183
:100100000107DA4501D100F034F8AFF2090EBAE880
:100110000F0013F0010F18BFFB1A43F0010318473B
:100120007848000098480000103A24BF78C878C189
:10013000FAD8520724BF30C830C144BF04680C60ED
:10014000704700000023002400250026103A28BF35
:1001500078C1FBD8520728BF30C148BF0B60704739
:10016000642900F07D80002070471FB51FBD10B5C9
:1001700010BD00F02AF91146FFF7F7FF03F0E2F98E
:1001800000F048F903B4FFF7F2FF03BC00F050F9A8
:100190000948804709480047FEE7FEE7FEE7FEE71B
:1001A000FEE7FEE7FEE7FEE7FEE7FEE70448054957
:1001B000054A064B7047000075270008ED0000084F
:1001C00090050020900B0020900700209007002051
:1001D0000FB41CB5074B06AA7B44694600900598EE
:1001E00000F0DBF80020694600F0EAF81CBC5DF87E
:1001F00014FB0000E50100002DE9F0410E46044625
:10020000002020622046E168884730B3252805D0C9
:10021000D4E901219047206A401CF2E7E1682046BA
:1002200000278847050018D0A5F14100192802D8F9
:1002300020354FF400673246294620462760FFF7F5
:100240008FFF40B1012804D0F61D26F007060836BE
:10025000D8E7361DD6E72846DAE7206ABDE8F08100
:100260002DE9F0410646002410687529314616A58F
:1002700010D0AFF30080002802DA404213A507E057
:1002800031688A0701D512A502E0490704D511A5F6
:10029000012401E0AFF3008000210A2206F12407C7
:1002A00009E0B0FBF2FCB0FBF2F302FB1C003030C3
:1002B00078541846491C0028F3D123462A46304674
:1002C000BDE8F04100F00BB8000000002D00000078
:1002D0002B000000200000007047704770472DE998
:1002E000F0470D4699469246044600F124080168FD
:1002F000880604D5E06921F01001216000E00120AA
:10030000A84201DD471B00E00027A1697A1902EB32
:100310000900081AA0612078C00602D42046AFF375
:100320000080002608E0D4E901211AF80600904771
:10033000206A401C761C20624E45F4DB2078C00603
:100340000AD52046AFF3008006E0D4E90121302031
:100350009047206A401C2062381EA7F10107F4DC98
:1003600007E0D4E9012118F805009047206A401CF5
:100370002062281EA5F10105F3DC2046AFF30080C2
:100380002078000602D50220BDE8F0870120FBE7B7
:1003900001694A1C02610878704700B58FB0CDE949
:1003A00001310021059105497944CDE90310114639
:1003B0006846FFF721FF0FB000BD0000E5FFFFFF1B
:1003C0000A6802F8010B0A607047754600F02CF8C5
:1003D000AE4605006946534620F00700854618B032
:1003E00020B5FFF7E3FEBDE820404FF000064FF0D8
:1003F00000074FF000084FF0000BAC46ACE8C00916
:10040000ACE8C009ACE8C009ACE8C00921F00701BC
:100410008D46704710B50446AFF300802046BDE816
:100420001040FFF7AFBE00000048704718000020E2
:1004300001491820ABBEFEE726000200704700000D
:10044000FEE700007047000070B542F20C0604465B
:10045000C4F2020600F0FEFA3168C90718D130680C
:10046000800644BF202030603068C00607D4306961
:10047000C00704D1306840075CBF002070BD306801
:10048000C00623D40020316849072BD434E000BFD4
:10049000002C47D00546601C0ED13068C007DED066
:1004A0003068C0071CBF30685FEAC070D7D03068C2
:1004B000C007F2D1D3E700BF00F0CCFA401BA04246
:1004C00030D83068C007F7D1C9E700BF40F26850A4
:1004D000C2F20000C16941F00201C161102031681F
:1004E000490709D540F26851C2F20001CA6940F0DB
:1004F000040042F00102CA613169C90702D13060CB
:10050000012070BD40F26851C2F20001CA6942F098
:100510000402CA61316921F00101316130600120BA
:1005200070BD00BF032070BD10B586B0044600F05A
:100530005FF901200590CDE903040020029002A894
:1005400001A900F07DF800F0F3F806B010BD00003E
:1005500070B5A2B301324FF0FF3303EB5203032B0C
:10056000C2F3410C02D2002316E000BF520822F071
:10057000030E0022002300BF845A85188C526C8819
:100580008E187480AC880433B480EC889E4502F1E8
:100590000802F480F0D11144BCF1000F08BF70BD17
:1005A00030F81320BCF1010F0A8008D000EB4300A3
:1005B0004288BCF1020F4A801CBF8088888070BDD1
:1005C0000088704770B516460D46044600F010F9D5
:1005D0006EB1701C4608023D35F8022F01202146FD
:1005E000002300F0AFF8013E04F10204F4D1BDE8AD
:1005F000704000F09DB80000B0B50C46054600F014
:10060000F7F8E31701202946224600F09BF8BDE8E1
:10061000B04000F08DB80000B0B5044600F01AFA02
:10062000054640F20C00C2F200000078611C18BFC1
:10063000044400BF00F00EFA401BA042FAD3B0BD44
:100640002DE9F04381B040F26856C2F20006327ED6
:10065000012A03D1022001B0BDE8F0830546012044
:100660002C6830764CF250308846FFF7EDFE022CB5
:100670001CD100284ED1002042F21004F061C4F2D7
:100680000204206840F004002060206840F0400030
:1006900020604CF25030FFF7D7FE216821F00401B2
:1006A00021600021317601B0BDE8F08390BB4FF0AE
:1006B000FF30C8F80000D5E9027007EB80208742C0
:1006C00028D242F21004C4F202044FF0000900BF25
:1006D000C6F81C90206840F0020020606760206827
:1006E00040F0400020604CF25030FFF7ADFE216832
:1006F00021F00201216098B9D5E9020107F5806770
:1007000000EB81208742E3D300200021317601B045
:10071000BDE8F08301200021317601B0BDE8F0830F
:10072000C8F800700021317601B0BDE8F083000008
:1007300042F21001C4F20201086840F08002002079
:100740000A6070472DE9F04F81B040F26859C2F25B
:100750000009924699F81820012A03D1022001B01D
:10076000BDE8F08F8046012089F818004CF2503027
:100770009B460E46FFF768FEA0BB404642F21007BC
:10078000B8F1020F18BF0420C4F20207B8F1010F3C
:1007900008BF404645424FF000080024C4F1200144
:1007A000C9F81C802AFA04F00BFA01F13A680843F0
:1007B000B4F1200158BF2BFA01F042F00101396079
:1007C00026F8020B4CF25030FFF73EFE3968013537
:1007D00021F0010248F100013A6018B9002904F142
:1007E0001004DBD0002189F8181001B0BDE8F08FAB
:1007F00042F20400C4F20200C16809065CBF002096
:10080000704740F22311C4F26751016048F6AB1102
:10081000CCF6EF510160C068C0B2C009704700005B
:100820002DE9F04F82B00E68002E00F0038141F2F6
:100830000042C4F20102042340F2004E904208BF7D
:1008400003234FF6FF7CC4F2010E00930024012322
:10085000C1F2100C4FF0000A4FF0000949E000BF50
:10086000012704F00C030F229A402BEA020207FA38
:1008700003F34FEA9A051A4346F82520D1F804B04D
:1008800040F20C455FEACB22DEF8082054BF22EA92
:10089000080242EA0802C4F20105CEF808202A68DC
:1008A0005FEA8B2354BF22EA080242EA08022A6068
:1008B0005FEA8B33DEF8042054BF22EA080242EAE2
:1008C00008025FEACB33CEF80420DEF800204FF0B8
:1008D000010354BF22EA080242EA0802CEF80020CF
:1008E0000E680AF1010A36FA0AF204F1040400F073
:1008F000A18003FA0AF816EA080FF1D04E6866459F
:1009000012DC122E56D8DFE806F0350B4549555556
:1009100055555555555555555555554D510000BFD3
:10092000D1F80C9046E000BF4FF6FF72C1F22102F1
:1009300096420FDC0022C1F2110296421AD0002228
:10094000C1F21202964215D00022C1F22102964253
:1009500010D02FE00022C1F2220296420AD00022DB
:10096000C1F23102964205D00022C1F23202964213
:1009700020D100BF8A684AB1012A14BFC0F8148090
:10098000C0F810804FF0080914E000BF4FF00409D0
:1009900010E000BFCA6802F108090BE04FF000093F
:1009A00008E000BFCA6802F1040903E0CA6802F166
:1009B0000C0900BF22460646BAF1080F24BF203AB0
:1009C000043637680F25954027EA050509FA02F233
:1009D0002A433260CA79D2067FF582AF41F218030A
:1009E000C4F202031A68AEF57E7642F001021A6084
:1009F0001A6802F001020192019A2AF0030256F8E5
:100A000002B040F60002C4F20102904210D040F65B
:100A10000042C4F2010290423FF422AF41F20002D0
:100A2000C4F20102009F904208BF022719E700BFED
:100A3000002716E702B0BDE8F08F0000806808408C
:100A400018BF012070470000002A08BF0904016197
:100A50007047000040F28850C2F200000068704702
:100A600070B5B8B3044690F83D0028B9002084F86A
:100A70003C00204600F09AF9242084F83D002068CC
:100A8000016821F001010160016841F40041016049
:100A9000016821F40041016000F04AFB48F2804106
:100AA000C0F21E0140F60013D4F804E088424FF073
:100AB0000001C0F23D0348F2A16C4FF0000238BFC4
:100AC00001219842C0F2010C38BF0122E64538BF2F
:100AD0000A460AB1012070BD4DF68361C4F21B3194
:100AE000A0FB01122168950C4B684FF4967623F019
:100AF0003F0343EA9243754344F6D3564B60C1F239
:100B000062060B6AA5FB0656B50923F03F03E645CE
:100B100038BF950C6A1C1A430A62CA6948F2A0667B
:100B20004CF6FF73C0F20106B64522EA03020BD869
:100B300001384FEA4E03B0FBF3F001306FF31F3082
:100B4000042898BF04201EE0A368013863B119236C
:100B50000EFB03F3B0FBF3F001306FF31F3078B1FD
:100B600000F5804008E000BF0EEB4E03B0FBF3F051
:100B700001306FF31F3028B100F5004003E000BFE3
:100B8000012000E001201043C8610868D4E9072370
:100B900020F0C000104318430860886848F2FF3214
:100BA00004F10C0690434CCE18431043A5698860AD
:100BB000C86820F0FF0030432843C860086840F050
:100BC0000100086000202021206484F83D1020638B
:100BD00084F83E0070BD00002DE9F04383B01E464E
:100BE000174689460446FFF735FF94F83D10202943
:100BF00020D10546206800BF8169890716D5FFF717
:100C000029FF411B20681A29F6D381698907F3D58A
:100C100000202021206384F83D1084F83E00216CE0
:100C200041F02001216484F83C0003E094F83C107A
:100C3000012903D1022003B0BDE8F083012184F82B
:100C40003C100168C90703D1016841F0010101604E
:100C5000016840F2020821F400610160212184F85A
:100C60003D10102184F83E100021216467626685E2
:100C7000618DC0F201082185A8F10211E162E16AEB
:100C80000A9E11F5803F18BF01291DD1016841F46A
:100C90008071016020464FF001110022334600951B
:100CA00000F0A6FE50B120680068C00544BF4FF4B4
:100CB00000702064012003B0BDE8F0832069B0F526
:100CC000804F07D1FE2015E00829DFD0216B1229C3
:100CD000DCD0DFE7062000EAD9102168F030086197
:100CE00008F10601204632462B4600F06BFF002833
:100CF000E0D1FF20216800EA090008612046414652
:100D000032462B4600F05EFF0028D3D1002002902F
:100D100020684169029180690290029806E000BF54
:100D2000204631462A4600F003FE18BB208D68B3EA
:100D3000204631462A4600F0B5FFD8B9606A2168DE
:100D4000024612F8013B0B616262628D013A6285D4
:100D5000228D531E23854F697F07E1D51B04DFD009
:100D6000437802300B616062608D01386085901EAF
:100D70002085D5E7206C04289CD12068016841F4C7
:100D800000710160012003B0BDE8F08320680168B4
:100D900041F400710160202084F83D00002084F8B7
:100DA0003E0084F83C0003B0BDE8F08310B586B087
:100DB000006845F20042C4F2000200219042049112
:100DC00002D006B010BD00BF41F21804C4F2020404
:100DD000206802A940F008002060206800F00800A8
:100DE000019001984FF4407002901220039003206C
:100DF000059040F60040C4F20100FFF711FD042009
:100E0000C4F20100016841F0E06141F002010160BB
:100E1000606840F400106060606800F400100190A9
:100E2000019806B010BD000040F20C0040F288515D
:100E3000C2F20000C2F2000100780A6810440860A3
:100E40007047000080B542F20000C4F20200016861
:100E500041F010010160032000F07AF80F2000F04B
:100E600005F800F027F8002080BD000070B540F2C2
:100E70000C06C2F2000640F214013278C2F2000100
:100E80004FF47A730968B3FBF2F20446B1FBF2F156
:100E9000084600F035FD0F2C4FF0010508D838B991
:100EA0004FF0FF3021460022002500F025F8746045
:100EB000284670BD82B041F21800C4F202000168F9
:100EC000022241F001010160016801F0010101917C
:100ED0000199416841F080514160406800F08050C4
:100EE000009000980420C4F20100016862F31A61C6
:100EF000016002B07047000010B54EF60C5CCEF2F7
:100F0000000CDCF80030C3F3022E8EF00704042C32
:100F100028BF0424BEF103034FF0FF3E0EFA04F491
:100F200038BF0023A14399400EFA03F39A431143BB
:100F300000F00F0200F160430901043A03F5644335
:100F40006244002848BF02F10C03197010BD000074
:100F50004EF60C51CEF200010A684FF6FF031A401C
:100F600060F30A2242F0806040F0FD700860704734
:100F70002DE9F04381B0002800F0858042F200089E
:100F8000C4F202080446D8F800000D4600F007003D
:100F900088420CD2D8F8000020F007002843C8F897
:100FA0000000D8F8000000F00700A8426BD12068CC
:100FB00041F204098107C4F2020917D5410705D59A
:100FC000D9F8001041F4E061C9F80010010705D517
:100FD000D9F8001041F46051C9F80010D9F8001098
:100FE000A26821F0F0011143C9F80010C00741D1F7
:100FF000D8F8000000F00700A8420CD9D8F800008B
:1010000020F007002843C8F80000D8F8000000F0DE
:101010000700A84237D12068410707D5D9F800104A
:10102000E26821F4E0611143C9F80010000708D517
:10103000D9F80000216920F4605040EAC100C9F8E5
:101040000000D9F8002002F00C00082841F200202E
:10105000C0F27A0050D144F69E03C2F38341C0F639
:101060000003595CD2033BD440F60010C0F23D00AF
:10107000484341E0606802280AD001282AD159F883
:10108000041C890308D4012001B0BDE8F08300BF2F
:1010900059F8041C8901F6D5D9F8001021F0030194
:1010A0000843C9F80000FFF7D5FC064641F288372F
:1010B000D9F80000616800F00C00B0EB810F97D008
:1010C000FFF7C8FC801BB842F2D9032001B0BDE88D
:1010D000F08300BF59F8041C8907D4D5DCE700BFB2
:1010E000D9F8002044F69C03C2F34042C0F6000346
:1010F0009A5C4843B0FBF2F0D9F8001044F6840241
:10110000C1F30311C0F60002515C40F2140220FA50
:1011100001F140F21000C2F200000068C2F20002C9
:101120001160FFF7A3FE002001B0BDE8F0830000CE
:1011300040F2140041F20401C2F20000C4F20201C4
:101140000068096844F69402C1F30221C0F6000267
:10115000515CC840704700002DE9F04182B0002882
:1011600068D00446007841F20006C007C4F20206C7
:1011700025D0706800F00C0004281BD0706800F0C7
:101180000C00082802D17068C00313D460680028DE
:1011900000F06881B0F5A02F00F07C81B0F5803FB1
:1011A00000F07C81306820F480303060306820F4BA
:1011B000802076E13068800301D56068D0B3207864
:1011C000800718D5706810F00C0F07D0706800F019
:1011D0000C0008286ED17068C0036BD4306880079B
:1011E00002D52069012825D13068616920F0F80016
:1011F00040EAC1003060207800071FD42078400703
:1012000032D4E56995B1706800F00C00082840F010
:101210008F80012D0ED07068216A00F480328A42DE
:1012200008D1616A00F47010884203D1002002B036
:10123000BDE8F081012002B0BDE8F081A06900287E
:1012400062D00020C4F242200121C0F88014FFF7D0
:1012500001FC0546706A800700F18C80FFF7FAFBFD
:10126000401B0228F6D92AE1F06910F0805808D115
:10127000F06940F08050F061F06900F0805000901B
:10128000009847F20007C4F200073868C00529D467
:10129000386840F480703860FFF7DCFB054600BF1B
:1012A0003868C0051ED4FFF7D5FB401B6428F7D96A
:1012B00005E100BF2069002840F20000C4F242208E
:1012C00000F0828001210160FFF7C4FB054600BFEA
:1012D000306880073FF588AFFFF7BCFB401B022852
:1012E000F6D9ECE0E068002800F08080052800F0E6
:1012F0009780012800F09880306A20F00100306269
:10130000306A20F0040092E00020C4F24220002164
:10131000C0F88014FFF79EFB054600BF706A800787
:101320007FF56CAFFFF796FB401B0228F6D9C6E0AD
:101330000027C4F2422700203866FFF78BFB022DFE
:1013400005460BD13068800140F1BE80FFF782FB7B
:10135000401B02284FF00300F4D968E73068800191
:101360007FF564AFFFF776FB401B02284FF00300C8
:10137000F4D95CE740F21400C2F20000006844F6C1
:10138000D351C1F26201A0FB0101480A019000BFE4
:1013900000BF0198411E002801913FF42FAF00BF0C
:1013A0000198411E002801913FF428AF00BF019829
:1013B000411E002801913FF421AF00BF0198411E5A
:1013C00000280191E4D119E700210160FFF742FBF9
:1013D000054600BF306880077FF50DAFFFF73AFB89
:1013E000401B02284FF00300F4D920E7306A20F0B8
:1013F00001003062306A20F004003062FFF72AFBFF
:10140000054641F2883700BF306A800720D5FFF7D4
:1014100021FB401BB8424FF00300F5D907E700BF9E
:10142000306A40F004003062306A40F001003062FF
:10143000FFF710FB054641F2883700BF306A80078E
:1014400006D4FFF707FB401BB842F7D937E000BFCF
:10145000B8F1000F7FF4D5AEF06920F08050F06154
:10146000CFE600BF306820F480303060306820F470
:1014700080203060FFF7EEFA054600BF3068800339
:101480007FF59DAEFFF7E6FA401B64284FF003009E
:10149000F4D9CCE6306840F480203060306840F405
:1014A00080303060FFF7D6FA054600BF3068800311
:1014B0003FF585AEFFF7CEFA401B6428F6D903202E
:1014C00002B0BDE8F08100BF206AB0F5803F05D1D1
:1014D0007168A26821F40031114371607168626A19
:1014E00021F4741111430843706001203866FFF73E
:1014F000B1FA0446306880013FF598AEFFF7AAFACA
:10150000001B02284FF00300F4D990E670B538B103
:101510000446406A30B10020206104F1140007E065
:10152000012070BD6068B0F5827F03D004F11C001B
:10153000002101600026A66294F8510020B92046DF
:1015400084F8506000F038F8022084F8510094E8E4
:10155000071001F48271036802F4044223F040038F
:101560000360236911440CF40062114403F0020289
:101570006369114403F00102A369E569114403F4AE
:101580000072114405F03802256A114405F080020A
:10159000A56A114305F4005211430160042101EAD8
:1015A00013414160C16921F40061C1610120666598
:1015B00084F85100304670BD70B586B040F6000426
:1015C000C4F20104006804F5205100268842049604
:1015D00002D006B070BD00BF41F21800C4F2020094
:1015E000016802AD41F480510160016801F480514D
:1015F00001910199016841F00401016000682946E8
:1016000000F0040001900198A020029002200390B5
:10161000032005902046FFF703F94020CDE902069C
:10162000204629460496FFF7FBF806B070BD00007F
:101630002DE9F04381B0044690F85000012803D111
:10164000022001B0BDE8F08301201E4615460F467A
:1016500084F85000FFF7FEF994F8511081460129F3
:1016600012D06068B0F5827F40F0A480A0680028A6
:101670004FF0020008BF042906D0002184F8501062
:1016800001B0BDE8F08300BF002F4FF0010018BF8C
:10169000002DF2D0002EF0D094F851000021042843
:1016A0001CBF052084F851006165A563E687A68705
:1016B0002763E6862068A68621646164016849067E
:1016C00003D4016841F0400101606168731EE26863
:1016D000B1FA81F1B3FA83F3DDF8208049095B099F
:1016E000B2F5006F41EA03016CD131B137F8021B4A
:1016F000C1602763E08E0138E086012518F1010002
:1017000031D101E0FFF7A6F9E08E18B9E08F00288B
:1017100000F0C0802068816889070CD5E18E51B146
:10172000012D08D1216B002531F8022BC260216305
:10173000E18E0139E1868168C907E3D0E18F002994
:10174000E0D0C068A16B012521F8020BA163E08FF6
:101750000138E087D6E700BFFFF77CF9A0EB09006E
:10176000404580F0AB80E08E18B9E08F002800F093
:1017700091802068816889070CD5E18E51B1012DD7
:1017800008D1216B002531F8022BC2602163E18E64
:101790000139E1868168C907DED0E18F0029DBD0FD
:1017A000C068A16B012521F8020BA163E08F01380D
:1017B000E087D1E70220002184F8501001B0BDE895
:1017C000F08300BF39B139780173206B0130206399
:1017D000E08E0138E086012518F1010032D101E0E8
:1017E000FFF738F9E08E10B9E08F002852D020685A
:1017F000816889070ED5E18E61B1012D0AD1216B77
:10180000002509780173216B206801312163E18E85
:101810000139E1868168C907E2D0E18F0029DFD074
:10182000C068A16B01250870A06B0130A063E08F38
:101830000138E087D4E700BFFFF70CF9A0EB0900FF
:1018400040453BD2E08E08B9E08F18B3206881682C
:1018500089070ED5E18E61B1012D0AD1216B0025DA
:1018600009780173216B206801312163E18E013910
:10187000E1868168C907DFD0E18F0029DCD0C0682C
:10188000A16B01250870A06B0130A063E08F0138C7
:10189000E087D1E72046802142464B4600F0F4FE27
:1018A000B0B1606D40F020006065202060650120CF
:1018B000002184F8501001B0BDE8F083012084F8C5
:1018C00051000320002184F8501001B0BDE8F083DE
:1018D000A06838B9002000902068C1680091806835
:1018E00000900098606D00284FF0010004BF84F85C
:1018F00051000020002184F8501001B0BDE8F083B1
:10190000411E0020B0EB116F1CBF012070474EF24A
:101910001002CEF2000251604EF62351CEF20001C9
:10192000F0230B700721906011607047FEE7000004
:1019300070B50368044653F8140F400711D40E46DF
:10194000481C29D086BB00BF1868400527D4FFF784
:1019500081F8236853F8140F400739D518684007F9
:10196000F2D5002070BD00BF18684007F9D4186890
:10197000400514D418684007F3D4186840050ED405
:1019800018684007EDD41868400508D41868400767
:101990004FF0000048BF70BD18684005E4D56FF4F3
:1019A00080601860042014E0154603E053F8140F1B
:1019B0004007D6D418684005F1D4FFF74BF8401B18
:1019C0002368B042F2D958694007EFD4202000E0E4
:1019D000202000212022216384F83D2084F83E103D
:1019E000226C10432064012084F83C1070BD00007C
:1019F0002DE9F041054600681E46144601F47F02B9
:101A000001338FB242D0DDF81880B2F5803F40F04C
:101A1000878040693840C01BB0FA80F04009A0427E
:101A200040F0C8804EB924E040693840C01BB0FA8D
:101A300080F04009A04240F0BD80FFF70BF8A0EB1A
:101A400008012868B142EFD941693940C91BB1FA90
:101A500081F14909A142E7D19BE000BF40693840CC
:101A6000C01BB0FA80F04009A0424FF0000040F0E7
:101A7000A680FEF7EFFF286841693940C91BB1FA1B
:101A800081F14909A142E9D183E000BFB2F5803F6D
:101A900024D100BF41693940C91BB1FA81F149091C
:101AA000A14240F0878041693940C91BB1FA81F1F8
:101AB0004909A14240F07E8041693940C91BB1FA11
:101AC00081F14909A14275D141693940C91BB1FA77
:101AD00081F14909A142DDD06CE000BF8169394044
:101AE000C91BB1FA81F14909A14263D18169394029
:101AF000C91BB1FA81F14909A1425BD18169394021
:101B0000C91BB1FA81F14909A14253D18169394018
:101B1000C91BB1FA81F14909A142DFD04AE000BFF7
:101B200080693840C01BB0FA80F04009A04241D122
:101B300046B923E080693840C01BB0FA80F0400904
:101B4000A0423BD1FEF786FFA0EB08012868B14216
:101B5000F0D981693940C91BB1FA81F14909A14223
:101B6000E8D116E080693840C01BB0FA80F0400927
:101B7000A0424FF0000018BFBDE8F081FEF76AFFF9
:101B8000286881693940C91BB1FA81F14909A1422C
:101B9000E8D100202021286385F83D1085F83E001B
:101BA000296C41F02001296485F83C000120BDE842
:101BB000F08100BF0020BDE8F08100BF0020BDE83B
:101BC000F0810000F0B581B0044600681D4643690D
:101BD0008FB203EA0701B94202D1002001B0F0BD83
:101BE00041691646013201F4806125D0002940D1B7
:101BF000CEB100BFFEF72EFF411B2068B14203D9D2
:101C000041693940B9424BD141693940B942E4D0C8
:101C100041694905EED52CE041693940B942DCD033
:101C20004169490525D4FEF715FF2068416939400F
:101C3000B942F1D0202024E0D9B941693940B942F4
:101C4000CBD04169490514D441693940B942C4D067
:101C5000416949050DD441693940B942BDD0416956
:101C6000490506D441693940B942B6D041694905B0
:101C7000E3D5016841F4007101606FF48061416156
:101C8000042000212022216384F83D2084F83E10A6
:101C9000226C1043206484F83C10012001B0F0BD98
:101CA0002020EEE770B50368044653F8140F0006D1
:101CB00011D40E46481C29D086BB00BF18684005C9
:101CC00027D4FEF7C7FE236853F8140F000639D552
:101CD00018680006F2D5002070BD00BF1868000625
:101CE000F9D41868400514D418680006F3D41868AD
:101CF00040050ED418680006EDD41868400508D4D5
:101D0000186800064FF0000048BF70BD1868400515
:101D1000E4D56FF480601860042014E0154603E0F9
:101D200053F8140F0006D6D418684005F1D4FEF716
:101D300091FE401B2368B042F2D958690006EFD4E7
:101D4000202000E0202000212022216384F83D2073
:101D500084F83E10226C10432064012084F83C106B
:101D600070BD0000F0B583B040F60004C4F2010479
:101D70002046102100220026FEF766FE40F21015D4
:101D8000A820C2F200058DF809000A270DF109010B
:101D900002AA284601230097FFF74AFC0DF10B0128
:101DA0000DF10A02284601238DF80B600097FFF71A
:101DB0003FFC9DF80A50204610210122FEF744FE08
:101DC000A80701D003B0F0BD1420032100F014FADD
:101DD00003B0F0BD2DE9F04184B040F60005C4F237
:101DE000010504462846102100224FF00008FEF7A6
:101DF0002BFE40F210161A20C2F200068DF80D00DC
:101E00000A270DF10D0103AA304601230097FFF7C1
:101E10000FFC0DF10F010DF10E02304601238DF87C
:101E20000F800097FFF704FC284610210122FEF7DF
:101E30000BFE42F2930020800DF10A070C20214690
:101E400002222346009700F033FA18B104B0BDE82F
:101E5000F08100BF20786178A278E3784840504054
:101E600021795840401A18BF0120400004B0BDE855
:101E7000F08100002DE9F04784B040F600080646E6
:101E80008020C4F201088A4640EA460440461021F8
:101E900000224FF00009FEF7D7FD40F21015C2F204
:101EA00000058DF809400A240DF1090102AA28460F
:101EB00001230094FFF7BCFB0DF10B010DF10A02A9
:101EC000284601238DF80B900094FFF7B1FB9DF895
:101ED0000A70404610210122FEF7B6FD7E2000EA7E
:101EE000460640461021002227EA0A07FEF7ACFD0D
:101EF0000DF10D0103AA284601238DF80D60009411
:101F0000FFF796FB0DF10F010DF10E02284601239C
:101F10008DF80F700094FFF78BFB404610210122D3
:101F2000FEF792FD04B0BDE8F0870000F0B583B085
:101F300040F60004C4F201042046102100220027CC
:101F4000FEF782FD40F210150220C2F200058DF866
:101F50000B000A260DF10B010DF10A0228460123A0
:101F60000096FFF765FB0F208DF80B000DF10B01BC
:101F70000DF10A02284601230096FFF759FB20467F
:101F800010210122FEF760FD204610210022FEF7FD
:101F90005BFD54208DF80B000DF10B010DF10A02D1
:101FA000284601230096FFF743FB8D208DF80B0098
:101FB0000DF10B010DF10A02284601230096FFF7EF
:101FC00037FB204610210122FEF73EFD204610215E
:101FD0000022FEF739FD56208DF80B000DF10B01A4
:101FE0000DF10A02284601230096FFF721FB3E204F
:101FF0008DF80B000DF10B010DF10A0228460123AB
:102000000096FFF715FB204610210122FEF71CFD6C
:10201000204610210022FEF717FD5A208DF80B00F4
:102020000DF10B010DF10A02284601230096FFF77E
:10203000FFFA1E208DF80B000DF10B010DF10A02C5
:10204000284601230096FFF7F3FA204610210122CB
:10205000FEF7FAFC204610210022FEF7F5FC58207E
:102060008DF80B000DF10B010DF10A02284601233A
:102070000096FFF7DDFA0DF10B010DF10A0228467B
:1020800001238DF80B700096FFF7D2FA204610213D
:102090000122FEF7D9FC204610210022FEF7D4FCD5
:1020A0004C208DF80B000DF10B010DF10A022846B2
:1020B00001230096FFF7BCFA70208DF80B000DF19C
:1020C0000B010DF10A02284601230096FFF7B0FA32
:1020D000204610210122FEF7B7FC204610210022E5
:1020E000FEF7B2FC2A208DF80B000DF10B010DF16B
:1020F0000A02284601230096FFF79AFA40208DF83D
:102100000B000DF10B010DF10A0228460123009688
:10211000FFF78EFA204610210122FEF795FC20469B
:1021200010210022FEF790FC22208DF80B000DF10B
:102130000B010DF10A02284601230096FFF778FAF9
:102140003D208DF80B000DF10B010DF10A02284620
:1021500001230096FFF76CFA204610210122FEF7BA
:1021600073FCFFF7FFFD03B0F0BD00002DE9F04167
:1021700084B040F60008C4F201080C46054640460B
:1021800010210022FEF760FC40F210171A20C2F264
:1021900000078DF80D000A260DF10D0103AA38463F
:1021A00001230096FFF744FA07208DF80F000DF188
:1021B0000F010DF10E02384601230096FFF738FAA1
:1021C000404610210122FEF73FFC0DF10A070C20CA
:1021D0002146012223462570009700F069F8BDF8DA
:1021E0000A101029014618BF0221002818BF022139
:1021F000084604B0BDE8F0812DE9F04784B040F610
:10220000000806468020C4F201088A4640EA4604D7
:102210004046102100224FF00009FEF715FC40F265
:102220001015C2F200058DF809400A240DF10901CC
:1022300002AA284601230094FFF7FAF90DF10B01D9
:102240000DF10A02284601238DF80B900094FFF748
:10225000EFF99DF80A70404610210122FEF7F4FBC9
:102260007E2000EA460640461021002247EA0A077F
:10227000FEF7EAFB0DF10D0103AA284601238DF8B4
:102280000D600094FFF7D4F90DF10F010DF10E026E
:10229000284601238DF80F700094FFF7C9F94046D6
:1022A00010210122FEF7D0FB04B0BDE8F08700004A
:1022B0002DE9F04F87B017460C288846029304900A
:1022C00006D00E2808D111200590122007E000BF8B
:1022D00031200590772002E001200590002040F693
:1022E0000006C4F20106039000F18005304610217B
:1022F00000224FF00009FEF7A7FB40F2101A04205D
:10230000C2F2000A8DF81B000A240DF11B010DF129
:102310001A02504601230094FFF78AF90DF11B01C0
:102320000DF11A02504601238DF81B500094FFF75F
:102330007FF9304610210122FEF786FB0420802120
:10234000FFF798FD0A208021FFF756FF3046102145
:102350000022FEF779FB02208DF81B000DF11B0116
:102360000DF11A02504601230094FFF761F90DF1B7
:102370001B010DF11A02504601238DF81B900094A9
:10238000FFF756F9304610210122FEF75DFB67B3D7
:1023900040F2101AA8F10105C2F2000A0DF11B0962
:1023A0000DF11A0815F801BF3046102100220A2449
:1023B000FEF74AFB12208DF81B0050464946424664
:1023C00001230094FFF734F90A2450464946424657
:1023D00001238DF81BB00094FFF72AF93046102135
:1023E0000122FEF731FB013FDCD1304610210022F3
:1023F000FEF72AFB40F210170220C2F200078DF808
:102400001B000DF11B010DF11A0238460123009447
:10241000FFF70EF9049D0DF11B010DF11A0238466C
:1024200001238DF81B500094FFF702F9304610216C
:102430000122FEF709FB0C2D03D10D208021FFF7AF
:10244000DBFE40F210194FF4FA654FF088084FF0A8
:102450000A0AC2F200090DF11B0B0DF11A0700BFA9
:10246000304610210022FEF7EFFA484659463A4618
:1024700001238DF81B80CDF800A0FFF7D9F80020CC
:102480008DF81B00484659463A460123CDF800A076
:10249000FFF7CEF89DF81A40304610210122FEF7D2
:1024A000D3FA013D280439D005982042D8D00D2018
:1024B0008021FFF7DFFC3046102100224FF000089A
:1024C000FEF7C2FA40F210158C20C2F200058DF81A
:1024D0001B000A270DF11B010DF11A0228460123EA
:1024E0000097FFF7A5F80DF11B010DF11A02284620
:1024F00001238DF81B800097FFF79AF89DF81A507A
:10250000304610210122FEF79FFA15F01B0F0FD065
:102510000225284607B0BDE8F08F00BF0D208021BE
:10252000FFF7A8FC0225284607B0BDE8F08F00BFE2
:102530000398049920400C2900F00105E9D13046A8
:102540001021002210244FF00009FEF77DFA40F21E
:1025500010189420C2F200088DF81B004FF00A0AF0
:102560000DF11B010DF11A0240460123CDF800A028
:10257000FFF75EF80DF11B010DF11A024046012331
:102580008DF81B90CDF800A0FFF752F89DF81A7057
:10259000304610210122FEF757FA30461021002262
:1025A000FEF752FA98208DF81B000DF11B010DF17A
:1025B0001A0240460123CDF800A0FFF739F80DF1CB
:1025C0001B010DF11A02404601238DF81B90CDF836
:1025D00000A0FFF72DF89DF81A8030461021012247
:1025E000FEF732FA18F0070040EAC700A0F1080031
:1025F00008BFF800102F38BF3C46002F109908BFC5
:102600000124002C088084D0029840F2101BA0F115
:102610000108C2F2000B0DF11B074FF00A0A0DF181
:102620001A090595304610210022FEF70DFA922076
:102630008DF81B00584639464A460123CDF800A0C4
:10264000FEF7F6FF00208DF81B00584639464A4633
:102650000123CDF800A0FEF7EBFF9DF81A5030469D
:1026600010210122FEF7F0F9013C08F8015FD9D1F1
:10267000059D284607B0BDE8F08F0000FEE700008A
:10268000FEE70000704700002DE9F04182B01E46D1
:1026900090460D460446FEF7DDF9301A00EB0807B8
:1026A000FEF7D8F940F21401C2F200010968C1F343
:1026B000CB317943019121688A682A40AA4227D107
:1026C000064618F101001FD0FEF7C4F9801BB8427E
:1026D00022D2019801990028A1F1010101912168FC
:1026E000896808BF074601EA0500A842ECD00FE060
:1026F00088682840A8420BD188682840A84207D1A2
:1027000088682840A84203D188682840A842EFD0B2
:10271000002002B0BDE8F081D4E900014268B1F5C3
:10272000827F22F0E00242600AD1A168B1F5004F39
:1027300002D0B1F5806F03D1016821F04001016042
:10274000A16AB1F5005F07D1016821F40051016071
:10275000016841F400510160012084F8510000201B
:1027600084F85000032002B0BDE8F08170470000FB
:10277000FEF75ABB70470000FEE700002DE9F04766
:1027800040F27809C2F20009D9F80C00B0F57F7F59
:1027900018D100F0A5FD00200221002400F056FE13
:1027A00044F65410C0F6000000F0A0FE0120012104
:1027B00000F04CFEA8A000F099FE89F80440BDE8A6
:1027C000F08700BF0020002100F040FE44F6F10039
:1027D000C0F6000000F08AFE40F2000AC2F2000AD1
:1027E0000AF1060001F006FA00288AF8010018BF75
:1027F000BDE8F08740F60048C4F2010800F070FD23
:1028000040F20220AAF801000020012100F01EFE83
:1028100044F6C500C0F6000000F068FE40464FF4E4
:1028200000610122FEF710F9C820FDF7F5FE4046D1
:102830004FF400610022FEF707F9C820FDF7ECFE17
:1028400040464FF400610122FEF7FEF8C820FDF774
:10285000E3FE40464FF400610022FEF7F5F8C82081
:10286000FDF7DAFE4FF4FA70FDF7D6FE4FF47A70FA
:10287000FDF7D2FE00F034FD0020012100F0E6FD5E
:102880006AA000F033FE0120012100F0DFFD44F6D4
:102890003D10C0F6000000F029FE00F02FFA0128DC
:1028A0008AF803000AD000BFC0B33220FDF7B4FE9F
:1028B00000F024FA01288AF80300F5D1D9F80C6059
:1028C000311DF5B2A94252DD06F003004844027DF5
:1028D00040F26813C2F20003701CC4B2A1425A5500
:1028E00044DD04F003004844077DB01CC5B2A94292
:1028F0001F553BDD05F003004844077DF01CC4B2C2
:10290000A1425F5532DD04F0030048440436007DE7
:10291000F5B2A9421855DFDC29E000BF00F0E0FC69
:1029200000200121002500F091FD44F60210C0F6C0
:10293000000000F0DBFD0120052100F087FD43A031
:1029400000F0D4FD40464FF400610122FEF77CF810
:10295000C820FDF761FE40464FF400610022FEF7FB
:1029600073F8C820FDF758FE2AE000BF064647F27C
:102970000005C0F60105284689F80660FDF7D4FD7C
:1029800040F26811C2F2000128464FF47F72FDF751
:1029900019FE6420FDF740FE00F0A2FC002001219A
:1029A000002500F053FD25A000F0A0FD012001212D
:1029B00000F04CFD44F67910C0F6000000F096FDE2
:1029C00040464FF400610122FEF73EF8C820FDF7B3
:1029D00023FE40464FF400610022FEF735F8C82080
:1029E000FDF71AFE40464FF400610122FEF72CF875
:1029F000C820FDF711FE40464FF400610022FEF7AB
:102A000023F8C820FDF708FE4FF4FA70FDF704FE26
:102A10004FF4FA60FDF700FE00F062FC40F2022085
:102A200089F80450AAF80300BDE8F08750555420F7
:102A30004E45572043415244000000004144442089
:102A40004E45572043415244000000004841532066
:102A500045584953544544004D454D4F525920491E
:102A6000532046554C4C000070B540F26814C2F239
:102A7000000447F20000C0F6010021464FF47F72C7
:102A8000FDF766FD20780021FF281BD0032000BF42
:102A900041F00102D3B2E35CFF2B15D041F00202FA
:102AA000D3B2E35CFF2B11D041F00302D3B2E35C5D
:102AB000FF2B0CD00431CAB2A25C0430FF2AE7D14C
:102AC000033805E0002003E0023800E00138114639
:102AD00040F27804C2F20004A171E06000F00EF947
:102AE00040F20005C2F200050128E87052D000282B
:102AF00018BF70BD02262E7100F0F2FB00200121EC
:102B000000F0A4FC44F6B700C0F6000000F0EEFCB4
:102B100040F60044C4F2010420464FF40061012253
:102B2000FDF792FFC820FDF777FD20464FF40061C6
:102B30000022FDF789FFC820FDF76EFD20464FF407
:102B400000610122FDF780FFC820FDF765FD2046EA
:102B50004FF400610022FDF777FFC820FDF75CFD10
:102B60004FF4FA70FDF758FD20464FF480610122C2
:102B7000FDF76AFF41F28830FDF74EFD20464FF425
:102B800080610022FDF760FF2E70BDE8704000F00C
:102B9000A7BB00BFE06840F600440028C4F201046F
:102BA00048DD0220287100F09BFB0020012100F08D
:102BB0004DFC4FA000F09AFC20464FF4006101222A
:102BC000FDF742FFC820FDF727FD20464FF40061C6
:102BD0000022FDF739FFC820FDF71EFD20464FF407
:102BE00000610122FDF730FFC820FDF715FD2046EA
:102BF0004FF400610022FDF727FFC820FDF70CFD10
:102C000020464FF400610122FDF71EFFC820FDF7AA
:102C100003FD20464FF400610022FDF715FFC82098
:102C2000FDF7FAFC4FF4FA70FDF7F6FC40F6B83009
:102C300052E000BF00F054FB0020022100F006FC2F
:102C400044F65410C0F6000000F050FC01200021B2
:102C500000F0FCFB44F68610C0F6000000F046FCD5
:102C600020464FF400610122FDF7EEFEC820FDF77B
:102C7000D3FC20464FF400610022FDF7E5FEC8209A
:102C8000FDF7CAFC20464FF400610122FDF7DCFE8F
:102C9000C820FDF7C1FC20464FF400610022FDF77B
:102CA000D3FEC820FDF7B8FC20464FF40061012296
:102CB000FDF7CAFEC820FDF7AFFC20464FF40061C7
:102CC0000022FDF7C1FEC820FDF7A6FC4FF4FA7004
:102CD000FDF7A2FC4FF4FA60FDF79EFC00F000FB4C
:102CE0000420287040F20220A5F8030070BD00BF48
:102CF00057524F4E47204341524421002DE9F04F97
:102D000081B040F27806C2F2000606F134042620B3
:102D10002146FFF72BFAF0712046FFF75BF8716B45
:102D2000F071716140B140F20000C2F2000004791C
:102D3000204601B0BDE8F08F40F60045C4F2010521
:102D400028464FF4006101220124FDF77DFEC820D2
:102D5000FDF762FC28464FF4006100220025FDF7D4
:102D600073FEC820FDF758FC4FF4FA70FDF754FCD1
:102D7000F068042840DBC11700EB917096F814B09E
:102D800096F815A096F8169096F8178040F26817F6
:102D90004FEAA00C00234FF0040EC2F200070025FA
:102DA000AA000EEB8303D0B2834230D9385C584579
:102DB0001CD142F00100C1B28B4227D9795C514548
:102DC00015D142F00200C1B28B421FD9795C49454E
:102DD0000DD142F00300C1B28B4217D9795C414555
:102DE00005D10432D0B28342E0D810E0104601355C
:102DF000EBB29C453072D3DC40F20000C2F200001E
:102E0000B5710471204601B0BDE8F08F024640F272
:102E10000000C2F200000024B57132720471204635
:102E200001B0BDE8F08F00002DE9F04740F27808CE
:102E3000C2F20008D8F80C0040F2000A0028C2F2E2
:102E4000000A40F3A1800020002100F0FFFA44F6C0
:102E5000F100C0F6000000F049FB0AF1060000F0A6
:102E6000C9FE00288AF8010018BFBDE8F08740F6C7
:102E70000049C4F2010900F033FA40F20220AAF836
:102E800001000020012100F0E1FA44F6C500C0F67F
:102E9000000000F02BFB48464FF400610122FDF7D3
:102EA000D3FDC820FDF7B8FB48464FF4006100226F
:102EB000FDF7CAFDC820FDF7AFFB48464FF400619F
:102EC0000122FDF7C1FDC820FDF7A6FB48464FF4DF
:102ED00000610022FDF7B8FDC820FDF79DFB4FF40F
:102EE000FA70FDF799FB4FF47A70FDF795FB00F04F
:102EF000F7F90020012100F0A9FAA6A000F0F6FAE7
:102F00000120012100F0A2FA44F63D10C0F60000B5
:102F100000F0ECFAFFF7F2FE01288AF803000BD06C
:102F2000002800F099803220FDF776FBFFF7E6FEDF
:102F300001288AF80300F3D100F0D2F90020022121
:102F4000002500F083FA97A000F0D0FA01200621B6
:102F500000F07CFA44F60210C0F6000000F0C6FA59
:102F600048464FF400610122FDF76EFDC820FDF7D1
:102F700053FB48464FF400610022FDF765FDC82071
:102F8000FDF74AFBCEE000BF00F0AAF900200221C5
:102F90000025022700F05AFA44F65410C0F600004B
:102FA00000F0A4FA0120002100F050FA44F6861047
:102FB000C0F6000000F09AFA40F60044C4F20104A2
:102FC00020464FF400610122FDF73EFDC820FDF7C9
:102FD00023FB20464FF400610022FDF735FDC82099
:102FE000FDF71AFB20464FF400610122FDF72CFD8E
:102FF000C820FDF711FB20464FF400610022FDF7C9
:1030000023FDC820FDF708FB20464FF40061012294
:10301000FDF71AFDC820FDF7FFFA20464FF40061C6
:103020000022FDF711FDC820FDF7F6FA4FF4FA7003
:10303000FDF7F2FA4FF4FA60FDF7EEFA00F050F9FE
:103040000AF1010088F804508AF804700221017026
:103050008AF80310BDE8F08798F80600D8F80C103D
:103060008600F5B2A94234DD40F26812C2F20002D5
:103070000B1F4FF0FF3C00BF5019077946F00100CD
:10308000AB42C4B2D8BF6746A142575520DD1019E4
:10309000077946F00200A342C5B2D8BF6746A942ED
:1030A000175515DD5019077946F00300AB42C4B23D
:1030B000D8BF6746A14257550ADD1019043600797A
:1030C000A342F5B2D8BF6046A9421055D4DC00E057
:1030D000064647F20005C0F60105284688F8096053
:1030E000FDF722FA40F26811C2F2000128464FF4BF
:1030F0007F72FDF767FA6420FDF78EFA00F0F0F8B2
:1031000000200121002500F0A1F929A000F0EEF92E
:103110000120012100F09AF944F67910C0F6000070
:1031200000F0E4F948464FF400610122FDF78CFC01
:10313000C820FDF771FA48464FF400610022FDF700
:1031400083FCC820FDF768FA48464FF4006101226D
:10315000FDF77AFCC820FDF75FFA48464FF400619E
:103160000022FDF771FCC820FDF756FA4FF4FA7003
:10317000FDF752FA4FF4FA60FDF74EFA00F0B0F89E
:1031800088F804500AF10400022101708AF8031043
:10319000BDE8F08750555420594F555220434152B5
:1031A000440000004E4F2045584953540000000091
:1031B00044454C20544849532043415244000000A8
:1031C000B0B500F0ABFB40F27804FF28C2F2000477
:1031D00003D060716420FDF71FFA6079233821283D
:1031E0001DD8DFE800F0111C1C1C1C1C1C1D1C1C25
:1031F0001C1C1C1C1C1C1C1C1C1C1C1C1C1C1C1C0F
:103200001C1C1C1C435F6F5100F06AF840F2000167
:103210000020C2F20001022220808A700870B0BD36
:10322000207840F20005C2F2000550B1697941B939
:1032300001382070C1B2012000F008F9202000F010
:1032400033F96078002808BFB0BD29780229E6D19B
:10325000052894BF411EC11F012000F0F7F820206F
:1032600000F022F9607801386070B0BD00F038F8E5
:103270000020208040F20000C2F200000121017015
:1032800003202071B0BD00BF00F02AF8002020709C
:1032900040F20000C2F200000321017021710221FE
:1032A0008170B0BD00F01CF800202070012020715A
:1032B00040F20000C2F2000004210170022181707E
:1032C000B0BD00BF00F00CF8002040F200012070FB
:1032D0000220C2F20001042220710A708870B0BD81
:1032E0002DE9F04184B048F68C0040F2BC04C0F6F1
:1032F0000C00C2F2000402904FF0640802AA2046BB
:103300004E210423CDF80080FDF766FC42F62D1611
:103310004627C0F60D1603AD20464E212A4604234B
:103320000396CDF80080FDF757FC013FF4D104B0BF
:10333000BDE8F08170B582B03220FDF76DF940F242
:10334000BC0443F63C06C2F20004C0F60C06642539
:1033500001AA20464E21042301960095FDF73CFC6E
:103360000520FDF759F901AA20464E2104230196B4
:103370000095FDF731FC0120FDF74EF901AA20462A
:103380004E21042301960095FDF726FC0A20FDF747
:1033900043F942F62C00C0F60C00019001AA204629
:1033A0004E2104230095FDF717FC0A20FDF734F9A0
:1033B00042F62C00C8F68C00019001AA20464E214E
:1033C00004230095FDF708FC0120FDF725F940F6E0
:1033D0000C00C8F68C00019001AA20464E2104235F
:1033E0000095FDF7F9FB0120FDF716F940F60C00FA
:1033F000C1F61C00019001AA20464E21042300952D
:10340000FDF7EAFB0120FDF707F90120FDF704F9BC
:1034100040F60C00C6F66C00019001AA20464E2131
:1034200004230095FDF7D8FB0120FDF7F5F840F6E1
:103430000C00CCF6CC00019001AA20464E210423BA
:103440000095FDF7C9FB02B070BD0000012805D052
:10345000002808BF41F0800102E000BF41F0C00138
:1034600080B582B021F00F00090100F10C02083094
:103470008DF8050001F10C008DF8060001F108003F
:103480008DF8070040F2BC008DF804204FF0640C6A
:10349000C2F2000001AA4E210423CDF800C0FDF7BE
:1034A0009BFB02B080BD000080B582B000F0F0014F
:1034B000000101F10D0209318DF8051000F10D0137
:1034C00009308DF8070040F2BC008DF804208DF81B
:1034D00006104FF0640CC2F2000001AA4E21042332
:1034E000CDF800C0FDF778FB02B080BDF0B583B029
:1034F000017821B340F2BC04461E6427C2F20004E6
:1035000002AD00BF21F00F00090100F10D020930EA
:103510008DF8090001F10D008DF80A0001F1090094
:103520008DF808208DF80B0020464E212A460423F2
:103530000097FDF751FBB17801360029E2D103B0C5
:10354000F0BD000090B0FDF77DFC00240120CDE926
:103550000B44CDE9094406900A904FF4E0104FF473
:10356000803102250F9006A8CDE90714CDE90D5151
:10357000FDF7F2FD20B1EFF3108072B6FEE700BF59
:103580000F20CDE901054FF48060CDE9040401A8C6
:1035900002210394FDF7ECFC20B1EFF3108072B62A
:1035A000FEE700BF41F21800C4F20200016840F6D5
:1035B000004841F0100101600168C4F2010801F007
:1035C000100106910699016808F5806541F0200117
:1035D00001600168002201F020010691069901684E
:1035E0004FF4005741F0040101600168002401F02C
:1035F000040106910699016841F008010160006824
:103600004FF4005100F00800069006982846FDF798
:103610001BFAA8F58066304641F61061002241F69B
:10362000106AFDF711FA40464FF440610022FDF7A1
:103630000BFA069706AF4FF001094FF0020B284630
:103640003946CDE90794CDF824B0FDF7E9F83046C6
:103650003946CDE906A9CDE9084BFDF7E1F84FF46D
:103660004060CDE9060940463946CDE9084BFDF7F3
:10367000D7F848F2F00006A981E811024046394621
:10368000FDF7CEF840F2BC00A8F53841C2F20000C8
:1036900048F2A0624FF48043C0F2010280E81600B5
:1036A000C0E90343C0E90544C0E90744FDF7D8F980
:1036B00020B1EFF3108072B6FEE700BF40F21010A9
:1036C00008F51051C2F200004FF482724FF40073FB
:1036D000182780E816000A21C0E90344C0E9054321
:1036E000C761C0E90844C0E90A41FDF70FFF28B1EE
:1036F000EFF3108072B600BFFEE700BF40F278071C
:10370000C2F2000746F6004507F11904C0F60105AC
:10371000284621460622FCF71BFF05F50060FCF752
:103720004FFFB87005F54060FCF74AFFF870FEF7F0
:10373000FDFBFFF7FFFD00200321FFF787FE38A008
:10374000FFF7D4FE01200121FFF780FE37A0FFF72D
:10375000CDFE4FF4FA60FCF75FFFFFF7C1FD40F2CA
:10376000000644F6D50544F6E308C2F20006C0F6AA
:1037700000054FF00209C0F6000800BF00F05EF837
:10378000FFF71EFD3879022808D001280CD038B97F
:10379000FFF76AF9307803280BD9EFE7FFF744FB0E
:1037A0003078032805D9E9E7FEF7E8FF30780328E9
:1037B000E4D8DFE800F0070B290300BF00F07AFD32
:1037C000DCE700BF00F0F2FBD8E700BF00200121DA
:1037D000FFF73CFE2846FFF789FE204600F00AFA74
:1037E0000128707014D00028C8D14FF49670FCF7EF
:1037F00013FF00200121FFF729FE4046FFF776FE68
:1038000002203070BAE700BF00F0B6FAB6E700BF9A
:10381000FFF766FD042086F801903070AEE700BF28
:1038200057454C4C434F4D45000000004E484F4D0E
:103830002039202D204441434E000000B0B540F611
:103840000044C4F2010420464FF40041FDF7F6F8AD
:10385000002818BFB0BD00BF20464FF40041FDF75F
:10386000EDF80028F8D0FFF73BFD002001210025EE
:10387000FFF7ECFD44F6B700C0F60000FFF736FE98
:1038800020464FF400610122FDF7DEF8C820FCF766
:10389000C3FE20464FF400610022FDF7D5F8C82092
:1038A000FCF7BAFE20464FF400610122FDF7CCF888
:1038B000C820FCF7B1FE20464FF400610022FDF75E
:1038C000C3F8C820FCF7A8FE4FF4FA70FCF7A4FE7A
:1038D00020464FF480610122FDF7B6F841F28830AE
:1038E000FCF79AFE20464FF480610022FDF7ACF809
:1038F000FFF7F6FC40F20000C2F200004FF4017145
:1039000001800221817040F20221A0F8031040F2F0
:103910007800C2F200000571B0BD0000B0B540F6FD
:103920000044C4F20104A4F5806528464FF4805198
:103930000022FDF789F828464FF400610122FDF7C7
:1039400083F828464FF480610122FDF77DF8284670
:103950004FF400710122FDF777F820468021FDF732
:103960006DF8002800F0BC8020464021FDF766F885
:10397000002800F0BD8020462021FDF75FF80028D8
:1039800000F0BE8020461021FDF758F8002800F016
:10399000BF8028464FF480510122FDF755F8284694
:1039A0004FF400610022FDF74FF828464FF4806184
:1039B0000122FDF749F828464FF400710122FDF776
:1039C00043F820468021FDF739F8002800F0A88050
:1039D00020464021FDF732F8002800F0A98020465B
:1039E0002021FDF72BF8002800F0AA8020461021A6
:1039F000FDF724F8002800F0AD8028464FF48051F0
:103A00000122FDF721F828464FF400610122FDF75D
:103A10001BF828464FF480610022FDF715F8284670
:103A20004FF400710122FDF70FF820468021FDF7C9
:103A300005F8002800F0988020464021FCF7FEFFA2
:103A4000002800F09B8020462021FCF7F7FF00288B
:103A500000F09E8020461021FCF7F0FF002800F0C7
:103A6000A18028464FF480510122FCF7EDFF284643
:103A70004FF400610122FCF7E7FF28464FF4806114
:103A80000122FCF7E1FF28464FF400710022FCF709
:103A9000DBFF20468021FCF7D1FF002800F08C805E
:103AA00020464021FCF7CAFF002800F08F80204606
:103AB0002021FCF7C3FF002800F09280204610214F
:103AC000FCF7BCFF00281CBF0020B0BD2046102121
:103AD000FCF7B4FF00284FF04400F7D088E000BFA7
:103AE00020468021FCF7AAFF0028F9D03120B0BD84
:103AF00020464021FCF7A2FF0028F9D03420B0BDB9
:103B000020462021FCF79AFF0028F9D03720B0BDCD
:103B100020461021FCF792FF0028F9D02A20B0BDE2
:103B200020468021FCF78AFF0028F9D03220B0BD62
:103B300020464021FCF782FF0028F9D03520B0BD97
:103B400020462021FCF77AFF00284FF03800F7D0FC
:103B50004EE000BF20461021FCF770FF00284FF018
:103B60003000F7D044E000BF20468021FCF766FF1C
:103B700000284FF03300F7D03AE000BF2046402144
:103B8000FCF75CFF00284FF03600F7D030E000BFB4
:103B900020462021FCF752FF00284FF03900F7D0D3
:103BA00026E000BF20461021FCF748FF00284FF018
:103BB0002300F7D01CE000BF20468021FCF73EFF29
:103BC00000284FF04100F7D012E000BF204640210E
:103BD000FCF734FF00284FF04200F7D008E000BFA8
:103BE00020462021FCF72AFF00284FF04300F7D0A1
:103BF000B0BD0000F0B581B040F27806C2F2000618
:103C00000446707940F200053038C2F200050928F8
:103C10004FF00000687106D8317839B105290AD90A
:103C2000C8B206281BD0A87801B0F0BDFFF758FB3A
:103C300031780529F4D870797218D0770120FFF710
:103C400005FC44F6D300C0F60000FFF74FFC3078C7
:103C5000411C002031707071C8B20628E3D10027E2
:103C60003770FFF73DFBB7712078F17F884229D18B
:103C70000120B071607896F82010884222D102208D
:103C8000B071A07896F8211088421BD10320B07142
:103C9000E07896F82210884214D10420B07120797F
:103CA00096F8231088420DD10520B071607996F8FE
:103CB0002410884206D10620B0710020A870A87890
:103CC00001B0F0BD0120A870FFF70AFB0020002121
:103CD000FFF7BCFB24A0FFF709FC40F60044C4F248
:103CE000010420464FF400610122FCF7ADFEC8201C
:103CF000FCF792FC20464FF400610022FCF7A4FE82
:103D0000C820FCF789FC20464FF400610122FCF733
:103D10009BFEC820FCF780FC20464FF40061002287
:103D2000FCF792FEC820FCF777FC20464FF40061B8
:103D30000122FCF789FEC820FCF76EFC20464FF4F8
:103D400000610022FCF780FEC820FCF765FC4FF400
:103D5000FA70FCF761FC40F6B830FCF75DFCFFF749
:103D6000BFFAA87801B0F0BD57524F4E47205041DE
:103D70005353574F52442100F0B581B040F27807B9
:103D8000C2F200077879A0F13001092900F2FB8026
:103D9000797805291CD87A1882F826000120FFF7C7
:103DA00055FB44F6D300C0F60000FFF79FFB787880
:103DB0000130C1B2062978701AD1FFF791FA0020BC
:103DC0000121FFF743FB71A0FFF790FB78780FE02C
:103DD00006397A1882F82D000120FFF737FB44F6E8
:103DE000D300C0F60000FFF781FB787801307870CF
:103DF000C0B200250C287D7140F0C58040F600441B
:103E0000C4F20104FFF76CFA97F8260097F82D101A
:103E10007D70884257D197F8270097F82E10884276
:103E200048D197F8280097F82F10884244D197F886
:103E3000290097F83010884240D197F82A0097F867
:103E4000311088423CD197F82B0097F83210884205
:103E500038D1D7F826003D4645F8190FB5F81100BE
:103E600046F60046A8800020C0F6010605F8130CAF
:103E70003046FCF759FB304629460622FCF7A2FBE8
:103E80006420FCF7C9FBFFF72BFA00200421FFF7A1
:103E9000DDFA44F61A10C0F60000FFF727FB0120F8
:103EA0000221FFF7D3FA44F67910C0F60000FFF7BD
:103EB0001DFB2EE0012506E0022504E0032502E0BB
:103EC000042500E00525BD71FFF70AFA0020042152
:103ED000FFF7BCFA44F61A10C0F60000FFF706FB25
:103EE00001200021FFF7B2FA2CA0FFF7FFFA2046CD
:103EF0004FF400610122FCF7A7FDC820FCF78CFB02
:103F000020464FF400610022FCF79EFDC820FCF71C
:103F100083FB20464FF400610122FCF795FDC82089
:103F2000FCF77AFB20464FF4006100220025FCF7E5
:103F30008BFDC820FCF770FB20464FF40061012286
:103F4000FCF782FDC820FCF767FB20464FF40061B8
:103F50000022FCF779FDC820FCF75EFB4FF4FA70F5
:103F6000FCF75AFB40F20004C2F2000402264FF4B0
:103F7000FA60A670FCF750FBFFF7B2F94FF401703E
:103F8000A67020803D7101B0F0BD00BF434F4E468A
:103F900049524D20504153533A000000554E53555D
:103FA000434345535346554C4C5900002DE9F041CD
:103FB00088B000200021FFF749FABAA0FFF796FA6F
:103FC00040F27807C2F2000707F11900FFF712FE6E
:103FD00040F20006C2F200060128707068D0002886
:103FE00040F05C814FF49670FCF716FBFFF778F910
:103FF000002001210025FFF729FA44F6B700C0F69A
:104000000000FFF773FA40F60044C4F201042046B2
:104010004FF400610122FCF717FDC820FCF7FCFA01
:1040200020464FF400610022FCF70EFDC820FCF78B
:10403000F3FA20464FF400610122FCF705FDC82089
:10404000FCF7EAFA20464FF400610022FCF7FCFC82
:10405000C820FCF7E1FA4FF4FA70FCF7DDFA2046CD
:104060004FF480610122FCF7EFFC41F28830FCF74D
:10407000D3FA20464FF480610022FCF7E5FCFFF7FD
:104080002FF947F20044C0F601042046BD70FCF74A
:104090004BFAB9782046FCF7AFFA6420FCF7BCFA7B
:1040A000042030700220B07008B0BDE8F08100BF7D
:1040B000B87847F200440130C0F601044FF002081E
:1040C000B870204686F80280FCF72EFAB9782046B0
:1040D000FCF792FA6420FCF79FFAB8780328C0F046
:1040E000D680FFF7FDF8BA7844F66A1104ACC0F642
:1040F00000012046FCF76CF8C820FCF78DFAFFF7AA
:10410000EFF800200321FFF7A1F944F6AE00C0F656
:104110000000FFF7EBF901200121FFF797F9204696
:10412000FFF7E4F940F60044C4F2010420464FF4DE
:1041300000610122FCF788FCC820FCF76DFA2046DC
:104140004FF400610022FCF77FFCC820FCF764FA02
:1041500020464FF400610122FCF776FCC820FCF7F2
:104160005BFA20464FF400610022FCF76DFCC8208A
:10417000FCF752FA20464FF400610122FCF764FC80
:10418000C820FCF749FA20464FF400610022FCF7F2
:104190005BFCC820FCF740FA20464FF40061012286
:1041A000FCF752FCC820FCF737FA20464FF40061B8
:1041B0000022FCF749FCC820FCF72EFA20464FF4F9
:1041C00000610122FCF740FCC820FCF725FA2046DC
:1041D0004FF400610022FCF737FCC820FCF71CFA02
:1041E00020464FF400610122FCF72EFCC820FCF7AA
:1041F00013FA20464FF400610022FCF725FCC8208A
:10420000FCF70AFA20464FF400610122FCF71CFC7F
:10421000C820FCF701FA20464FF400610022FCF7A9
:1042200013FCC820FCF7F8F94FF4FA70FCF7F4F926
:10423000FFF756F8B878022100EB8000C000386123
:104240000020FFF703F944F64B10C0F60000FFF71B
:104250004DF93A69012A18DB44F65F14C0F60004F0
:104260006D4600BF28462146FBF7B2FF0120012121
:10427000FFF7ECF82846FFF739F94FF47A70FCF7AE
:10428000CBF93869421E3A61ECDCFFF729F84FF4AC
:1042900001703080002086F80280387108B0BDE8D7
:1042A000F08100BF454E5445522050415353574F63
:1042B00052443A002DE9F04F8BB000200021FFF767
:1042C000C5F844F6F100C0F60000FFF70FF940F220
:1042D0000008C2F2000808F106000290FFF78AFC0D
:1042E000012888F8010000F0B581002840F0A6827E
:1042F00040F2022040F6004A46F60047A8F80100C6
:1043000000200021C4F2010AC0F601074FF0000BA3
:10431000FFF79CF80FF22C50FFF7E8F8012003217B
:10432000FFF794F80FF22C50FFF7E0F807F5406420
:104330002046FCF7F9F840F27809C2F2000920465D
:10434000002189F803B00094FCF756F96420FCF7CB
:1043500063F950464FF400610122FCF775FBC82059
:10436000FCF75AF950464FF400610022FCF76CFB51
:10437000C820FCF751F950464FF400610122FCF7C8
:1043800063FBC820FCF748F950464FF40061002257
:10439000FCF75AFBC820FCF73FF94FF4FA70FCF722
:1043A0003BF94FF47A70FCF737F944F62E140FF20C
:1043B000B0450FF2C048C0F6000407F50060019058
:1043C00004E000BFFEF78CFF89F805B0FEF7F8FEA9
:1043D00000200021FFF73AF82846FFF787F8012070
:1043E0000021FFF733F84046FFF780F899F8050001
:1043F00030380928EAD8FEF773FF99F8050031280C
:104400007CD03228E2D150464FF400610122FCF703
:104410001BFBC820FCF700F950464FF40061002256
:10442000FCF712FBC820FCF7F7F84FF4FA70FCF722
:10443000F3F800200021FFF709F844F62110C0F638
:104440000000FFF753F801200121FEF7FFFF20468F
:10445000FFF74CF889F805B0FEF7B2FE99F80500B1
:10446000A0F130010929F7D83228ABD03128F3D197
:10447000FEF736FF3846FCF757F802993846062211
:10448000FCF7A0F86420FCF7C7F8019E3046FCF763
:104490004BF83046002189F802B0FCF7ADF86420F3
:1044A000FCF7BAF8DDF800B05846FCF73DF80020FC
:1044B00089F80300584600214FF0000BFCF79CF8E8
:1044C0006420FCF7A9F807F58060FCF72DF809F1E6
:1044D000190138460622FCF73BF84FF4FA60FCF766
:1044E0009BF800200021FEF7B1FF44F62110C0F632
:1044F0000000FEF7FBFF0120022166E050464FF46A
:1045000000610122FCF7A0FAC820FCF785F85046AC
:104510004FF400610022FCF797FAC820FCF77CF802
:104520004FF4FA70FCF778F800200021FEF78EFFB8
:1045300044F60B10C0F60000FEF7D8FF0120012161
:10454000FEF784FF2046FEF7D1FF89F805B000BFD3
:10455000FEF736FE99F80500A0F130010929F7D8D9
:1045600032283FF42FAF3128F2D1FEF7B9FE38469A
:10457000FBF7DAFF029938460622FCF723F864209D
:10458000FCF74AF8019E3046FBF7CEFF304600218B
:1045900089F802B0FCF730F86420FCF73DF809F127
:1045A000190138460622FBF7D3FF4FF4FA60FCF7F7
:1045B00033F800200021FEF749FF44F60B10C0F647
:1045C0000000FEF793FF01200021FEF73FFF44F6B5
:1045D0007910C0F60000FEF789FF50464FF40061E5
:1045E0000122FCF731FAC820FCF716F850464FF4C8
:1045F00000610022FCF728FAC820FCF70DF85046AD
:104600004FF400610122FCF71FFAC820FCF704F800
:1046100050464FF400610022FCF716FAC820FBF761
:10462000FBFF4FF4FA70FBF7F7FFFEF759FE99F81E
:10463000050040F20001C2F20001042231280A7094
:1046400089F804B07FF4C2AE002089F805000BB0F1
:10465000BDE8F08F40F27806C2F20006F178022041
:1046600088F80200481CF07046F60040C0F60100D1
:1046700000F540642046FBF757FFF1782046FBF732
:10468000BBFF6420FBF7C8FFF0780328C0F0D3809D
:10469000FEF726FEF27844F66A1107ACC0F6000178
:1046A0002046FBF795FDFEF71BFE00200321FEF7D9
:1046B000CDFE44F6AE00C0F60000FEF717FF012065
:1046C0000121FEF7C3FE2046FEF710FF40F600442E
:1046D000C4F2010420464FF400610122FCF7B4F952
:1046E000C820FBF799FF20464FF400610022FCF739
:1046F000ABF9C820FBF790FF20464FF40061012280
:10470000FCF7A2F9C820FBF787FF20464FF40061B1
:104710000022FCF799F9C820FBF77EFF20464FF4F2
:1047200000610122FCF790F9C820FBF775FF2046D5
:104730004FF400610022FCF787F9C820FBF76CFFFB
:1047400020464FF400610122FCF77EF9C820FBF7F8
:1047500063FF20464FF400610022FCF775F9C82082
:10476000FBF75AFF20464FF400610122FCF76CF979
:10477000C820FBF751FF20464FF400610022FCF7F0
:1047800063F9C820FBF748FF20464FF4006101227F
:10479000FCF75AF9C820FBF73FFF20464FF40061B1
:1047A0000022FCF751F9C820FBF736FF20464FF4F2
:1047B00000610122FCF748F9C820FBF72DFF2046D5
:1047C0004FF400610022FCF73FF9C820FBF724FFFB
:1047D0004FF4FA70FBF720FFFEF782FDF07802211C
:1047E00000EB8000C00030610020FEF72FFE44F691
:1047F0004B10C0F60000FEF779FE3269012A18DB83
:1048000044F65F14C0F6000403AD00BF28462146FD
:10481000FBF7DEFC01200121FEF718FE2846FEF71B
:1048200065FE4FF47A70FBF7F7FE3069421E326185
:10483000ECDCFEF755FD032088F800000BB0BDE866
:10484000F08F00BF50415353574F5244204D4153B6
:1048500054455200495320434F525245435400009F
:10486000313A52455345542050415353574F5244C7
:1048700000000000323A52455345542053595354D6
:10488000454D00000000000000000000010203048C
:1048900006070809000000000102030401020203E8
:1048A0000405060708090A0B0C0D0E0F10105741DE
:1048B000524E494E472100444F4F52204953204FFA
:1048C00050454E2100434F525245435420504153CE
:1048D0005321002A004F4C442050415353574F520C
:1048E000443A004E45572050415353574F52443A93
:1048F0000050415353574F5244204D415354455259
:104900003A005448452043415244005245534554CF
:104910002050415353574F5244004348414E47455E
:104920000052455345542053595354454D00313A94
:104930005945532020202020323A4E4F004F4E2020
:104940004E46432052454144455200574149542068
:10495000464F5200544845204341524427530025B6
:1049600064205345434F4E44530057524F4E472007
:1049700025642054494D45530053554343455353F3
:1049800046554C4C59004D454D4F525920495320E6
:10499000454D505459000000B8490008000000205F
:1049A0001800000028010008D04900081800002065
:1049B000780B0000440100080402020202013131B8
:1049C0003131313101000000100000000024F400FA
:04000005080000ED02
:00000001FF
